:020000040800F2
:100000000004002095010008CD3F0008970100087A
:100010009701000897010008970100089701000860
:100020009701000897010008970100089701000850
:100030009701000897010008970100089701000840
:100040009701000897010008970100089701000830
:100050009701000897010008970100089701000820
:100060007D4A0008970100089701000897010008E1
:100070009701000897010008970100086D4A0008E1
:1000800097010008970100089701000897010008F0
:1000900097010008970100089701000897010008E0
:1000A00097010008970100089701000897010008D0
:1000B00097010008970100089701000897010008C0
:0400C000D15800080B
:1000C40072B6244880F30888234880F30988022004
:1000D40080F31488BFF36F8F03F030FC03F03DF915
:1000E4001E481F491B4A914202DA08600431FAE7AC
:1000F4001C49194A914202DA08600431FAE71A49A4
:100104001A4A1B4B9A4204DA08681060043104321C
:10011400F8E700201749184A914202DA08600431CE
:10012400FAE703F00FFC03F00AFC144C144DAC4244
:1001340003DA216888470434F9E701F0EFFF114C32
:10014400114DAC4203DA216888470434F9E70F49BA
:100154000847000000040020000C002055555555A8
:10016400000000200004002038610008000C00207A
:10017400500D0020500D002070150020C000000814
:10018400C4000008C4000008C40000084539000881
:1001940096E700F000F8FEE7F0B544464D465646B3
:1001A4005F46F0B46B46CB60C3689D46F0BCA04686
:1001B400A946B246BB46F0BD62B6281CA047002043
:1001C40003F044FEFEE703F0A7FD024A024B13606E
:1001D400FEE7C04604ED00E00000008002B4714672
:1001E40049084900095649008E4402BC7047C0467C
:1001F40002B4714649084900095C49008E4402BCB6
:100204007047C04603B47146490840004900095A82
:1002140049008E4403BC7047002243088B4274D3C8
:1002240003098B425FD3030A8B4244D3030B8B42F3
:1002340028D3030C8B420DD3FF22090212BA030CFC
:100244008B4202D31212090265D0030B8B4219D3DD
:1002540000E0090AC30B8B4201D3CB03C01A5241FD
:10026400830B8B4201D38B03C01A5241430B8B4245
:1002740001D34B03C01A5241030B8B4201D30B032E
:10028400C01A5241C30A8B4201D3CB02C01A524155
:10029400830A8B4201D38B02C01A5241430A8B4218
:1002A40001D34B02C01A5241030A8B4201D30B0201
:1002B400C01A5241CDD2C3098B4201D3CB01C01A1B
:1002C400524183098B4201D38B01C01A5241430925
:1002D4008B4201D34B01C01A524103098B4201D313
:1002E4000B01C01A5241C3088B4201D3CB00C01A80
:1002F400524183088B4201D38B00C01A52414308F8
:100304008B4201D34B00C01A5241411A00D201461C
:10031400524110467047FFE701B5002000F0F0F8A5
:1003240002BDC0460029F7D076E7704703460B4369
:100334007FD4002243088B4274D303098B425FD3DA
:10034400030A8B4244D3030B8B4228D3030C8B4206
:100354000DD3FF22090212BA030C8B4202D31212EC
:10036400090265D0030B8B4219D300E0090AC30BC1
:100374008B4201D3CB03C01A5241830B8B4201D36E
:100384008B03C01A5241430B8B4201D34B03C01A57
:100394005241030B8B4201D30B03C01A5241C30ACF
:1003A4008B4201D3CB02C01A5241830A8B4201D340
:1003B4008B02C01A5241430A8B4201D34B02C01A2A
:1003C4005241030A8B4201D30B02C01A5241CDD2CF
:1003D400C3098B4201D3CB01C01A524183098B421A
:1003E40001D38B01C01A524143098B4201D34B0103
:1003F400C01A524103098B4201D30B01C01A524166
:10040400C3088B4201D3CB00C01A524183088B42EC
:1004140001D38B00C01A524143088B4201D34B00D5
:10042400C01A5241411A00D2014652411046704747
:100434005DE0CA0F00D04942031000D3404253404C
:1004440000229C4603098B422DD3030A8B4212D30C
:10045400FC22890112BA030A8B420CD3890192113E
:100464008B4208D3890192118B4204D389013AD07B
:10047400921100E08909C3098B4201D3CB01C01A50
:10048400524183098B4201D38B01C01A5241430963
:100494008B4201D34B01C01A524103098B4201D351
:1004A4000B01C01A5241C3088B4201D3CB00C01ABE
:1004B400524183088B4201D38B00C01A5241D9D2D6
:1004C40043088B4201D34B00C01A5241411A00D257
:1004D4000146634652415B10104601D34042002B53
:1004E40000D54942704763465B1000D3404201B5D2
:1004F400002000F005F802BD0029F8D016E7704787
:100504007047C046002B11D1002A0FD1002900D119
:10051400002802D00021C943080007B4024802A100
:100524004018029003BDC046D9FFFFFF03B46846DC
:1005340001B5029805F054FA019B9E4602B00CBC2A
:100544007047C04610B5002903D100F007F82030E9
:1005540002E0080000F002F810BDC0461C2101238F
:100564001B04984201D3000C10391B0A984201D392
:10057400000A08391B09984201D30009043902A270
:10058400105C40187047C0460403020201010101D7
:1005940000000000000000008021A02010B503220C
:1005A4000901C00504F02AFD8021A020032249018D
:1005B400C00504F023FD8022094B5202D96B0A4383
:1005C400DA63DB6B074B084A5968114080229205B5
:1005D4000A435A60602219680A431A6010BDC04673
:1005E40000100240006C0040FFFFFFCF10B5040074
:1005F40001230C43032C0AD80D2A08D80D334B438E
:10060400382141435B18034C9B185B001B5B1800AB
:1006140010BDC046B45B000810B5FFF7E7FF10BD7E
:10062400012070470120704710B5FFF7FBFF10BD94
:10063400012070470120704710B5FFF7FBFF10BD84
:100644007047704710B5FFF7FCFF10BD01207047DD
:100654007047704713B5019110496B4609780090B3
:10066400002915D15B798B420DD08A420BD000F062
:10067400B5FC04000100009800F084FC20000099FF
:1006840001F07EFA16BD009800F092FC0400F5E734
:10069400009800F0A3FC0099F2E7C046580D002032
:1006A40010B50400638800881B040A001843A1885D
:1006B400FFF7D0FF10BD10B504000121FFF7F0FFD4
:1006C4002100FFF7ADFF002806D001212000FFF72D
:1006D400E7FF2100FFF7A8FF10BD70B5002104005B
:1006E400FFF7DEFF05002100FFF7AAFF2800210025
:1006F400FFF7A8FF70BD70B501210400FFF7D0FF1C
:1007040021000500FFF794FF002801D1002070BDEF
:1007140021002800FFF790FF0028F7D021002800CF
:1007240002F0E4F90028F1D02100280002F0AAF830
:100734000028EBD02100280002F07AF80028E5D048
:100744002100280001F018FB0028DFD02100280038
:1007540001F024FB0028D9D02100280001F040FB3F
:10076400D5E70123834010B598B200F05EFB10BDBD
:1007740010B504000120A04080B201F01BF8200055
:10078400FFF7EFFF10BD0120704710B5FFF7FBFF27
:1007940010BD10B5040000F0F7FA2000FFF756FF73
:1007A4002000FFF7F2FF10BD10B50120FFF7F1FFA5
:1007B40002F0DEFB10BD10B50020FFF7EAFF02F0E7
:1007C400E7FB10BD10B5FFF743FF02F0DEFA00F0BF
:1007D4001CF810BD10B500F01DF8FFF73AFF02F049
:1007E400D9FA10BD01207047704770B5051CFFF79A
:1007F400F9FF041E02D0281CFFF7F6FF200070BD8D
:10080400704710B5FFF7F1FF10BD10B50020FFF7DA
:10081400F8FF10BD10B502F0C5F9FFF7F2FF10BDE7
:1008240010B502F0BFF9074B04001A78824207D0D2
:10083400187002F03FFB044B18602000FFF7E1FF43
:1008440010BDC046500D0020540D002030B50B0AD9
:1008540085B0DBB26C4600900191002B01D000F012
:1008640083FE00236A46D381009B02AD0293A388D2
:10087400AB80DBB2002B05D10298696800F0D4FD8F
:1008840005B030BD2800FFF716FF0028F4D1F7E7C4
:10089400037910B5012B02D1008800F0C1FB10BD13
:1008A40010B5041E11D0031FDBB2A02B0ED802F02A
:1008B400A1F9002804D0200002F0DCF900F0CCFEFD
:1008C400200002F0CDF900F0C7FE10BD0300203374
:1008D400DBB2072BF9D8072301201C40A040C0B28B
:1008E40000F01CFEEFE710B5002807D0031FDBB2B1
:1008F400A02B04D802F0BEF900F0AEFE10BD030038
:100904002033DBB2072BF9D807231840063B83407A
:10091400D8B200F00BFEEFE770B504000D00FFF74E
:10092400BFFF0120002D0ED000230A4A2800002119
:1009340005F02EF80023084A80185941FA220023B2
:100944009200FFF7DFFD03F086FA2000FFF7CBFFEC
:1009540070BDC046A0860100E7030000002110B569
:10096400392800D15031FFF7D7FF10BD10B500284A
:1009740003D000F0D3FD00F06FFE10BD10B50028C9
:1009840003D000F0D3FD00F067FE10BDF0B585B0D4
:1009940086790C1C4579029000F0B0FD36062304DC
:1009A400360F01900393002828D00195002D25D0FF
:1009B40023041B0E0F221900914340290FD0E1B2EA
:1009C4000A0000202032D2B20190072A16D91F2231
:1009D4009343202B03D1012910D986420ED0002243
:1009E400A84B01925B785B0708D5022000F060FEFB
:1009F40000F084FD01234340DBB201932304180F6C
:100A04000B283ED8FFF7FEFB0C000C0057005700E4
:100A14003D003D003D003D00B4000D0120012001DA
:100A240026052304360F1B0E0F2B00D93601E4B222
:100A3400002D12D0002E0BD023002033DBB2300067
:100A4400072B01D9002C05D100F068FD00F004FE4D
:100A5400200051E000F078FDF8E72000FFF743FFA5
:100A6400AE420ED023002033DBB23000072B01D975
:100A7400AC4202D100F05AFD01E000F06DFD00F03F
:100A8400EBFD019B002B00D194E000F02FFD01232E
:100A940002001A40184200D08CE0029B5A7100F008
:100AA4001FFD00F001FA029800F040F900F018FD73
:100AB40000F006FA7EE00F22230427051B0E3F0FE9
:100AC4009343202B00D03F01E4B2002C06D0012C2C
:100AD40036D0002D3FD0002E1CD0B9E7694B5B788F
:100AE4005B0713D4A5420AD0A74204D0380000F013
:100AF40015FD00F0B1FD0020FFF7D2FEC1E728008C
:100B0400FFF7F1FE002FBCD03800B3E7002D0BD067
:100B1400002E03D13800FFF729FFB2E7012EB0D130
:100B2400380000F041FDACE7AE42AAD13800FFF72F
:100B340025FF380000F046FD380000F021FDA0E755
:100B4400002D02D0052E9CD8E4E7042E99D8380055
:100B5400FFF714FF95E7AE42F9D00120392C01D1FB
:100B6400FA20400103F077F92000FFF7BCFE88E784
:100B740023049B019B0F28D19D4217D123065B0FB1
:100B84009B002207DBB2120F9A40E10602D50F2523
:100B94009D40ED4324051543A40FA8B2022C0ED0AA
:100BA400032C0FD0012C07D000F04EF901F0FAFF0E
:100BB400FFF727FE05B0F0BD00F03CF9F6E700F0C2
:100BC4004DF9F3E700F031F9F0E7A3059A0F002D92
:100BD4001BD0D207EAD523065B0F9B002207DBB2AA
:100BE400120F9A400020E10602D50F309840C0430E
:100BF40024051043A40F80B2022C0CD0032C0DD07A
:100C0400012C05D000F07EF9D0E7012ACED9E2E725
:100C140000F06EF9CAE700F07FF9C7E700F02EF99B
:100C2400C4E7E6B22405240F002D06D0200000F00E
:100C34003BF93000FFF79AFEB8E73000FFF79EFE5D
:100C4400200000F03DF9B1E7E7B23800F03804289D
:100C54003FD8FFF7CDFA03270F192300002D06D044
:100C6400042EA3D8E004C00E00F036F99EE7052E4A
:100C74009CD8F7E7E004C00E002DE2D100F014F98F
:100C840094E7C0462C140020002D04D0E004C00ECC
:100C940000F003F98AE700F0FBF887E71A4B5B786A
:100CA4005B0704D4E004C00E002DCAD0E6E7002D93
:100CB40005D0E0040321C00E00F0D8FC76E7012043
:100CC40000F0F6FC012E00D870E7022000F0F0FCE2
:100CD4006CE7002D08D0002E03D03800FFF7E0FDAC
:100CE40064E7E004C00EC9E7AE420AD00120392F00
:100CF40001D1FA20400103F0AEF83800FFF7F3FD0C
:100D040054E7E004C00E9CE72C14002070B50400E6
:100D14002188407900F08EF9051C00F007F900F0F5
:100D240083F8291C2000FFF731FE70BD037910B54C
:100D34000400002B11D0FFF7DEFC00280ED100F0D8
:100D4400DDFB002809D06379002B06D0074B5B78C4
:100D54005B0702D5022000F0ABFC10BD2000FFF7BA
:100D6400D5FF2000FFF7B9FCF7E7C0462C1400209C
:100D740010B500F0F9FB00F06FFC10BD10B501F0E8
:100D840083FFFFF7F5FF10BD10B500F0D7FBFFF7A9
:100D9400F5FF10BDC2B20004000F062817D00F23C0
:100DA40006280DD80E3003400020012B07D801205F
:100DB400F02A04D006D80020E7239342404170472C
:100DC4000630F0E7F43A50425041C0B2F7E7100061
:100DD400F13843425841E721002391425B411843D3
:100DE400EDE703000279002010B5824204D0188890
:100DF40000F016F9FFF7CEFF10BD82B002B07047C5
:100E040082B002B07047704710B5FFF7FCFF10BD09
:100E14007047000010B5FFF7FBFFFFF7F5FF014B2C
:100E2400188010BD780D0020704710B5FFF7F2FF51
:100E340010BD0000034B10B51B88184380B2FFF7A8
:100E4400E9FF10BD780D002010B5034B1B88184036
:100E5400FFF7E0FF10BDC046780D0020034B10B52E
:100E64001B88584080B2FFF7D5FF10BD780D0020D5
:100E7400704710B5FFF7FCFF10BD704710B5FFF7C2
:100E8400FCFFFFF7F6FF014B188010BD760D002024
:100E940010B50020FFF7F2FF10BD0123834010B509
:100EA40098B2FFF7EBFF10BD01238340034A10B54E
:100EB4001288134398B2FFF7E1FF10BD760D0020AE
:100EC40001238340034A10B51088984380B2FFF78A
:100ED400D5FF10BD760D002001238340034A10B5D1
:100EE4001288534098B2FFF7C9FF10BD760D002059
:100EF400034B10B51B88184380B2FFF7BFFF10BD2A
:100F0400760D002010B5034B1B881840FFF7B6FF81
:100F140010BDC046760D0020034B10B51B88584009
:100F240080B2FFF7ABFF10BD760D0020704770B59F
:100F34000125CB089B00D21807232E0019408E40B0
:100F440000210300CB40545C2B405B4263403340A0
:100F54005C40545401310429F3D170BD30B50724E9
:100F640000220440C00880000918012510008B5C91
:100F7400E3402B40934001321843C0B2042AF6D117
:100F840030BD000013B5030A01AADBB210800800CB
:100F9400032B09D811780D2906D80E246343C918E8
:100FA400024A89B2FFF7C3FF13BDC046590D0020A2
:100FB40007B5020A01ABD2B218800020032A09D86F
:100FC4001B780D2B06D80E2050431818024980B206
:100FD400FFF7C4FF0EBDC046590D0020F7B50F241E
:100FE40001270D4B0D4A1B88128801AE13439BB297
:100FF40030800093009B23413B4204D1013CF9D251
:1010040000252800FEBDE5B22800316800F0C8FDC7
:1010140080B20128F2D0F4E7760D0020780D00208C
:1010240007B501AB18800198FFF7D8FF019900F0CC
:10103400B7FD0EBD13B501AB19800E4B1B78002B09
:1010440003D00198FFF7ECFF16BD98420CD001982D
:10105400FFF7C4FF040001000198FFF793FF20008D
:10106400019900F09DFDEFE70198FFF7A1FF04004F
:10107400F5E7C046580D002070B507250B4B1C78CA
:101084000B4B1B78A34200D170BD0A4BE200D15A2E
:101094009B1858889A8800040843D98801340904A5
:1010A4001143FFF7ADFE2C40EAE7C0467A0D00205D
:1010B4007B0D00207C0D0020064B10B558881A8843
:1010C400D988000410439A8809041143FFF798FE55
:1010D40010BDC046BC0D0020F7B51D4883790F2B09
:1010E40031D84379002B2ED01A4A1B4B12781B7827
:1010F400019245780678194C019A934223D0D9007D
:101104000A191779002F1FD05778AF421CD1095DF7
:10111400B14219D15179002916D147885188BC466A
:101124006746C91B89B2C7290ED80F2410218379B9
:1011340023400B4383719379234019439171FFF743
:10114400F5FDFFF799FFF7BD072201331340D3E7FD
:10115400BC0D00207B0D00207A0D00207C0D0020AA
:10116400F7B50E4C0E4B24781B7801940D4C019D61
:10117400AB4201D10020FEBDDE00A5196F788F427D
:1011840005D1365D864202D16D79954203D107259A
:1011940001332B40EBE70120EDE7C0467B0D002037
:1011A4007A0D00207C0D0020F0B5050089B00622E0
:1011B400010004A804F0F2FC9A4C6E7923792A7990
:1011C400002B18D19A4200D1DDE09E4200D11FE1EC
:1011D4002800FFF706FE002800D119E108222900A3
:1011E400200004F0DBFC2000FFF752FBFFF774FF44
:1011F400FFF762FFC7E06B882F7803936379039945
:1012040002936388CB1A02999BB2002900D1D1E0E2
:10121400C72B00D991E0002A00D1B4E06B78627842
:101224000193A37901990F2B57D8914214D12278B5
:10123400BA4211D1002E4AD10F2213400132134376
:10124400A371FFF739FF2000FFF770FDA379AB719D
:101254000024200009B0F0BD002E38D132000199DD
:101264003800FFF77DFF320038000199FFF778FF5F
:101274000400B042ECD10498FFF7D2FEC3B20004DC
:101284000F21020F032A08D8012A0FD9000E0142A8
:1012940011D0AA790F2A0ED8DBE706320A40012AB8
:1012A4000ED92800FFF742FD029CD2E7000E01424E
:1012B40001D0002BCDD02033DBB2072BC9D9F0E706
:1012C400EF2BC6D90F33DBB2022BC2D9E9E70123D6
:1012D400544A91790B439371BAE791420ED1227823
:1012E400BA420BD1002E09D1AB712800FFF71EFDC5
:1012F40008222900200004F051FC79E72800FFF7B8
:1013040070FD002800D183E0002E00D180E0454B21
:101314009A791F2A0BD9198806A80180039941805C
:101324001B798271037100234371FFF7FFFC0822CC
:1013340029003C4804F032FC58E7A3790F2B0ED85F
:1013440004980599FFF759FD2000FFF7EFFC0822E8
:101354000021200004F01AFCFFF7AEFE78E7002A13
:1013640011D061786A7891420FD12278BA420CD1B7
:10137400002E0AD12800AB71FFF7D8FC08223100F7
:10138400200004F003FC012463E72800FFF729FD93
:1013940000283DD0002E3BD0A3791F2BC7D922882B
:1013A40006A80280039A4280227983710271002286
:1013B4004271BAE7C72B2FD88A42E4D08E4227D095
:1013C40062786B789A421AD12378BB4217D1A379F9
:1013D400DA070ED40F2B0CD90F22AB719343F02BE9
:1013E40083D00F21AB791A09013212010B40134348
:1013F4007AE708222900200004F0D0FBC3E7280084
:10140400FFF7EFFC002892D10123A2791343A371C3
:101414002800FFF78BFCB6E704980599FFF7EDFC6D
:1014240095E7C046BC0D0020F0B585B00090684635
:101434006C460191FFF7B8FE2379071E244E254D13
:101444000CD0002B03D000980199FFF7D9FC072793
:1014540028783378834222D105B0F0BD02AA03CCA8
:1014640003C2BB42F3D0072233785C1C14402A78B1
:1014740094420AD01848DB000822C01802A904F0DC
:101484008DFB3470FFF7F8FDE1E7FFF77DFC0822E0
:101494003900124837702F7004F078FBD7E70E4CF0
:1014A400C0000019FFF780FE0028D5D02B78DB00A0
:1014B4001A5BE4186088E188A388000409041943CE
:1014C4001043FFF79DFC2B7801333B402B70BFE7A3
:1014D4007B0D00207A0D00207C0D0020BC0D002027
:1014E400014B1878C0087047CC0D00200720024B30
:1014F4001B7818407047C046CC0D00200720034BD2
:101504001B781840431E9841C0B27047CC0D002090
:10151400014B18787047C046D80D0020024B1A784A
:10152400104318707047C046D80D0020024A137843
:10153400834313707047C046D80D00200022014B2E
:101544001A707047D80D0020024B1A781043187097
:101554007047C046D70D0020024A137883431370A6
:101564007047C046D70D00200022014B1A70704707
:10157400D70D0020704710B5FFF7FCFF10BD000029
:1015840010B5054A1378184204D083431800137029
:10159400FFF7F1FF10BDC046CD0D0020704710B518
:1015A400FFF7FCFF10BD0000010010B5044A1378DA
:1015B4001940814203D003431370FFF7F0FF10BDBD
:1015C400CE0D002010B5054A1378184204D0834389
:1015D40018001370FFF7E3FF10BDC046CE0D0020C6
:1015E40010B5044B1A78002A03D000201870FFF7B6
:1015F400D6FF10BDCE0D002070B5124A124B1478E0
:101604001B78124D1C43124B2E681B78002B06D0FE
:101614001C4301F0DFFA002801D0FFF7E1FF34702A
:101624002C68082220000B4904F0A2FA002807D0F5
:1016340008222100074804F0B1FA200001F0BEFAA4
:1016440070BDC046D80D0020D70D0020000C00202E
:10165400CE0D0020C40D002010B5FFF7CDFF10BD46
:10166400704710B5FFF7FCFF10BD0000094B10B523
:101674005B785B070AD5084CC30019432170FFF758
:1016840013FC2078C008FFF7ECFF10BDFFF70CFC3B
:10169400FBE7C0462C140020CC0D0020002010B520
:1016A400024B1870FFF7DDFF10BDC046CC0D0020C3
:1016B40010B5094A13781900814311704A070AD1F9
:1016C400994208D0054B5B785B0704D5C808FFF73F
:1016D400F7FBFFF7E3FF10BDCC0D00202C14002016
:1016E4000A4910B54B785A07D20F82420CD0012216
:1016F4000240042092008343134308004B7000F01F
:1017040061F80220FFF7D4FF10BDC0462C1400205E
:10171400044B10B5587801234007C00F5840FFF719
:10172400DFFF10BD2C14002010B50120FFF7D8FFF7
:1017340010BD10B50020FFF7D3FF10BD10B5002079
:1017440000F0BDFB10BD10B5002000F0B2FBFFF7A8
:10175400F5FF10BD07B500F061FB00F071FB6A46B0
:1017640000236846137000F086FB0120064B1880A6
:1017740000F08CFBA0236A465B0101A8938000F073
:1017840092FBFFF7E0FF07BD780D002010B5FFF7CF
:10179400E1FF10BD10B500F05BFB10BD10B500F00B
:1017A40043FB10BD10B500F05FFB10BD10B500F099
:1017B40068FB10BD10B500F069FB10BD10B500F05A
:1017C4006BFB10BD10B500F06EFB10BD10B500F042
:1017D4007CFB10BDF7B501F0ABFB094D06002B886F
:1017E40083420BD06C460027278001F0A1FBA78021
:1017F400608000980199FFF729F82E80F7BDC04654
:10180400DA0D002010B501F055FB024B1860024BB5
:10181400186010BDE00D0020DC0D002070477047FB
:1018240010B5FFF7FCFF10BD704710B5FFF7FCFFC4
:10183400FFF7F6FF10BD704710B5FFF7FCFF10BDB2
:10184400704710B5FFF7FCFFFFF7F6FF10BD01204E
:101854007047000010B5054800F040FB00F0D4FCD0
:10186400FFF7DCFFFFF7E1FF10BDC046791D00085C
:101874000120704710B5FFF7FBFF10BD704770479C
:10188400704710B5FFF7FAFFFFF7F9FFFFF7F8FF0E
:1018940010BD000010B5FFF781FF002801D1FFF74C
:1018A40075FF0848FFF77EFF0748FFF787FF00F042
:1018B400BBFFFFF77BFFFFF7B8FA044B1888FFF76D
:1018C400D8FA10BDE40D00202C140020760D002061
:1018D40010B501F0EBFA00F0ABFBFFF7DBFF01F012
:1018E4005FF9FEF78DFFFFF7ACFF10BDF0B589B0CF
:1018F400FFF7ADFF002807D1FFF76CFF01F051F9A6
:10190400FEF78EFF09B0F0BD00F0A8FB314F0024B4
:101914003D0020000134E4B22E8800F0EFFA042CDC
:1019240054D002358642F4D02B4B1B789B0701D54B
:1019340000F0EAFAFFF79EFF00240590200000F073
:10194400DDFA3B8802000290984237D05A400123C6
:10195400002504920193019B049A13409BB2002B2F
:1019640023D0029A019B13409BB25A1E9341DBB2CF
:101974000393059B002B13D02900200001F028FAC3
:1019840000280DD106AE3570747001F0D1FA012330
:101994003371039B7080737106980799FEF756FFA5
:1019A40029002000039A01F01FFA019B01355B0016
:1019B400EDB201930E2DCED1029B3B800134E4B2F3
:1019C4000237042CBAD1FFF71DFF97E78642ABD14B
:1019D40092E7C04624140020E40D002070B500F006
:1019E400E9F8A4230400DB0198423ED2A022D201EC
:1019F400904200D389E0E72812D8DF2806D8A4282B
:101A040006D8032802D8013C63425C41201C70BD07
:101A14000300CD3B9BB21443122BF7D90024F5E706
:101A24008023DB01984216D28026B601B0427CD2D4
:101A3400431EFF3B013EFF3E9BB2B342EED2000A7F
:101A4400C0B200F049F90502E0B200F0B3F8354045
:101A540028430400DAE7C0B200F0ACF8F0231B011D
:101A64002340394C18430443D0E7A523DB019842B3
:101A74001DD2364B984235D8354B98420DD8354B4C
:101A840098422AD80322C4B2A3081440023AA240BE
:101A94005B01314C13431C43B8E70321012201408D
:101AA4008A40C3065B0F5B012C4C1343F3E72C4BBA
:101AB400984207D81F202B4B20409C421CD82A4C0C
:101AC4000002D0E7294BC3189BB21F2BA6D8F822DB
:101AD40003025201264C1340DDE71F230340254C2B
:101AE4001B02D8E70321012201408A40C3065B0F91
:101AF4005B01214C1343CEE700F0EEF8F823802479
:101B040000025B011840A401ADE71F20204000F053
:101B1400E3F8E3051B0F02001B02C00602D5FF21F8
:101B240012010A40154C1343B5E7C004C00E00F07F
:101B3400D3F80502E0B200F03DF8F82334005B016D
:101B44001D4005432C4361E700A0FFFF5F520000E6
:101B54003F5200001F520000008DFFFF008CFFFF6A
:101B6400BF5200009F520000F4A0FFFF40ADFFFFF2
:101B7400F0A0FFFFF1A0FFFF008AFFFF0090FFFF2E
:101B840007B50B0A01AA1180D9B20023032905D88D
:101B940012780D2A02D8FEF73FFD030018000EBD8F
:101BA40007B501AB19800199FFF7EAFFFFF716FFAC
:101BB4000EBD0000030010B5E7280AD8DF280AD8B4
:101BC400312800D173E00FD8292866D02A2800D103
:101BD40074E0180010BDE0380728FAD8FEF7FEFAC2
:101BE40018F927303DF9474C392808D0822806D007
:101BF4003528EED1374A12789206EAD506E0354AFE
:101C04001178890761D152781207E2D52923E0E7D8
:101C140030480121027814000C400A4245D1407832
:101C24000142D6D02300D206D3D4E323D1E7294AF4
:101C340012785107CDD50023D206CAD4E333C8E7BE
:101C44002449E2230A785007C3D4012004004978C8
:101C5400023B0C400842E5D0BBE71E4A5178890795
:101C6400B7D512780023D206B3D4E733B1E7194AC3
:101C740012781107F6D4ACE71649E6230A78100760
:101C8400A7D4022004004978023B0C400842A0D1AA
:101C94002300D2069DD4E7239BE70E4A11788906D8
:101CA40015D45278120700D493E7392391E7094AEF
:101CB4001278520600D48CE72A238AE7054A127860
:101CC400520600D485E7312383E7E02381E73523F7
:101CD4007FE7C0462C14002030B5254C21784B07F3
:101CE4000DD514220240043A53425A4118230340AA
:101CF400083B5D426B419A4201D00C2358400B07CC
:101D04000DD514220240143A53425A411823034079
:101D1400183B5D426B419A4201D00C2358406478D1
:101D2400E3070DD511220240013A53425A411823C8
:101D34000340083B5D426B419A4201D0092358405D
:101D4400A4070DD511220240113A53425A411823D7
:101D54000340183B5C4263419A4201D00923584036
:101D6400C90603D5030701D51823984330BDC046DF
:101D74002C14002000207047074B10B5C318012411
:101D84001F2B06D84C79002C03D11F231840FEF7D3
:101D9400EFFC200010BDC04620ADFFFF4B7910B50D
:101DA400002B14D00B4A90420ED00B4A904204D020
:101DB4000A4A904205D0180010BDFFF7A9FC002381
:101DC400F9E7FFF7B1FCFAE7FFF7B3FCF7E7012304
:101DD400F1E7C0465B7C00005C7C00005A7C00009C
:101DE4004B7910B5002B12D00A4A90420CD00A4A03
:101DF400904207D0033A904202D1FEF7D5FC00236B
:101E0400180010BDFFF7C6FCFEF7D5FCF7E7012369
:101E1400F6E7C046017C0000037C000010B50020FA
:101E240000F0F6F910BD000010B5002000F098F99C
:101E3400024BC01843425841C0B210BD1D01FFFF00
:101E440010B50020014900F0C7F910BDE3FE000001
:101E540010B5002000F0DCF90020024900F0BCF9C4
:101E640010BDC046FFFF000010B50400022000F0C2
:101E74006BF9207010BD10B50178022000F0A0F9B4
:101E840010BD10B5032000F05FF910BD10B5C1B24C
:101E9400032000F095F910BD10B50400042000F0F3
:101EA4005FF9208010BD10B50188042000F094F97A
:101EB40010BD10B501000F2000F09AF910BD10B547
:101EC4000100132000F094F910BD10B501000E209C
:101ED40000F076F910BD002070470000014B186037
:101EE4007047C046040C0020704710B5FFF7FCFF94
:101EF40010BD704710B5FFF7FCFF10BD014B40004B
:101F0400C05A704736140020704710B5032001F002
:101F1400A2FF10BDC046C046C046C046C046C0462B
:101F2400C046C046C046C046C046C046C046C0467D
:101F3400C046C046704710B5FFF7E7FF10BD10B5A7
:101F440072B60F23020001211A40914098432022C7
:101F540003F054F862B610BD70B50A4C0A4D2068FF
:101F6400431C01D0FFF7EBFF0434AC42F7D1074C1C
:101F7400074D2068431C01D0FFF7E1FF0434AC4255
:101F8400F7D170BDAC5D0008BC5D0008745D00084D
:101F9400AC5D0008F7B5244B8A00D3580D000190BE
:101FA4005A1C3FD072B601240F2726001A003B406A
:101FB4009E40BA43009231002200009803F01EF8BC
:101FC400009B5E8362B6FFF7A5FF00260E22A4469F
:101FD40016480023016800934B1C09D00B00BB4337
:101FE4001B693940CB4061460B40013B23400093C1
:101FF400009B013A1E43D2B2B6B264000430002AF8
:10200400E7D1094BAA00D058431C01D0FFF797FF32
:1020140031004B1E99412800C9B2FFF78CFF019B88
:102024006D005E53F7BDC046AC5D0008745D0008EA
:1020340010B5FFF791FF08220021064803F0A6FD22
:1020440008220021044803F0A1FD00F035F8FFF751
:102054004CFF10BD361400202E14002037B5082282
:102064000021684603F092FD0024210001346846F3
:10207400E4B2FFF78FFF042CF7D1082269460C481D
:1020840003F076FD05006B1E9D41EDB2002804D0DF
:1020940008226946064803F081FD2A0005490448E0
:1020A40000F00CF80400FFF725FF20003EBDC046F9
:1020B4002E1400203614002070470000F7B50700E6
:1020C400141E124D019107D001232B7000F0F2FE73
:1020D4000F4B18600020FEBD2E789642FAD00C4BB0
:1020E400186800F096FE0428F4D9082239000198F3
:1020F40003F03EFD002805D008223900019803F0C2
:102104004DFD3400002320002B70E4E7EC0D00208B
:10211400E80D002010B5FFF7E9FB10BD10B500F085
:1021240097FE01F028F9FFF795FB01F029F9FFF775
:10213400CFFB01F033F901F039F9FFF7EBFF01F0C0
:1021440053F9FFF79EFBF6E713B56B46DC1D00233E
:10215400010001222000237000F05EF8207816BDF3
:1021640013B56B469C1D002301000222200023802E
:1021740000F052F8208816BD002307B5010001A81D
:102184000422019300F048F801980EBD07B56B4690
:10219400D97101220100D81D00F045F807BD07B52B
:1021A4006B46D98002220100981D00F03CF807BD5F
:1021B40007B504220191010001A800F034F807BD1D
:1021C40070B50D000400FFF7BFFFA84203D029003B
:1021D4002000FFF7DBFF70BD70B50D000400FFF7B2
:1021E400BFFFA84203D029002000FFF7D8FF70BD2D
:1021F40070B50D000400FFF7BFFFA84203D029000B
:102204002000FFF7D5FF70BD10B500F041F910BDF7
:1022140010B500F045F810BD0B0010B50100180012
:1022240000F056F810BD0B0010B50100180000F0C6
:10223400C9F810BD802210B5054C00212000D20041
:1022440003F0A4FC81238022DB00D200A35010BD44
:10225400F00D002070B5064D064C02202B5D002BBE
:1022640005D100F08BF9002801D00120285570BD5C
:10227400F00D00200404000070B5074D074C022344
:102284002A5D002A06D000F0CBF9031E02D00023F9
:102294002B550133180070BDF00D0020040400001C
:1022A40070B5FFF7D7FF041E03D1FFF7E5FF200049
:1022B40070BD00F06FF90500FFF7BCFF012C04D1DD
:1022C400FFF7DAFF431E984105402C00EFE70000BA
:1022D40070B50C00802185180023C9008D4205D8F3
:1022E40003490918200003F059FC0123180070BDAC
:1022F400F00D0020F8B506000F0015000024AC42D4
:1023040001D10120F8BDE0003918301800F0F6F9C9
:102314000028F7D00134F2E7F8B506000F001500E5
:102324000024AC4201D10120F8BDE0003B180CCBE5
:10233400301800F053F90028F6D00134F1E700001A
:1023440070B500F027F90024A04222D0FFF782FFE5
:10235400114D0600802229002000FFF7DDFFA04276
:102364000ED080210D4A0E4B2800C90000F0FEF962
:10237400020080200B00C00000F030F94400E4B2F9
:10238400012E01D1FFF778FF80238122DB00D200E8
:10239400EA50200070BDC046F00D002025232284A1
:1023A400E49CF2CB80218022054BC9005B580120BC
:1023B40010B51201934201D3FFF7C2FF10BDC0460E
:1023C400F00D00208023F0B5150087B082180600B8
:1023D4000191DB009A4215D82C4F2A00C719390005
:1023E400019803F0C5FB012400280CD02A000199B0
:1023F400380003F0D3FBFFF72DFF039000283FD1F3
:10240400FFF73AFF0024200007B0F0BD2F00052D90
:1024140000D9052700230024049305948024730322
:10242400F9005B0F04AA0B431370330A537004AB17
:1024340001999670D81C3A0003F0B0FB049A059BEE
:102444001249E4000859029100F0C8F8002808D1A4
:102454000400039B012BD6D1FFF70EFF0028D1D037
:10246400D1E7029B029A1B5908331351FFF79AFFD5
:1024740004000128EDD1019BED1BDB19F619019332
:10248400002DC3D1FFF78EFFE2E7C046F00D002018
:10249400F0B585B0FFF7CEFE00F0CAF8002805D1EC
:1024A400FFF7C8FE0024200005B0F0BD304D8022A7
:1024B40029000020FFF71EFF00284BD080212D4B60
:1024C4002D4A2800C90000F051F9060080200C00B4
:1024D400C00002A900F012F9029BB34202D1039B8F
:1024E400A34201D0FFF7A6FE8124E0268027E40062
:1024F400F602FF006946200000F000F9002821D010
:10250400009B019A190011431BD00392DAB20834DC
:102514000293910921D1FF21090219401B021004E1
:102524001B0E194330400843D2088318BB4214D809
:102534000B212818694403F031FB80231B019C42C2
:10254400D8D101208023DB00EC50002808D0FFF70D
:1025540029FF07E0FFF76EFEA2E78023DB00EC50C3
:10256400FFF7EEFE041E9ED1FFF764FE9BE7C04614
:10257400F00D0020E49CF2CB2523228410B5002129
:10258400034801F0A5FE43425841C0B210BDC04605
:10259400C0140020F8B5002601250D4B1B68B3427A
:1025A40001D82800F8BD0B4F0B4B38681968036835
:1025B40071185B6998470400386802F0E5F9012254
:1025C40000230443E4B2A2425B41B6181D40E4E791
:1025D400080C0020FC1100200C0C002013B5009204
:1025E40001930C4B19680C4B41181B78002B05D038
:1025F400009A019BD243DB4300920193074B0822CC
:1026040018680368DC686B46A04743425841C0B26F
:1026140016BDC046100C0020FA110020FC11002049
:1026240010B5024801F05FFE012010BDC014002067
:10263400F7B5274B274D2B60FFF7F2FF2868036897
:102644005B6898470121244B02781E68234BB6022D
:102654001E40234B0A401A7083680400002B02D1E9
:10266400204801F0A7F9A4680194013C21002868DE
:1026740002F0AAF9B0420AD20026019BB3420CD15F
:10268400184801F097F9184801F094F91DE0002C5E
:10269400EAD1164801F08EF9E6E7631CF3D0144F33
:1026A400210028683C6002F09DF980233618013C23
:1026B4001B019E42F1D33968019A0E4B521A2868C5
:1026C4001A6002F081F90C4B18600120FEBDC0466F
:1026D400C0140020FC110020E075FF1F00FC0F0057
:1026E400FA110020BC5D00083D5E00081A5E000877
:1026F4000C0C0020080C0020100C0020164BF7B521
:102704000C001968154B4118186802F079F9012377
:102714000021134D84462B70124B13481E780B0076
:10272400F2B2002756429F41634600960197009AF1
:102734001B68017053406246297056680578019AF7
:10274400564001228D4203D00B000E000A00017096
:10275400100048C4FEBDC046100C0020FC1100202F
:10276400F9110020FA110020F8110020F0B54718E3
:1027740006001900100089B0B74201D809B0F0BDB5
:1027840033784A01DBB243401C001B020793002349
:102794000693E30E9B180193630112220093200019
:1027A40000230D0003F0F4F8009A019B80185941AE
:1027B40000196941EA01630E9B180393E301029334
:1027C400029A039B801859412A02230E9B180593F1
:1027D40023020493049A059B80185941069A079B87
:1027E400013680185941C7E710B5FEF7D3FF10BD75
:1027F40010B50020FFF782FB0123184010BD000034
:1028040010B5FFF72BFC074801F025FBFFF726FC6A
:10281400FFF7EEFF002803D0FFF7E6FF00F0A8FB68
:1028240010BDC046B80B000010B5FFF7E9FF10BD9E
:10283400124A10B501230C00904214D1FEF768FE31
:1028440063790F4A002B10D0AA2303401900481EB5
:10285400814129201170002B00D00C3000F000FAC7
:10286400FEF7FAFE0023180010BD13782920002B70
:1028740000D00C3000F0FEF9F2E7C046167C0000F0
:102884000012002070B505004879002800D1CBE083
:10289400664BEB18222B00D9A9E0654C2000FEF70B
:1028A4008DFF644BE818212812D8FDF7A1FC3DAB3D
:1028B40046191C491F4C5528A32B582E5B85315EA5
:1028C4008D37656B224F25523A687897A11541B42C
:1028D4000123227813434DE00823627813432AE04E
:1028E40002232278F6E704232278F3E708232278E8
:1028F400F0E701236278F1E702236278EEE7102320
:102904002278E7E720232278E4E740232278E1E7EE
:10291400FEF73AFA802322785B42DBE70C23227825
:10292400D8E703236278D9E701222378934321E08F
:10293400082263789343637053E002222378F5E717
:1029440004222378F2E708222378EFE70122637850
:10295400F0E702226378EDE710222378E6E72022ED
:102964002378E3E740222378E0E7FEF70DFA7F229D
:1029740023781340237034E00C222378D6E7032213
:102984006378D7E70122042023785907C90F8A43C3
:10299400910083430B430821D2008B439AE7012122
:1029A40008006378DA07D20F904302228B43034373
:1029B400410093430B43BEE7012223785906C90F14
:1029C4008A4392014021E8E7FEF7DEF901222378E9
:1029D400D9094A407F21D2010B407BE70120FEF751
:1029E400F5FE2000FEF7EEFEFEF7CEF9002070BDE6
:1029F4000020F4E701222378D906C90F8A43120183
:102A04001021CAE7012108002378DA07D20F904386
:102A14008B430343AEE7012263781907C90F8A4346
:102A24000821D2008B4359E70120E0E70090FFFF23
:102A34002C140020FF8FFFFFF8B5140042791D000D
:102A440006AB1F78274B002A11D01C7000F070FAD7
:102A5400254B188023002033DBB2072B06D807232D
:102A6400012023409840C0B2FDF780FFF8BD1E78D6
:102A7400A6422DD11C4B188800F0C4F9C72827D8CA
:102A84002C002034AE4215D033002033DBB2072BA8
:102A940006D8072301201E40B040C0B2FDF76EFFE8
:102AA400E3B2072B06D8072301202B409840C0B27D
:102AB400FDF75CFF3800E4B2FDF750FF072CD5D8D2
:102AC400072301201D40A840C0B2FDF757FFCDE702
:102AD40023002033DBB2072BC8D8072301201C4076
:102AE400A040F1E70412002002120020204B13B58D
:102AF400C0180C00062833D8FDF77AFB141A040E0C
:102B040020262C0026230093BB331A0019492000E9
:102B1400FFF792FF002016BD27230093BE331A004F
:102B24001549F4E72623E02200931449BB33EEE76A
:102B34002723E42200931249BE33E8E72623E22246
:102B440000931049BB33E2E72723E62200930E49A2
:102B5400BE33DCE72823E52200930C49273BD6E764
:102B64004B79002B02D00022094B1A700120D2E7C6
:102B7400E883FFFF1A7C00001B7C0000187C000027
:102B8400197C00001C7C00001D7C00001E7C0000E1
:102B940004120020014B18607047C0460812002040
:102BA40070477047044B10B51B68181E03D01B6890
:102BB400181E00D0984710BD08120020044B10B511
:102BC4001B68002B03D05B68002B00D0984710BD16
:102BD400081200200020064B1B689A1C0833117849
:102BE400002901D00130C0B201329A42F7D17047B6
:102BF400000C0020031E0AD0074B1B689A1C0833E4
:102C04001178814205D001329A42F9D1002318008B
:102C140070470123FBE7C046000C0020012200237B
:102C240070B55242851CEC5C8C420BD0561C02D110
:102C3400002C00D15AB20133062BF4D1531C01D01D
:102C44008018817070BD002210B5831C08301C7878
:102C54008C4200D11A7001338342F8D110BD0000B8
:102C640010B5034B01001868FFF7D8FF10BDC0462C
:102C7400000C002010B5034B01001868FFF7E3FFB8
:102C840010BDC046000C002010B5044B0622186885
:102C94000021023002F07AFF10BDC046000C002073
:102CA40082B002B0704707B5FFF7FAFF07BD000016
:102CB40007B505490130C870042201A802F06EFF6F
:102CC4000198FFF7F0FF07BD140C0020032307B59C
:102CD4000449042201A8CB7002F060FF0198FFF7B9
:102CE400E2FF07BD140C002010B5FFF7E1FF10BD93
:102CF400012307B50449042201A8CB7002F04EFF5A
:102D04000198FFF7D0FF07BD140C002010B5FFF7A2
:102D1400EFFF10BD07B5431E984105490422887092
:102D240001A802F03BFF0198FFF7BDFF07BDC046B5
:102D3400140C0020014B98787047C046140C0020F6
:102D440007B505490422487001A802F027FF01983D
:102D5400FFF7A9FF07BDC046140C0020014B5878AB
:102D64007047C046140C002007B5054904220870BA
:102D740001A802F013FF0198FFF795FF07BDC046B5
:102D8400140C002070477047704710B5FFF7FCFF24
:102D940010BD704710B5FFF7FCFF10BD70B50024DF
:102DA4002500FFF7EFFFFFF759F9FFF7ECFF074E98
:102DB4002000FFF7A3F83080431E98410134E4B2A9
:102DC40005430236042CF3D1280070BD0C120020F8
:102DD400044B4000C25A012088401040431E9841D1
:102DE400C0B270470C120020002A07D101328A4079
:102DF4001100034B4000C25A8A43C2527047C04676
:102E04000C12002010B5040000F092F8001B80B2F0
:102E140010BD10B5040000F04DF8001B10BD0000FB
:102E240010B504001022002102F0B0FE054B200072
:102E34001968054B1A68054B1B6821606260A36022
:102E440010BDC0469075FF1F9475FF1F9875FF1F36
:102E540010B501F0EFF800F097FD10BD10B5FDF7C7
:102E6400B1FC024800F0F7FF10BDC046A406000004
:102E740010B5FEF763FBFEF777FBFFF705FFFDF7E1
:102E8400A9FC10BD10B572B601F02EF90022044B56
:102E94001860044B1A60044B1A6062B610BDC04639
:102EA4001C120020181200201412002010B5FFF785
:102EB400E9FF10BDF8B500F08DFD050001F014F92F
:102EC400134E144A3368C41A13480168A14208D93E
:102ED400124F1168E419124FDB193360114BC918F2
:102EE400116004602800166800F07CFDFA220023BB
:102EF40020009200002102F04BFD00230A4A8018B2
:102F040059410023094AFDF7FDFA3018F8BDC046BF
:102F14001C1200201412002018120020E0060100E8
:102F240020F9FEFF88598F029F860100A0860100C8
:102F340010B5FFF7BFFF80B210BD0000014B024A7D
:102F44001A607047FC3F0220EFBEADDE034B1868E9
:102F5400034BC01843425841C0B27047FC3F0220A3
:102F6400114152210022014B1A607047FC3F02209C
:102F740010B5FFF7E3FFBFF34F8F034B034ADA604B
:102F8400BFF34F8FC046FDE700ED00E00400FA05F3
:102F9400BFF34F8F034B044ADA60BFF34F8FC04631
:102FA400FDE7C04600ED00E00400FA0510B5FFF7A8
:102FB400CDFF002822D0FFF7D5FF72B6BFF34F8FA5
:102FC400BFF36F8F01210E4A0E4853688B43536041
:102FD40000230D4A0D49136093605360012252424D
:102FE400CA67C0214900425083F31488084B1A6809
:102FF40082F3088862B65B689847FEE710BDC04656
:1030040090ED00E000E100E010E000E004E100E009
:103014000000FF1F01007F2274310B7870B51A4045
:103024000400212A44D15AB2002A1BDA4A78022A1F
:1030340015D0032A04D0012A14D100F08FFB70BDEF
:103044004D790A792D0215430CD1FFF773FE2A4BF3
:1030540025671870A3660123E3660120EFE700F0FB
:103064001DFCECE74A780A2A1BD00B2A0DD0092A4A
:103074001ED14A7908791202024319D11F4BA36663
:103084000223E3661E4B2367E7E74B790A791B02A9
:10309400134302D18878FFF73DFE0023A366E3665D
:1030A400F1E7C878FFF760FE200000F021FCC6E7D6
:1030B40060229343812B16D14B78062B13D14B7985
:1030C4000A7960681B02456813432000CA7889782E
:1030D400A847002801D10020B1E74368A36603682C
:1030E400E3660023CFE7074BDB6F002BF3D0200010
:1030F40098470028EFD0B0E7281200202C120020B7
:1031040049310008340C0020002370B50B4C743096
:103114006360C279817912020A434179057909020F
:1031240029438578C078064B0002284300F090F9C3
:1031340020606068002800D0200070BD20120020AC
:1031440024120020030010B574339979DB79074AFF
:103154001B0210780B43022B04D1012801D006284E
:1031640002D15078FFF7ECFD10BDC0462C120020B0
:1031740010B50F24054A11784B1C2340044C2478C5
:103184009C4202D0034C1370605410BD4E140020B6
:103194004F1400203E140020080010B505291BD848
:1031A400FDF726F8131A0313131B72B60E4800F02A
:1031B400EFF962B60D4B1B78002B02D00520FFF708
:1031C400D7FF0220FFF7D4FF06E0FFF7D1FF72B666
:1031D400054800F0C7F962B610BD72B6024800F0A7
:1031E400D4F962B60520EDE72C0C00202E12002045
:1031F400102210B50021044802F0C8FC0022034B41
:103204001A70034B1A7010BD3E1400204E14002097
:103214004F140020F8B50F2501240021234B244A24
:103224001E781378B34233D1002900D01370F8BD4F
:103234001370204B1C70204B19780800431E9841D2
:10324400C0B2FFF743FDE8E713700022194B1A7070
:10325400FFF70EFE184B19780800431E9841C0B2C0
:10326400FFF742FDD9E71370134B19780800431E8A
:103274009841C0B2FFF71CFDCFE70021137008008E
:10328400F8E71370FFF734FD2000FFF743FDC4E7B0
:1032940018000A4F0133385C21002B400528C1D89F
:1032A400FCF79CFFEFC0E1EBC6D2C0464E140020F1
:1032B4004F1400202E120020631500203E1400201D
:1032C40070B5040025000E4800F02AF908350C48B2
:1032D40000F03AF9EA6F0B49936D20000B409365B7
:1032E40001F05FF8084800F0B6FD2000074901F03E
:1032F40046F88023EA6F1B02916D0B43936570BD02
:103304002C0C0020FF7FFFFF88130000985E00084C
:103314009023434307B50448181800230093034B34
:1033240000F096F90EBDC0462C0C002010270000BA
:1033340010B50400FFF7FEFC08222100002802D18A
:10334400FFF7E6FF10BD0020FAE7704770477047AB
:1033540010B5FFF72BFE10BD704710B5FFF7F8FF4F
:1033640002F062FAFFF7F8FF10BD10B502F0A2FAFE
:10337400FDF712F910BD10B5FFF7C8FC10BD000031
:1033840010B5FFF735FF0348FFF79AFF024800F036
:1033940062FD10BDE41400208813000010B502483B
:1033A400FFF7F8FB10BDC046180C002070B5FFF7FE
:1033B40031FF0C4C02252378052B0ED070BDFFF78E
:1033C4004DFDFFF7EBFC002807D023007C331B885E
:1033D4001D4202D0200001F075F82378052BEED0B1
:1033E400ECE7C046E414002010B500F021FA10BD4B
:1033F400F0B5144B85B01D78002D20D101226C4608
:103404000F2668461A70FFF70BFD2B000E490F4D6F
:103414005A10A05C5A000709EF5D8A1897700027BC
:103424003040D7705A1C285C52008A1802339070BE
:10343400D770202BECD122330B703F3B4B7005B07F
:10344400F0BDC0462F12002030120020A85E0008F4
:1034540070B51C00050A032D16D00AD8012D2CD0F6
:1034640000231A00022D01D1174A223318002260CA
:1034740070BD00231A00212D1AD0222DF6D19942B5
:10348400F4D1124A4433F1E70023C0B21A00A8422F
:10349400ECD8FCF7ADFE1502050810230C4AE5E74D
:1034A4000C230C4AE2E7FFF7A3FF0B4A1378DDE78E
:1034B4009942DBD1094A0933D8E71223084AD5E7F0
:1034C4000423084AD2E7C046DD5E0008115F000805
:1034D400C75E0008B95E000830120020EF5E0008E5
:1034E400FF5E0008D95E000837B5446B226F13787D
:1034F400042B14D1250074352978033B8B401289A1
:1035040013409BB2002B0AD1200001A900F027FE32
:10351400021E04D02978019B206F00F0C0FF37BD44
:103524001FB503005C33C364064B021D0193836F14
:10353400029000930121C36FD26F00F0EAFD05B041
:1035440000BDC046ED34000872B6030074331B7826
:10355400026F09339B00D31858600023883003702E
:1035640062B670470123022110B504000372494278
:1035740000F0A4FC20008C3400F0E3FD2368002B51
:1035840002D0DA681868904710BD002303727047B0
:103594000300020010B50400743319783832006F48
:1035A40000F027FF200000F0CCFD0023237210BDA3
:1035B4000B0009339B00C318F7B55C6805000E00C7
:1035C400002C44D072B62300002288331A7022697A
:1035D40063699A4202D1E368002B19D1B31C9B00A2
:1035E400EB185B685B691B68002B11D027008C37D4
:1035F4003B68002B09D001A9200000F0B0FD3B6816
:1036040001009F68019A1868B847200000F0B5FDD2
:10361400200001A900F0A3FD019B021E12D1B31CDE
:103624009B00EB185B681A68022A0FD15A6911686B
:1036340000290BD01A8A0B00013A1340114205D11C
:103644002A0074323100280000F029FF62B6F7BD69
:10365400F7B51C0008AB1B78050017000191009317
:1036640072B6036F1B78042B02D062B60020FEBD35
:10367400060088363378002B03D0013463425C4162
:10368400644262B623003A002800019900F0B6FDB6
:10369400874214D972B64342584133780221184301
:1036A4000123307049422B72280000F007FC2800E7
:1036B40000F047FD00232B7200F042FBE1E7009B82
:1036C400002B01D00120D2E7280000F0D4FDF9E757
:1036D400030072B601694269002091420CD1DA6894
:1036E400824209D01A6F74331B78013098401389D1
:1036F400184080B24342584162B67047F8B5076833
:1037040006000D001400002F09D000F0EDFC7860D5
:103714003068220084642900083002F03FFAF8BDC2
:10372400016810B5002907D08B6C08321364083186
:1037340010001A0002F032FA10BD036810B504003C
:10374400002B09D018009A6C0021083002F01EFAF0
:10375400002223681A605A6010BD00000100F8B509
:103764000400002074314B790A791B02134382420E
:1037740018D18978082915D80B48DBB2C65C10002B
:1037840096420FD1094B1F68380097420AD0084D62
:103794007B6838682A0098470120064B2667A36691
:1037A400AB6CE366F8BDC04674120020B80C002070
:1037B400F8120020001300200368002B07D09100AA
:1037C4001960511E8A41024B19780A431A707047D6
:1037D400441300200368181E02D018688008C0B281
:1037E40070470000036870B5002B02D10023180055
:1037F40070BD72B6036830CB62B6002CF6D000F010
:1038040073FCFA22002392000021401B02F0C0F84E
:103814000023054A801859410023044AFCF772FE2C
:103824000023A0425B41E2E79F860100A0860100DD
:10383400F8B5154F3B78002B25D0144B1C68251E7A
:1038440020D072B60021636920689847431E9841CE
:10385400050062B60E48FFF73BFF002812D0002196
:10386400A3692068984700280CD072B6094E00213D
:10387400320063682068984762B600200649B26C3B
:10388400FFF746FD3D70F8BD44130020B80C00203E
:103894002C0C0020AC120020B4120020010070B5E2
:1038A4000400002074314B790A791B0213438242CD
:1038B40016D18978082913D80A48DBB2C55C1000F0
:1038C40095420DD1084B1B681800934208D05A69E1
:1038D40018689047054B256718700120A366E066B9
:1038E40070BDC04674120020B80C0020A81200203D
:1038F400020070B5040000207432537916791B025B
:103904003343864215D19178082912D80948DBB28D
:10391400C55C3000B5420CD1074B1B681800AB42A4
:1039240007D01868D2781E69B0470120A566E566FD
:10393400256770BD74120020B80C002070477047D2
:10394400FEE70000F0B5082000240E494A680E681E
:1039540015008B68AB4210D8D51E0026AB4203D3AA
:1039640003339B1A9B089E00CB689219934207D895
:10397400013810310028E9D1F0BD80CE80C5E9E7D7
:1039840010C2F3E7585F0008012310B5064C2370FA
:103994000023636000F042FB0449054800F0E0F9AD
:1039A4000223237062B610BD50140020D85F0008B3
:1039B4005814002072B60322024BD865024B1A70C9
:1039C400FEE7C046581400205014002010B500F043
:1039D400D7F810BDEFF31080C30702D4EFF30583CB
:1039E40072B6704710B5C00704D4EFF30583DB0546
:1039F40001D062B610BD00F0A3F9FAE7024AD36A17
:103A04000343D3627047C0465814002010B50368BE
:103A14009C68A2420CD85C688A600B604C60216090
:103A2400596099688A1A9A6001235B42836010BDC9
:103A34001B68121BECE770B504000D00022900D2CC
:103A440002250226601900F060FB00F04DFB041B08
:103A5400A54203D8013635000400F3E7022E02D94B
:103A64000120FFF7CBFF70BDF8B5124B0D00D961F3
:103A7400114982604160196914000160486018614D
:103A8400022A00D20224281900F032FB022600F098
:103A94002BFB0700431BA34206D3741C281900F018
:103AA40034FB26003D00F2E7022E02D90120FFF785
:103AB400A5FFF8BD5814002068140020F8B50700CD
:103AC4000D0000F011FB0E4B0E4E1A69B24205D1E7
:103AD40001002A003800FFF7C7FFF8BDDB69C31AED
:103AE400EC18A34200D92C009368A34202D9290000
:103AF400FFF7A1FF220039003000FFF787FFECE752
:103B0400581400206814002010B503610023C2601B
:103B14004361FFF7D3FF10BD10B5174C23699842DA
:103B24000CD003684268816813605A609A6852181E
:103B34009A6000230360013BA36110BD03680F4A30
:103B440023615A60002303602369934202D100F089
:103B5400D7FAF2E79A68816852189A6000F0C4FABA
:103B64002369E1699B68421A9342E6D9C918091A84
:103B7400FFF761FFE1E7C0465814002068140020F5
:103B8400F7B5264D2C6900F0AFFAE969A368244E15
:103B9400421A934238D8CB18EB61626800932368C9
:103BA40013605A60002323602B69B34201D100F0F3
:103BB400A7FA62B62000E3682169984772B6636980
:103BC400002BDED000F090FA009A0190871A626907
:103BD400BA420BD20220FFF711FF00222B69B34235
:103BE40009D120000199FFF73FFFF7BD009BD218D0
:103BF400019BD21AF2E7D3199F4200D81A00210080
:103C04003000FFF703FFBCE72A69B242EDD0C918C0
:103C1400091AE861A160FFF70EFFE6E758140020D7
:103C24006814002000238268037503691B6899687F
:103C34009142FBD25A68036042601060586070473A
:103C440000238268037503691B6899689142FBD855
:103C54005A680360426010605860704710B572B6CD
:103C6400087D052807D8FCF7C3FA0C060603120ED4
:103C740000228B691A6001235B4208008B61FFF705
:103C8400D1FF62B610BD8A699368013393604A68B4
:103C94000B6813605A60EEE710B5FFF7C3FF10BD61
:103CA400064B10B5D96808751868026853601A6025
:103CB40001220275D860FCF76FFA10BD5814002079
:103CC40030B50D4B0500DC6887B04B1C10D02300C9
:103CD40068460A4AFFF718FF2800FFF7E1FF009B38
:103CE400002B02D06846FFF717FFA06907B030BD6C
:103CF400FFF7D6FFF9E7C04658140020613C0008DE
:103D0400044BDA68196890688B6898428041404295
:103D14007047C04658140020084B10B51C68D8687A
:103D2400226853601A6001222275DC60FFF788FF65
:103D340001002000FCF730FA10BDC04658140020E2
:103D4400054B10B51A68DB6892689B689A4201D9E2
:103D5400FFF7E2FF10BDC0465814002030BFFDE756
:103D640070B5002504001A4B86B0856201630E000D
:103D7400586000F031F9230010332361636101239B
:103D84005B42A36124606460A560E562E56100F0C4
:103D9400ABF92B000200210022626362343120005F
:103DA4000C4AE565803300F01BF801230A4AE06001
:103DB40003750092726803930192084BB2686846D7
:103DC40002920493059500F031F806B070BDC04628
:103DD40050140020835E0008885E0008613D0008DE
:103DE40002228B604B62002308618A8208000B6206
:103DF400CB617047826801691300283B4C3ADA6052
:103E0400116141695161074911620222C1681A7541
:103E140000220548996018615A75180059621A629F
:103E2400DA617047BD0100085814002010B5FFF78F
:103E3400E1FFFFF731FF10BD10B5034BDB6898615C
:103E44000F20FFF72DFF10BD5814002010B572B6D7
:103E5400FFF7F2FF10BD10B5010072B60820FFF79E
:103E64002FFF62B610BD036810B5002B05D00022E9
:103E7400026018009961FFF70FFF10BD10B500290B
:103E84000AD0074B4268DB6818605A6013604360CD
:103E94000420FFF715FF10BD01204042FBE7C04698
:103EA40058140020036810B5984206D01A680260BE
:103EB400506018009961FFF7EFFE10BD70B5040063
:103EC4000D002068844200D170BD036823605C60EB
:103ED4008561FFF7E1FEF4E7030010B51B68984223
:103EE40003D09C688A689442F8D25A680B604A608E
:103EF4001160596010BD002300604060836070470A
:103F040070B5184B84680600DD68002C14D12B6A48
:103F14008560C360286223E0A360237D002B10D05A
:103F2400062B15D123686268A069210013605A60CA
:103F3400FFF7D2FFA3699C68AB68A2689A42EBD3EF
:103F440006E062682368200013605A60FFF7A4FE4D
:103F540030002900FFF7C0FF0620AE61FFF7A0FE86
:103F640070BDC0465814002010B572B6FFF7C8FFE4
:103F740062B610BD134A030010B5D16872B6C268A8
:103F840000680A6298421AD0486A002A0ED18860F2
:103F9400186802681A605360026A9860DA60036203
:103FA400FFF77AFEFFF7CCFE62B610BD1468A2429A
:103FB40003D0A468A04200D22000D268E5E7002321
:103FC4008360F1E758140020EFF30983203383F36F
:103FD400098862B670470000024A0349136A0B401D
:103FE4001362704700ED00E0FFFF00FF10B50F30D3
:103FF4000FD072B6EFF30984203C84F30988802340
:104004005B04E361FFF77CFE024B002800D1024B06
:10401400A36110BDCB010008CE010008024B034A86
:104024001A60034A5A607047B814002070150020C3
:104034000040022010B500F007FE00F0DEFF00F0A3
:1040440034F900F08BF9FFF790F900F049F810BD4E
:1040540010B5FFF7AFFCFEE770B50A4E049D746A15
:104064001B199BB20468002D00D02C600C409442B4
:1040740005D0746AA4B2A342F4D8012070BD002014
:10408400FCE7C0460048014030B5094D6C6A12197E
:1040940092B20468002B00D01C600C408C4205D006
:1040A4006C6AA4B2A242F4D8012030BD0020FCE71F
:1040B4000048014070B5094E0500706A121892B2AA
:1040C4002C68002B00D01C6008002040214204D042
:1040D400746AA4B2A242F3D8012070BD0048014022
:1040E40010B500F0FBFF10BD8023DB05586A704754
:1040F40080230022DB0558631A610232DA607047BC
:1041040080230022DB05DA6070478023DB055863D7
:104114007047043310B501721900C3610023029C77
:1041240083626143C362039B51180363049B006071
:104134004060C4604261026181610462426243631F
:1041440010BD036A10B5C360436A02214361036171
:10415400002349428362C362FFF7B0FE10BD426987
:10416400036910B5934204D10023C46818009C422B
:1041740001D1100008C80B6010BDC36810B501332D
:10418400C269C36043699B1882694361934201D346
:10419400436A43610021FFF785FE10BD70B504003A
:1041A4000D00E368002B07D0236900201A1DA262CA
:1041B400E2699B18E36208E0237A002B06D1290008
:1041C4002000FFF75BFE0028EBDA70BD02204042BE
:1041D400FBE7036910B51960C268013AC260C2699D
:1041E4009B1882690361934201D3436A03610023EC
:1041F4008362036B002B00D0984710BDF7B5040011
:104204000E000092019372B60027A36A002B08D116
:1042140020000199FFF7C2FF002802D062B63800DF
:10422400FEBDA06AE56A009B2D1ADB1B9D4200D9E6
:104234001D00402D16D93100402201F0AFFCA36AC5
:10424400403640334037E26AA3629A4204D8E169B7
:1042540020000439FFF7BDFF62B6009B9F42DED207
:1042640072B6D2E731002A0001F098FCA36A7619ED
:104274005B197F19E7E710B572B6836A002B06D085
:104284000269043B991A934201D0FFF7A2FF62B678
:1042940010BD10B50C30FFF76DFE002010BD10B539
:1042A4000C30FFF761FE002010BD10B500F098FD42
:1042B40010BD0000054B10B50360012303710023FA
:1042C40083600C30FFF717FE10BDC046E45F0008A2
:1042D40010B5040072B6816000F0A2FD02232371C0
:1042E40062B6002010BD10B5040072B600F0ACFD3B
:1042F4000023A3600133237162B610BD10B504001E
:10430400002101F005F90021200001F0EFF86368B5
:104314001B68002B02D0062120009847A368044A9A
:104324001340A36000236434A3600633237010BDDC
:10433400FEFFFEFF0200030010B50400763212787F
:104344007E331A7000F09AFF63681B68002B02D05A
:104354000121200098470323237010BD10B500F0FD
:1043640065FF10BD012310B538220400037000213D
:104374002C3001F00BFC00236360A36010BD13B567
:10438400040072B62022416000210C3001F0FEFBD3
:10439400200000F0F5FF434243410133237062B62D
:1043A40016BD70B5040072B600F04EFF0023250060
:1043B4006360013323700C352C342B68002B10D030
:1043C4005869002804D002210C304942FFF74BFD04
:1043D4002B689869002804D002210C304942FFF769
:1043E40042FD002308C5A542E7D1FFF7A9FC62B648
:1043F40070BD8B1C9B0070B5C318050050690E007E
:1044040014005A60002803D01422002101F0BEFBDE
:10441400A069002803D01422002101F0B7FB310069
:10442400280000F037FF70BD70B5050006000400D9
:104434008368104A1035134083602C362B68002B98
:1044440010D05869002804D002210C304942FFF7EB
:104454000AFD2B689869002804D002210C304942D7
:10446400FFF701FD002308C5B542E7D1200000F0A5
:10447400B1FF70BD0100010070B501248C40458975
:104484002C4344818C1CA40004196468A46923602F
:104494000023A2606360E36000F0E0FF70BD70B5CC
:1044A40001248C4005892C4304818C1CA40004192C
:1044B4006468646923600023A2606360E36000F0C1
:1044C400F1FF70BD037870B5052B0DD110250830B0
:1044D4000400C26FC820136C2B431364FFF7BBFCAA
:1044E400E26F136CAB43136470BDF8B5022305008F
:1044F4000600037000230400C367C36683600C35A1
:104504002C362B68002B13D072B62B685869002800
:1045140004D002210C304942FFF7A5FC2B689869AE
:10452400002804D002210C304942FFF79CFC62B6FB
:10453400002780C5B542E4D1230064331F702000F6
:1045440000F002FF63681B68BB4202D03900200000
:104554009847F8BD037870B50400052B29D00200F4
:10456400803213700523037043681B68002B01D04D
:1045740004219847250000230C35A3602C342B68B4
:10458400002B13D072B62B685869002804D002217E
:104594000C304942FFF767FC2B689869002804D067
:1045A40002210C304942FFF75EFC62B60435A54295
:1045B400E5D170BD017810B5052908D10300803319
:1045C4001B78037043681B68002B00D0984710BD0C
:1045D400F7B50600643633780400002B06D08368F0
:1045E400A34A134083600023C366337027007437E3
:1045F4003A0000212000019700F022FF63689B68C5
:10460400002B0AD1019B1A78602315001D401A4221
:1046140024D02000FFF772FEF7BD20009847002841
:10462400F0D023007A331A785B78E16E1B021343CF
:10463400994201D91900E366019B1B787F2B00D8AE
:1046440007E1002900D1FAE00923337072B6002192
:10465400E36EA26E2000FFF722FFF8E023007F2123
:1046640075331B780A401B021343824A934200D1DC
:10467400CDE026D880225200934256D00DD8012B8B
:104684004DD0022B00D191E0002BC2D122007C320C
:10469400A2660222E2662367C3E7812252009342A4
:1046A40000D19CE0FF32FF329342B2D12300763333
:1046B4001B78012BADD122007C321188DB180B430F
:1046C4003EE080221201934243D020D8A022D2009F
:1046D40093423AD0684A9B18012B9AD82300783326
:1046E4001A785B7821001B0213432200606876323B
:1046F400406877310700127820000978B84700280D
:1047040000D186E74368A3660368E3661BE0902252
:104714001201934222D0594A934200D079E7584B70
:10472400A3660223E3660023B5E7230076331B78F0
:10473400012B00D06DE7220002217C3213888B43C9
:104744001380A566E56625676BE74E4BA566E566AF
:10475400A1E723007F33A3660123D6E72378042B44
:104764000FD172B62000FFF75FFE62B6230003216B
:104774007F331D70636821701B68002B01D02000FB
:104784009847230076331B78002B0BD022007F320E
:1047940013700423237063681B68002B02D002216A
:1047A400200098470023A366E36674E723000F21E3
:1047B40078331B78200019405BB2002B0CDA00F030
:1047C4002FFE012806D0022800D022E72E4BE066F7
:1047D400A366A8E72D4BA3E700F00EFEF1E7230044
:1047E40076331B78002B00D013E7230078331B7833
:1047F4000F22190011401342D4D05BB22000002BC9
:1048040002DA00F0AFFECDE700F094FECAE7230021
:1048140076331B78002B00D0FBE6230078331B781B
:104824000F22190011401342BCD05BB22000002BB0
:1048340002DA00F06DFEB5E700F058FEB2E714238B
:10484400337072B60B000A002000FFF715FE62B643
:10485400E2E6002906D01523337072B60021E36E18
:10486400A26EF1E70B23337072B60B000A00F1E677
:10487400FEFFFEFF0203000000FAFFFF020C00002F
:1048840010600008394300080E6000080C6000083E
:1048940070B505006435040028780B2807D8FBF7A9
:1048A400A7FC082F2F2F2F2F082F2F0C253015286A
:1048B40026D12000FFF722FD22E023007A331A7864
:1048C4005B78E06E1B02134398420FD2E368198AA7
:1048D400FBF728FD002909D172B60B000A0020005D
:1048E400FFF7DDFD62B60A232B7009E014232B7059
:1048F40072B6002320001A001900FFF7BDFD62B64E
:1049040070BD236F002B01D020009847A368034A91
:104914001340A3600023E366E6E7C046FEFFFEFF04
:1049240070B5050064352B780400142B19D00CD80D
:10493400062B06D002D8002B03D070BD0A3B012BF6
:10494400FBD82000FFF7DAFCF7E7152BF5D10A3B7B
:104954002B7072B600231A001900FFF7A0FD62B68F
:10496400EBE7C3689B695B68002BE6D1036F002B00
:1049740000D09847A368034A1340A3600023E3666A
:104984002B70DAE7FEFFFEFFD3B5040000270C4EC0
:10499400236820009B6901A9984701280FD1019839
:1049A4000023084A002100F0F3FFFA2200239200BA
:1049B40080197941FBF7A6FDFFF74DFAE8E7D6BD6C
:1049C400E7030000A0860100036810B55B680C00D3
:1049D4009847C368002B02D0E400E05810BD00697A
:1049E4006043FBE7036810B55B680C009847C36835
:1049F400002B03D0E4001B19586810BD0069FCE7C4
:104A0400036810B55B680C0098474069001910BD35
:104A14000122044B5242191DCA67C02149005A5051
:104A24007047C04600E100E00322F0B5FF26C02530
:104A34000240D2009640890191400A4F83089B00AE
:104A4400DB19AD005C591F22B4430C435C510123B4
:104A540002409340C02240098000C0195200835094
:104A64000360F0BD00E100E010B5744600F060FBA7
:104A74002000FFF7BBFA10BD10B57446034800F0E0
:104A840087FD2000FFF7B2FA10BDC046E4140020F1
:104A940010B501210F20FFF7C7FF03210820FFF7FE
:104AA400C3FF10BDF7B5072104005B4B5B481860DA
:104AB400594B1A68424013000B400A42F8D1584E31
:104AC4005849326858480A40802132608900C82217
:104AD400FFF7F0FA031E01D00120FEBD80278021DC
:104AE400524D7F00142228002F60C900FFF7CCFA32
:104AF400021EF1D14E4B38211860FA2300904C4825
:104B0400FFF7AAFA031EE7D14A4A2F6010608222F7
:104B1400802192003260413A4348FF3AC900FFF7CE
:104B2400C9FA0028D8D18021A36849020B4259D17F
:104B34001F43414B39403B402B604B1E994180231E
:104B44004904DB00C9187B0202D580231B041943E6
:104B540000233A4A3548FFF797FA031EBCD122686E
:104B6400314832606168364A11608021C822C90028
:104B7400FFF7A0FA0028AFD1216880220B00D201F0
:104B84001340114230D18021C82227488900FFF701
:104B940091FA0028A0D18023A2685B041A422BD189
:104BA400E368234A1360072261691B4B19601A4B9F
:104BB4001B684B40180010401342F8D13821E268BA
:104BC400FA23D20000900A401948FFF745FA00285A
:104BD40000D081E7A368DA0302D58022D20213430E
:104BE4002B607AE7174FA3E780210300C8228900CE
:104BF4000D48FFF749FACCE722690E493B430A60A6
:104C040080212B60C822002308488904FFF73CFA5E
:104C14000028C5D060E7C04600200240020304001B
:104C240000700040FFBFFFFF1470004000100240FE
:104C3400081002400C100240FFFFFFFE1027000086
:104C4400047000400001040010B5FFF7E1FEFFF717
:104C54001FFF10BD802310B5454CDB02226B454974
:104C64001A432263226B0A402263226B226C134391
:104C74002364236D0B402365236D3F4B3F49D86963
:104C8400FBF754FB431E40423D4AC01703401360E8
:104C9400012201213B4B49421A603B4B1A60A36A33
:104CA400A162A36A0023A362A06AE06AE162E06AE7
:104CB400E362E06A206B2163216B2363216B216C27
:104CC40011432164216D91432165226D8022E16BA2
:104CD40012051143E163E16C0A43E264E26C802251
:104CE400E16BD2001143E163E16C0A43E264E26CDC
:104CF4008022E16B52050A43E263E26C23490A40D5
:104D04008021E264E26C224A090291608021D3602E
:104D1400136253629362D362136353639363D363E3
:104D2400136453649364D3641068490001431160AD
:104D3400C022E16D9200114203D080225202E2654A
:104D4400E3650022A2602368124913480B402360E4
:104D5400124B6365A265FFF7A5FE002802D0104838
:104D6400FFF776F9E36D0F4A1340E36510BDC046C3
:104D740000100240FFFFFBFF280D002040420F00FF
:104D8400284801401448014000480140FFFFFFEF5C
:104D940000700040FFC7FFFF1460000815050044C1
:104DA4008D5E0008FFFCFFFD014B8000C05870477A
:104DB400280D0020C16902000B6910B598B2086182
:104DC4001C00102106200C400B4208D11A3120008F
:104DD4000B4204D010790438431E9841033010BDAF
:104DE40010B50A4C2000FFF765FA094BE361094B43
:104DF4001B889A02402B06D080239B029A4201D141
:104E0400054B236210BD054BFBE7C046C0140020D0
:104E140000200240E075FF1F2C6000084860000875
:104E2400C369064A99680A439A609968044A0A431E
:104E34009A600022034B5A617047C04623016745BC
:104E4400AB89EFCD002002408023C2691B06516963
:104E54000B4353617047006A7047000070B50579D1
:104E640004000120052D12D002302071084DE069A4
:104E74000561206A45691800691800F08FFEE3692E
:104E8400186902234004C00F4000C0B2237170BDF2
:104E9400FFFF0000F0B585B00093037906000D0014
:104EA40014000120052B3CD0336AF76901930423D5
:104EB40033711D4B3B6103007A6913437B61002C02
:104EC40001D1200027E0012302AA5B420293536030
:104ED400019B072059692B008343CB1807210098B5
:104EE40029400078013550540099013C013100916A
:104EF40007210D4201D0002CF0D1029952681960AB
:104F04005A6080235B023A691A42FCD13000FFF7F1
:104F140051FF0028D3D001227B6993437B61022394
:104F2400337105B0F0BDC046FFFF000003790120D6
:104F3400052B00D006307047027903000120052AB2
:104F440016D005221A71DB690A4AC9001A610222C5
:104F5400586902435A615A69074802405A615A69BA
:104F64000020114380225961596952020A435A614F
:104F74007047C046FFFF000007E0FFFF10B502794D
:104F840004000020052A0CD1E3691869C00309D480
:104F94005A69074920000A405A61FFF70BFF0223B0
:104FA400237110BD002901D10120FAE70A60FBE753
:104FB400F97FFFFF70B5037905000E000120052B72
:104FC40013D02B6A28005C69FFF7FEFC0323241826
:104FD4002B7131002800FFF705FD83089B00E318BF
:104FE4009C4203D1002002232B7170BD2268013240
:104FF40001D10434F4E70520F5E77047F0B5130058
:105004000325012487B02B40039393081C40D30845
:105014002B40019353092B4002930F23D2091340D1
:10502400059300230094039C0122114230D00125F2
:105034009D4042680727AA43009D1F402A434260BF
:1050440082685D0004922A00032595402A00AC463C
:10505400049DBF0095432A00019D059E2A43654691
:105064008260C268BE40AA43029D2A43C2600F22E6
:10507400BA401700039A022A1DD1072B16D8026AD8
:10508400BA433243026265460268AA43224302607D
:10509400490821D0009AA40052000092019A0133D9
:1050A40092000192029A92000292BDE7426ABA43C8
:1050B40032434262E7E765460268AA43224302603C
:1050C400072B04D8026ABA4332430262E0E7426A19
:1050D400BA4332434262DBE707B0F0BD10B50124A6
:1050E400104B0720DA6B2243DA63DA6C2243DA646A
:1050F4000D4ADB6C936823439360FFF755FE0B491D
:10510400FBF78AF880230122DB05013852429862BA
:10511400DA6200229A615A63DA605A605C611C6048
:1051240010BDC0460010024000580140A086010096
:105134008022D2051369D16810B50B40D9B2C94396
:1051440011619B0703D572B6FEF740FC62B610BD31
:10515400344BC000C01870B50468334DA4B2E418D1
:10516400036889182B4015042B4303608B1A0F2AFC
:1051740018DC0021501A032843DC91088900501AD6
:105184008A420ED064185B18022848D000220328F3
:1051940004D1997809045A7812020A431B781343FC
:1051A400236070BD58781D78000228439D78103A1A
:1051B4002D040543D87800062843206058791D79CA
:1051C400000228439D792D040543D879000628431D
:1051D4006060587A1D7A000228439D7A2D040543A5
:1051E400D87A00062843A0605D7B187B2D02054316
:1051F400987BDB7B000428431B060343E3601034E5
:10520400B4E7CE187078CD5C00022843B5782D043D
:105214000543F0780006284360500431AAE70021D2
:10522400B9E7C04600980040FFFF00FC10B5044CED
:105234002000FFF797F8034B0834E36710BDC0461E
:10524400E4140020005C00400378012B0FD0084BCD
:1052540098420CD112220830C36F06491A64064BD7
:10526400DA6B0A40DA63DA6C0A40DA64DB6C7047A2
:10527400E4140020FFDFFFFF0010024003000833A6
:10528400DA6F80237E3001785B420B43DBB2D36458
:1052940070470000F7B503228B1C9B00C3185C68A1
:1052A40023681340934244D05A4253415B02254A37
:1052B400CD00AA1801926269002A0CD007000325C8
:1052C400228A88373E680332AA4392193A60019AC7
:1052D400166020221343A269002A16D0648A661E2F
:1052E4003E2C29D980227609B606120632430700DD
:1052F400032588373E680334AC43A4193C60019C01
:10530400324362608022920113430830C26F8020CE
:105314008C0012191468C001044200D003434020D9
:105324001468044200D003431068194310601160EC
:10533400F7BDC023DB00BAE7012232430132520633
:10534400D5E7C0460098004003000833DA6F002117
:10535400802310B55164D3644368DB685C1EA341A9
:10536400BC245B0224021B1913640300402288330B
:105374001A60024BC360FFF78DFF10BD6460000824
:1053840010B50478012C1CD10F4B984217D1802200
:105394000E4B9201D96B1143D963D96C1143D96473
:1053A400D96CD96A0A43DA62DA6A09490A40DA62CC
:1053B400DB6A030000220833DB6F1C641A64FFF706
:1053C400C3FF002010BDC046E414002000100240BA
:1053D400FFDFFFFF030040220021083310B58830AF
:1053E400DC6F02603F3A9300E318186801321860DA
:1053F4001960082AF7D110BD0830C36F8900C95855
:10540400C0220B00920113401800114204D0034A39
:105414009818431E984101307047C04600F0FFFFC2
:105424000830C36F8900C95830220B00134018009C
:10543400114203D0103B5A1E9341581C7047000080
:105444000548C90009184B689BB21B1819681160FC
:105454005B6853607047C046009800408B1C9B00FB
:10546400C3185A6870B59669050033680C000120AA
:10547400002B04D0518A58180138FAF7CDFE0835AC
:10548400EB6FA4001C192368044A30821340C02225
:1054940092015A40024B1343236070BD8FB7FFFF44
:1054A400808000008B1C9B0070B5C3185A680C00E8
:1054B4005369128A196805008A4200D90A0020003B
:1054C40099681A610835FFF743FEEB6FA4001B19B6
:1054D4001A6804490A4030215140034A0A431A60B9
:1054E40070BDC046BF87FFFF8080000008308B007E
:1054F400C16F054AC9180B681340802252015A40F3
:10550400024B13430B6070478FB7FFFF808000008E
:1055140008308B00C16F054AC9180B68134010226C
:105524005A40034B13430B607047C046BF87FFFFCD
:1055340080800000C0220830C36F890059180B68AE
:1055440092011340934208D00B68044A134080220E
:1055540092015A40024B13430B6070478FB7FFFF11
:105564008080000030220830C36F890059180B680E
:105574001340934207D00B68034A134020225A4039
:10558400024B13430B607047BF87FFFF808000000E
:10559400F0B506000836F36F89B05D6C0400EA4389
:1055A4005A646B0501D5FEF7A0FF2B0507D5082328
:1055B400F26F2000116C0B431364FEF7CBFFEB0476
:1055C40006D5F36F9B6C1B0402D42000FEF7F2FF98
:1055D400AB0505D56368DB68002B01D02000984734
:1055E40080231B021D4201D109B0F0BD0F232B40C3
:1055F40001939B0004932300049A0833DE6FA218DE
:10560400049B0392D268F61894463368794AED06EF
:1056140041D4316863460A4080215B6909020A4328
:10562400326019695A681D688A185A60A81A954226
:1056340019D06246128A824200D9020098681A611F
:10564400411899606B461879FFF782FD33686A4AFE
:10565400134030225A40694B13433360230008330C
:10566400DB6F5D6CBCE70122019B9A402389934365
:10567400238163469B68002B03D06A46200011797E
:10568400984772B60021039BDB6858690C30FEF71B
:10569400EAFB62B6E2E73168114080220A433260D5
:1056A4006A46127906921B0505D56346110020004F
:1056B4005B689847D2E7019A514DD0004019634680
:1056C4004268406899698001800D060092B28B6837
:1056D400521902900F2E41DC0320350085435819DE
:1056E400079018000592079DA8425BD1B00880007E
:1056F400351A1B181218032D60D11268100A1A707B
:10570400120C58709A70029A8B689B188B604B68C5
:105714009B184B600B689B1A62460B600B8A013B1B
:105724009BB20B82528A02998A4201D8002B51D132
:105734000122019B9A40638993436381039BDB6845
:10574400DB68002B02D020000699984772B6039BB1
:10575400DB689B69180059680C3098E71068103EA4
:10576400050A18705D70050C000E9D70D8705068A5
:10577400050A18715D71050C000E9D71D871906851
:10578400050A18725D72050C000E9D72D872D068FD
:105794001032050A18735D73050C000E9D73D873DF
:1057A400103397E7059F20CF05972F0A05704770A0
:1057B4002F0C2D0E8770C570043094E7022D04D190
:1057C40012681A70120A5A709DE7012D9BD1126853
:1057D4001A7098E723000833049ADB6F09499B1871
:1057E4001A680A40C02189015140044A0A431A60D8
:1057F40034E7C0460F07FFFFBF87FFFF808000002C
:10580400009800408FB7FFFF4B6843608B6883604C
:10581400CB68C3600B6943614B6903628B69436264
:105824000B680360704700003F22A020154B10B5A1
:10583400596AC00511435962596A91435962596AB8
:10584400596B11435963596C0A435A640E495B6C92
:10585400FFF7DAFF0D490E48FFF7D6FF0D490E4852
:10586400FFF7D2FF0D490E48FFF7CEFF0D490E4852
:10587400FFF7CAFF0D490E48FFF7C6FFFFF7EAF925
:1058840010BDC0460010024088600008A4600008F3
:1058940000040050C060000800080050DC600008EC
:1058A400000C0050F860000800100050146100085B
:1058B4000014005070470000802303495B020A690A
:1058C4001A42FCD17047C04600200240254B264AAC
:1058D4001B6810B51B051B0D9B18112B41D8234ABF
:1058E400DA40D2073DD5224C236ADA0104D4C0221F
:1058F40052051340934234D06369002B08DA1D4BE0
:10590400A3601D4BA3606369002BFCDBFFF7D4FF8E
:1059140080236269DB051A4208D0184AE260184AFB
:10592400E26062691A42FCD1FFF7C6FF226A154B96
:105934001A40C0235B0513432362FFF7BDFF802396
:1059440062699B0213436361FFF7B6FF63690E4A02
:1059540013406361FFF7B0FF802362691B051343A3
:10596400636110BD00580140AAFBFFFF010403005E
:105974000020024023016745AB89EFCD3B2A19087B
:105984007F6E5D4CFFFFFFE6FFFFFDFF70470000E9
:10599400F0B50F001104090C060C050404000800FE
:1059A400C6462D0C9C46130C684371435D435E430D
:1059B4006D18030C5B1900B5994202D98021490284
:1059C400761800041D0C000C1B04181863467A4357
:1059D4005C43AD19A118491980BCB846F0BDC04656
:1059E400F0B545465746DE464E46E0B504000D0088
:1059F40090469A4683B08B422ED82BD051464046CF
:105A0400FAF7A0FD290006002000FAF79BFD331ADF
:105A14009946203B31D442469A409B461700434660
:105A24004A4693401E00AF4237D8AF4200D175E0DA
:105A34005A46A41BBD41002A00DA72E0012300206B
:105A44000021934000900191019301234A46934021
:105A5400009326E08242D1D90022002300920193D0
:105A64000C9B002B00D030C30098019903B0F0BC0C
:105A7400BB46B246A946A046F0BD4A469B462023F3
:105A840041469B1AD9400B00514691404A465F1843
:105A9400434693401E00AF42C7D900220023009220
:105AA400019349460029DBD0FB079C4672086244F7
:105AB4000E007B080EE0AB4201D1A2420CD8A41A1E
:105AC4009D41012024196D410021013E24184D41BE
