:020000040800F2
:100000000004002095010008D94A00089701000863
:100010009701000897010008970100089701000860
:100020009701000897010008970100089701000850
:100030009701000897010008970100089701000840
:100040009701000897010008970100089701000830
:100050009701000897010008970100089701000820
:10006000DD56000897010008970100089701000875
:10007000970100089701000897010008CD56000875
:1000800097010008970100089701000897010008F0
:1000900097010008970100089701000897010008E0
:1000A00097010008970100089701000897010008D0
:1000B00097010008970100089701000897010008C0
:0400C000316500089E
:1000C40072B6244880F30888234880F30988022004
:1000D40080F31488BFF36F8F04F0B6F903F001FEC8
:1000E4001E481F491B4A914202DA08600431FAE7AC
:1000F4001C49194A914202DA08600431FAE71A49A4
:100104001A4A1B4B9A4204DA08681060043104321C
:10011400F8E700201749184A914202DA08600431CE
:10012400FAE704F095F904F090F9144C144DAC423C
:1001340003DA216888470434F9E702F027F8114C00
:10014400114DAC4203DA216888470434F9E70F49BA
:100154000847000000040020000C002055555555A8
:1001640000000020000400208C6F0008000C002018
:10017400E00E0020E00E002018180020C000000847
:10018400C4000008C4000008C4000008514400086A
:1001940096E700F000F8FEE7F0B544464D465646B3
:1001A4005F46F0B46B46CB60C3689D46F0BCA04686
:1001B400A946B246BB46F0BD62B6281CA047002043
:1001C40004F0CAFBFEE704F02DFB024A024B136065
:1001D400FEE7C04604ED00E00000008002B4714672
:1001E40049084900095649008E4402BC7047C0467C
:1001F40002B4714649084900095C49008E4402BCB6
:100204007047C04603B47146490840004900095A82
:1002140049008E4403BC7047002243088B4274D3C8
:1002240003098B425FD3030A8B4244D3030B8B42F3
:1002340028D3030C8B420DD3FF22090212BA030CFC
:100244008B4202D31212090265D0030B8B4219D3DD
:1002540000E0090AC30B8B4201D3CB03C01A5241FD
:10026400830B8B4201D38B03C01A5241430B8B4245
:1002740001D34B03C01A5241030B8B4201D30B032E
:10028400C01A5241C30A8B4201D3CB02C01A524155
:10029400830A8B4201D38B02C01A5241430A8B4218
:1002A40001D34B02C01A5241030A8B4201D30B0201
:1002B400C01A5241CDD2C3098B4201D3CB01C01A1B
:1002C400524183098B4201D38B01C01A5241430925
:1002D4008B4201D34B01C01A524103098B4201D313
:1002E4000B01C01A5241C3088B4201D3CB00C01A80
:1002F400524183088B4201D38B00C01A52414308F8
:100304008B4201D34B00C01A5241411A00D201461C
:10031400524110467047FFE701B5002000F0F0F8A5
:1003240002BDC0460029F7D076E7704703460B4369
:100334007FD4002243088B4274D303098B425FD3DA
:10034400030A8B4244D3030B8B4228D3030C8B4206
:100354000DD3FF22090212BA030C8B4202D31212EC
:10036400090265D0030B8B4219D300E0090AC30BC1
:100374008B4201D3CB03C01A5241830B8B4201D36E
:100384008B03C01A5241430B8B4201D34B03C01A57
:100394005241030B8B4201D30B03C01A5241C30ACF
:1003A4008B4201D3CB02C01A5241830A8B4201D340
:1003B4008B02C01A5241430A8B4201D34B02C01A2A
:1003C4005241030A8B4201D30B02C01A5241CDD2CF
:1003D400C3098B4201D3CB01C01A524183098B421A
:1003E40001D38B01C01A524143098B4201D34B0103
:1003F400C01A524103098B4201D30B01C01A524166
:10040400C3088B4201D3CB00C01A524183088B42EC
:1004140001D38B00C01A524143088B4201D34B00D5
:10042400C01A5241411A00D2014652411046704747
:100434005DE0CA0F00D04942031000D3404253404C
:1004440000229C4603098B422DD3030A8B4212D30C
:10045400FC22890112BA030A8B420CD3890192113E
:100464008B4208D3890192118B4204D389013AD07B
:10047400921100E08909C3098B4201D3CB01C01A50
:10048400524183098B4201D38B01C01A5241430963
:100494008B4201D34B01C01A524103098B4201D351
:1004A4000B01C01A5241C3088B4201D3CB00C01ABE
:1004B400524183088B4201D38B00C01A5241D9D2D6
:1004C40043088B4201D34B00C01A5241411A00D257
:1004D4000146634652415B10104601D34042002B53
:1004E40000D54942704763465B1000D3404201B5D2
:1004F400002000F005F802BD0029F8D016E7704787
:100504007047C046002B11D1002A0FD1002900D119
:10051400002802D00021C943080007B4024802A100
:100524004018029003BDC046D9FFFFFF03B46846DC
:1005340001B5029806F084F8019B9E4602B00CBCFB
:100544007047C04610B5002903D100F007F82030E9
:1005540002E0080000F002F810BDC0461C2101238F
:100564001B04984201D3000C10391B0A984201D392
:10057400000A08391B09984201D30009043902A270
:10058400105C40187047C0460403020201010101D7
:1005940000000000000000008021A02010B503220C
:1005A4000901C00505F05AFB8021A020032249015E
:1005B400C00505F053FB8022094B5202D96B0A4354
:1005C400DA63DB6B074B084A5968114080229205B5
:1005D4000A435A60602219680A431A6010BDC04673
:1005E40000100240006C0040FFFFFFCF10B5040074
:1005F40001230C43032C0AD80D2A08D80D334B438E
:10060400382141435B18034C9B185B001B5B1800AB
:1006140010BDC046146800080120704701207047CF
:1006240010B5FFF7FBFF10BD012070470120704794
:1006340010B5FFF7FBFF10BD7047704710B5FFF70B
:10064400FCFF10BD012070477047704713B501913E
:1006540010496B4609780090002915D15B798B42CB
:100664000DD08A420BD000F0C7FC040001000098B2
:1006740000F096FC2000009901F0BAFA16BD00982B
:1006840000F0A4FC0400F5E7009800F0B5FC009924
:10069400F2E7C046E80E002010B504006388008825
:1006A4001B040A001843A188FFF7D0FF10BD10B542
:1006B40004000121FFF7F0FF2100FFF7ADFF002840
:1006C40006D001212000FFF7E7FF2100FFF7A8FF74
:1006D40010BD70B500210400FFF7DEFF0500210006
:1006E400FFF7AAFF28002100FFF7A8FF70BD70B52F
:1006F40001210400FFF7D0FF21000500FFF794FF5C
:10070400002801D1002070BD21002800FFF790FFD0
:100714000028F7D02100280002F09EFD0028F1D027
:100724002100280002F0B0FC0028EBD021002800B2
:1007340002F04EFA0028E5D02100280002F01EFA4B
:100744000028DFD02100280002F0F2FC0028D9D0D4
:100754002100280001F048FB0028D3D02100280004
:1007640001F054FB0028CDD02100280001F070FBDB
:10077400C9E70123834010B5D8B200F062FB10BD75
:1007840010B504000120A040C0B201F049F82000D7
:10079400FFF7EFFF10BD0120704710B5FFF7FBFF17
:1007A40010BD10B5040000F0FBFA2000FFF74AFF6B
:1007B4002000FFF7F2FF10BD10B50120FFF7F1FF95
:1007C40003F050F810BD10B50020FFF7EAFF03F066
:1007D40059F810BD10B5FFF737FF02F050FF00F0D5
:1007E4001CF810BD10B500F01DF8FFF72EFF02F045
:1007F4004BFF10BD01207047704770B5051CFFF713
:10080400F9FF041E02D0281CFFF7F6FF200070BD7C
:10081400704710B5FFF7F1FF10BD10B50020FFF7CA
:10082400F8FF10BD10B502F02BFEFFF7F2FF10BD6C
:1008340010B502F025FE074B04001A78824207D057
:10084400187002F0B1FF044B18602000FFF7E1FFBD
:1008540010BDC046E00E0020E40E002030B50B0AA7
:1008640085B0DBB26C4600900191002B01D000F002
:10087400ABFE00236A46D381009B02AD0293A3889A
:10088400AB80DBB2002B05D10298696800F0FCFD57
:1008940005B030BD2800FFF70AFF0028F4D1F7E7C0
:1008A400037910B5012B02D1008800F0C7FB10BDFD
:1008B40010B5041E11D0031FDBB2A02B0ED802F01A
:1008C40013FE002804D0200002F04EFE00F0F4FED7
:1008D400200002F03FFE00F0EFFE10BD03002033C5
:1008E400DBB2072BF9D8072301201C40A040C0B27B
:1008F40000F044FEEFE710B5002807D0031FDBB279
:10090400A02B04D802F030FE00F0D6FE10BD030088
:100914002033DBB2072BF9D807231840063B83406A
:10092400D8B200F033FEEFE770B504000D00FFF716
:10093400BFFF0120002D0ED000230A4A2800002109
:1009440005F056FE0023084A80185941FA22002374
:100954009200FFF7D7FD04F004F82000FFF7CBFF67
:1009640070BDC046A0860100E7030000002110B559
:10097400392800D15031FFF7D7FF10BD10B500283A
:1009840003D000F0FBFD00F097FE10BD10B5002869
:1009940003D000F0FBFD00F08FFE10BDF0B585B074
:1009A40086790C1C4579029000F0D8FD36062304A4
:1009B400360F01900393002828D00195002D25D0EF
:1009C40023041B0E0F221900914340290FD0E1B2DA
:1009D4000A0000202032D2B20190072A16D91F2221
:1009E4009343202B03D1012910D986420ED0002233
:1009F400AA4B01925B785B0708D5022000F088FEC1
:100A040000F0ACFD01234340DBB201932304180F33
:100A14000B283ED8FFF7F6FB0C000C0057005700DC
:100A24003D003D003D003D00B400120125012501BB
:100A340026052304360F1B0E0F2B00D93601E4B212
:100A4400002D12D0002E0BD023002033DBB2300057
:100A5400072B01D9002C05D100F090FD00F02CFEED
:100A6400200051E000F0A0FDF8E72000FFF743FF6D
:100A7400AE420ED023002033DBB23000072B01D965
:100A8400AC4202D100F082FD01E000F095FD00F0DF
:100A940013FE019B002B00D197E000F057FD0123CA
:100AA40002001A40184200D08FE0029B5A7100F0F5
:100AB40047FD00F005FA029800F044F900F040FD0B
:100AC40000F00AFA81E00F22230427051B0E3F0FD2
:100AD4009343202B00D03F01E4B2002C06D0012C1C
:100AE40036D0002D3FD0002E1CD0B9E76B4B5B787D
:100AF4005B0713D4A5420AD0A74204D0380000F003
:100B04003DFD00F0D9FD0020FFF7D2FEC1E728002B
:100B1400FFF7F1FE002FBCD03800B3E7002D0BD057
:100B2400002E03D13800FFF729FFB2E7012EB0D120
:100B3400380000F069FDACE7AE42AAD13800FFF7F7
:100B440025FF380000F06EFD380000F049FDA0E7F5
:100B5400002D02D0052E9CD8E4E7042E99D8380045
:100B6400FFF714FF95E7AE42F9D00120392C01D1EB
:100B7400FA20400103F0F5FE2000FFF7BCFE88E7F1
:100B840023049B019B0F2BD19D421AD110210800F5
:100B940023065B0F9B002207DBB2120F9A40204012
:100BA400214202D00F209840C04324051043A40FD3
:100BB400C0B2022C0ED0032C0FD0012C07D000F0B1
:100BC4004FF902F05DFCFFF724FE05B0F0BD00F024
:100BD4003DF9F6E700F04EF9F3E700F032F9F0E7FB
:100BE400A3059A0F002D1DD0D207EAD510210800C5
:100BF40023065B0F9B002207DBB2120F9A402040B2
:100C0400214202D00F209840C04324051043A40F72
:100C1400C0B2022C0CD0032C0DD0012C05D000F056
:100C24007DF9CEE7012ACCD9E0E700F06DF9C8E7F9
:100C340000F07EF9C5E700F02DF9C2E7E6B224051D
:100C4400240F002D06D0200000F03AF93000FFF701
:100C540095FEB6E73000FFF799FE200000F03CF95E
:100C6400AFE7E7B23800F03804283ED8FFF7C0FAFF
:100C740003260F182200002D06D0042EA1D8E0046C
:100C8400C00E00F035F99CE7052E9AD8F7E7E0048A
:100C9400C00E002DE2D100F013F992E7D416002023
:100CA400002D04D0E004C00E00F003F989E700F041
:100CB400FBF886E71A4B5B785B0704D4E004C00EAC
:100CC400002DCBD0E7E7002D05D0E0040321C00EB2
:100CD40000F0FCFC75E7012000F01AFD012E00D89D
:100CE4006FE7022000F014FD6BE7002D08D0002E02
:100CF40003D03800FFF7DCFD63E7E004C00ECAE769
:100D0400AE420AD00120392F01D1FA20400103F06C
:100D140028FE3800FFF7EFFD53E7E004C00E9DE71F
:100D2400D416002070B504002188407900F090F9B1
:100D3400051C00F007F900F083F8291C2000FFF7D8
:100D44002DFE70BD037910B50400002B11D0FFF700
:100D5400CEFC00280ED100F001FC002809D06379F4
:100D6400002B06D0074B5B785B0702D5022000F00E
:100D7400CFFC10BD2000FFF7D5FF2000FFF7A9FC32
:100D8400F7E7C046D416002010B500F01DFC00F0B3
:100D940093FC10BD10B502F0F1FBFFF7F5FF10BD99
:100DA40010B500F0FBFBFFF7F5FF10BDC2B2000465
:100DB400000F062817D00F2306280DD80E30034045
:100DC4000020012B07D80120F02A04D006D80020E7
:100DD400E7239342404170470630F0E7F43A50422B
:100DE4005041C0B2F7E71000F13843425841E721BF
:100DF400002391425B411843EDE703000279002090
:100E040010B5824204D0188800F018F9FFF7CEFF1D
:100E140010BD82B002B0704782B002B07047704714
:100E240010B5FFF7FCFF10BD7047000010B5FFF7C9
:100E3400FBFFFFF7F5FF014B187010BDFF0E0020FC
:100E4400704710B5FFF7F2FF10BD000010B5034B5B
:100E54001B781843C0B2FFF7E9FF10BDFF0E002056
:100E640010B5034B1B781840FFF7E0FF10BDC046D8
:100E7400FF0E002010B5034B1B785840C0B2FFF79B
:100E8400D5FF10BDFF0E0020704710B5FFF7FCFF23
:100E940010BD704710B5FFF7FCFFFFF7F6FF014BDD
:100EA400187010BDFE0E002010B50020FFF7F2FFF1
:100EB40010BD0123834010B5D8B2FFF7EBFF10BD7E
:100EC4000123834010B5034A12781343D8B2FFF7C5
:100ED400E1FF10BDFE0E00200123834010B5034A3C
:100EE40010789843C0B2FFF7D5FF10BDFE0E002066
:100EF4000123834010B5034A12785340D8B2FFF758
:100F0400C9FF10BDFE0E002010B5034B1B7818431B
:100F1400C0B2FFF7BFFF10BDFE0E002010B5034B9B
:100F24001B781840FFF7B6FF10BDC046FE0E002028
:100F340010B5034B1B785840C0B2FFF7ABFF10BD90
:100F4400FE0E00207047032370B50125CC086343CF
:100F5400D21807232E0019408E4000210300CB40F5
:100F6400545C2B405B42634033405C405454013139
:100F74000329F3D170BD30B50724032300220440B4
:100F8400C008434301251000C9188B5CE3402B4083
:100F9400934001321843C0B2032AF6D130BD000099
:100FA40013B5030A01AADBB210800800032B09D889
:100FB40011780D2906D80E246343C918024A89B250
:100FC400FFF7C1FF13BDC046E90E002007B5020AB2
:100FD40001ABD2B218800020032A09D81B780D2B4C
:100FE40006D80E2050431818024980B2FFF7C3FFF9
:100FF4000EBDC046E90E0020F7B5052401270D4BB0
:101004000D4A1B78127801AE1343DBB23080009393
:10101400009B23413B4204D1013CF9D20025280026
:10102400FEBDE5B22800316800F0F2FD80B201286F
:10103400F2D0F4E7FE0E0020FF0E002007B501AB4E
:1010440018800198FFF7D8FF019900F0E1FD0EBD6B
:1010540013B501AB19800E4B1B78002B03D00198FC
:10106400FFF7ECFF16BD98420CD00198FFF7C4FFC0
:10107400040001000198FFF793FF2000019900F09C
:10108400C7FDEFE70198FFF7A1FF0400F5E7C046AD
:10109400E80E002030B5012425008D4029002500EC
:1010A40095402A009C4003000A43D1B2A343024066
:1010B4008A4201D12043C3B2180030BD10B50400E8
:1010C4001300044A10780A002100FFF7E3FFFFF73A
:1010D400E1FE10BDFE0E002070B507250B4B1C78F9
:1010E4000B4B1B78A34200D170BD0A4BE200D15ACE
:1010F4009B1858889A8800040843D9880134090445
:101104001143FFF789FE2C40EAE7C046000F002098
:10111400010F0020020F0020064B10B558881A88D2
:10112400D988000410439A8809041143FFF774FE18
:1011340010BDC046420F0020F7B51D4883790F2B20
:1011440031D84379002B2ED01A4A1B4B12781B78C6
:10115400019245780678194C019A934223D0D9001C
:101164000A191779002F1FD05778AF421CD1095D97
:10117400B14219D15179002916D147885188BC460A
:101184006746C91B89B2C7290ED80F241021837959
:1011940023400B4383719379234019439171FFF7E3
:1011A400D1FDFFF799FFF7BD072201331340D3E7C1
:1011B400420F0020010F0020000F0020020F00202A
:1011C400F7B50E4C0E4B24781B7801940D4C019D01
:1011D400AB4201D10020FEBDDE00A5196F788F421D
:1011E40005D1365D864202D16D79954203D107253A
:1011F40001332B40EBE70120EDE7C046010F00204F
:10120400000F0020020F0020F0B5050089B006226F
:10121400010004A805F0F2FA9A4C6E7923792A7930
:10122400002B18D19A4200D1DDE09E4200D11FE18B
:101234002800FFF7E2FD002800D119E10822290067
:10124400200005F0DBFA2000FFF72AFBFFF774FF0C
:10125400FFF762FFC7E06B882F78039363790399E4
:1012640002936388CB1A02999BB2002900D1D1E082
:10127400C72B00D991E0002A00D1B4E06B786278E2
:101284000193A37901990F2B57D8914214D1227855
:10129400BA4211D1002E4AD10F2213400132134316
:1012A400A371FFF739FF2000FFF74CFDA379AB7161
:1012B4000024200009B0F0BD002E38D1320001997D
:1012C4003800FFF77DFF320038000199FFF778FFFF
:1012D4000400B042ECD10498FFF7B0FEC3B200049E
:1012E4000F21020F032A08D8012A0FD9000E014248
:1012F40011D0AA790F2A0ED8DBE706320A40012A58
:101304000ED92800FFF71EFD029CD2E7000E014211
:1013140001D0002BCDD02033DBB2072BC9D9F0E7A5
:10132400EF2BC6D90F33DBB2022BC2D9E9E7012375
:10133400544A91790B439371BAE791420ED12278C2
:10134400BA420BD1002E09D1AB712800FFF7FAFC89
:1013540008222900200005F051FA79E72800FFF758
:101364004CFD002800D183E0002E00D180E0454BE5
:101374009A791F2A0BD9198806A8018003994180FC
:101384001B798271037100234371FFF7DBFC082290
:1013940029003C4805F032FA58E7A3790F2B0ED800
:1013A40004980599FFF735FD2000FFF7CBFC0822D0
:1013B4000021200005F01AFAFFF7AEFE78E7002AB4
:1013C40011D061786A7891420FD12278BA420CD157
:1013D400002E0AD12800AB71FFF7B4FC08223100BB
:1013E400200005F003FA012463E72800FFF705FD58
:1013F40000283DD0002E3BD0A3791F2BC7D92288CB
:1014040006A80280039A4280227983710271002225
:101414004271BAE7C72B2FD88A42E4D08E4227D034
:1014240062786B789A421AD12378BB4217D1A37998
:10143400DA070ED40F2B0CD90F22AB719343F02B88
:1014440083D00F21AB791A09013212010B401343E7
:101454007AE708222900200005F0D0F9C3E7280024
:10146400FFF7CBFC002892D10123A2791343A37187
:101474002800FFF767FCB6E704980599FFF7C9FC55
:1014840095E7C046420F0020F0B585B0009068464D
:101494006C460191FFF7B8FE2379071E244E254DB3
:1014A4000CD0002B03D000980199FFF7B5FC072757
:1014B40028783378834222D105B0F0BD02AA03CC48
:1014C40003C2BB42F3D0072233785C1C14402A7851
:1014D40094420AD01848DB000822C01802A905F07B
:1014E4008DF93470FFF7F8FDE1E7FFF759FC0822A6
:1014F4003900124837702F7005F078F9D7E70E4C91
:10150400C0000019FFF780FE0028D5D02B78DB003F
:101514001A5BE4186088E188A3880004090419436D
:101524001043FFF779FC2B7801333B402B70BFE766
:10153400010F0020000F0020020F0020420F0020A6
:10154400014B1878C0087047520F00200720024B47
:101554001B7818407047C046520F00200720034BE9
:101564001B781840431E9841C0B27047520F0020A8
:10157400014B18787047C0465E0F0020024B1A7862
:10158400104318707047C0465E0F0020024A13785B
:10159400834313707047C0465E0F00200022014B46
:1015A4001A7070475E0F0020024B1A7810431870AF
:1015B4007047C0465D0F0020024A137883431370BE
:1015C4007047C0465D0F00200022014B1A7070471F
:1015D4005D0F0020704710B5FFF7FCFF10BD000041
:1015E40010B5054A1378184204D0834318001370C9
:1015F400FFF7F1FF10BDC046530F0020704710B530
:10160400FFF7FCFF10BD0000010010B5044A137879
:101614001940814203D003431370FFF7F0FF10BD5C
:10162400540F002010B5054A1378184204D08343A0
:1016340018001370FFF7E3FF10BDC046540F0020DD
:1016440010B5044B1A78002A03D000201870FFF755
:10165400D6FF10BD540F002070B5124A124B1478F7
:101664001B78124D1C43124B2E681B78002B06D09E
:101674001C4301F029FF002801D0FFF7E1FF34707B
:101684002C68082220000B4905F0A2F8002807D096
:1016940008222100074805F0B1F8200001F0FCFE03
:1016A40070BDC0465E0F00205D0F0020000C0020BE
:1016B400540F00204A0F002010B5FFF7CDFF10BDD6
:1016C400704710B5FFF7FCFF10BD0000094B10B5C3
:1016D4005B785B070AD5084CC30019432170FFF7F8
:1016E400EFFB2078C008FFF7ECFF10BDFFF7E8FB25
:1016F400FBE7C046D4160020520F0020002010B58E
:10170400024B1870FFF7DDFF10BDC046520F0020DA
:1017140010B5094A13781900814311704A070AD198
:10172400994208D0054B5B785B0704D5C808FFF7DE
:10173400D3FBFFF7E3FF10BD520F0020D4160020A7
:101744000A4910B54B785A07D20F82420CD00122B5
:101754000240042092008343134308004B7000F0BE
:1017640067F80220FFF7D4FF10BDC046D41600204E
:10177400044B10B5587801234007C00F5840FFF7B9
:10178400DFFF10BDD416002010B50120FFF7D8FFED
:1017940010BD10B50020FFF7D3FF10BD10B5002019
:1017A40000F0C5FB10BD10B5002000F0BAFBFFF738
:1017B400F5FF10BD07B500F069FB00F079FB6A4640
:1017C40000236846137000F08EFB0120074B18704D
:1017D40000F094FBA0236A465B0101A8938000F00B
:1017E4009AFB01F016FDFFF7DEFF07BDFF0E002098
:1017F40010B5FFF7DFFF10BD10B500F061FB10BDA1
:1018040010B500F049FB002801D001F0D5FC10BD53
:1018140010B500F061FB10BD10B500F06AFB10BDFF
:1018240010B500F06BFB10BD10B500F06DFB10BDE2
:1018340010B500F070FB10BD10B500F07EFB10BDBC
:10184400F7B501F0EFFF094D06002B8883420BD05A
:101854006C460027278001F0E5FFA7806080009890
:101864000199FEF7FBFF2E80F7BDC046600F0020F4
:1018740010B501F099FF024B1860024B186010BDBF
:10188400680F0020640F00207047704710B5FFF701
:10189400FCFF10BD704710B5FFF7FCFFFFF7F6FF24
:1018A40010BD704710B5FFF7FCFF10BD704710B5B1
:1018B400FFF7FCFFFFF7F6FF10BD012070470000A3
:1018C40010B5054800F042FB00F0F5FCFFF7DCFF23
:1018D400FFF7E1FF10BDC046E91D00080120704775
:1018E40010B5FFF7FBFF10BD70477047704710B588
:1018F400FFF7FAFFFFF7F9FFFFF7F8FF10BD00004D
:1019040010B5FFF77DFF002801D1FFF771FF0848EC
:10191400FFF77EFF0748FFF787FF00F0E1FFFFF7BF
:101924007BFFFFF78EFA044B1878FFF7AEFA10BD71
:101934006C0F0020D4160020FE0E002010B501F01C
:101944002FFF01F079FC00F0ABFBFFF7D9FF01F0AA
:1019540095FDFEF75DFFFFF7AAFF10BDF0B589B056
:10196400FFF7ABFF002807D1FFF76AFF01F087FDFF
:10197400FEF75EFF09B0F0BD00F0A8FB314F002474
:101984003D0020000134E4B22E8800F0EFFA042C6C
:1019940054D002358642F4D02B4B1B789B0701D5DB
:1019A40000F0EAFAFFF79CFF00240590200000F005
:1019B400DDFA3B8802000290984237D05A40012356
:1019C400002504920193019B049A13409BB2002BBF
:1019D40023D0029A019B13409BB25A1E9341DBB25F
:1019E4000393059B002B13D02900200001F06AFE0D
:1019F40000280DD106AE3570747001F013FF012379
:101A04003371039B7080737106980799FEF726FF64
:101A140029002000039A01F061FE019B01355B005F
:101A2400EDB201930E2DCED1029B3B800134E4B282
:101A34000237042CBAD1FFF71BFF97E78642ABD1DC
:101A440092E7C046CC1600206C0F002070B500F061
:101A5400E9F8A4230400DB0198423ED2A022D2017B
:101A6400904200D389E0E72812D8DF2806D8A428BA
:101A740006D8032802D8013C63425C41201C70BD97
:101A84000300CD3B9BB21443122BF7D90024F5E796
:101A94008023DB01984216D28026B601B0427CD264
:101AA400431EFF3B013EFF3E9BB2B342EED2000A0F
:101AB400C0B200F049F90502E0B200F0B3F83540D5
:101AC40028430400DAE7C0B200F0ACF8F0231B01AD
:101AD4002340394C18430443D0E7A523DB01984243
:101AE4001DD2364B984235D8354B98420DD8354BDC
:101AF40098422AD80322C4B2A3081440023AA2404E
:101B04005B01314C13431C43B8E70321012201401C
:101B14008A40C3065B0F5B012C4C1343F3E72C4B49
:101B2400984207D81F202B4B20409C421CD82A4C9B
:101B34000002D0E7294BC3189BB21F2BA6D8F8226A
:101B440003025201264C1340DDE71F230340254CBA
:101B54001B02D8E70321012201408A40C3065B0F20
:101B64005B01214C1343CEE700F0EEF8F823802408
:101B740000025B011840A401ADE71F20204000F0E3
:101B8400E3F8E3051B0F02001B02C00602D5FF2188
:101B940012010A40154C1343B5E7C004C00E00F00F
:101BA400D3F80502E0B200F03DF8F82334005B01FD
:101BB4001D4005432C4361E700A0FFFF5F52000076
:101BC4003F5200001F520000008DFFFF008CFFFFFA
:101BD400BF5200009F520000F4A0FFFF40ADFFFF82
:101BE400F0A0FFFFF1A0FFFF008AFFFF0090FFFFBE
:101BF40007B50B0A01AA1180D9B20023032905D81D
:101C040012780D2A02D800F0AFFE030018000EBDB2
:101C140007B501AB19800199FFF7EAFFFFF716FF3B
:101C24000EBD0000030010B5E7280AD8DF280AD843
:101C3400312800D173E00FD8292866D02A2800D192
:101C440074E0180010BDE0380728FAD8FEF7C6FA89
:101C540018F927303DF9474C392808D0822806D096
:101C64003528EED1374A12789206EAD506E0354A8D
:101C74001178890761D152781207E2D52923E0E768
:101C840030480121027814000C400A4245D14078C2
:101C94000142D6D02300D206D3D4E323D1E7294A84
:101CA40012785107CDD50023D206CAD4E333C8E74E
:101CB4002449E2230A785007C3D401200400497858
:101CC400023B0C400842E5D0BBE71E4A5178890725
:101CD400B7D512780023D206B3D4E733B1E7194A53
:101CE40012781107F6D4ACE71649E6230A781007F0
:101CF400A7D4022004004978023B0C400842A0D13A
:101D04002300D2069DD4E7239BE70E4A1178890667
:101D140015D45278120700D493E7392391E7094A7E
:101D24001278520600D48CE72A238AE7054A1278EF
:101D3400520600D485E7312383E7E02381E7352386
:101D44007FE7C046D416002030B5254C21784B07D8
:101D54000DD514220240043A53425A411823034039
:101D6400083B5D426B419A4201D00C2358400B075B
:101D74000DD514220240143A53425A411823034009
:101D8400183B5D426B419A4201D00C235840647861
:101D9400E3070DD511220240013A53425A41182358
:101DA4000340083B5D426B419A4201D009235840ED
:101DB400A4070DD511220240113A53425A41182367
:101DC4000340183B5C4263419A4201D009235840C6
:101DD400C90603D5030701D51823984330BDC0466F
:101DE400D416002000207047074B10B5C3180124F7
:101DF4001F2B06D84C79002C03D11F231840FEF763
:101E0400BFFC200010BDC04620ADFFFF4B7910B5CC
:101E1400002B14D00B4A90420ED00B4A904204D0AF
:101E24000A4A904205D0180010BDFFF7A1FC002318
:101E3400F9E7FFF7A9FCFAE7FFF7ABFCF7E70123A3
:101E4400F1E7C0465B7C00005C7C00005A7C00002B
:101E54004B7910B5002B12D00A4A90420CD00A4A92
:101E6400904207D0033A904202D1FEF7A5FC00232A
:101E7400180010BDFFF7C0FCFEF7A5FCF7E701232F
:101E8400F6E7C046017C0000037C000010B500208A
:101E940000F015FA10BD000010B5002000F09AF90A
:101EA400024BC01843425841C0B210BD1D01FFFF90
:101EB40010B50020014900F0E6F910BDE3FE000072
:101EC40010B5002000F0FBF90020024900F0DBF916
:101ED40010BDC046FFFF000010B50400022000F052
:101EE4006DF9207010BD10B50178022000F0BFF923
:101EF40010BD10B5032000F061F910BD10B501004C
:101F0400032000F0B4F910BD10B50400042000F063
:101F140061F9208010BD10B50188042000F0B3F9E8
:101F240010BD10B501000F2000F0B9F910BD10B5B7
:101F34000100132000F0B3F910BD10B501000E200C
:101F440000F095F910BD002070470000014B1860A7
:101F54007047C046040C0020704710B5FFF7FCFF23
:101F640010BD704710B5FFF7FCFF10BD014B4000DA
:101F7400C05A7047DE160020704710B5032002F0E7
:101F8400F0FC10BDC046C046C046C046C046C04670
:101F9400C046C046C046C046C046C046C046C0460D
:101FA400C046C046704710B5FFF7E7FF10BD10B537
:101FB40072B60F23020001211A4091409843202257
:101FC40003F04CFE62B610BD70B50A4C0A4D206891
:101FD400431C01D0FFF7EBFF0434AC42F7D1074CAC
:101FE400074D2068431C01D0FFF7E1FF0434AC42E5
:101FF400F7D170BD0C6A00081C6A0008D469000897
:102004000C6A0008F7B5244B8A00D3580D000190E0
:102014005A1C3FD072B601240F2726001A003B40F9
:102024009E40BA43009231002200009803F016FE4D
:10203400009B5E8362B6FFF7A5FF00260E22A4462E
:1020440016480023016800934B1C09D00B00BB43C6
:102054001B693940CB4061460B40013B2340009350
:10206400009B013A1E43D2B2B6B264000430002A87
:10207400E7D1094BAA00D058431C01D0FFF797FFC2
:1020840031004B1E99412800C9B2FFF78CFF019B18
:102094006D005E53F7BDC0460C6A0008D4690008A1
:1020A40010B5FFF791FF08220021064804F09EFBBB
:1020B40008220021044804F099FB00F035F8FFF7EA
:1020C4004CFF10BDDE160020D616002037B50822BE
:1020D4000021684604F08AFB00242100013468468C
:1020E400E4B2FFF78FFF042CF7D1082269460C48AD
:1020F40004F06EFB05006B1E9D41EDB2002804D078
:1021040008226946064804F079FB2A000549044878
:1021140000F00CF80400FFF725FF20003EBDC04688
:10212400D6160020DE16002070470000F7B5070021
:10213400141E124D019107D001232B7001F034FBC2
:102144000F4B18600020FEBD2E789642FAD00C4B3F
:10215400186801F0D8FA0428F4D908223900019843
:1021640004F036FB002805D008223900019804F059
:1021740045FB3400002320002B70E4E7740F00209B
:10218400700F002010B5FFF7E9FB10BD10B501F08A
:10219400D9FA01F0B4FDFFF793FB01F0B5FDFFF7A9
:1021A400CDFB01F0BFFD01F0C5FDFFF7EBFF01F032
:1021B400DFFD01F07DFDFFF79AFBF4E713B56B46F5
:1021C400DC1D0023010001222000237000F07BF8B5
:1021D400207816BD13B56B469C1D00230100022216
:1021E4002000238000F06FF8208816BD002307B577
:1021F400010001A80422019300F065F801980EBDC6
:1022040007B56B46D97101220100D81D00F062F8B0
:1022140007BD07B56B46D98002220100981D00F066
:1022240059F807BD07B504220191010001A800F087
:1022340051F807BDF8B51400D31D6A46DB08DB006E
:10224400D31A00AF9D460500220068460E0000F038
:102254003AF822006946280004F0BAFA002804D0AB
:1022640022003100280000F035F8BD46F8BD70B5F5
:102274000D000400FFF7A2FFA84203D029002000AC
:10228400FFF7BEFF70BD70B50D000400FFF7A2FF9D
:10229400A84203D029002000FFF7BBFF70BD70B532
:1022A4000D000400FFF7A2FFA84203D0290020007C
:1022B400FFF7B8FF70BD10B500F042F910BD10B5BE
:1022C40000F046F810BD0B0010B50100180000F036
:1022D40057F810BD0B0010B50100180000F0CAF843
:1022E40010BD0000802210B5054C00212000D20052
:1022F40004F07CFA81238022DB00D200A35010BDBD
:10230400780F002070B5064D064C02202B5D002B83
:1023140005D100F08BF9002801D00120285570BDAB
:10232400780F00200404000070B5074D074C022309
:102334002A5D002A06D000F0CBF9031E02D0002348
:102344002B550133180070BD780F002004040000E1
:1023540070B5FFF7D7FF041E03D1FFF7E5FF200098
:1023640070BD00F06FF90500FFF7BCFF012C04D12C
:10237400FFF7DAFF431E984105402C00EFE7000009
:1023840070B50C00802185180023C9008D4205D842
:1023940003490918200004F031FA0123180070BD24
:1023A400780F0020F8B506000F0015000024AC4299
:1023B40001D10120F8BDE0003918301800F0F6F919
:1023C4000028F7D00134F2E7F8B506000F00150035
:1023D4000024AC4201D10120F8BDE0003B180CCB35
:1023E400301800F053F90028F6D00134F1E700006A
:1023F40070B500F027F90024A04222D0FFF782FF35
:10240400114D0600802229002000FFF7DDFFA042C5
:102414000ED080210D4A0E4B2800C90000F002FAAC
:10242400020080200B00C00000F030F94400E4B248
:10243400012E01D1FFF778FF80238122DB00D20037
:10244400EA50200070BDC046780F00202523228466
:10245400E49CF2CB80218022054BC9005B5801200B
:1024640010B51201934201D3FFF7C2FF10BDC0465D
:10247400780F00208023F0B5150087B0821806007D
:102484000191DB009A4215D82C4F2A00C719390054
:10249400019804F09DF9012400280CD02A00019928
:1024A400380004F0ABF9FFF72DFF039000283FD16B
:1024B400FFF73AFF0024200007B0F0BD2F00052DE0
:1024C40000D9052700230024049305948024730372
:1024D400F9005B0F04AA0B431370330A537004AB67
:1024E40001999670D81C3A0004F088F9049A059B67
:1024F4001249E4000859029100F0C8F8002808D1F4
:102504000400039B012BD6D1FFF70EFF0028D1D086
:10251400D1E7029B029A1B5908331351FFF79AFF24
:1025240004000128EDD1019BED1BDB19F619019381
:10253400002DC3D1FFF78EFFE2E7C046780F0020DD
:10254400F0B585B0FFF7CEFE00F0CAF8002805D13B
:10255400FFF7C8FE0024200005B0F0BD304D8022F6
:1025640029000020FFF71EFF00284BD080212D4BAF
:102574002D4A2800C90000F055F9060080200C00FF
:10258400C00002A900F012F9029BB34202D1039BDE
:10259400A34201D0FFF7A6FE8124E0268027E400B1
:1025A400F602FF006946200000F000F9002821D05F
:1025B400009B019A190011431BD00392DAB208342C
:1025C4000293910921D1FF21090219401B02100431
:1025D4001B0E194330400843D2088318BB4214D859
:1025E4000B212818694404F009F980231B019C423B
:1025F400D8D101208023DB00EC50002808D0FFF75D
:1026040029FF07E0FFF76EFEA2E78023DB00EC5012
:10261400FFF7EEFE041E9ED1FFF764FE9BE7C04663
:10262400780F0020E49CF2CB2523228410B50021EE
:10263400034802F07DFC43425841C0B210BDC0467D
:1026440068170020F8B5002601250D4B1B68B3421E
:1026540001D82800F8BD0B4F0B4B38681968036884
:1026640071185B6998470400386802F0BDFF0122C5
:1026740000230443E4B2A2425B41B6181D40E4E7E0
:10268400080C0020841300200C0C002013B50092C9
:1026940001930C4B19680C4B41181B78002B05D087
:1026A400009A019BD243DB4300920193074B08221B
:1026B40018680368DC686B46A04743425841C0B2BF
:1026C40016BDC046100C0020821300208413002085
:1026D40010B5024802F037FC012010BD6817002035
:1026E400F7B5274B274D2B60FFF7F2FF28680368E7
:1026F4005B6898470121244B02781E68234BB6027D
:102704001E40234B0A401A7083680400002B02D138
:10271400204801F0D5FEA4680194013C21002868FA
:1027240002F082FFB0420AD20026019BB3420CD1D0
:10273400184801F0C5FE184801F0C2FE1DE0002C47
:10274400EAD1164801F0BCFEE6E7631CF3D0144F4F
:10275400210028683C6002F075FF80233618013C94
:102764001B019E42F1D33968019A0E4B521A286814
:102774001A6002F059FF0C4B18600120FEBDC046E0
:102784006817002084130020E075FF1F00FC0F0071
:10279400821300201C6A00089D6A00087A6A0008F7
:1027A4000C0C0020080C0020100C0020164BF7B570
:1027B4000C001968154B4118186802F051FF0123E9
:1027C4000021134D84462B70124B13481E780B00C6
:1027D400F2B2002756429F41634600960197009A41
:1027E4001B68017053406246297056680578019A47
:1027F400564001228D4203D00B000E000A000170E6
:10280400100048C4FEBDC046100C002084130020F4
:1028140081130020821300208013002010B500F0E3
:1028240047FE10BDF0B5471806001900100089B026
:10283400B74201D809B0F0BD33784A01DBB2434056
:102844001C001B02079300230693E30E9B180193BD
:10285400630112220093200000230D0003F0C8FE40
:10286400009A019B8018594100196941EA01630EDD
:102874009B180393E3010293029A039B8018594126
:102884002A02230E9B18059323020493049A059BA2
:1028940080185941069A079B013680185941C7E7A9
:1028A40010B5FEF7A9FF10BD10B50020FFF75EFBC1
:1028B4000123184010BD000010B5FFF707FC0748BE
:1028C40002F04FF8FFF702FCFFF7EEFF002803D0F9
:1028D400FFF7E6FF00F0C6FF10BDC046B80B0000CE
:1028E40010B5FFF7E9FF10BD37B56B460400DD1DD9
:1028F4002A000121006800F0EDF8236828780133EC
:1029040023603EBD0620704710B500F07FF810BD6F
:1029140010B500F097F810BDF7B500F075F8002574
:10292400002413E0E3B2EFB21900F2B238000193CD
:10293400FDF75CFEF2B2030001993800013600F0A5
:1029440081F80E2EEED10134042C01D00026E9E7E3
:102954000135062DE4D1F7BD10B500F08DF810BD9A
:1029640010B500F09FF810BD002310B5052806D857
:10297400032904D80D2A02D800F048F803001800EF
:1029840010BD1020704710B500F0A1F880B210BD42
:1029940010B500F09FF810BD10B500F0B7F810BDE9
:1029A40010B500F032F800F0CBF810BDF7B5050013
:1029B4000F2815D800F08BF801AE32000121013840
:1029C40000F088F83478002C0AD100F080F8070071
:1029D400002D06D12A0031000A48019400F08EFA35
:1029E400F7BDBC42FCD032000121200000F072F897
:1029F4003378002B01D00134F3E7013DEDB201340B
:102A0400E6E7C046ED28000870477047030070B53C
:102A14000020052B15D8032913D80D2A11D81C24FE
:102A24004C435200A41870225A43A41820002930A1
:102A3400FFF7C4FB050220002A30FFF7BFFB284341
:102A440080B270BD70B51D00052814D8032912D8B2
:102A54000D2A10D81C2470234C4343435200A4185D
:102A6400E4182000290A2930FFF701FC2000E9B20C
:102A74002A30FFF7FCFB70BDF7B5A8270600040059
:102A840001924518BF00AC4200D1F7BD0020BC4202
:102A940003D220002930FFF791FB019B9B1B1855A3
:102AA4000134F0E7F7B5A8270600040001924518A1
:102AB400BF00AC4200D1F7BDBC4206D22000019B4E
:102AC40029309B1B195DFFF7D2FB0134F1E7382055
:102AD400FF307047F7B59B260500170004000191ED
:102AE4007600631B019A9BB2934200D3F7BD5B1936
:102AF4000020B34203D8044BE018FFF75FFB7B1BB5
:102B040018550134EDE7C046C9020000F7B59B270C
:102B140005000E00040001927F00631B9BB2B342C8
:102B240000D3F7BD5B19BB4206D8019B5B1B195D43
:102B3400024BE018FFF79BFB0134EEE7C9020000EB
:102B4400F0B585B0102200216846382403F04EFE0B
:102B54001426094FFF342500102C00D91025390004
:102B64002A006846013EFFF765FB7F19641B002EAF
:102B7400F1D105B0F0BDC046C9020000124A10B53B
:102B840001230C00904214D1FEF7F2FC63790F4A42
:102B9400002B10D0AA2303401900481E814129208C
:102BA4001170002B00D00C3000F0D4FCFEF784FD33
:102BB4000023180010BD13782920002B00D00C30FE
:102BC40000F0D2FCF2E7C046167C00008813002017
:102BD40070B505004879002800D1CBE0664BEB18AE
:102BE400222B00D9A9E0654C2000FEF71DFE644BA2
:102BF400E818212812D8FDF7FBFA3DAB46191C4909
:102C04001F4C5528A32B582E5B85315E8D37656B81
:102C1400224F25523A687897A11541B401232278AE
:102C240013434DE00823627813432AE002232278F9
:102C3400F6E704232278F3E708232278F0E7012358
:102C44006278F1E702236278EEE710232278E7E75F
:102C540020232278E4E740232278E1E7FEF7A0F876
:102C6400802322785B42DBE70C232278D8E7032316
:102C74006278D9E701222378934321E0082263781C
:102C84009343637053E002222378F5E70422237808
:102C9400F2E708222378EFE701226378F0E70222C3
:102CA4006378EDE710222378E6E720222378E3E730
:102CB40040222378E0E7FEF773F87F22237813405D
:102CC400237034E00C222378D6E703226378D7E715
:102CD4000122042023785907C90F8A4391008343B2
:102CE4000B430821D2008B439AE701210800637843
:102CF400DA07D20F904302228B43034341009343EC
:102D04000B43BEE7012223785906C90F8A43920177
:102D14004021E8E7FEF744F801222378D9094A4024
:102D24007F21D2010B407BE70120FEF785FD2000C7
:102D3400FEF77EFDFEF734F8002070BD0020F4E7B6
:102D440001222378D906C90F8A4312011021CAE748
:102D5400012108002378DA07D20F90438B43034301
:102D6400AEE7012263781907C90F8A430821D2000C
:102D74008B4359E70120E0E70090FFFFD4160020C1
:102D8400FF8FFFFFF7B5574BC2081B5C0127009369
:102D940007231840544B0C009B5C03411900394035
:102DA40001915249895C014139400D0050498A5CC6
:102DB40002413A4016003B4216D0E120FDF778FD6F
:102DC4003800002C0ED000234A4A2000002103F0D2
:102DD4000FFC0023484A80185941FA22002392002C
:102DE400FDF790FB01F0BDFD002D16D0E620FDF7A8
:102DF4005FFD0120002C0ED000233E4A200000215C
:102E040003F0F6FB00233C4A80185941FA220023C0
:102E14009200FDF777FB01F0A4FD00982100FDF777
:102E240083FD0120002C0ED00023324A2000002113
:102E340003F0DEFB0023304A80185941FA220023B4
:102E44009200FDF75FFB01F08CFD002D16D0E6200B
:102E5400FDF751FD0120002C0ED00023254A20004F
:102E6400002103F0C5FB0023234A80185941FA22AC
:102E740000239200FDF746FB01F073FD019B002B3C
:102E840016D0E120FDF737FD0120002C0ED00023E1
:102E9400184A2000002103F0ABFB0023164A8018D7
:102EA4005941FA2200239200FDF72CFB01F059FD51
:102EB400002E16D02C20FDF759FD0120002C0ED039
:102EC40000230C4A2000002103F092FB00230A4A4D
:102ED40080185941FA2200239200FDF713FB01F0F8
:102EE40040FDF7BDF56A0008956B0008856B000886
:102EF400756B0008A0860100E7030000F7B5009297
:102F04000023314A05000E000098002103F070FBF5
:102F14000024FA222D4B9200C01861410023FDF7D2
:102F2400F1FA01903000A847002818D0012847D1B1
:102F34003000A84704000138032807D8FDF758F9E2
:102F44000210151A3000A847FDF710FD009B0198E8
:102F5400002B00D1012001F004FD002CE2D1F7BDCB
:102F64003000A847FDF7A4FCF0E73000A847FDF7C0
:102F7400C2FCEBE73000A847002704000422144BEE
:102F84001B5D1A4214D10120002F0ED000230E4ADB
:102F94003800F91703F02CFB00230C4A8018594120
:102FA400FA2200239200FDF7ADFA01F0DAFCCDE736
:102FB4000A2330005F43A847303CE7190400DDE7EB
:102FC4000099FFF7DFFEADE7A0860100E7030000EC
:102FD400816E0008F8B5140042791D0006AB1F7815
:102FE400274B002A11D01C7000F01CFC254B1880C4
:102FF40023002033DBB2072B06D80723012023400C
:103004009840C0B2FDF7BAFCF8BD1E78A6422DD197
:103014001C4B188800F070FBC72827D82C002034DC
:10302400AE4215D033002033DBB2072B06D807237A
:1030340001201E40B040C0B2FDF7A8FCE3B2072B4C
:1030440006D8072301202B409840C0B2FDF796FC18
:103054003800E4B2FDF78AFC072CD5D807230120F9
:103064001D40A840C0B2FDF791FCCDE723002033FA
:10307400DBB2072BC8D8072301201C40A040F1E78E
:103084008C1300208A130020204B13B5C0180C00A9
:10309400062833D8FDF7ACF8141A040E20262C00A9
:1030A40026230093BB331A0019492000FFF792FF2F
:1030B400002016BD27230093BE331A001549F4E7F8
:1030C4002623E02200931449BB33EEE72723E422AE
:1030D40000931249BE33E8E72623E2220093104905
:1030E400BB33E2E72723E62200930E49BE33DCE735
:1030F4002823E52200930C49273BD6E74B79002B84
:1031040002D00022094B1A700120D2E7E883FFFFA6
:103114001A7C00001B7C0000187C0000197C000055
:103124001C7C00001D7C00001E7C00008C13002011
:10313400164B70B5984204D0154B98421CD0012010
:1031440070BD4B79002B12D000F024F8FDF7B8FEC7
:1031540000F020F8040000F023F8050000F026F841
:10316400290002002000FDF7A9FF0020E8E700F095
:1031740011F8FDF7B1FEEBE74B79002B02D000F01C
:103184000FF8E3E700F00CF8F3E7C046777C0000A3
:10319400787C0000014B18787047C046160C00205C
:1031A400014B18787047C046150C0020014B187865
:1031B4007047C046140C002073B56B46DC1D9D1D82
:1031C4005E1D30002200290000F020F93378002031
:1031D400262B06D12B78082B03D1207822384342A2
:1031E400584176BD10B5002805D02222082126209A
:1031F40000F023F910BDFF2211001000F8E770471A
:10320400704710B50400FFF7FBFF200000F02AF917
:1032140010BD10B500F0F9F80020FFF7E3FF00201F
:10322400FFF7EFFFFFF778FBFFF7BAFB2222082135
:10323400262000F002F910BD10B5FFF7E0FF00F002
:103244000CF9FFF7DDFFFFF7B7FF002801D1FFF707
:10325400E0FF10BD704700004B7910B5002B09D07A
:10326400054A82187F2A03D8C0B2FFF79FFB0023C8
:10327400180010BD0123FBE70089FFFFFF23037043
:10328400704710B5FFF7FAFF10BD0020704770B506
:1032940004000D00FFF7F9FF002817D1207801384A
:1032A400122847D8FCF7A4FF0A13415B616D7070C4
:1032B40070464675797F8A95989BA60000236370B3
:1032C4000D33A37029002000FFF7A8FA70BD6078C1
:1032D400013805282ED8FCF78BFF030D101C2D2276
:1032E40000F062FA030EA370030CE370030A237167
:1032F4006071E7E700F0B1F8F4E700231900A6785D
:10330400E21CF0180328DDD8117051700133023229
:10331400F7E70023A370E37023716371D2E70023FE
:10332400A370E37023710833F7E76378022B04D0AA
:10333400052B10D0FF232370C4E7E278A378120290
:103344001A43237960791B0413430006184300BA17
:10335400FFF757FFB6E7A078FFF77CFFB2E7E27804
:10336400A1786078FFF7D0FAC0E7637922791B026D
:1033740013435BBAE278A17860789BB2FFF7C8FA8E
:10338400A0E7FFF7C9FA9DE729002000FFF779FFBE
:1033940098E7FFF7F6FA607094E7FFF7F4FA030A88
:1033A4006370A0708EE7A07863780002184340BA77
:1033B400E178221D80B2FFF7EBFA83E7A078637807
:1033C4000002184340BAE178221D80B2FFF7E4FA04
:1033D40078E7FFF7E5FA75E7FFF794FADBE7A078FB
:1033E40063780002184340BAE178221D80B2FFF7E7
:1033F400B3FA67E7A07863780002184340BAE1782B
:10340400221D80B2FFF7ACFA5CE7704770B5060086
:103414000D001400002803D02520FEF7CFFE3070E5
:10342400002D03D02620FEF7C9FE2870002C03D0FF
:103434002720FEF7C3FE207070BD70B50D00140088
:1034440001002520FEF713FF29002620FEF70FFFB9
:1034540021002720FEF70BFF70BD10B52820FEF7D2
:10346400ADFE10BD10B5C1B22820FEF700FF10BD9F
:10347400014B18607047C046901300207047704796
:10348400044B10B51B68181E03D01B68181E00D00F
:10349400984710BD90130020044B10B51B68002BF7
:1034A40003D05B68002B00D0984710BD9013002018
:1034B400044B10B51B68002B03D05B69002B00D0B4
:1034C400984710BD901300200020064B1B689A1CDF
:1034D40008331178002901D00130C0B201329A4278
:1034E400F7D17047000C0020031E0AD0074B1B685D
:1034F4009A1C08331178814205D001329A42F9D1DD
:103504000023180070470123FBE7C046000C00208D
:103514000122002370B55242851CEC5C8C420BD016
:10352400561C02D1002C00D15AB20133062BF4D11F
:10353400531C01D08018817070BD002210B5831C0B
:1035440008301C788C4200D11A7001338342F8D1C0
:1035540010BD000010B5034B01001868FFF7D8FF39
:1035640010BDC046000C002010B5034B01001868C4
:10357400FFF7E3FF10BDC046000C002010B5044B5C
:10358400062218680021023003F030F910BDC0464D
:10359400000C002082B002B0704707B5FFF7FAFFB5
:1035A40007BD000007B505490130C870042201A811
:1035B40003F024F90198FFF7F0FF07BD170C002072
:1035C400032307B50449042201A8CB7003F016F9BC
:1035D4000198FFF7E2FF07BD170C002010B5FFF7B5
:1035E400E1FF10BD012307B50449042201A8CB70F3
:1035F40003F004F90198FFF7D0FF07BD170C002072
:1036040010B5FFF7EFFF10BD07B5431E98410549FC
:103614000422887001A803F0F1F80198FFF7BDFFB8
:1036240007BDC046170C0020014B98787047C04670
:10363400170C002007B505490422487001A803F0BF
:10364400DDF80198FFF7A9FF07BDC046170C00205D
:10365400014B58787047C046170C002007B5054940
:103664000422087001A803F0C9F80198FFF795FF38
:1036740007BDC046170C002070477047704710B54F
:10368400FFF7FCFF10BD704710B5FFF7FCFF10BD3E
:1036940070B500242500FFF7EFFFFEF717FDFFF7D5
:1036A400ECFF074E2000FEF761FC3080431E98417A
:1036B4000134E4B205430236042CF3D1280070BD72
:1036C40094130020044B4000C25A0120884010404B
:1036D400431E9841C0B2704794130020002A07D1BA
:1036E40001328A401100034B4000C25A8A43C2523D
:1036F4007047C0469413002010B5040000F092F8FF
:10370400001B80B210BD10B5040000F04DF8001B82
:1037140010BD000010B504001022002103F066F86B
:10372400054B20001968054B1A68054B1B6821607E
:103734006260A36010BDC0469075FF1F9475FF1FA3
:103744009875FF1F10B501F0FBF900F0A3FE10BD42
:1037540010B5FDF73FF8024801F003F910BDC0466B
:10376400A406000010B5FDF719FFFDF72DFFFFF7C4
:1037740005FFFDF737F810BD10B572B601F03AFA3F
:103784000022044B1860044B1A60044B1A6062B6A2
:1037940010BDC046A4130020A01300209C130020D9
:1037A40010B5FFF7E9FF10BDF8B500F099FE05006C
:1037B40001F020FA134E144A3368C41A13480168FE
:1037C400A14208D9124F1168E419124FDB19336072
:1037D400114BC918116004602800166800F088FEB7
:1037E400FA22002320009200002102F001FF0023AE
:1037F4000A4A801859410023094AFCF783FE30180D
:10380400F8BDC046A41300209C130020A013002080
:10381400E006010020F9FEFF88598F029F8601000F
:10382400A086010010B5FFF7BFFF80B210BD0000F5
:10383400014B024A1A607047FC3F0220EFBEADDE26
:10384400034B1868034BC01843425841C0B2704739
:10385400FC3F0220114152210022014B1A607047A3
:10386400FC3F022010B5FFF7E3FFBFF34F8F034B7C
:10387400034ADA60BFF34F8FC046FDE700ED00E076
:103884000400FA05BFF34F8F034B044ADA60BFF319
:103894004F8FC046FDE7C04600ED00E00400FA0586
:1038A40010B5FFF7CDFF002822D0FFF7D5FF72B681
:1038B400BFF34F8FBFF36F8F01210E4A0E48536839
:1038C4008B43536000230D4A0D491360936053608A
:1038D40001225242CA67C0214900425083F314882E
:1038E400084B1A6882F3088862B65B689847FEE75B
:1038F40010BDC04690ED00E000E100E010E000E003
:1039040004E100E00000FF1F01007F2274310B7806
:1039140070B51A400500212A42D15AB2002A1BDA96
:103924004A78022A15D0032A04D0012A14D100F0BF
:103934008BFC70BD4C790A79240214430CD1FFF737
:1039440073FE2D4B1870AB660123EB662C670120C8
:10395400EFE700F025FDECE74A780A2A19D00B2A94
:103964000BD0092A1CD14A7908791202024317D1D3
:10397400224B234CAB660223E7E74B790A791B02FF
:10398400134302D18878FFF73FFE00231C00AB6687
:10399400DBE7C878FFF762FE280000F02DFDC8E7DA
:1039A400602200249343812B14D14B78062B11D130
:1039B4004B790A7968681B02466813432800CA7861
:1039C4008978B047A04201D10020B2E74368AB66D2
:1039D4000368BAE790260B4A63423340D358002B5E
:1039E40004D1631C0124022BEED0F4E7280098478D
:1039F4000028F6D0ABE7C046B0130020B413002073
:103A0400493A0008440D0020002370B50B4C743073
:103A14006360C279817912020A4341790579090206
:103A240029438578C078064B0002284300F0D4F976
:103A340020606068002800D0200070BDA81300201A
:103A4400AC130020030010B574339979DB79074A6D
:103A54001B0210780B43022B04D1012801D0062845
:103A640002D15078FFF7E6FD10BDC046B413002024
:103A740010B50F24054A11784B1C2340044C2478BC
:103A84009C4202D0034C1370605410BDF616002003
:103A9400F7160020E6160020080010B5052927D8DF
:103AA400FCF7A6FB19260319192772B6174800F06C
:103AB40091FA174800F08EFA164800F09BFA62B6A5
:103AC400154B1B78002B02D00520FFF7D1FF0220F5
:103AD400FFF7CEFF0CE0FFF7CBFF72B60B4800F008
:103AE40054FA0B4800F051FA0A4800F061FA62B641
:103AF40010BD72B6054800F067FA054800F064FA94
:103B0400044800F064FA62B60520E1E7C00C002026
:103B1400500D0020340C0020B6130020102210B5E4
:103B24000021044802F062FE0022034B1A70034B8A
:103B34001A7010BDE6160020F6160020F7160020B5
:103B4400F8B50F2501240021234B244A1E7813784D
:103B5400B34233D1002900D01370F8BD1370204B49
:103B64001C70204B19780800431E9841C0B2FFF71F
:103B740027FDE8E713700022194B1A70FFF7F2FDD6
:103B8400184B19780800431E9841C0B2FFF726FD70
:103B9400D9E71370134B19780800431E9841C0B23B
:103BA400FFF700FDCFE7002113700800F8E713705A
:103BB400FFF718FD2000FFF727FDC4E718000A4FA0
:103BC4000133385C21002B400528C1D8FCF706FBE3
:103BD400EFC0E1EBC6D2C046F6160020F71600206F
:103BE400B61300200B180020E616002070B5040060
:103BF4002500144800F086F9124800F0ABF9124889
:103C040000F080F9104800F0A5F9104800F08EF992
:103C140008350E4800F0ACF9EA6F0D49936D2000A9
:103C24000B40936501F0EDF90A4800F09AFE20007C
:103C3400094901F0D4F98023EA6F1B02916D0B430B
:103C4400936570BDC00C0020500D0020340C002082
:103C5400FF7FFFFF88130000A86B000890234343F5
:103C640007B50448181800230093034B00F047FAE3
:103C74000EBDC046C00C00201027000010B5040083
:103C8400FFF7D2FC08222100002802D1FFF7E6FF4B
:103C940010BD0020FAE77047704770470A0010B55E
:103CA400202903D101000120FFF7D8FF10BD000037
:103CB40000B589B0002320226946064800F075FA51
:103CC400002801D109B000BD20216846FFF7DFFAC2
:103CD400F0E7C046340C002010B5FFF7E1FD10BD3D
:103CE400704710B5FFF7F8FF02F0CEFBFFF7F8FFBF
:103CF40010BD10B502F00EFCFCF74EFC10BD10B563
:103D0400FFF77EFC10BD000010B5FFF707FF034866
:103D1400FFF76CFF024800F024FE10BD8C17002052
:103D24008813000010B50248FFF7A2FB10BDC0467F
:103D34001C0C002070B5FFF703FF0C4C0225237800
:103D4400052B0ED070BDFFF703FDFFF7A1FC002883
:103D540007D023007C331B881D4202D0200001F0D1
:103D6400E1F92378052BEED0ECE7C0468C17002050
:103D740010B500F0D3FA10BDF0B5144B85B01D7822
:103D8400002D20D101226C460F2668461A70FFF7D9
:103D9400C1FC2B000E490F4D5A10A05C5A000709B4
:103DA400EF5D8A18977000273040D7705A1C285C42
:103DB40052008A1802339070D770202BECD1223332
:103DC4000B703F3B4B7005B0F0BDC046B7130020ED
:103DD400B8130020B86B000810B51C00030A032BAD
:103DE40010D008D8012B30D0022B08D11D4A403303
:103DF4001800226010BD212B18D0222B1FD00023C5
:103E04001A00F5E70023C0B21A000328F0D8FCF723
:103E1400EFF91F0205081023134AE9E70C23134A9C
:103E2400E6E7FFF7A9FF124A1378E1E7002912D069
:103E340000231A000129DBD10E4A0933D8E70029EF
:103E44000CD00D4A0129D3D0D9E712230B4ACFE76E
:103E540004230B4ACCE709230A4AC9E744230A4A44
:103E6400C6E7C046ED6B0008D76B0008C96B0008B5
:103E7400B8130020186C0008416C00082F6C00086F
:103E8400E96B0008FF6B0008636C000837B5446BEE
:103E9400226F1378042B14D1250074352978033B41
:103EA4008B40128913409BB2002B0AD1200001A938
:103EB40000F086FF021E04D02978019B206F01F0D8
:103EC4001EF937BD026F70B513780400042B13D1AB
:103ED400050074352978033B8B40528913409BB20B
:103EE400002B09D100F0C0FE021E05D0E369297839
:103EF400206F043B01F0F0F870BD10B5406BFFF784
:103F0400E1FF10BD1FB503005C33C364064B021D03
:103F14000193836F029000930121C36FD26F00F06D
:103F240029FF05B000BDC046913E00081FB503003F
:103F34005C330365064B021D0193836F029000936B
:103F44000121C36FD26F00F06AFE05B000BDC04608
:103F5400FF3E000872B6030074331B78026F093306
:103F64009B00D318586000238830037062B67047F2
:103F740072B6030074331B78026F11339B009850A0
:103F840000238430037062B670470123022110B508
:103F940004000372494200F017FD20008C3400F045
:103FA40001FF2368002B02D0DA681868904710BD1F
:103FB4000123022110B504000372494200F004FDFC
:103FC400200000F044FE10BD00230372704700235C
:103FD400037270470300020010B5040074331978AB
:103FE4003832006F01F035F8200000F0DBFE0023CA
:103FF400237210BD0300020010B504007433197855
:104004003832006F01F025F8200000F020FE002374
:1040140020002372FFF756FF10BD0B0009339B00ED
:10402400C318F7B55C6805000E00002C44D072B6C6
:104034002300002288331A70226963699A4202D1EC
:10404400E368002B19D1B31C9B00EB185B685B6918
:104054001B68002B11D027008C373B68002B09D03C
:1040640001A9200000F0ACFE3B6801009F68019AA2
:104074001868B847200000F0B1FE200001A900F044
:104084009FFE019B021E12D1B31C9B00EB185B68C0
:104094001A68022A0FD15A69116800290BD01A8AAA
:1040A4000B00013A1340114205D12A007432310049
:1040B400280001F024F862B6F7BD0B0011339B0011
:1040C40010B5C458002C19D072B6023189004018BA
:1040D40043689B695B68002B0CD0230074331B7806
:1040E400226F02339B00D3185B6820009B695968D8
:1040F40000F0C4FD2000FFF7E5FE62B610BDF7B581
:104104001C0008AB1B78050017000191009372B6E0
:10411400036F1B78042B02D062B60020FEBD06009C
:1041240088363378002B03D0013463425C41644207
:1041340062B623003A002800019900F090FE8742FD
:1041440014D972B6434258413378022118430123EB
:10415400307049422B72280000F036FC280000F031
:1041640021FE00232B7200F071FBE1E7009B002B82
:1041740001D00120D2E7280000F0AEFEF9E70300E9
:1041840072B601694269002091420CD1DA68824218
:1041940009D01A6F74331B78013098401389184082
:1041A40080B24342584162B6704737B5140072B6C4
:1041B400026F1278042A02D062B600203EBD0500C8
:1041C40084352A78002A03D001335A4253415B4292
:1041D40062B6220000F093FD43424341201A2B7043
:1041E40043425841C0B2E9E7F8B5076806000D003C
:1041F4001400002F09D000F0FDFC78603068220024
:1042040084642900083002F0F9FAF8BD016810B599
:10421400002907D08B6C08321364083110001A008F
:1042240002F0ECFA10BD036810B50400002B09D0AD
:1042340018009A6C0021083002F0D8FA0022236892
:104244001A605A6010BD00000200F8B57432537948
:1042540011791B02040000250B43012918D8917819
:10426400082915D80B4ADBB2D25C012A10D8902356
:104274005343094A9B58AB420AD0084E5F681868FA
:104284003200B847064B2567A366B36C0135E36675
:104294002800F8BDBC0C00204C0D00209C1500200B
:1042A400A41500200368002B07D091001960511E4B
:1042B4008A41024B19780A431A707047E8150020A6
:1042C4000368181E02D018688008C0B27047000046
:1042D400036870B5002B02D10023180070BD72B6BC
:1042E400036830CB62B6002CF6D000F083FCFA22CF
:1042F400002392000021401B02F07AF90023054AB2
:10430400801859410023044AFCF7FCF80023A0421A
:104314005B41E2E79F860100A0860100F7B51C4BD4
:1043240001931B78002B31D000251A4E0095346878
:10433400002C23D072B60021636920689847431E7D
:104344009841009B0343009362B630008C38FFF71A
:1043540016FF002812D00021A3692068984700287E
:104364000CD072B60C4F00213A006368206898475D
:1043740062B60A49BA6CE8B2FFF770FC6B1C90365F
:104384000125022BD3D1019B009A1A70F7BDC046B8
:10439400E81500204C0D0020501500205815002071
:1043A400020070B57432537911791B0204000025A0
:1043B4000B43012917D89178082914D80B4ADBB28A
:1043C400D25C012A0FD890235343094A9B58AB422D
:1043D40009D05A6918689047064B25671870A36678
:1043E40001231D00E366280070BDC046BC0C0020FC
:1043F4004C0D00204C150020020070B57432537926
:1044040011791B02040000250B43012915D891786A
:10441400082912D80A48DBB2C05C01280DD89023C1
:10442400434308481B58AB4207D0D2781E6918682A
:10443400B047A566E56625670135280070BDC0460E
:10444400BC0C00204C0D002070477047FEE70000B4
:10445400F0B5082000240E494A680E6815008B68E0
:10446400AB4210D8D51E0026AB4203D303339B1AAC
:104474009B089E00CB689219934207D801381031EB
:104484000028E9D1F0BD80CE80C5E9E710C2F3E78A
:10449400A86C0008012310B5064C23700023636048
:1044A40000F042FB0449054800F0E0F902232370C0
:1044B40062B610BDF8160020286D00080017002011
:1044C40072B60322024BD865024B1A70FEE7C0464F
:1044D40000170020F816002010B500F0D7F810BD22
:1044E400EFF31080C30702D4EFF3058372B670476D
:1044F40010B5C00704D4EFF30583DB0501D062B621
:1045040010BD00F0A3F9FAE7024AD36A0343D36269
:104514007047C0460017002010B503689C68A2428B
:104524000CD85C688A600B604C60216059609968A3
:104534008A1A9A6001235B42836010BD1B68121BB8
:10454400ECE770B504000D00022900D20225022612
:10455400601900F060FB00F04DFB041BA54203D87A
:10456400013635000400F3E7022E02D90120FFF7DB
:10457400CBFF70BDF8B5124B0D00D96111498260B3
:10458400416019691400016048601861022A00D270
:104594000224281900F032FB022600F02BFB07004E
:1045A400431BA34206D3741C281900F034FB2600D5
:1045B4003D00F2E7022E02D90120FFF7A5FFF8BD66
:1045C4000017002010170020F8B507000D0000F0B8
:1045D40011FB0E4B0E4E1A69B24205D101002A009E
:1045E4003800FFF7C7FFF8BDDB69C31AEC18A34214
:1045F40000D92C009368A34202D92900FFF7A1FF38
:10460400220039003000FFF787FFECE70017002095
:104614001017002010B503610023C2604361FFF747
:10462400D3FF10BD10B5174C236998420CD0036812
:104634004268816813605A609A6852189A6000232D
:104644000360013BA36110BD03680F4A23615A60F4
:10465400002303602369934202D100F0D7FAF2E702
:104664009A68816852189A6000F0C4FA2369E16973
:104674009B68421A9342E6D9C918091AFFF761FFE9
:10468400E1E7C0460017002010170020F7B5264DBB
:104694002C6900F0AFFAE969A368244E421A9342E8
:1046A40038D8CB18EB6162680093236813605A60B2
:1046B400002323602B69B34201D100F0A7FA62B64C
:1046C4002000E3682169984772B66369002BDED045
:1046D40000F090FA009A0190871A6269BA420BD2EC
:1046E4000220FFF711FF00222B69B34209D12000F9
:1046F4000199FFF73FFFF7BD009BD218019BD21A27
:10470400F2E7D3199F4200D81A0021003000FFF7C6
:1047140003FFBCE72A69B242EDD0C918091AE8615F
:10472400A160FFF70EFFE6E7001700201017002036
:1047340000238268037503691B6899689142FBD260
:104744005A680360426010605860704700238268B2
:10475400037503691B6899689142FBD85A68036022
:10476400426010605860704710B572B6087D052825
:1047740007D8FBF73DFD0C060603120E00228B69D9
:104784001A6001235B4208008B61FFF7D1FF62B618
:1047940010BD8A699368013393604A680B6813609B
:1047A4005A60EEE710B5FFF7C3FF10BD064B10B516
:1047B400D96808751868026853601A600122027586
:1047C400D860FBF7E9FC10BD0017002030B50D4B95
:1047D4000500DC6887B04B1C10D0230068460A4AE9
:1047E400FFF718FF2800FFF7E1FF009B002B02D022
:1047F4006846FFF717FFA06907B030BDFFF7D6FF83
:10480400F9E7C046001700206D470008044BDA683A
:10481400196890688B689842804140427047C0464E
:1048240000170020084B10B51C68D8682268536034
:104834001A6001222275DC60FFF788FF0100200066
:10484400FBF7AAFC10BDC04600170020054B10B5AD
:104854001A68DB6892689B689A4201D9FFF7E2FF05
:1048640010BDC0460017002030BFFDE770B500251D
:1048740004001A4B86B0856201630E00586000F094
:1048840031F9230010332361636101235B42A36187
:1048940024606460A560E562E56100F0ABF92B007B
:1048A4000200210022626362343120000C4AE56573
:1048B400803300F01BF801230A4AE060037500927C
:1048C400726803930192084BB2686846029204939B
:1048D400059500F031F806B070BDC046F81600200A
:1048E400E36A0008E86A00086D48000802228B6049
:1048F4004B62002308618A8208000B62CB61704717
:10490400826801691300283B4C3ADA6011614169FD
:104914005161074911620222C1681A7500220548D3
:10492400996018615A75180059621A62DA61704701
:10493400BD0100080017002010B5FFF7E1FFFFF7E5
:1049440031FF10BD10B5034BDB6898610F20FFF7F2
:104954002DFF10BD0017002010B572B6FFF7F2FF4F
:1049640010BD10B5010072B60820FFF72FFF62B624
:1049740010BD036810B5002B05D00022026018009A
:104984009961FFF70FFF10BD10B500290AD0074B3E
:104994004268DB6818605A60136043600420FFF7C4
:1049A40015FF10BD01204042FBE7C0460017002060
:1049B400036810B5984206D01A6802605060180067
:1049C4009961FFF7EFFE10BD70B504000D0020687B
:1049D400844200D170BD036823605C608561FFF789
:1049E400E1FEF4E7030010B51B68984203D09C680D
:1049F4008A689442F8D25A680B604A601160596020
:104A040010BD0023006040608360704770B5184B90
:104A140084680600DD68002C14D12B6A8560C360AD
:104A2400286223E0A360237D002B10D0062B15D130
:104A340023686268A069210013605A60FFF7D2FFFF
:104A4400A3699C68AB68A2689A42EBD306E06268EB
:104A54002368200013605A60FFF7A4FE3000290089
:104A6400FFF7C0FF0620AE61FFF7A0FE70BDC04691
:104A74000017002010B572B6FFF7C8FF62B610BD6C
:104A8400134A030010B5D16872B6C26800680A629E
:104A940098421AD0486A002A0ED1886018680268C1
:104AA4001A605360026A9860DA600362FFF77AFE64
:104AB400FFF7CCFE62B610BD1468A24203D0A4680E
:104AC400A04200D22000D268E5E700238360F1E72A
:104AD40000170020EFF30983203383F3098862B6BB
:104AE40070470000024A0349136A0B40136270477F
:104AF40000ED00E0FFFF00FF10B50F300FD072B6DD
:104B0400EFF30984203C84F3098880235B04E36188
:104B1400FFF77CFE024B002800D1024BA36110BDBD
:104B2400CB010008CE010008024B034A1A60034A75
:104B34005A607047601700201818002000400220B7
:104B440010B500F0B1FE01F088F800F0DFF900F0D4
:104B540035FAFFF7CEF800F049F810BD10B5FFF7AD
:104B6400AFFCFEE770B50A4E049D746A1B199BB234
:104B74000468002D00D02C600C40944205D0746A67
:104B8400A4B2A342F4D8012070BD0020FCE7C046C3
:104B94000048014030B5094D6C6A121992B204689C
:104BA400002B00D01C600C408C4205D06C6AA4B26F
:104BB400A242F4D8012030BD0020FCE700480140A7
:104BC40070B5094E0500706A121892B22C68002B59
:104BD40000D01C6008002040214204D0746AA4B2B2
:104BE400A242F3D8012070BD0048014010B501F085
:104BF400A5F810BD8023DB05586A70478023002286
:104C0400DB0558631A610232DA60704780230022A0
:104C1400DB05DA6070478023DB0558637047043393
:104C240030B51C0001720021039DC3616C43049BD9
:104C340014190363059B056200604060C160426112
:104C44000261846142628162C162436330BD0023B8
:104C5400022110B5426AC360426102618362C36289
:104C64004942FFF7B1FE10BD03694269934203D183
:104C7400C2680020824200D1181D7047036910B534
:104C84001960C2680132C260C2699B1882690361FB
:104C9400934201D3436A03610021FFF789FE10BDEB
:104CA40070B504000D00E368002B07D06269002092
:104CB400131D1268A3629B18E36208E0237A002B99
:104CC40006D129002000FFF75FFE0028EBDA70BD53
:104CD40002204042FBE7C36810B5013BC269C360D0
:104CE40043699B1882694361934201D3436A4361D8
:104CF40000238362036B002B00D0984710BDF7B5E7
:104D040004000E000092019372B60027A36A002BE0
:104D140008D120000199FFF7C3FF002802D062B632
:104D24003800FEBDA16AE56A009B6D1ADB1B9D423B
:104D340000D91D00402D14D93000402201F05EFD41
:104D4400A36A403640334037E26AA3629A4202D8EB
:104D54002000FFF7C0FF62B6009B9F42E0D272B60C
:104D6400D4E730002A0001F049FDA36A76195B19E3
:104D74007F19E9E7043310B501721900C3610023F8
:104D8400029C83626143C362039B51180363049BC7
:104D940000604060C46042610261816104624262F9
:104DA400436310BD036A10B5C360436A02214361C3
:104DB4000361002349428362C362FFF705FE10BD0D
:104DC4004269036910B5934204D10023C4681800F2
:104DD4009C4201D1100008C80B6010BDC36810B517
:104DE4000133C269C36043699B188269436193427A
:104DF40001D3436A43610021FFF7DAFD10BD70B5AA
:104E040004000D00E368002B07D0236900201A1D5D
:104E1400A262E2699B18E36208E0237A002B06D1C0
:104E240029002000FFF7B0FD0028EBDA70BD022056
:104E34004042FBE7036910B51960C268013AC260D9
:104E4400C2699B1882690361934201D3436A036177
:104E540000238362036B002B00D0984710BDF7B585
:104E640004000E000092019372B60027A36A002B7F
:104E740008D120000199FFF7C2FF002802D062B6D2
:104E84003800FEBDA06AE56A009B2D1ADB1B9D421B
:104E940000D91D00402D16D93100402201F0AEFC8E
:104EA400A36A403640334037E26AA3629A4204D888
:104EB400E16920000439FFF7BDFF62B6009B9F4201
:104EC400DED272B6D2E731002A0001F097FCA36A61
:104ED40076195B197F19E7E710B572B6836A002B60
:104EE40006D00269043B991A934201D0FFF7A2FF4E
:104EF40062B610BD10B50C30FFF7C2FD002010BD26
:104F040010B50C30FFF7B6FD002010BD10B500F051
:104F140097FD10BD054B10B50360012303710023F9
:104F240083600C30FFF76DFD10BDC046346D000882
:104F340010B5040072B6816000F0A2FD0223237153
:104F440062B6002010BD10B5040072B600F0ACFDCE
:104F54000023A3600133237162B610BD10B50400B1
:104F6400002101F005F90021200001F0EFF8636849
:104F74001B68002B02D0062120009847A368044A2E
:104F84001340A36000236434A3600633237010BD70
:104F9400FEFFFEFF0200030010B504007632127813
:104FA4007E331A7000F09AFF63681B68002B02D0EE
:104FB4000121200098470323237010BD10B500F091
:104FC40065FF10BD012310B53822040003700021D1
:104FD4002C3001F00BFC00236360A36010BD13B5FB
:104FE400040072B62022416000210C3001F0FEFB67
:104FF400200000F0F5FF434243410133237062B6C1
:1050040016BD70B5040072B600F04EFF00232500F3
:105014006360013323700C352C342B68002B10D0C3
:105024005869002804D002210C304942FFF7A1FC42
:105034002B689869002804D002210C304942FFF7FC
:1050440098FC002308C5A542E7D1FFF7FFFB62B631
:1050540070BD8B1C9B0070B5C318050050690E0011
:1050640014005A60002803D01422002101F0BEFB72
:10507400A069002803D01422002101F0B7FB3100FD
:10508400280000F037FF70BD70B50500060004006D
:105094008368104A1035134083602C362B68002B2C
:1050A40010D05869002804D002210C304942FFF77F
:1050B40060FC2B689869002804D002210C30494216
:1050C400FFF757FC002308C5B542E7D1200000F0E4
:1050D400B1FF70BD0100010070B501248C40458909
:1050E4002C4344818C1CA40004196468A4692360C3
:1050F4000023A2606360E36000F0E0FF70BD70B560
:1051040001248C4005892C4304818C1CA4000419BF
:105114006468646923600023A2606360E36000F054
:10512400F1FF70BD037870B5052B0DD11025083043
:105134000400C26FC820136C2B431364FFF711FCE7
:10514400E26F136CAB43136470BDF8B50223050022
:105154000600037000230400C367C36683600C3534
:105164002C362B68002B13D072B62B685869002894
:1051740004D002210C304942FFF7FBFB2B689869ED
:10518400002804D002210C304942FFF7F2FB62B63A
:10519400002780C5B542E4D1230064331F7020008A
:1051A40000F002FF63681B68BB4202D03900200094
:1051B4009847F8BD037870B50400052B29D0020088
:1051C400803213700523037043681B68002B01D0E1
:1051D40004219847250000230C35A3602C342B6848
:1051E400002B13D072B62B685869002804D0022112
:1051F4000C304942FFF7BDFB2B689869002804D0A6
:1052040002210C304942FFF7B4FB62B60435A542D3
:10521400E5D170BD017810B5052908D103008033AC
:105224001B78037043681B68002B00D0984710BD9F
:10523400F7B50600643633780400002B06D0836883
:10524400A34A134083600023C36633702700743776
:105254003A0000212000019700F022FF63689B6858
:10526400002B0AD1019B1A78602315001D401A42B5
:1052740024D02000FFF772FEF7BD200098470028D5
:10528400F0D023007A331A785B78E16E1B02134363
:10529400994201D91900E366019B1B787F2B00D842
:1052A40007E1002900D1FAE00923337072B6002126
:1052B400E36EA26E2000FFF722FFF8E023007F21B7
:1052C40075331B780A401B021343824A934200D170
:1052D400CDE026D880225200934256D00DD8012B1F
:1052E4004DD0022B00D191E0002BC2D122007C32A0
:1052F400A2660222E2662367C3E781225200934238
:1053040000D19CE0FF32FF329342B2D123007633C6
:105314001B78012BADD122007C321188DB180B43A2
:105324003EE080221201934243D020D8A022D20032
:1053340093423AD0684A9B18012B9AD823007833B9
:105344001A785B7821001B021343220060687632CE
:10535400406877310700127820000978B8470028A0
:1053640000D186E74368A3660368E3661BE09022E6
:105374001201934222D0594A934200D079E7584B04
:10538400A3660223E3660023B5E7230076331B7884
:10539400012B00D06DE7220002217C3213888B435D
:1053A4001380A566E56625676BE74E4BA566E56643
:1053B400A1E723007F33A3660123D6E72378042BD8
:1053C4000FD172B62000FFF75FFE62B623000321FF
:1053D4007F331D70636821701B68002B01D020008F
:1053E4009847230076331B78002B0BD022007F32A2
:1053F40013700423237063681B68002B02D00221FE
:10540400200098470023A366E36674E723000F2176
:1054140078331B78200019405BB2002B0CDA00F0C3
:105424002FFE012806D0022800D022E72E4BE0668A
:10543400A366A8E72D4BA3E700F00EFEF1E72300D7
:1054440076331B78002B00D013E7230078331B78C6
:105454000F22190011401342D4D05BB22000002B5C
:1054640002DA00F0AFFECDE700F094FECAE72300B5
:1054740076331B78002B00D0FBE6230078331B78AF
:105484000F22190011401342BCD05BB22000002B44
:1054940002DA00F06DFEB5E700F058FEB2E714231F
:1054A400337072B60B000A002000FFF715FE62B6D7
:1054B400E2E6002906D01523337072B60021E36EAC
:1054C400A26EF1E70B23337072B60B000A00F1E60B
:1054D400FEFFFEFF0203000000FAFFFF020C0000C3
:1054E400606D0008994F00085E6D00085C6D00084F
:1054F40070B505006435040028780B2807D8FAF73E
:1055040077FE082F2F2F2F2F082F2F0C253015282B
:1055140026D12000FFF722FD22E023007A331A78F7
:105524005B78E06E1B02134398420FD2E368198A3A
:10553400FAF7F8FE002909D172B60B000A00200020
:10554400FFF7DDFD62B60A232B7009E014232B70EC
:1055540072B6002320001A001900FFF7BDFD62B6E1
:1055640070BD236F002B01D020009847A368034A25
:105574001340A3600023E366E6E7C046FEFFFEFF98
:1055840070B5050064352B780400142B19D00CD8A1
:10559400062B06D002D8002B03D070BD0A3B012B8A
:1055A400FBD82000FFF7DAFCF7E7152BF5D10A3B0F
:1055B4002B7072B600231A001900FFF7A0FD62B623
:1055C400EBE7C3689B695B68002BE6D1036F002B94
:1055D40000D09847A368034A1340A3600023E366FE
:1055E4002B70DAE7FEFFFEFFD3B5040000270C4E54
:1055F400236820009B6901A9984701280FD10198CD
:105604000023084A002100F0F3FFFA22002392004D
:1056140080197941FAF776FFFFF7A3F9E8E7D6BDD9
:10562400E7030000A0860100036810B55B680C0066
:105634009847C368002B02D0E400E05810BD00690D
:105644006043FBE7036810B55B680C009847C368C8
:10565400002B03D0E4001B19586810BD0069FCE757
:10566400036810B55B680C0098474069001910BDC9
:105674000122044B5242191DCA67C02149005A50E5
:105684007047C04600E100E00322F0B5FF26C025C4
:105694000240D2009640890191400A4F83089B0042
:1056A400DB19AD005C591F22B4430C435C51012348
:1056B40002409340C02240098000C0195200835028
:1056C4000360F0BD00E100E010B5744600F060FB3B
:1056D4002000FFF711FA10BD10B57446034800F01E
:1056E40087FD2000FFF708FA10BDC0468C17002084
:1056F40010B501210F20FFF7C7FF03210820FFF792
:10570400C3FF10BDF7B5072104005B4B5B4818606D
:10571400594B1A68424013000B400A42F8D1584EC4
:105724005849326858480A40802132608900C822AA
:10573400FFF746FA031E01D00120FEBD8027802119
:10574400524D7F00142228002F60C900FFF722FA6F
:10575400021EF1D14E4B38211860FA2300904C48B8
:10576400FFF700FA031EE7D14A4A2F601060822235
:10577400802192003260413A4348FF3AC900FFF762
:105784001FFA0028D8D18021A36849020B4259D1BD
:105794001F43414B39403B402B604B1E99418023B2
:1057A4004904DB00C9187B0202D580231B0419437A
:1057B40000233A4A3548FFF7EDF9031EBCD12268AD
:1057C400314832606168364A11608021C822C900BC
:1057D400FFF7F6F90028AFD1216880220B00D2012F
:1057E4001340114230D18021C82227488900FFF795
:1057F400E7F90028A0D18023A2685B041A422BD1C8
:10580400E368234A1360072261691B4B19601A4B32
:105814001B684B40180010401342F8D13821E2684D
:10582400FA23D20000900A401948FFF79BF9002898
:1058340000D081E7A368DA0302D58022D2021343A1
:105844002B607AE7174FA3E780210300C822890061
:105854000D48FFF79FF9CCE722690E493B430A60E4
:1058640080212B60C822002308488904FFF792F99D
:105874000028C5D060E7C0460020024002030400AF
:1058840000700040FFBFFFFF147000400010024092
:10589400081002400C100240FFFFFFFE102700001A
:1058A400047000400001040010B5FFF7E1FEFFF7AB
:1058B4001FFF10BD802310B5454CDB02226B454908
:1058C4001A432263226B0A402263226B226C134325
:1058D4002364236D0B402365236D3F4B3F49D869F7
:1058E400FAF724FD431E40423D4AC01703401360AB
:1058F400012201213B4B49421A603B4B1A60A36AC7
:10590400A162A36A0023A362A06AE06AE162E06A7A
:10591400E362E06A206B2163216B2363216B216CBA
:1059240011432164216D91432165226D8022E16B35
:1059340012051143E163E16C0A43E264E26C8022E4
:10594400E16BD2001143E163E16C0A43E264E26C6F
:105954008022E16B52050A43E263E26C23490A4068
:105964008021E264E26C224A090291608021D360C2
:10597400136253629362D362136353639363D36377
:10598400136453649364D364106849000143116041
:10599400C022E16D9200114203D080225202E265DE
:1059A400E3650022A2602368124913480B40236078
:1059B400124B6365A265FFF7A5FE002802D01048CC
:1059C400FFF7CCF8E36D0F4A1340E36510BDC04602
:1059D40000100240FFFFFBFFB80E002040420F0002
:1059E400284801401448014000480140FFFFFFEFF0
:1059F40000700040FFC7FFFF646D000815050044F8
:105A0400ED6A0008FFFCFFFD014B8000C0587047A1
:105A1400B80E0020C16902000B6910B598B2086184
:105A24001C00102106200C400B4208D11A31200022
:105A34000B4204D010790438431E9841033010BD42
:105A440010B50A4C2000FFF765FA094BE361094BD6
:105A54001B889A02402B06D080239B029A4201D1D4
:105A6400054B236210BD054BFBE7C04668170020B9
:105A740000200240E075FF1F7C6D0008986D00084F
:105A8400C369064A99680A439A609968044A0A43B2
:105A94009A600022034B5A617047C0462301674550
:105AA400AB89EFCD002002408023C2691B065169F7
:105AB4000B4353617047006A7047000070B5057965
:105AC40004000120052D12D002302071084DE06938
