:100000000C9450020C9488020C9488020C94880280
:100010000C9488020C9488020C9488020C94880238
:100020000C9488020C9488020C9489180C9445183E
:100030000C9485190C9488020C9488020C94880204
:100040000C9488020C9488020C9488020C94880208
:100050000C9488020C9461190C9488020C94880208
:100060000C9488020C9488020C9488020C948802E8
:100070000C9488020C9488020C9488020C948802D8
:100080000C9488020C9488020C9488020C948802C8
:100090000C9488020C9488020C9488020C948802B8
:1000A0000C9488020C9488020C94880205010902C1
:1000B000A10185020901A1000509190129081500FE
:1000C0002501950875018102050109300931158165
:1000D000257F95027508810609381581257F9501D0
:1000E00075088106050C0A38021581257F95017572
:1000F000088106C0C005010980A101850319012AF4
:10010000B700150126B700950175108100C0050CD8
:100110000901A101850419012AA002150126A002E6
:10012000950175108100C005010906A1018506052C
:100130000719E029E71500250195087501810205D9
:1001400007190029EF1500250195F07501810205B9
:10015000081901290595057501910295017503910D
:1001600001C00660FF0961A1010962150026FF00B8
:100170009520750881020963150026FF00952075FA
:10018000089102C005010906A101050719E029E748
:1001900015002501950875018102950175088101F9
:1001A0000507190029FF150026FF0095067508812F
:1001B000000508190129051500250195057501910E
:1001C00002950175039101C00000000000000000CD
:1001D000000000000000000000000000000000001F
:1001E0000000000000000000000000007E0F00D4AE
:1001F000FFFFFFC7000000780000000000000000C3
:100200002A2B280000000000000000000000000071
:1002100000000029000000002C1E3420212224347C
:100220002627252E362D3738271E1F20212223244E
:1002300025263333362E37381F0405060708090AEA
:100240000B0C0D0E0F101112131415161718191A86
:100250001B1C1D2F3130232D350405060708090A04
:100260000B0C0D0E0F101112131415161718191A66
:100270001B1C1D2F3130354C2B0014001A000800B8
:10028000150017001C0018000C00120013002A00B3
:10029000E00004001600070009000A000B000D0032
:1002A0000E000F0033003400E1001D001B000600AB
:1002B0001900050011001000360037003800E50075
:1002C0002900E000E300E200777C2C002800787C25
:1002D000E600E700E400290001001E001F002000E6
:1002E00021002200230024002500260027002A00E8
:1002F000010000000000000000000000500051005C
:1003000052004F000000000001000000000000004B
:1003100000000000000000000000000000000000DD
:1003200001000100010001000100010001000100C5
:10033000010001000100010001001E021F02200255
:1003400021022202230224022502260227022A0079
:100350000100000000000000000000002D002E0041
:100360002F023002310235000100000000000000C1
:10037000000000002D022E022F0030003100350257
:100380000100010001000100010001000100010065
:100390000100010001000100010000000000000058
:1003A000000000000000000000000000000000004D
:1003B000010000000000000000000000000000003C
:1003C000000000000000000001000000000000002C
:1003D000000000000000000000000000000000001D
:1003E0000100010001000100010001000100010005
:1003F000010001000100010009025B00030100A0EF
:10040000FA090400000103010100092111010001A2
:1004100022440007058103080001090401000203CA
:1004200000000009211101000122220007058203BA
:100430002000010705030320000109040200010355
:1004400000000009211101000122B6000705840304
:1004500020000112010002000000086532050000C2
:1004600001010200011E0343006F0072006E00656F
:10047000006C006900750073002000720065007652
:10048000003100000014035900750073006800611A
:10049000006B006F0062006F00000004030904009D
:1004A00011241FBECFEFDAE0DEBFCDBF04B603FEDE
:1004B00018C08091600290916102A0916202B09197
:1004C00063028730904BA740B04B59F41092600202
:1004D000109261021092620210926302E0E0F8E36F
:1004E000099511E0A0E0B1E0E4E5FEE302C005906B
:1004F0000D92A036B107D9F722E0A0E6B1E001C025
:100500001D92A036B207E1F70E94AC190C94D61EDA
:100510000C940000982FE0915C024091230257E078
:10052000E41302C080E008952E2F30E05E9FF001BA
:100530001124EC5DFD4F8181681306C08081981302
:1005400003C085818111EFCFF9013196E770E8CFC3
:10055000E8EDF0E080818E7F80831092E2001092BF
:10056000DA001092E100A0EEB0E08C9181608C93F3
:1005700080818F77808319BCA7EDB0E08C918E7F4E
:100580008C9380818F7E808310920C02089520913D
:10059000E4003091E50095E6A9012091EC00822F5E
:1005A000817020FF06C08091E80080FF06C080E0D7
:1005B00008952091E80022FD1AC080911902882335
:1005C00089F0853089F08091EB0085FD0FC0209186
:1005D000E4003091E50042175307F9F29150E1F63B
:1005E00084E0089582E0089583E0089581E008950D
:1005F00080911B0287FF13C08091E80082FF06C034
:100600008091E8008B778093E80004C08091190204
:100610008111F2CF0895809119028823D9F3809136
:10062000E80080FFF8CF8091E8008E77ECCF982F1C
:100630009093E900242F762F50E0891731F07091C4
:10064000EC002091ED005091F00021FD07C09F5F6C
:10065000973071F78093E90081E008953091EB00C5
:100660003E7F3093EB003091ED003D7F3093ED0005
:100670003091EB0031603093EB007093EC002093ED
:10068000ED005093F0002091EE0027FDE0CF80E0D8
:100690000895B0E0A0E0EFE4F3E00C94361EC8ED5E
:1006A000D0E088818F7E8883E7EDF0E080818160F3
:1006B000808384E082BF81E080930C0288818E7FFA
:1006C000888302EE10E0F80110821092DA0081EEC9
:1006D000C82ED12CF601108288818F77888388817B
:1006E0008068888388818F7D888319BC1092190265
:1006F00010921A02109218021092170290EEE92E30
:10070000F12CF70180818B7F8083888181608883D1
:1007100042E060E080E00E941703F60180818E7F56
:100720008083F801808181608083808188608083FC
:10073000F70180818E7F8083888180618883CDB737
:10074000DEB7E8E00C94521EFC01CB01209121029F
:10075000309122022617370790F0009729F4209154
:10076000E8002E772093E80040E0009751F4411113
:1007700008C08091E80082FF31C080E00895C9017F
:10078000F3CF209119022223A9F12530A9F120915C
:10079000E80023FD2DC02091E80022FDEACF209142
:1007A000E80020FFE2CF3091F3002091F2000097A3
:1007B00019F02830310558F041E02830310509F0B2
:1007C00040E02091E8002E772093E800CECF4191C1
:1007D0004093F10001972F5F3F4FE9CF80911902BD
:1007E000882341F0853041F08091E80083FFC1CF3C
:1007F00081E0089582E0089583E0089580910E02DB
:1008000008959C014FB7F8948091080290910902D5
:10081000A0910A02B0910B024FBF821B930B089567
:100820002FB7F8948091080290910902A0910A02D2
:10083000B0910B022FBF089590910A019923E1F026
:100840009091050297FF18C0E82FE695E695E6958A
:10085000803FF0F4F0E0E659FE4F877021E030E091
:10086000A90102C0440F551F8A95E2F7CA0180957D
:100870009281892382830895E4E6F1E091918913BE
:1008800003C0DF0111971C9251E0EA36F507B1F77A
:10089000089590910A019923C1F09091050297FF64
:1008A00014C0E82FE695E695E695803FF8F4F0E071
:1008B000E659FE4F877021E030E001C0220F8A9593
:1008C000EAF78281822B82830895A4E6B1E0EFEFFC
:1008D00090E02D91821751F0EF3F19F4211101C0E2
:1008E000E92F9F5F9630A9F7EF3F09F408950E2E88
:1008F000000CFF0BEE59FE4FE6CFA3E0B0E0E3E8BB
:10090000F4E00C943C1E9C0180910302909104023F
:1009100082179307A1F03093040220930302E09121
:100920000102F0910202309751F084E089833B8309
:100930002A830084F185E02DCE0101960995239646
:10094000E2E00C94581EA3E0B0E0E9EAF4E00C9475
:100950003C1E9C018091FF01909100028217930739
:10096000A1F0309300022093FF01E0910102F09189
:100970000202309751F083E089833B832A8300840D
:10098000F185E02DCE01019609952396E2E00C94C5
:10099000581EE0910102F0910202309729F0019077
:1009A000F081E02D0995089580E008950E941004DB
:1009B0002091FB013091FC01232B21F08093F70162
:1009C0009093F8012091FD013091FE01232B21F03D
:1009D0008093F5019093F601E0910102F0910202FB
:1009E000309749F082E08093F9010680F781E02D8D
:1009F00089EF91E0099508958091F40180FD16C07A
:100A000081FD16C082FD16C08091F3018823A1F0FC
:100A1000883280F428E0829FC001112468E270E0EF
:100A20000E940B1E862F672B39F0089582E00895EF
:100A300084E0089588E0089581E008958091F401AC
:100A400080FD14C081FD14C082FD16C08091F201AA
:100A5000882381F08E3180F420E5829FC00111242B
:100A60006EE170E00E940B1E862F089584E10895C8
:100A700088E2089588E0089580E50895282F35EBF1
:100A80002303C001112497FF04C080589109892FC6
:100A9000089580589F4FFBCF80E00895F894E82F89
:100AA000E295EF70F0E041A18F7021E030E0B901F4
:100AB00002C0660F771F8A95E2F7CB01962F9095BB
:100AC000942391A392A1892B82A378940895909165
:100AD000050292FF10C041E0282F2471243009F054
:100AE00040E031E0282F2871283009F030E043172A
:100AF00011F02CE0822793FF10C041E0282F2471D1
:100B0000243109F040E031E0282F2871283109F024
:100B100030E0431711F02CE082273091060230FFBD
:100B200010C051E0282F2171213009F050E041E040
:100B3000282F2871283009F040E0541711F029E0DF
:100B4000822731FF10C041E0282F2171213109F0A7
:100B500040E031E0282F2871283109F030E04317B8
:100B600011F029E0822794FD877E0895803E91054B
:100B7000C1F1C8F48133910509F47DC048F489328C
:100B8000910509F46DC08A32910509F47BC008957E
:100B900089339105D1F082389105B9F085339105FB
:100BA00009F459C00895843E9105C1F138F4823E9C
:100BB000910521F1833E910531F10895863E91051D
:100BC000C1F1873E9105E1F108952091050223705E
:100BD00009F065C02091060223FF14C089E290E06D
:100BE00008952091050220FD43C03091060230FF98
:100BF00009C024FF4EC090E080E0089520910502D6
:100C000022FDF7CF08952091050222FD45C03091C5
:100C1000060230FD44C024FFF5CFEDCF209106023F
:100C200021FFF0CF8091050284FDE5CF87EE90E0B3
:100C300008952091050223FFE5CF24FDDCCFF6CFF8
:100C40002091050223FD2EC03091060231FFE3CF33
:100C500084EE90E008952091050225FFD3CFBECF0A
:100C60002091050225FD21C02091060223FFCACF55
:100C700089E390E0C7CF2091050226FFC3CF8AE227
:100C800090E008952091050226FFBCCF81E390E01B
:100C9000089583EE90E0089582EE90E0089580EE4E
:100CA00090E0089586EE90E0089585E390E0089541
:100CB0001F93CF93DF930E94B605EC0181159245F7
:100CC00008F05FC0C11580E5D80708F0DDC0C03E60
:100CD000D10538F5CD3CD10508F0AEC0C83AD105F4
:100CE00080F4C53AD10508F0A4C0C130D10509F49B
:100CF00043C0CE010497813A9105F0F1D0E0C0E005
:100D00003BC0CE01885A91094B97C0F7C85AD0E032
:100D1000CC0FDD1FC55FDE4F0990D881C02DD46494
:100D20002BC0C11590E4D907F0F4C11520E2D20719
:100D300008F0C4C0C83ED105F8F0CE019A958115DF
:100D40009F41E0F68D2F0E946705182FCE0199274D
:100D50000E94B605C12FD0E0DC2FCC27CC27DF7155
:100D6000C82BD92B09C0CE0199270E94B605CC27E4
:100D7000DF70C82BD92BD06ACE01DF91CF911F91A4
:100D80000895C03882E5D807B8F5C03692E5D9078E
:100D900008F05BC0C03422E5D207C8F4C03282E557
:100DA000D80708F04BC02C2F2695269590E2299F56
:100DB000900111248C2F8370C1E0D0E002C0CC0FD1
:100DC000DD1F8A95E2F7C22BD32BDD68D5CF2C2F00
:100DD00026952695277080E2289F900111248C2F5C
:100DE0008370C1E0D0E002C0CC0FDD1F8A95E2F72E
:100DF000C22BD32BDC68C0CFC03C92E5D90760F48E
:100E00008C2F8F71C03AD245A8F5C82FD0E0DC2FC7
:100E1000CC27C46FD06AB0CFCE01805C924580975A
:100E200008F06CCFDC2FCC27CC27DF71C06FD06AE5
:100E3000A3CFA497D064A0CFD0659ECFCF71D0E0D0
:100E4000DC2FCC27C16FD06A97CF2C2F2695269503
:100E5000277080E2289F900111248C2F8370C1E0BD
:100E6000D0E002C0CC0FDD1F8A95E2F7C22BD32B56
:100E7000DA6882CF0E946705C82FD0E0DC2FCC272C
:100E8000CC27DF71D06278CF8C2F8F710E946705DD
:100E900055E0D695C7955A95E1F7CF70D0E0DC2F95
:100EA000CC27282F30E084FF05C044E0220F331FF9
:100EB0004A95E1F7C22BD32BD0695ECF8D2F8F716E
:100EC0000E946705182FCE0199270E94B605C12FF1
:100ED000D0E0DC2FCC27CC27DF71C82BD92BD2CF89
:100EE000982F90958091D00189238093D001089507
:100EF0008091D0019091A701892B9091A60199230F
:100F000091F0892B90910A01992371F0909105023B
:100F100097FF0AC09EE12CE631E040E0915040F49A
:100F200041111092A601089596E024E631E0F5CF34
:100F3000F90151919F01552389F34F5FEFCF8091C4
:100F40005C0290912302981301C008958F5F87700F
:100F5000FACF292F943078F58C3068F590E03CE09A
:100F6000239F800D911D1124682F677023E09695B3
:100F700087952A95E1F7FC01EE0FFF1FE80FF91F97
:100F8000E457FE4F50E040E080E0219130E0062E33
:100F900002C0369527950A94E2F721703327042E74
:100FA00001C0220F0A94EAF7822B4F5F5F4F433054
:100FB000510559F7089580E00895292F943090F550
:100FC0008C3080F590E03CE0239F800D911D112432
:100FD000282F277041E001C0440F2A95EAF723E04B
:100FE000969587952A95E1F7FC01EE0FFF1FE80F14
:100FF000F91FE457FE4F90E080E070E05191DF016F
:1010000011979B01082E02C0369527950A94E2F7A6
:10101000217021952527242325272C9301968330A1
:10102000910561F708958093DF0108959091DF01A4
:1010300021E030E0F90101C0EE0F8A95EAF7D9010D
:1010400002C0AA0FBB1F6A95E2F7EA2B01C0220F6C
:101050004A95EAF7892F8E23E81305C0292B822FA2
:101060000E941308089520952923F9CF21E030E04C
:1010700001C0220F8A95EAF720958091DF01822333
:101080000E94130808959091A5018095892380936B
:10109000A501282F277069F4891759F0909106024D
:1010A00092FF07C08695869586950E943608109215
:1010B000A501089521E030E001C0220F8A95EAF7EA
:1010C0008091DF01822B0E94130808958093DE0136
:1010D00008954091FB019091FD012091FE0166234E
:1010E00009F469C0942B922B2091FC01922B31F0D2
:1010F00098E09093F20191E09093F3018D3C41F4DC
:101100000E941E0581958093FC010E94D6040895DB
:101110008E3C19F40E941E05F6CF8F3C31F40E94DC
:101120001E0581958093FB01F0CF803D19F40E944C
:101130001E05F8CF893D29F40E94FC048093FD012F
:10114000E4CF8A3D21F40E94FC048195F7CF8B3DCA
:1011500031F40E94FC0481958093FE01D6CF8C3D32
:1011600019F40E94FC04F8CF9FE2980F983070F4B5
:10117000815D990B21E030E001C0220F8A95EAF7EA
:101180008091FA01822B8093FA01BFCF8D3D31F41B
:101190008091F40181608093F401B7CF8E3D21F4FA
:1011A0008091F4018260F7CF8F3D09F0AECF80913E
:1011B000F4018460F0CF8D3C59F48091FC0187FFED
:1011C0000DC01092FC0141110BC01092F20108C039
:1011D0008E3C81F48091FC0118169CF3442381F02D
:1011E0008091FD019091FE01892B09F08ECF109224
:1011F000F3018BCF8F3C49F447FFF0CF1092FB01F6
:101200008091FC018111ECCFE0CF803D19F41416E0
:10121000ACF3E4CF893D29F4191604F71092FD01CF
:10122000DDCF8A3D19F497FFD9CFF8CF8B3D29F454
:1012300027FFD4CF1092FE01D1CF8C3D19F41216A6
:10124000CCF3CCCF9FE2980F983090F4815D990B4E
:1012500021E030E0B90102C0660F771F8A95E2F7FE
:10126000CB0180959091FA0189238093FA01B6CF42
:101270008D3D31F48091F4018E7F8093F401AECFE7
:101280008E3D21F48091F4018D7FF7CF8F3D09F0E1
:10129000A5CF8091F4018B7FF0CF0F931F93CF9355
:1012A000DF938B01EA0190911902943061F58093EC
:1012B000E9008FEF9091E800815095FD06C095ED13
:1012C0009A95F1F700008111F5CF8091E80085FF34
:1012D0001AC00E94C702811111C08091E80085FDEB
:1012E00006C08091E8008E778093E800F2CFF80185
:1012F00081918F018093F100219779F78091E80027
:101300008E778093E800DF91CF911F910F91089520
:10131000BC0143E050E084E00E944D090895BC0107
:1013200046E050E084E00E944D090895BC0140E28F
:1013300050E084E00E944D090895CF93DF93D82FA9
:10134000C92F48E050E0682F792F81E00E944D09B5
:1013500088E0ED2FFC2FAFE0B2E001900D928A956E
:10136000E1F7DF91CF91089581E08093E00080E282
:101370008093D8001092C9008FE19EE40197F1F7A5
:1013800000C0000087E090EBDC0180936002909346
:101390006102A0936202B093630288E19CE00FB601
:1013A000F894A895809360000FBE90936000FFCFE3
:1013B000CF93C82F6FEF811164E285E290E00E9425
:1013C000951E6FEFC11161E186E290E00E94951ECB
:1013D0006FEFC11163E187E290E00E94951ECF910B
:1013E0000895CF93DF93C9EAD1E060E0CE010E9477
:1013F000951E2196C11584E0D807B9F7DF91CF91EA
:1014000008951F93CF93DF93962F122F632F84306D
:10141000D8F49430C8F44C30B8F4C42FD0E0CC0FDA
:10142000DD1F28E1929FC00DD11D112490E6899FF8
:10143000C00DD11D1124CE0189960E94951E612FE9
:10144000CE018A960E94951EDF91CF911F9108953B
:10145000AF92BF92CF92DF92FF920F931F93CF93E1
:10146000DF93B12CA12C00E0650110E013C0FE0158
:10147000259134914F2D612F802F0E94010A2296D1
:10148000F3948CE0F812F3CF8CE0C80ED11C1F5FF0
:10149000143039F0E601CC0FDD1FC858DD4FF12CB8
:1014A000E6CF0F5F80E3A80EB11C0430E9F6DF91B0
:1014B000CF911F910F91FF90DF90CF90BF90AF9091
:1014C000089580E00E94D80960E088E290E00E94E0
:1014D000951E0E94280A0E94F10981E00E94D80905
:1014E000089585E290E00E94771E843289F486E2B6
:1014F00090E00E94771E813159F487E290E00E94CB
:10150000771E91E0833109F090E0892F8170089572
:1015100080E0FCCF0F931F93CF93DF93843030F59F
:10152000643020F54C3010F5C42FD0E0CC0FDD1F17
:1015300028E1629FC00DD11D112430E6839FC00DAC
:10154000D11D1124CE0189960E94771E082F10E02C
:10155000102F0027CE018A960E94771E9801282B13
:10156000C901DF91CF911F910F91089590E080E024
:10157000F8CF462F672F743038F44C3028F484307D
:1015800018F40E948A0A089580E090E00895B0E07F
:10159000A0E0EDECFAE00C94371E7C010091DF0135
:1015A0008091DE01082BC3E0D0E010E0DC2EC80102
:1015B0000C2E02C0959587950A94E2F780FD09C02C
:1015C0002197A0F7D12C8D2DCDB7DEB7E7E00C9495
:1015D000531EB7018C2F0E94B90A0E94580601972A
:1015E00079F3F1CFCF93DF93D82FC92F0E94C70A89
:1015F0006D2F7C2F0E94B90A0E945806DF91CF916F
:101600000895FC0184818823A1F0808191810E944A
:10161000F20A282F92959F70963091F060F4925FB5
:101620009F70923030F481E0203F81F030F4283E0A
:1016300030F080E004C09A5FF3CF243FD1F70895E3
:1016400081E0283E20F0213FA1F7F9CF08950895C9
:10165000A6E0B0E0EEE2FBE00C943B1E49835A8327
:10166000392F89819A81332399F0222389F00E94AE
:10167000C70A182F682F89819A810E94DD07698126
:101680007A81812F0E94B90A2696E3E00C94571EB6
:101690000E94A907182FF3CF9091060292FB2227F0
:1016A00020F9281779F080FB92F990930602609157
:1016B00005027091060284E090E00E94B31E82E071
:1016C0000E944308089580910A01882359F180916E
:1016D000050287FF27C00E94780780936B0140E2D4
:1016E00050E068EA71E08AE691E00E94C91E892B09
:1016F000C1F080E2EAE6F1E0A8EAB1E001900D92E3
:101700008A95E1F7E0910102F0910202309749F0E9
:1017100086E080936A010480F581E02D8AE691E0FD
:10172000099508950E9478078093620148E050E08F
:1017300068EC71E082E691E00E94C91E892B89F372
:1017400088E0E2E6F1E0A8ECB1E001900D928A9524
:10175000E1F7E0910102F0910202309711F302806B
:10176000F381E02D82E691E0DBCF1092D0018091F1
:101770000A01882339F18091050287FF23C0ECE636
:10178000F1E08EE1DF011D928A95E9F790E080E0BB
:101790000E94A30490E080E00E947D041092A701C3
:1017A0000E94630B86E0E9EFF1E0DF011D928A956C
:1017B000E9F71092F2011092F3011092F4010E94E5
:1017C000D6040895E4E6F1E086E0DCCFAAE2B0E0DA
:1017D000ECEEFBE00C943B1E8BE192E0FC010196E9
:1017E0002091F100208322E083329207B9F78091A3
:1017F0001C02893009F456C0C8F4823009F4B3C021
:10180000833009F482C0813071F18091E80083FF58
:1018100085C280911B0290911C029A3008F07EC212
:10182000E92FF0E0E852F14E0C941F1E8A3009F4C3
:1018300089C08B3051F780911B02813231F7809142
:101840001F0290912002892B01F78091E800877F89
:101850008093E8000E94F80280911D0280930A01A3
:101860000E94B50BD2CF80911B02813A71F6809114
:10187000E800877F8093E80080911F02909120020A
:10188000892B61F468E08FE092E070E00E94A4038D
:101890008091E8008B778093E800B7CF60E090E01C
:1018A00080E0F3CF80911B02813209F0AECF8091AE
:1018B0001F02909120028D7F892B09F0A6CF809185
:1018C000E800877F8093E8008091E80082FF18C0DD
:1018D0009091F3008091F200029731F48091F10031
:1018E000813011F0863021F48091F10080930E0256
:1018F0008091E8008B778093E8000E94F80285CF02
:10190000809119028111E0CF80CF80911B02813A32
:1019100009F07BCF80911F0290912002892B09F062
:1019200074CF8091E800877F8093E8008091E80081
:1019300080FFFCCF80910A018093F1008091E80044
:101940008E77D9CF80911B02813209F05ECF8091D2
:10195000E800877F8093E8000E94F80280911E02D1
:1019600080930D0252CF80911B02813A09F04DCF36
:101970008091E800877F8093E8008091E80080FFF5
:10198000FCCF80910D02D8CF803899F0823809F0D1
:10199000C5C180911F028F70873008F0BFC180934E
:1019A000E9008091EB0085FB882780F91092E9001F
:1019B00006C0809117029091180291118260909157
:1019C000E800977F9093E8008093F1001092F10077
:1019D0008091E8008E779EC1882309F48CC1823003
:1019E00009F09CC180911D0281118FC180911F025D
:1019F0008F702FEF280F263008F090C18093E900F8
:101A00002091EB0020FF81C1933031F48091EB00F5
:101A100080628093EB0079C19091EB00906190938C
:101A2000EB0021E030E001C0220F8A95EAF7209315
:101A3000EA001092EA008091EB008860EACF811101
:101A40006DC110911D021F778091E3008078812B7A
:101A50008093E3008091E800877F8093E8000E94F4
:101A6000F8028091E80080FFFCCF8091E30080685D
:101A70008093E30082E0111183E0809319024EC14C
:101A80008058823008F04AC140911D0250911E02D8
:101A90004C3D83E05807A1F583E08A838AE289837D
:101AA0004FB7F894DE01139620E03EE051E2E32FB9
:101AB000F0E050935700E49120FF03C0E295EF70EF
:101AC0003F5FEF708E2F90E0EA30C0F0C7968D93A5
:101AD0009D932F5F243159F74FBF8091E800877F96
:101AE0008093E8006AE270E0CE0101960E94A403B0
:101AF0008091E8008B778093E80010C1C096E7CF13
:101B000080911F0290912002252F33272330310529
:101B100009F44AC078F52130310509F479C08BE524
:101B200090E0E8EFF3E02230310509F0F7C02091B2
:101B3000E800277F2093E8002091210230912202C3
:101B40008217930708F49C0140E02115310509F044
:101B500064C0411162C08091E80082FDC9CF8091CC
:101B60001902882329F2853019F28091E80083FF59
:101B7000F2CFBECF2132310509F43BC0223231050C
:101B800009F0CCC08330910508F0C8C0FC01EE0F0D
:101B9000FF1FEC5AFE4F0190F081E02D8F5A9E4FAF
:101BA000DC018C9190E011C0CA019927413089F085
:101BB00082309105B1F0892B09F0B0C0EBE9F4E077
:101BC000E4918E2F90E0EBE9F4E0009709F4A6C0D1
:101BD000AECFE5E8F4E0E4918E2F90E0E5E8F4E0A4
:101BE000F4CFE5E6F4E0E4918E2F90E0E5E6F4E052
:101BF000ECCF8330910508F091C0880F991FFC014C
:101C0000E65AFE4F0190F081E02D89E090E08FCF01
:101C100082E190E0E3E5F4E08ACF80911902882325
:101C200009F466CF853009F463CF8091E80083FD25
:101C30005FCF8091E80082FD8ECF8091E80080FF29
:101C400084CF9091F3008091F2002115310519F0B5
:101C50008830910550F041E0089709F040E080910C
:101C6000E8008E778093E80070CF44914093F100B4
:101C70003196215031090196E8CF803809F04EC0E5
:101C80008091E800877F8093E80080911A0280931A
:101C9000F1009ECE811142C010911D021230F0F56C
:101CA0008091E800877F8093E80010931A020E94D9
:101CB000F802112311F084E005C08091E30087FD54
:101CC000FACF81E08093190242E061EC81E00E944A
:101CD000170342E261EC84E00E94170342E261ECE8
:101CE00082E00E94170342E260EC83E00E94170347
:101CF0008091190213C080911D02813079F481E036
:101D0000933009F080E0809318021092E9008091EE
:101D1000E800877F8093E8000E94F8028091E80045
:101D200083FF0AC08091E800877F8093E80080915C
:101D3000EB0080628093EB00AA96E3E00C94571EC0
:101D40000E94B50B2FEF84E39CE02150804090402F
:101D5000E1F700C0000088E19CE00FB6F894A89578
:101D6000809360000FBE90936000FFCF882321F026
:101D70000E9470070E94630B0895882339F09091A8
:101D8000D001892B8093D0010E94630B0895882392
:101D900081F19CEF980F913A28F40E941C040E9454
:101DA000630B089590E2980F983050F4877091E09B
:101DB00001C0990F8A95EAF7892F0E947007EFCF2B
:101DC0009BE5980F933028F490E080E00E94A304F4
:101DD000089598E5980F9B3128F490E080E00E94E8
:101DE0007D04089593E3980F933118F460E00E9406
:101DF00069080895CF93C82F8823B9F18CEF8C0F11
:101E0000813AA8F580910A01882301F180910502A9
:101E100087FF1CC0EC2FE695E695E695F0E0E659C5
:101E2000FE4F828190E04C2F477021E030E002C0ED
:101E3000220F331F4A95E2F782239323892B81F0E7
:101E40008C2F0E941C040E94630B0AC0E4E6F1E0A0
:101E50008AE691E02191C21799F38E179F07D1F777
:101E60008C2F0E9449040E94630BCF91089580E259
:101E70008C0F883068F4C77021E030E001C0220F79
:101E8000CA95EAF78091D001822B8093D001EBCFE5
:101E90008BE58C0F833038F42C2F2452330BC9017F
:101EA0000E94A304E2CFE8E5EC0FEB3150F4F0E040
:101EB000EE0FFF1FE55FFE4F808191810E947D0440
:101EC000D4CF83E38C0F833180F661E08C2F0E94A6
:101ED0006908CBCF0F931F93CF93C82F10E000E07A
:101EE000893311F400E510E08C2F0E94FA0E0115E1
:101EF000110539F48C2F0E94C70ECF911F910F91BD
:101F000008958FE99FE00197F1F700C000000150AC
:101F10001109EDCFFF920F931F93CF93DF93C62F3D
:101F2000D42F122FFC0185818823A9F060935F02D2
:101F30000E94100490935E0280935D02C77081E05E
:101F400001C0880FCA95EAF70E94BD0ECDB7DEB773
:101F5000E5E00C94551E80915F02681330C08091BB
:101F60005D0290915E020E940104883C910538F563
:101F700000E20D0FCD17A9F0C770FF24F3948F2D49
:101F800001C0880FCA95EAF70E94B60E083048F4DF
:101F90008D2F877001C0FF0C8A95EAF78F2D0E9464
:101FA000BD0E812F0E946A0F083080F6D77081E045
:101FB00001C0880FDA95EAF70E94B60EC7CFC77046
:101FC00081E001C0880FCA95EAF7F6CFA8E0B0E03B
:101FD000ECEEFFE00C942E1E8C01DC0114968C912B
:101FE0001497882309F4B8C021E04C9111965C91B4
:101FF000119712966C91129713967C9113971596E0
:102000009C910E94280B7C01F8018581882309F4AA
:102010003BC1970137572038310508F001C5FFE073
:10202000FE1508F489C08FEF93E00E94771E81119E
:1020300083C059EAA52EBB24B394E11049C01A828B
:102040001982FE01339686E0DF011D928A95E9F739
:102050004AE0442E6501BFEFCB1ADB0AC5010E949E
:10206000771E89831A82882309F466C0813009F0BB
:1020700077C07501E2E0EE0EF11CC6010E94771EEA
:102080008A83882309F458C09FEF980F933070F526
:10209000F3E0AF0EB11CC7010E94771E8B8388232B
:1020A00009F44AC01C82DE0111967D01F7012081EE
:1020B000222381F2213009F093C0918182819130F5
:1020C00009F050C0F2E0EF0EF11C0E946A0F51C0FF
:1020D000A11424E0B20681F1C5010E94771E81118E
:1020E00001C0EA943FEFA31AB30AA7CF8430D9F412
:1020F00032E0C32ED12CC7012FEFE21AF20A0E9460
:10210000771EE1E0F0E0EC0FFD1FEC0DFD1D80837C
:10211000882391F08C3749F4E2E0F0E0EC0FFD1FEA
:10212000EC0DFD1D10825701BECF3FEFC31AD30A3D
:1021300087E0C816D104F9F68091A501877061F097
:10214000D80115968C91882339F08091060282FF80
:1021500003C082E00E9443082896E0E10C944A1EE6
:102160005601A1CF923049F422E0E20EF11C0E9408
:10217000FA0EEFEFEE1AFE0A99CF933031F432E007
:10218000E30EF11C0E94C70EF4CF943021F08FEFC4
:10219000E81AF80AEECF92E0E90EF11C30E020E0F8
:1021A000B7016F5F7F4FD70111964C918053990B08
:1021B0008A30910550F021503109D8F2EFE9FFE063
:1021C0003197F1F700C00000F6CF429EF001439E28
:1021D000F00D11249C012E0F3F1F842F7B01E0CFB7
:1021E000E22FF0E0E850FE4F5490822F86958695BE
:1021F000869590E0FC01E851FE4F64902770712CA9
:10220000022E02C0759467940A94E2F731E06322CB
:102210007724FC01E852FE4F8490912C022E02C0DC
:10222000959487940A94E2F7A1E08A229924FC010C
:10223000E853FE4FC490D12C02C0D594C7942A9580
:10224000E2F7B1E0CB22DD246114710419F081EED4
:102250000E94FA0E8114910419F086EE0E94FA0E83
:10226000852D0E946A0F8114910419F086EE0E9458
:10227000C70E6114710419F081EE0E94C70ECD28BB
:1022800009F477CF8CE221CFF701E851FC47E73022
:10229000F10508F0B8C3EE51F14E0C941F1E26E272
:1022A00041EE61EEC8010E948A0F46CF27E245EE5B
:1022B00065EEF8CF26E241EE60EEF4CF27E245EE80
:1022C00064EEF0CF26E241EE62EEECCF27E245EE7F
:1022D00066EEE8CF28E241E0EBCF80910502816015
:1022E00080930502609105027091060284E090E0FF
:1022F0000E94B31E0E94B50B1FCF8091060288601A
:1023000080930602EFCF809105028260E9CF809131
:1023100005028460E5CF809105028860E1CF80915D
:1023200006028160EDCF809106028260E9CF809144
:1023300005028061D5CF809105028062D1CF809166
:1023400005028064CDCF0E94B50B809105028068A4
:10235000C7CF809105028C60C3CF80910602836055
:10236000CFCF809105028E7FBBCF80910602877F01
:10237000C7CF809105028D7FB3CF809105028B7FFF
:10238000AFCF80910502877FABCF809106028E7F11
:10239000B7CF809106028D7FB3CF809105028F7EEB
:1023A0009FCF809105028F7D9BCF809105028F7B0F
:1023B00097CF0E94B50B809105028F7791CF8091C6
:1023C0000502837F8DCF809106028C7F99CF80910B
:1023D000050282FB992790F921E0922790FB82F970
:1023E00090FB83F97DCF80910602982F9095917094
:1023F0008E7F892B90FB81F983CF90910502892FE5
:102400008F7B96FF80646CCF0E94B50B9091050284
:10241000892F97FB87F9805863CF61E08EE090E0C9
:102420000E94951E5FCF60E0F9CF90910502892F41
:102430008F7E94FF806154CF90910502892F8E7F0B
:1024400090FF81604DCF90910602892F877F93FF87
:10245000886056CF85E3D2C285E3DFC2F7E7EF1687
:10246000FCE7FF0609F474C028E7E2162CE7F20641
:1024700009F477C08823C9F03AE5E3163CE7F30690
:1024800009F49FC008F073C091E0E9169CE7F906D3
:1024900009F495C0A3E0EA16ACE7FA0609F489C08E
:1024A000E114BCE7FB0609F477C0F8018581C08020
:1024B000D180882309F489C0C6010E94C70AF82E7A
:1024C000682FC6010E94DD07B6018F2D0E94B90A50
:1024D0000E9458067C01882ED80115967C9015978D
:1024E00016969C9092942FE092228091A50187707D
:1024F00009F1B72C7720F9F08F2D807F803469F0B7
:1025000080E28E0D8830B0F08F2D807E803229F4ED
:10251000B1E0BE1578F4992069F08091060282FF3F
:1025200009C082E00E9443088091A5018770BB2406
:10253000B3948111B12C8F2D82958F70C82ED12C20
:102540008C3008F0ABC0F601E751F14E0C941F1E21
:1025500081E00E945A0843E062E081E00E94160890
:10256000EBCD882311F082E0F4CF82E081C2EBE56D
:10257000EE16ECE7FE0639F1FCE5EF16FCE7FF0688
:1025800009F093CF8091060282FB882780F991E0C1
:1025900089270E944C0B89CF0E94B50B2FEF34E3A3
:1025A0008CE0215030408040E1F700C000000E94E4
:1025B000B4096FEF7FEF90E080E00E94B31E0E94AD
:1025C000A00E81E0E6CF80E0E4CFC6010E94A9071B
:1025D000F82E7ACFEF2DEF70AE2E8F2D807F19F071
:1025E000A29490EFA9228E2D7720B9F0AA2069F04D
:1025F00090E29E0D983010F0E11009C08091D0015A
:10260000A82AA092D0010E94630B8E2D45C0809114
:10261000A701A82AA092A701F6CF0E94C70EAA2060
:10262000E9F180E28E0D883010F0811004C08A2D0F
:102630000E94700706C0A0948091A701A822A092D2
:10264000A7010E94630B2AC0FF2DFF70AF2E8F2DB4
:10265000807F803219F0A29480EFA8228E2D8820EE
:1026600059F021E0821609F47CC0772009F488C073
:10267000992009F449C0C9CF8091060282FD40C06B
:102680007720C1F1AA2039F08091D0018A29809366
:10269000D0010E94630B80E00E94FA0EE8E0CE1A9F
:1026A000D108F4E0CF16D10410F40E94C904BB2075
:1026B000B1F08091A50180FD12C0D80115961C9241
:1026C0008695869586950E945A08C8010E94E60F55
:1026D0008091A5018695869586950E94360820E012
:1026E000F8014081518162817381848195810E94CA
:1026F000280B32CD80E00E94C70EAA2079F297CF36
:102700007720A1F0911004C08A2D0E94BD0EC6CF83
:1027100031E09312C3CF8091A6019A2D9823A91678
:1027200009F4BCCF8A298093A601B8CF9110B6CF07
:102730008A2D0E94B60E9091A6018A2D892329F038
:102740008A2D809589238093A60190918B018A2DF3
:10275000892309F4A3CF8A2D8095892380938B0147
:102760009DCF772029F085E0891508F497CFCCCF4D
:1027700094E0991508F492CF8A2D0E94B60E8ECF60
:102780009920D1F3893349F4AFEFB7EEE3E0A150DC
:10279000B040E040E1F700C000008E2D0E94C70E5F
:1027A0007DCF8F2D86958695837061F0813009F0FD
:1027B00075CFC7019370711002C080E090E00E9455
:1027C0007D046CCFC7019370711002C080E090E06F
:1027D0000E94A30463CF672D8E2D0E9469085ECFEF
:1027E0008F2D837099F5711059CF4E2D42954695D6
:1027F0004770440F440F8E2D8F70042E01C0880F38
:102800000A94EAF72E2D2071E4FE07C02FE030E095
:1028100001C0220F4A95EAF720953F2D369536954F
:102820003370323071F0333051F04091DE0131308D
:1028300029F0822B84230E94660830CF842B822BC0
:10284000FACF282B8091DE018227F5CF869577205D
:1028500011F08F2D8170882309F420CF4E2D4295E1
:1028600046954770440F440F8E2D8F70042E01C083
:10287000880F0A94EAF72E2D2071E4FE07C02FE09E
:1028800030E001C0220F4A95EAF720953F2D36959A
:1028900036953370323071F0333051F04091DF01B2
:1028A000313029F0822B84230E941308F7CE842B29
:1028B000822BFACF282B8091DF018227F5CFFF2DC5
:1028C000FF70FF2E772029F08F2F0E945A088E2D3F
:1028D0001CCF8E2D0E94B60E8F2D0E943608DECEA4
:1028E0008E2D22EF8216B1F1281570F030EF83168D
:1028F000D1F091EF891691F0772009F45EC0911024
:1029000084CE8F2D8F712AC0A3EF8A1651F1B4EFB8
:102910008B12F2CF8091060282FD2FC08F2D8F7116
:102920007720D9F21BC0772081F0E4E0E91508F4A4
:10293000B5CE2F2D2F7181E090E001C0880F2A9530
:10294000EAF79091DF018927AFCFF5E0F91508F498
:10295000A5CEEFCF8F2D8F717110BFCF0E945A0877
:102960009DCE80E0772009F49FCF9F2D9F7181E05D
:1029700001C0880F9A95EAF797CF772099F02F2D0D
:102980002F71F22E822F0E945A088091060282FF38
:1029900007C038E0F39EC001112483608093A50135
:1029A0008F2DDCCF81E00E94430881E0891508F07B
:1029B00075CE82E00E94430871CE992059F0893388
:1029C00009F0EBCE9FEFA7EEB3E09150A040B040EE
:1029D000E1F7E1CE8F2D8F7180CFF6E1EF16FCE7A6
:1029E000FF0609F03BCD8091D0018A7A91E009F48D
:1029F00090E090938A0181112DCD89E20E944904D3
:102A00000E94630B99CB26E1E2162CE7F20649F50A
:102A100080918A01811120CD89E20E941C04F0CFAF
:102A2000F701E851FC47E730F10508F434CC109287
:102A30005F02970130572332310578F684E090E049
:102A40000E947F1E9093060280930502F701E150D9
:102A5000F047E232F10508F040CCEB50F14E0C9417
:102A60001F1E37E7E3163CE7F30609F0FDCC81E0D3
:102A70000E94360870CDCF93DF938091A401807FB0
:102A800009F04DC08091A301882309F448C0E0916A
:102A90005C0250912302C0919F01D0919E016091F0
:102AA000A0017091A10147E05E17C9F18E2F90E05F
:102AB000E49FF0011124EC5DFD4F2481222391F16C
:102AC000489FF001499FF00D1124DF01AC5DBD4F1F
:102AD00011962C9111972C1325C02C912D1322C0E7
:102AE00015962C91159721111DC012962D913C9190
:102AF000261B370B283C3105A8F48091A4018F7068
:102B000080618093A401E65DFD4F80818F708061BC
:102B100080838EE991E00E94E60F0E949F07DF917B
:102B2000CF910895FC013196E770BECFADE0B0E0E3
:102B3000ECE9F5E10C94321E8C0186E0F801DE012F
:102B4000189601900D928A95E1F7F8018481E5804D
:102B50009EE9A92E91E0B92E9091A201911128C071
:102B6000882319F1EE20F1F0C8010E94010BF82E24
:102B70008823C1F087E0F801D50101900D928A9574
:102B8000E1F78091A201813031F480919E01909112
:102B90009F010E94F20A0E943B158F2D2D96ECE0BA
:102BA0000C944E1EC8010E94E60FFF24F394F5CF4B
:102BB000D080C18082809380F090A3012091A001F9
:102BC0003091A101A401421B530BFF2009F4BCC0AA
:102BD000483C510508F092C08823F9F290919F017A
:102BE0008091A401282F207F09F056C0C91214C07B
:102BF00090919E01D91210C0E11048C08F70806181
:102C00008093A4018EE991E00E94E60F8091A401D7
:102C1000F8018683F12CC1CFE11038C06C2D8D2DC9
:102C20000E948A026C2D8D2D0E948A02E82E81114D
:102C3000F1CFD886C986888599850E94F20A292F06
:102C400022952F70903458F49F70223088F0992389
:102C500099F0F8019681907F79F4FE2C9ECF2A5F3F
:102C60002F70223068F0C8010E94E60FEF2CF5CFDC
:102C7000992311F0882389F3805E883070F3F3CFB5
:102C8000803F58F3815F833040F3EDCF8091A40102
:102C900081608093A401BECFC91207C090919E01AC
:102CA000D91203C0EE2009F470C0C8010E94010BC4
:102CB000882309F477CFEE2009F474CF8091A40122
:102CC000803288F020919E0130919F013A832983C0
:102CD0009C828B829091A2019D831E828F83CE0164
:102CE00001960E94E60F87E0F801AEE9B1E001909D
:102CF0000D928A95E1F70E943B1557CF9091A40160
:102D0000292F207F51F48EE991E00E94E60F87E0A1
:102D1000F50111928A95E9F77DCF882309F43DCF1B
:102D200080919F018C11C1CF80919E01D812BDCF9F
:102D3000E110BBCF9683C8010E94E60F87E0F50142
:102D400011928A95E9F729CF483C5105B8F78823B5
:102D500009F42BCFFE2CEE2009F424CF80919F01A3
:102D60008C1120C080919E01D8121CC08091A401BA
:102D700080FD0FC0982F907F61F08683903F31F0E7
:102D8000982F907F905F8F70892B8683C8010E9457
:102D9000E60F87E0F801AEE9B1E001900D928A9567
:102DA000E1F7FBCEC8010E94010B81119CCF8091FD
:102DB000A40181608093A401C8010E94E60FEDCEBA
:102DC000ABE1B0E0E6EEF6E10C943A1E4E8B5F8B81
:102DD000688F798F8A8F192F9B8F91111092A7017D
:102DE0001D8A86E0FE017696DE011F9601900D9207
:102DF0008A95E1F70A8D002341F021E04F8558893B
:102E000069897A89C8010E94280B0B8B1C8B87E08B
:102E1000FE013F96DE01189601900D928A95E1F72A
:102E2000CE0108960E94961581110CC087E0FE0124
:102E30003896DE01119601900D928A95E1F74C8546
:102E400041110BC017E080915C029091230289131D
:102E500032C06B96E4E00C94561E2091230230E0C1
:102E6000C90101968770992750915C02581719067D
:102E7000A1F04D8397E0929FD001939FB00D112454
:102E8000AC5DBD4FFE01319601900D929A95E1F730
:102E9000809323020E949F07D5CF0E94B50B10920A
:102EA000230210925C0287E0EEE9F1E0DF011D925F
:102EB0008A95E9F7C7CF819FC00111248C5D9D4F92
:102EC0000E949615882329F280915C0290E0019679
:102ED0008770992780935C02B6CFA6E0B0E0E3E765
:102EE000F7E10C943A1E0E9410048C018091D101EC
:102EF0009091D2018017910781F019821A820E9465
:102F00001004682F49815A81792F80E090E00E9457
:102F1000E0161093D2010093D1012696E4E00C94C0
:102F2000561EA8E0B0E0E7E9F7E10C94301E8E01F0
:102F30000F5F1F4F88E0F80111928A95E9F791E43D
:102F4000E92E91E0F92E680125E4622E21E0722E2F
:102F500088248394912CF70181917F018F3F09F49C
:102F600046C0F894E82FE295EF70F0E021A18F7051
:102F7000A40102C0440F551F8A95E2F7CA01922F9F
:102F8000982B91A392A18095892382A3789400C065
:102F9000E5E4F1E021E030E0B12CA12C41914F3F7C
:102FA00009F44CC0A42FA295AF70B0E090968C911C
:102FB00090E04F7002C0959587954A95E2F780FDA5
:102FC0003DC0C901A82AB92A220F331F51E0E135BB
:102FD000F50721F7F701319780818F3F11F00E94AB
:102FE0004E0580EA8A95F1F7F601B182A082F2E0FF
:102FF000CF0ED11C6E147F0409F0ADCF48E050E035
:10300000B80186ED91E00E94C91E892BE1F088E0AD
:10301000F801A6EDB1E001900D928A95E1F781E00B
:103020008093D5010E9410049093D4018093D30122
:1030300010E0812F2896EEE00C944C1E90E080E08A
:10304000C1CF10E01FC01091D501112389F38091E9
:10305000D3019091D4010E940104059748F348E000
:1030600050E066ED71E08AEE91E00E94C91E892B66
:1030700041F388E0E6EDF1E0AAEEB1E001900D92B7
:103080008A95E1F71092D501D4CF1F920F920FB617
:103090000F9211242F933F934F935F936F937F93DE
:1030A0008F939F93AF93BF93CF93DF93EF93FF9350
:1030B000D091E900DF708091EC00C82FC17080FDD5
:1030C000C0E81092E9008091F000877F8093F000C3
:1030D00078940E94E60B1092E9008091F0008860DD
:1030E0008093F000CD2BCF70C093E900FF91EF915A
:1030F000DF91CF91BF91AF919F918F917F916F9110
:103100005F914F913F912F910F900FBE0F901F90A5
:1031100018951F920F920FB60F9211242F933F9381
:103120004F935F936F937F938F939F93AF93BF93CF
:10313000EF93FF938091E10082FF09C08091E2004C
:1031400082FF05C08091E1008B7F8093E100809138
:10315000DA0080FF24C08091D80080FF20C08091D9
:10316000DA008E7F8093DA008091D90080FF9BC0C7
:1031700080E189BD82E189BD09B400FEFDCF81E017
:103180008093190280910C02811109C00E94A8024B
:103190000E9449038091E20084608093E200809164
:1031A000E10080FF17C08091E20080FF13C0809192
:1031B000E2008E7F8093E2008091E2008061809344
:1031C000E2008091D80080628093D80019BC85E02D
:1031D000809319028091E10084FF29C08091E20070
:1031E00084FF25C080E189BD82E189BD09B400FE6C
:1031F000FDCF8091D8008F7D8093D8008091E10031
:103200008F7E8093E1008091E2008F7E8093E200C8
:103210008091E20081608093E20080911A0288230D
:1032200009F447C084E080931902809119028091CB
:10323000E10083FF27C08091E20083FF23C08091DB
:10324000E100877F8093E10082E080931902109271
:103250001A028091E1008E7F8093E1008091E2006C
:103260008E7F8093E2008091E20080618093E20093
:1032700042E060E080E00E9417038091F0008860E7
:103280008093F000FF91EF91BF91AF919F918F914B
:103290007F916F915F914F913F912F910F900FBE52
:1032A0000F901F90189519BC1092190210920C02E1
:1032B00076CF8091E30087FD02C081E0B4CF83E048
:1032C000B2CF78941F921FB61F9211248F939F93B1
:1032D000AF93BF938091080290910902A0910A02D6
:1032E000B0910B020196A11DB11D8093080290932D
:1032F0000902A0930A02B0930B02BF91AF919F9174
:103300008F911F901FBE1F9018951F921FB61F927E
:1033100011248F939F93AF93BF93809107028111E4
:1033200013C08091080290910902A0910A02B09105
:103330000B024196A11DB11D8093080290930902D2
:10334000A0930A02B0930B02BF91AF919F918F910E
:103350001F901FBE1F901895CDB7DEB7A4970FB66C
:10336000F894DEBF0FBECDBF85B7806885BF85B737
:10337000806885BF84B7877F84BF0FB6F894A8950F
:1033800080916000886180936000109260000FBEA1
:1033900080E890E00FB6F89480936100909361000C
:1033A0000FBE8CE495E090936101809360010E94D0
:1033B000A8020E9449038091E20084608093E200A9
:1033C0007894809119028823A1F01091E9001F7070
:1033D0009091EC00892F817090FD80E8182B10925D
:1033E000E9008091E80083FD0E94E60B1F701093B6
:1033F000E90082E084BD93E095BD9AEF97BD80938C
:103400006E000E94710A811102C00E94610A80E36D
:103410000E944E0581E30E944E0582E30E944E0504
:1034200087E60E944E0505E411E0D8018D918D01DB
:103430008F3F11F00E944E05B1E001351B07A9F73F
:1034400088E0EAEEF1E0DF01282F1D922A95E9F7E6
:10345000E6EDF1E0DF011D928A95E9F790E080E06A
:103460000E947F1E863E9E4F21F40E94710A8111A8
:1034700068C066EE7EEF90E080E00E94B31E60E0E0
:1034800082E090E00E94951E81E08093DE0161E081
:1034900083E090E00E94951E60E074E184E090E09B
:1034A0000E94B31E60E086E090E00E94951E6FEFE0
:1034B00087E090E00E94951E40E050E0BA0188E06D
:1034C00090E00E94A71E60E084E290E00E94951EBA
:1034D00060E087E190E00E94951E60E08CE090E063
:1034E0000E94951E60E08DE090E00E94951E19827A
:1034F0001A821B821C821D821E821F82188648E04F
:1035000050E068E170E0CE0101960E94851E40E027
:1035100050E0BA0180E290E00E94A71E80E00E9485
:10352000D8090E94610A40E050E0BA018FE090E0C3
:103530000E94A71E40E050E0BA0183E190E00E94A3
:10354000A71E82E090E00E94771E8093E00184E055
:1035500090E00E947F1E90930602809305020E94D5
:103560009117EFEFF6E721E0E150F0402040E1F75E
:1035700000C000000E9491178091EA0180FF08C0FE
:103580006FEF7FEF90E080E00E94B31E0E94B409CD
:1035900083E090E00E94771E0E94660880E091E040
:1035A0009093020280930102F8E16F2E712CA0E14A
:1035B0004A2E552453948091190212E1853009F462
:1035C00097C00E94911771EEA72E71E0B72EEAEE18
:1035D0008E2EE1E09E2ED401F501219131918D9145
:1035E0009D9151E0E93EF50709F48CC02817390791
:1035F000A1F3312CD4010D911D914D01F501C19024
:10360000D1905F01C016D10661F1C026D126212CD0
:10361000EE24E394F12CC6018E219F21892BB9F071
:1036200029823A820E9410049C838B83F1E0FD83FF
:1036300091E098012E213F21232B09F490E09E83F5
:1036400049815A816B817C818D810E94E01623948F
:10365000EE0CFF1C2CE02212DECFF5013297118315
:103660000083339434E03312C5CF8FB7F894409180
:1036700008025091090260910A0270910B028FBFFB
:1036800047C080911902843011F11092070230E492
:103690000FB6F894A895609260000FBE309360005A
:1036A00083B7817F846083BF83B7816083BF789451
:1036B000889583B78E7F83BF0FB6F894A8958091C5
:1036C0006000886180936000109260000FBE80915E
:1036D0001802882369F00E949117EAEEF1E08191C7
:1036E0009191892B09F06EC241E0E23FF407B9F7EE
:1036F00080911902853009F4C4CF0E94B50B0E9455
:10370000C9045FCF2817390709F073CF0E946D17DE
:1037100086E0E9EFF1E0DE01119601900D928A95C5
:10372000E1F7D090FA011091FB01F090FC01E090DC
:10373000FD010091FE011092FB011092FC0110921C
:10374000FD011092FE01812F8F2909F445C080915F
:10375000F7019091F8010E9401049C018091F2010F
:10376000882309F453C225313105B0F18F3F19F098
:103770008F5F8093F201112359F00E941E059FEF85
:1037800011160CF491E0899F802D11248093FB0188
:10379000FF2059F00E941E0591E01F140CF09FEFCE
:1037A000899F802D11248093FC018091FB01882347
:1037B00099F0C090FC01CC2079F00E943E0588234E
:1037C00009F4C0C08093FB018C2D0E943E05882324
:1037D00009F4BBC08093FC018E2D802B09F445C0F9
:1037E0008091F5019091F6010E9401049C01809165
:1037F000F301882309F405C221353105B0F18F3F6B
:1038000019F08F5F8093F301EE2059F00E94FC04C1
:103810009FEF1E140CF491E0899F802D112480935A
:10382000FD01002359F00E94FC0491E010160CF0F9
:103830009FEF899F802D11248093FE018091FD01CF
:10384000882399F0C090FE01CC2079F00E943E05BB
:10385000882309F47DC08093FD018C2D0E943E05D4
:10386000882309F478C08093FE018091FA018D11BC
:1038700019C08091FB01882311F0181313C0209107
:10388000FC01222311F02F110DC09091FE0199230C
:1038900011F0091307C03091FD01311103C0822BD3
:1038A000892B11F00E94D604DA821B83FC82ED8200
:1038B0000E8386E0FE013196A9EFB1E001900D92F2
:1038C0008A95E1F70E94C9049091E901891769F08E
:1038D0008093E9018FB7F894409108025091090252
:1038E00060910A0270910B028FBF8091190284309F
:1038F00009F061CE83E08093E9008091E80082FFC7
:103900005ACE8091E80090E085FF0BC00E94C7026C
:1039100040E2E42EF12C8E010F5F1F4F882339F116
:1039200091E08091E8008B778093E800992309F477
:1039300042CEE981E150E331A8F5F0E0E95EF04ED6
:103940000C941F1E5092FB013FCF5092FC0144CFBC
:103950005092FD0182CF5092FE0187CF8091F100FD
:10396000D8018D938D01B1E0EB1AF108C9F2809175
:10397000E80085FDF3CF8091E8008B778093E80025
:103980000E94C702882399F3CBCF1A828CE08B83E5
:103990002CC08A81833091F140F4813069F082300B
:1039A00009F426C18FEF898320C08430D9F71B82A8
:1039B0001C821D821E8219C08FB7F89420910802C4
:1039C0003091090240910A0250910B0229A33AA3B7
:1039D0004BA35CA38FBF69A17AA18BA19CA10E947C
:1039E000251E6B837C838D839E8340E250E0BE0165
:1039F0006F5F7F4F82E00E944D09DDCD2B81822FCA
:103A000090E0FE013196225F8430910570F7DC0171
:103A1000AA0FBB1FA651BE4F3C9111964C914383F8
:103A20003483019632962813EFCFDFCF8A8182301C
:103A300019F08530D1F2B6CF8B819C81AD81BE81EA
:103A400089A39AA3ABA3BCA3BC01CD010E94251EF0
:103A500088E290E00E94951EC8CF4C816B818A81DC
:103A60000E948A0A9827892798279E838D83BDCF35
:103A70002D813E813227232732274C816B818A8119
:103A80000E94010AB2CF0E94280AAFCF4A82ADCF6E
:103A900082E08A8387E57BCF0A811B81102701277B
:103AA0001027DE0111967D01CC80FD01EC0DF11D8A
:103AB0006F01C80187559E4FCE14DF0409F495CFDE
:103AC0000735F2E01F0758F40E94771ED7011496BD
:103AD0008C930F5F1F4FFFEFEF1AFF0AEACFF7013A
:103AE0001482F7CF0A811B811027012710279E011E
:103AF0002F5F3F4F6901EC80E00EF12EF11CC801F1
:103B000087559E4FE016F10609F46FCF073532E076
:103B1000130728F4D60114966C910E94951EBFEFEE
:103B2000CB1ADB0A0F5F1F4FEACF0E94F1095DCF6E
:103B300084E08A835ACF0A811B811027012710272E
:103B4000FE0131967F01CC809F012C0D311D690152
:103B5000C8018996CE14DF0409F447CF003831E05C
:103B6000130758F40E94771ED70114968C930F5FA9
:103B70001F4FFFEFEF1AFF0AEBCFF7011482F7CFC9
:103B80000A811B811027012710279E012F5F3F4FBD
:103B90006901EC80E00EF12EF11CC8018996E01657
:103BA000F10609F422CF003831E0130728F4D601DA
:103BB00014966C910E94951EBFEFCB1ADB0A0F5F23
:103BC0001F4FEBCF49BC19BD09B400FEFDCF80915A
:103BD000D8008F7D8093D8008091E0008260809330
:103BE000E0008091E00081FDFCCF0E94B50B80CD0C
:103BF00088E290E00E94771E1B821C821D828E83C9
:103C0000F4CE2B30310508F0FCCD2FCE2B30310512
:103C100008F0AECDE1CD97FB072E16F4009407D047
:103C200077FD09D00E94631E07FC05D03EF49095F5
:103C300081959F4F0895709561957F4F0895EE0F80
:103C4000FF1F0590F491E02D0994692796276927B5
:103C500078278727782708952F923F924F925F9277
:103C60006F927F928F929F92AF92BF92CF92DF928C
:103C7000EF92FF920F931F93CF93DF93CDB7DEB7F1
:103C8000CA1BDB0B0FB6F894DEBF0FBECDBF099485
:103C90002A88398848885F846E847D848C849B84DC
:103CA000AA84B984C884DF80EE80FD800C811B81EA
:103CB000AA81B981CE0FD11D0FB6F894DEBF0FBE19
:103CC000CDBFED010895AA1BBB1B51E107C0AA1F80
:103CD000BB1FA617B70710F0A61BB70B881F991FAD
:103CE0005A95A9F780959095BC01CD010895F99951
:103CF000FECF92BD81BDF89A992780B50895A8E1BD
:103D0000B0E042E050E00C94BB1EDC01A40FB51FF4
:103D10004150504048F0CB01840F951F2E910E94D6
:103D2000961E41505040D0F70895262FF999FECFA6
:103D300092BD81BDF89A019700B4021639F01FBAFE
:103D400020BD0FB6F894FA9AF99A0FBE089503961B
:103D5000272F0E94961E0E94951E252F0E94961EB8
:103D6000242F0C94961E0196272F0E94961E0C94C9
:103D7000951EDC01CB01FC01F999FECF06C0F2BD16
:103D8000E1BDF89A319600B40D9241505040B8F719
:103D90000895FB01DC0104C08D910190801921F48C
:103DA00041505040C8F7881B990B0895F894FFCFF5
:103DB000C40CEC0C8E0EEC0C8E0E1F0D400D8E0EF6
:103DC0003D0E4A0E5A115E114F11561162116611C5
:103DD0006A11EA12EA1224132413D113EB134E13BF
:103DE0004E13F0135F1470147014B1111C12B9113A
:103DF00083118711BD118B11C111CD1197111512AE
:103E00009B11D1119F11D511FD11A311D9110412CC
:103E1000A911DF11E7118F11C5119311C911AD114E
:103E2000E311F3110D1213127D11B5112312C51CEC
:103E3000C91C161D2D1D381D431DD21CD21CD21CA1
:103E4000D21CD21C461D481D4C1D721D951D981D6F
:043E50009B1DC01DD9
:103E5400FE039D0996098F09880901E200E900EA39
:103E640000B500B600B700CD008301CC008A0192F2
:103E74000194012102230224022502260227022A98
:103E840002B300B4006F0070009F01CB019F02A039
:103E94000230313267F0F1F4F5F6F76636353497CF
:103EA400964422B684016201AC000A04230443044C
:00000001FF
