:100000000C9450020C9488020C9488020C94880280
:100010000C9488020C9488020C9488020C94880238
:100020000C9488020C9488020C94A4180C94601808
:100030000C94A1190C9488020C9488020C948802E8
:100040000C9488020C9488020C9488020C94880208
:100050000C9488020C947D190C9488020C948802EC
:100060000C9488020C9488020C9488020C948802E8
:100070000C9488020C9488020C9488020C948802D8
:100080000C9488020C9488020C9488020C948802C8
:100090000C9488020C9488020C9488020C948802B8
:1000A0000C9488020C9488020C94880205010902C1
:1000B000A10185020901A1000509190129081500FE
:1000C0002501950875018102050109300931158165
:1000D000257F95027508810609381581257F9501D0
:1000E00075088106050C0A38021581257F95017572
:1000F000088106C0C005010980A101850319012AF4
:10010000B700150126B700950175108100C0050CD8
:100110000901A101850419012AA002150126A002E6
:10012000950175108100C005010906A1018506052C
:100130000719E029E71500250195087501810205D9
:1001400007190029EF1500250195F07501810205B9
:10015000081901290595057501910295017503910D
:1001600001C00660FF0961A1010962150026FF00B8
:100170009520750881020963150026FF00952075FA
:10018000089102C005010906A101050719E029E748
:1001900015002501950875018102950175088101F9
:1001A0000507190029FF150026FF0095067508812F
:1001B000000508190129051500250195057501910E
:1001C00002950175039101C00000000000000000CD
:1001D000000000000000000000000000000000001F
:1001E0000000000000000000000000007E0F00D4AE
:1001F000FFFFFFC7000000780000000000000000C3
:100200002A2B280000000000000000000000000071
:1002100000000029000000002C1E3420212224347C
:100220002627252E362D3738271E1F20212223244E
:1002300025263333362E37381F0405060708090AEA
:100240000B0C0D0E0F101112131415161718191A86
:100250001B1C1D2F3130232D350405060708090A04
:100260000B0C0D0E0F101112131415161718191A66
:100270001B1C1D2F3130354C2B0014001A000800B8
:10028000150017001C0018000C00120013002A00B3
:10029000E00004001600070009000A000B000D0032
:1002A0000E000F0033003400E1001D001B000600AB
:1002B0001900050011001000360037003800E50075
:1002C0002900E000E300E200777C2C002800787C25
:1002D000E600E700E400290001001E001F002000E6
:1002E00021002200230024002500260027002A00E8
:1002F000010000000000000000000000500051005C
:1003000052004F000000000001000000000000004B
:1003100000000000000000000000000000000000DD
:1003200001000100010001000100010001000100C5
:10033000010001000100010001001E021F02200255
:1003400021022202230224022502260227022A0079
:100350000100000000000000000000002D002E0041
:100360002F023002310235000100000000000000C1
:10037000000000002D022E022F0030003100350257
:100380000100010001000100010001000100010065
:100390000100010001000100010000000000000058
:1003A000000000000000000000000000000000004D
:1003B000010000000000000000000000000000003C
:1003C000000000000000000001000000000000002C
:1003D000000000000000000000000000000000001D
:1003E0000100010001000100010001000100010005
:1003F000010001000100010009025B00030100A0EF
:10040000FA090400000103010100092111010001A2
:1004100022440007058103080001090401000203CA
:1004200000000009211101000122220007058203BA
:100430002000010705030320000109040200010355
:1004400000000009211101000122B6000705840304
:1004500020000112010002000000086532050000C2
:1004600001010200011E0343006F0072006E00656F
:10047000006C006900750073002000720065007652
:10048000003100000014035900750073006800611A
:10049000006B006F0062006F00000004030904009D
:1004A00011241FBECFEFDAE0DEBFCDBF04B603FEDE
:1004B00018C08091640290916502A0916602B0918B
:1004C00067028730904BA740B04B59F410926402FA
:1004D000109265021092660210926702E0E0F8E363
:1004E000099511E0A0E0B1E0E0E6FEE302C005906E
:1004F0000D92A436B107D9F722E0A4E6B1E001C01D
:100500001D92A436B207E1F70E94C8190C94DC1EB4
:100510000C940000482F209160029091270257E030
:10052000291302C080E0089530E0529FF001539FEC
:10053000F00D1124E85DFD4F8181681306C08081B4
:10054000481303C085818111EECF2F5F3F4F277085
:10055000E7CFE8EDF0E080818E7F80831092E200AB
:100560001092DA001092E100A0EEB0E08C91816070
:100570008C9380818F77808319BCA7EDB0E08C913C
:100580008E7F8C9380818F7E8083109210020895DD
:100590002091E4003091E50095E6A9012091EC005E
:1005A000822F817020FF06C08091E80080FF06C086
:1005B00080E008952091E80022FD1AC080911D027C
:1005C000882389F0853089F08091EB0085FD0FC08C
:1005D0002091E4003091E50042175307F9F2915061
:1005E000E1F684E0089582E0089583E0089581E0D3
:1005F000089580911F0287FF13C08091E80082FF59
:1006000006C08091E8008B778093E80004C0809159
:100610001D028111F2CF089580911D028823D9F324
:100620008091E80080FFF8CF8091E8008E77ECCFD2
:10063000982F9093E900242F762F50E0891731F0FE
:100640007091EC002091ED005091F00021FD07C069
:100650009F5F973071F78093E90081E008953091B2
:10066000EB003E7F3093EB003091ED003D7F309307
:10067000ED003091EB0031603093EB007093EC00B3
:100680002093ED005093F0002091EE0027FDE0CF85
:1006900080E00895B0E0A0E0E0E5F3E00C943C1EBB
:1006A000C8EDD0E088818F7E8883E7EDF0E080811F
:1006B0008160808384E082BF81E080931002888122
:1006C0008E7F888302EE10E0F80110821092DA002B
:1006D00081EEC82ED12CF601108288818F77888315
:1006E00088818068888388818F7D888319BC109277
:1006F0001D0210921E0210921C0210921B0290EE1C
:10070000E92EF12CF70180818B7F808388818160C5
:10071000888342E060E080E00E941803F601808157
:100720008E7F8083F80180818160808380818860F2
:100730008083F70180818E7F8083888180618883B8
:10074000CDB7DEB7E8E00C94581EFC01809125027D
:100750009091260286179707A0F06115710529F47C
:100760009091E8009E779093E80090E06115710504
:1007700051F4911108C08091E80082FF34C080E0FC
:100780000895BC01F2CF80911D028823C1F185300C
:10079000C1F18091E80083FD30C08091E80082FDC6
:1007A000EACF8091E80080FFE1CF8091F3002091B3
:1007B000F200382F6115710519F02830310558F015
:1007C00091E02830310509F090E02091E8002E7783
:1007D0002093E800CBCF81918093F10061507109A3
:1007E0002F5F3F4FE7CF80911D02882341F0853076
:1007F00041F08091E80083FFBECF81E0089582E060
:10080000089583E008958091120208959C014FB7E6
:10081000F89480910C0290910D02A0910E02B0917B
:100820000F024FBF821B930B08952FB7F89480914E
:100830000C0290910D02A0910E02B0910F022FBFF9
:10084000089590910A019923D1F09091090297FFA0
:1008500016C0E82FE695E695E695EE31E0F4F0E077
:10086000E259FE4F282F277081E090E001C0880FE9
:100870002A95EAF780959281892382830895E8E694
:10088000F1E09191891303C0DF0111971C9291E06F
:10089000EE36F907B1F7089590910A019923C1F056
:1008A0009091090297FF14C0E82FE695E695E6952A
:1008B000EE31F8F4F0E0E259FE4F877021E030E0CD
:1008C00001C0220F8A95EAF78281822B82830895E4
:1008D000A8E6B1E0EFEF90E02D91821751F0EF3FE5
:1008E00019F4211101C0E92F9F5F9630A9F7EF3F5E
:1008F00009F408950E2E000CFF0BEA59FE4FE6CFC7
:10090000A3E0B0E0E6E8F4E00C94421E2091070278
:100910003091080228173907A1F0909308028093BC
:100920000702E0910502F0910602309751F024E0B1
:1009300029839B838A830084F185E02DCE01019673
:1009400009952396E2E00C945E1EA3E0B0E0EBEA8A
:10095000F4E00C94421E2091030230910402281707
:100960003907A1F09093040280930302E0910502FD
:10097000F0910602309751F023E029839B838A830C
:100980000084F185E02DCE01019609952396E2E0E1
:100990000C945E1EE0910502F0910602309729F05A
:1009A0000190F081E02D0995089580E008950E945E
:1009B00015049C019091FF0180910002982B21F079
:1009C0003093FC012093FB0190910102809102027F
:1009D000982B21F03093FA012093F901E091050260
:1009E000F0910602309749F082E08093FD01068085
:1009F000F781E02D8DEF91E0099508958091F80140
:100A000080FD16C081FD16C082FD16C08091F701E1
:100A10008823A1F0883280F428E0829FC00111244D
:100A200068E270E00E94111E862F672B39F008954E
:100A300082E0089584E0089588E0089581E00895B3
:100A40008091F80180FD14C081FD14C082FD16C0A4
:100A50008091F601882381F08E3180F420E5829F19
:100A6000C00111246EE170E00E94111E862F0895CE
:100A700084E1089588E2089588E0089580E5089566
:100A8000282F35EB2303C001112497FF04C08058A1
:100A90009109892F089580589F4FFBCF80E00895DA
:100AA000F894E82FE295EF70F0E031A1282F2F7035
:100AB00081E090E001C0880F2A95EAF7982F909581
:100AC000932391A392A1892B82A378940895909166
:100AD000090292FF10C041E0282F2471243009F050
:100AE00040E031E0282F2871283009F030E043172A
:100AF00011F02CE0822793FF10C041E0282F2471D1
:100B0000243109F040E031E0282F2871283109F024
:100B100030E0431711F02CE0822730910A0230FFB9
:100B200010C051E0282F2171213009F050E041E040
:100B3000282F2871283009F040E0541711F029E0DF
:100B4000822731FF10C041E0282F2171213109F0A7
:100B500040E031E0282F2871283109F030E04317B8
:100B600011F029E0822794FD877E0895823891054F
:100B7000B9F1B0F48133910509F47DC048F48932AC
:100B8000910509F46DC08A32910509F47BC008957E
:100B90008533910509F45FC08933910509F1089502
:100BA000833E9105D9F138F4803E910529F1823ECA
:100BB000910579F10895863E9105D9F1873E910519
:100BC00009F43EC0843E910541F520910A0221FFBF
:100BD00024C08091090284FD19C087EE90E0089539
:100BE00020910902237009F05AC020910A0223FFC4
:100BF00014C089E290E008952091090220FD38C0D8
:100C000030910A0230FF09C024FF43C090E080E029
:100C100008952091090222FDF7CF0895209109023D
:100C200022FD3AC030910A0230FD39C024FFF5CFD1
:100C3000EDCF2091090223FFF0CF24FDE7CFCDCFE8
:100C40002091090223FD2EC030910A0231FFEECF20
:100C500084EE90E008952091090225FFDECFC9CFF0
:100C60002091090225FD21C020910A0223FFD5CF42
:100C700089E390E0D2CF2091090226FFCECF8AE20D
:100C800090E008952091090226FFC7CF81E390E00C
:100C9000089583EE90E0089582EE90E0089580EE4E
:100CA00090E0089586EE90E0089585E390E0089541
:100CB0001F93CF93DF930E94B605EC01C11580E529
:100CC000D807F0F5C11580E4D80708F09CC0C03EF5
:100CD000D10520F5CD3CD10508F082C0C83AD10538
:100CE00078F4C53AD10508F073C0C130D10519F1C7
:100CF000209709F1C430D105F0F4D0E0C0E01BC06A
:100D0000C33CD105D0F7C85AD0E0CC0FDD1FC25F7D
:100D1000DE4F0990D881C02DD4640DC0C11580E28A
:100D2000D80708F0D1C0C11581E0D80708F05AC033
:100D3000C83ED10510F7CE01DF91CF911F910895E4
:100D4000C03682E5D80718F5C03482E5D80708F028
:100D50006BC0C03282E5D80708F05FC0C11582E5DC
:100D6000D80708F497C02C2F2695269580E2289F57
:100D7000900111248C2F8370C1E0D0E002C0CC0F11
:100D8000DD1F8A95E2F7C22BD32BDD68D4CFC03AA2
:100D900082E5D80760F4C03882E5D80708F459C066
:100DA000CF71D0E0DC2FCC27C46FD06AC4CFC03C59
:100DB00082E5D80708F462C0C03E82E5D80708F093
:100DC0009CCFDC2FCC27CC27DF71C06FD06AB3CF8C
:100DD000C55AD0E0C55FDE4FC881D0E0D064ABCF4C
:100DE000D065A9CF8D2F0E946705182FCE019927B6
:100DF0000E94B605C12FD0E0DC2FCC27CC27DF71B5
:100E0000C82BD92B98CFCE0199270E94B605CC27A5
:100E1000DF70C82BD92BD06A8ECFCF71D0E0DC2FFA
:100E2000CC27C16FD06A87CF2C2F269526952770A7
:100E300080E2289F900111248C2F8370C1E0D0E0C4
:100E400002C0CC0FDD1F8A95E2F7C22BD32BDC68E2
:100E500072CF2C2F26952695277080E2289F90012F
:100E600011248C2F8370C1E0D0E002C0CC0FDD1FB5
:100E70008A95E2F7C22BD32BDA685DCF8C2F8F7166
:100E80000E946705C82FD0E0DC2FCC27CC27DF716C
:100E9000D06251CF8C2F8F710E94670555E0D69597
:100EA000C7955A95E1F7CF70D0E0DC2FCC27282FDB
:100EB00030E084FF05C044E0220F331F4A95E1F77C
:100EC000C22BD32BD06937CF8D2F8F710E9467052E
:100ED000182FCE0199270E94B605C12FD0E0DC2F34
:100EE000CC27CC27DF71C82BD92BD2CF80959091FE
:100EF000D40198239093D40108958091D4019091C6
:100F0000AB01892B9091AA01992391F0892B9091A3
:100F10000A01992371F09091090297FF0AC09EE19E
:100F200020E731E040E0915040F441111092AA01D5
:100F3000089596E028E631E0F5CFF90151919F013F
:100F4000552389F34F5FEFCF809160029091270284
:100F5000981301C008958F5F8770FACF292F9430BE
:100F600078F58C3068F590E03CE0239F800D911D72
:100F70001124682F677023E0969587952A95E1F7ED
:100F8000FC01EE0FFF1FE80FF91FE057FE4F50E086
:100F900040E080E0219130E0062E02C03695279592
:100FA0000A94E2F721703327042E01C0220F0A941D
:100FB000EAF7822B4F5F5F4F4330510559F7089591
:100FC00080E00895292F943098F58C3088F590E0D2
:100FD0003CE0239F800D911D1124282F277041E0B4
:100FE00001C0440F2A95EAF723E0969587952A9544
:100FF000E1F7FC01EE0FFF1FE80FF91FE057FE4F6E
:1010000030E020E070E05191DF011197CB01022E1A
:1010100002C0969587950A94E2F78170819585279D
:10102000842385278C932F5F3F4F2330310559F759
:1010300008958093E30108959091E30121E030E069
:10104000F90101C0EE0F8A95EAF7D90102C0AA0F93
:10105000BB1F6A95E2F7EA2B01C0220F4A95EAF717
:10106000892F8E23E81305C0292B822F0E9419088F
:10107000089520952923F9CF21E030E001C0220F07
:101080008A95EAF720958091E30182230E9419084E
:1010900008959091A901809589238093A901282F13
:1010A000277069F4891759F090910A0292FF07C0DE
:1010B0008695869586950E943C081092A901089510
:1010C00021E030E001C0220F8A95EAF78091E30128
:1010D000822B0E94190808958093E201089540919F
:1010E000FF019091010220910202662309F469C078
:1010F000942B922B20910002922B31F098E0909348
:10110000F60191E09093F7018D3C41F40E94200597
:101110008195809300020E94D70408958E3C19F4B3
:101120000E942005F6CF8F3C31F40E942005819566
:101130008093FF01F0CF803D19F40E942005F8CF85
:10114000893D29F40E94FE0480930102E4CF8A3D88
:1011500021F40E94FE048195F7CF8B3D31F40E946B
:10116000FE04819580930202D6CF8C3D19F40E9433
:10117000FE04F8CF9FE2980F983070F4815D990BD0
:1011800021E030E001C0220F8A95EAF78091FE014C
:10119000822B8093FE01BFCF8D3D31F48091F80109
:1011A00081608093F801B7CF8E3D21F48091F801E2
:1011B0008260F7CF8F3D09F0AECF8091F801846057
:1011C000F0CF8D3C59F48091000287FF0DC0109242
:1011D000000241110BC01092F60108C08E3C81F450
:1011E0008091000218169CF3442381F08091010243
:1011F00090910202892B09F08ECF1092F7018BCFCC
:101200008F3C49F447FFF0CF1092FF01809100021C
:101210008111ECCFE0CF803D19F41416ACF3E4CF8C
:10122000893D29F4191604F710920102DDCF8A3D99
:1012300019F497FFD9CFF8CF8B3D29F427FFD4CFEE
:1012400010920202D1CF8C3D19F41216CCF3CCCF00
:101250009FE2980F983090F4815D990B21E030E087
:10126000B90102C0660F771F8A95E2F7CB0180951E
:101270009091FE0189238093FE01B6CF8D3D31F41C
:101280008091F8018E7F8093F801AECF8E3D21F4DE
:101290008091F8018D7FF7CF8F3D09F0A5CF809128
:1012A000F8018B7FF0CF0F931F93CF93DF938B01C8
:1012B000EA0190911D02943061F58093E9008FEF6F
:1012C0009091E800815095FD06C095ED9A95F1F753
:1012D00000008111F5CF8091E80085FF1AC00E94BF
:1012E000C802811111C08091E80085FD06C080917F
:1012F000E8008E778093E800F2CFF80181918F01AA
:101300008093F100219779F78091E8008E778093A0
:10131000E800DF91CF911F910F91089543E050E0D5
:10132000BC0184E00E945309089546E050E0BC01EE
:1013300084E00E945309089540E250E0BC0184E03B
:101340000E9453090895CF93DF93EC0148E050E0E9
:10135000BC0181E00E94530988E0FE01A3E1B2E0F4
:1013600001900D928A95E1F7DF91CF91089581E088
:101370008093E00080E28093D8001092C9008FE152
:101380009EE40197F1F700C0000087E090EBDC01DC
:101390008093640290936502A0936602B093670203
:1013A00088E19CE00FB6F894A895809360000FBE8A
:1013B00090936000FFCFCF93C82F6FEF811164E24D
:1013C00085E290E00E949B1E6FEFC11165E086E20E
:1013D00090E00E949B1E6FEFC11165E287E290E0F2
:1013E0000E949B1ECF910895CF93DF93C9EAD1E06D
:1013F00060E0CE010E949B1E2196C11584E0D807B3
:10140000B9F7DF91CF9108951F93CF93DF93122FF8
:101410008430E0F46430D0F44C30C0F4C42FD0E019
:10142000CC0FDD1F98E1699FC00DD11D112490E6FE
:10143000899FC00DD11D1124632FCE0189960E9472
:101440009B1E612FCE018A960E949B1EDF91CF9139
:101450001F910895AF92BF92CF92DF92EF92FF92C9
:101460001F93CF93DF9388E7C82E82E0D82ED0E079
:101470007601C0E014C0F50125913491412F6C2F05
:101480008D2F0E94040A82E0A80EB11C1F5F1C3041
:1014900091F788E1E80EF11CCF5FC43019F05701D5
:1014A00010E0E9CFDF5F80E6C80ED11CD43001F731
:1014B000DF91CF911F91FF90EF90DF90CF90BF9081
:1014C000AF90089580E00E94DB0960E088E290E040
:1014D0000E949B1E0E942A0A0E94F40981E00E9439
:1014E000DB09089585E290E00E947D1E843289F434
:1014F00086E290E00E947D1E853059F487E290E0FC
:101500000E947D1E91E0853209F090E0892F817064
:10151000089580E0FCCF0F931F93CF93DF93843027
:1015200030F5643020F54C3010F5C42FD0E0CC0FEE
:10153000DD1F28E1629FC00DD11D112430E6839F7D
:10154000C00DD11D1124CE0189960E947D1E082F49
:1015500010E0102F0027CE018A960E947D1E980170
:10156000282BC901DF91CF911F910F91089590E031
:1015700080E0F8CF462F743040F46C3030F4843083
:1015800020F4672F0E948B0A089590E080E0089570
:10159000CF92DF92FF920F931F93CF93DF936C0153
:1015A0000091E3018091E201082BC3E0D0E010E05C
:1015B000FC2EC8010C2E02C0959587950A94E2F77F
:1015C00080FD0CC02197A0F7F12C8F2DDF91CF91DA
:1015D0001F910F91FF90DF90CF900895B6018C2F4F
:1015E0000E94BA0A0E945806019761F3EECFCF938A
:1015F000DF93EC010E94C80ABE010E94BA0A0E9451
:101600005806DF91CF910895FC0124812223C1F077
:10161000808191810E94F70A92959F70963091F097
:1016200058F4925F9F70923058F4803F19F030F474
:10163000883E30F481E008959A5FF4CF843FD1F37F
:1016400080E00895883EB0F3813FD1F7F3CFA6E064
:10165000B0E0EDE2FBE00C94411E49835A834981DE
:101660005A819923A1F0222391F0CA010E94C80A4D
:10167000182F682F89819A810E94E20769817A81F7
:10168000812F0E94BA0A2696E3E00C945D1ECA01DF
:101690000E94AE07182FF2CF90910A0292FB2227E8
:1016A00020F9281779F080FB92F990930A02609153
:1016B000090270910A0284E090E00E94B91E82E063
:1016C0000E944908089580910A01882359F1809168
:1016D000090287FF27C00E947D0780936F0140E2C7
:1016E00050E06CEA71E08EE691E00E94CF1E892BFB
:1016F000C1F080E2EEE6F1E0ACEAB1E001900D92DB
:101700008A95E1F7E0910502F0910602309749F0E1
:1017100086E080936E010480F581E02D8EE691E0F5
:10172000099508950E947D078093660148E050E086
:101730006CEC71E086E691E00E94CF1E892B89F364
:1017400088E0E6E6F1E0ACECB1E001900D928A951C
:10175000E1F7E0910502F0910602309711F3028063
:10176000F381E02D86E691E0DBCF1092D4018091E9
:101770000A01882339F18091090287FF23C0E0E73D
:10178000F1E08EE1DF011D928A95E9F790E080E0BB
:101790000E94A50490E080E00E9480041092AB01BA
:1017A0000E94630B86E0EDEFF1E0DF011D928A9568
:1017B000E9F71092F6011092F7011092F8010E94D9
:1017C000D7040895E8E6F1E086E0DCCFAAE2B0E0D5
:1017D000ECEEFBE00C94411E8FE192E02091F100D1
:1017E000DC012D93CD01B2E087329B07B9F78091E0
:1017F0002002833009F472C0B8F4813009F449C082
:10180000823009F4B3C08091E80083FF8BC28091DD
:101810001F02909120029A3008F084C2E92FF0E074
:10182000E252F14E0C94251E8A3009F48EC08B30A2
:1018300009F471C0893039F780911F02813219F79C
:101840008091230290912402009711F00297D9F61B
:101850008091E800877F8093E8008091E80082FF14
:1018600038C09091F3008091F200029731F480919A
:10187000F100813011F0863021F48091F1008093E5
:1018800012028091E8008B778093E8000E94F902B1
:10189000BACF80911F02813A09F0B5CF8091E8005C
:1018A000877F8093E8008091230290912402892B06
:1018B00061F468E083E192E070E00E94A50380910A
:1018C000E8008B778093E8009ECF60E090E080E0B6
:1018D000F3CF80911D028111C0CF95CF80911F025F
:1018E000813A09F090CF8091230290912402892BB4
:1018F00009F089CF8091E800877F8093E80080918C
:10190000E80080FFFCCF80910A018093F100809174
:10191000E8008E77B9CF80911F02813209F073CF32
:101920008091230290912402892B09F06CCF809141
:10193000E800877F8093E8000E94F90280912102ED
:1019400080930A010E94B50B5ECF80911F02813205
:1019500009F059CF8091E800877F8093E8000E94CA
:10196000F90280912202809311024DCF80911F02D3
:10197000813A09F048CF8091E800877F8093E800A2
:101980008091E80080FFFCCF80911102BECF8038AB
:1019900099F0823809F0C6C1809123028F70873098
:1019A00008F0C0C18093E9008091EB0085FB882797
:1019B00080F91092E90006C080911B0290911C02F0
:1019C000911182609091E800977F9093E800809356
:1019D000F1001092F1008091E8008E779FC188237A
:1019E00009F48DC1823009F09DC1809121028111DD
:1019F00090C1809123028F702FEF280F263008F0BE
:101A000091C18093E9002091EB0020FF82C19330C7
:101A100031F48091EB0080628093EB007AC1909169
:101A2000EB0090619093EB0021E030E001C0220FC9
:101A30008A95EAF72093EA001092EA008091EB0081
:101A40008860EACF81116EC1109121021F778091C9
:101A5000E3008078812B8093E3008091E800877F0A
:101A60008093E8000E94F9028091E80080FFFCCF9B
:101A70008091E30080688093E30082E0111183E0AD
:101A800080931D024FC18058823008F04BC12091D5
:101A90002102309122022C3DE3E03E07A1F583E0D4
:101AA0008A838AE289834FB7F894DE01139620E097
:101AB0003EE051E2E32FF0E050935700E49120FF25
:101AC00003C0E295EF703F5FEF708E2F90E0EA3039
:101AD000C0F0C7968D939D932F5F243159F74FBF68
:101AE0008091E800877F8093E8006AE270E0CE0191
:101AF00001960E94A5038091E8008B778093E8000F
:101B000011C1C096E7CF8091230290912402432F08
:101B100055274330510509F44AC078F54130510545
:101B200009F47AC08BE590E0E8EFF3E0423051052C
:101B300009F0F8C02091E800277F2093E800209169
:101B40002502309126028217930708F49C0140E099
:101B50002115310509F065C0411163C08091E8008D
:101B600082FDC9CF80911D02882329F2853019F2A8
:101B70008091E80083FFF2CFBECF4132510509F4D6
:101B80003CC04232510509F0CDC08330910508F0C8
:101B9000C9C0FC01EE0FFF1FE95AFE4F0190F08112
:101BA000E02D8C5A9E4FDC018C9190E01AC03327B7
:101BB00021303105D1F02115310561F02230310598
:101BC00009F0B0C0E5E6F4E0E4918E2F90E0E5E6A0
:101BD000F4E007C0EBE9F4E0E4918E2F90E0EBE94C
:101BE000F4E0009709F49EC0A5CFE5E8F4E0E491A5
:101BF0008E2F90E0E5E8F4E0F4CF8330910508F013
:101C000091C0880F991FFC01E35AFE4F0190F081AB
:101C1000E02D89E090E08ECF82E190E0E3E5F4E012
:101C200089CF80911D02882309F465CF853009F49E
:101C300062CF8091E80083FD5ECF8091E80082FD55
:101C40008DCF8091E80080FF83CF9091F300809149
:101C5000F2002115310519F08830910550F041E06E
:101C6000089709F040E08091E8008E778093E800C3
:101C70006FCF44914093F100319621503109019684
:101C8000E8CF803809F04EC08091E800877F8093CC
:101C9000E80080911E028093F1009DCE811142C028
:101CA000109121021230F0F58091E800877F809337
:101CB000E80010931E020E94F902112311F084E043
:101CC00005C08091E30087FDFACF81E080931D027B
:101CD00042E061EC81E00E94180342E261EC84E0A2
:101CE0000E94180342E261EC82E00E94180342E283
:101CF00060EC83E00E94180380911D0213C0809164
:101D00002102813079F481E0933009F080E0809302
:101D10001C021092E9008091E800877F8093E80020
:101D20000E94F9028091E80083FF0AC08091E800D8
:101D3000877F8093E8008091EB0080628093EB00C6
:101D4000AA96E3E00C945D1E0E94B50B2FEF84E38E
:101D50009CE0215080409040E1F700C0000088E105
:101D60009CE00FB6F894A895809360000FBE909306
:101D70006000FFCF882321F00E9476070E94630B4A
:101D80000895882339F09091D401982B9093D40131
:101D90000E94630B0895882381F19CEF980F913A7C
:101DA00028F40E9421040E94630B089590E2980F8A
:101DB000983050F4877091E001C0990F8A95EAF746
:101DC000892F0E947607EFCF9BE5980F933028F478
:101DD00090E080E00E94A504089598E5980F9B315B
:101DE00028F490E080E00E948004089593E3980F27
:101DF000933118F460E00E946F080895CF93C82FC4
:101E00008823B1F18CEF8C0F813AA0F580910A0103
:101E1000882301F18091090287FF1CC0EC2FE69511
:101E2000E695E695F0E0E259FE4F828190E04C2F76
:101E3000477021E030E002C0220F331F4A95E2F7DD
:101E400082239323892B79F08C2F0E9421040E94F6
:101E5000630B09C0E8E6F1E08191C817A9F381E0BE
:101E6000EE36F807C9F78C2F0E944C040E94630BD2
:101E7000CF91089580E28C0F883068F4C77021E01C
:101E800030E001C0220FCA95EAF78091D401822B7D
:101E90008093D401EBCFEBE5EC0FE33040F4F0E0BE
:101EA000E55FFE4F808190E00E94A504E1CFE8E568
:101EB000EC0FEB3150F4F0E0EE0FFF1FE25FFE4F4E
:101EC000808191810E948004D3CF83E38C0F833182
:101ED00078F661E08C2F0E946F08CACF1F93CF93D2
:101EE000DF93182FD0E0C0E0893311F4C0E5D0E0D3
:101EF000812F0E94FE0E209739F4812F0E94CB0E75
:101F0000DF91CF911F9108958FE99FE00197F1F73D
:101F100000C000002197EFCF0F931F93CF93DF9363
:101F2000C62FD42F022FFC0185818823A9F060934E
:101F300063020E9415049093620280936102C7704D
:101F400081E001C0880FCA95EAF70E94C10EDF91B7
:101F5000CF911F910F91089580916302681332C051
:101F600080916102909162020E940604883C910572
:101F700048F510E21D0FCD17B9F080E28C0F8830C4
:101F800040F4C77081E001C0880FCA95EAF70E944B
:101F9000BA0E183048F481E09D2F977001C0880F69
:101FA0009A95EAF70E94C10E802F0E946E0F18309A
:101FB00070F6D77081E001C0880FDA95EAF70E94C9
:101FC000BA0EC5CFC77081E001C0880FCA95EAF785
:101FD000F6CFA8E0B0E0EFEEFFE00C94341E8C01E9
:101FE000DC0114968C911497882309F4B8C021E081
:101FF0004C9111965C91119712966C9112971396D1
:102000007C91139715969C910E94270B7C01F801F7
:102010008581882309F43CC1C70197578038910511
:1020200008F0FCC4FFE0FE1508F489C08FEF93E0D0
:102030000E947D1E811183C069EAA62EBB24B39441
:10204000E11047C0FE01339686E0DF011D928A95BC
:10205000E9F75AE0452E7501BFEFEB1AFB0AC501FF
:102060000E947D1E89831A82882309F468C081300A
:1020700009F079C06501E2E0CE0ED11CC7010E94D3
:102080007D1E8A83882309F45AC09FEF980F9330EE
:1020900070F5F3E0AF0EB11CC6010E947D1E8B836C
:1020A000882309F44CC01C82DE0111967D01F701E2
:1020B0002081222381F2213009F095C09181828113
:1020C000913009F052C0F2E0EF0EF11C0E946E0F49
:1020D00053C0A11424E0B20691F1C5010E947D1EF7
:1020E000811101C0EA943FEFA31AB30AA9CF5601A8
:1020F0008430D1F642E0E42EF12C56012FEFA21AE3
:10210000B20AC6010E947D1EE1E0F0E0EC0FFD1F67
:10211000EE0DFF1D8083882391F08C3741F4E2E0BF
:10212000F0E0EC0FFD1FEE0DFF1D1082BDCF3FEF65
:10213000E31AF30A650187E0E816F104F1F68091ED
:10214000A901877061F0D80115968C91882339F028
:1021500080910A0282FF03C082E00E94490828960B
:10216000E0E10C94501E57019FCF923049F422E0D9
:10217000E20EF11C0E94FE0EEFEFEE1AFE0A97CF60
:10218000933031F432E0E30EF11C0E94CB0EF4CF19
:10219000943021F08FEFE81AF80AEECF92E0E90EC2
:1021A000F11C30E020E0B7016F5F7F4FD70111963F
:1021B0004C918053990B8A30910550F02150310990
:1021C000D8F2EFE9FFE03197F1F700C00000F6CF59
:1021D000429EF001439EF00D11249C012E0F3F1FE3
:1021E000842F7B01E0CFE22FF0E0E850FE4F5490C7
:1021F000822F86958695869590E0FC01E851FE4FEA
:1022000064902770712C022E02C0759467940A9412
:10221000E2F731E063227724FC01E852FE4F84901C
:10222000912C022E02C0959487940A94E2F7A1E0C3
:102230008A229924FC01E853FE4FC490D12C02C09D
:10224000D594C7942A95E2F7B1E0CB22DD2461143E
:10225000710419F081EE0E94FE0E8114910419F0B0
:1022600086EE0E94FE0E852D0E946E0F8114910451
:1022700019F086EE0E94CB0E6114710419F081EE04
:102280000E94CB0EC114D10409F476CF8CE21ECF8C
:10229000F701E851FC47E730F10508F0B2C3E85117
:1022A000F14E0C94251E26E241EE61EEC8010E941B
:1022B0008C0F45CF27E245EE65EEF8CF26E241EEE2
:1022C00060EEF4CF27E245EE64EEF0CF26E241EE79
:1022D00062EEECCF27E245EE66EEE8CF28E241E081
:1022E000EBCF8091090281608093090295C08091B3
:1022F0000A02886080930A028FC08091090282607E
:10230000F3CF809109028460EFCF80910902886049
:10231000EBCF80910A028160EDCF80910A0282604A
:10232000E9CF809109028061DFCF8091090280624C
:10233000DBCF809109028064D7CF0E94B50B8091DA
:1023400009028068D1CF809109028C60CDCF809145
:102350000A028360CFCF809109028E7FC5CF809122
:102360000A02877FC7CF809109028D7FBDCF809100
:1023700009028B7FB9CF80910902877FB5CF809109
:102380000A028E7FB7CF80910A028D7FB3CF8091F2
:1023900009028F7EA9CF809109028F7DA5CF809100
:1023A00009028F7BA1CF0E94B50B809109028F7724
:1023B0009BCF80910902837F97CF80910A028C7F07
:1023C00099CF8091090282FB992790F921E0922709
:1023D00090FB82F990FB83F987CF80910A02982FB6
:1023E000909591708E7F892B90FB81F983CF90918E
:1023F0000902892F8F7B96FF806476CF0E94B50BF0
:1024000090910902892F97FB87F980586DCF61E081
:102410008EE090E00E949B1E6091090270910A027A
:1024200084E090E00E94B91E0E94B50B88CE60E067
:10243000EFCF90910902892F8F7E94FF806154CF56
:1024400090910902892F8E7F90FF81604DCF9091EE
:102450000A02892F877F93FF88604CCF85E3CCC227
:1024600085E3D9C2F7E7EF16FCE7FF0609F46DC074
:1024700028E7E2162CE7F20609F474C033E0E3160D
:102480003CE7F30609F48FC008F06EC0E1149CE746
:10249000F90609F47BC0A1E0EA16ACE7FA0609F4F4
:1024A00088C0F8018581E080F180882309F48FC01D
:1024B000C7010E94C80AD82E682FC7010E94E207F0
:1024C000B7018D2D0E94BA0A0E9458067C01882E01
:1024D000D8011596AC90159716969C9092943FE073
:1024E00093228091A901877009F1DA2CAA20F9F0D2
:1024F0008F2D807F803469F080E28E0D8830B0F0BF
:102500008F2D807E803229F4B1E0BE1578F49920B9
:1025100069F080910A0282FF09C082E00E944908A6
:102520008091A9018770DD24D3948111D12CCF2C07
:10253000C2942FE0C222EBE0EC1508F4B0C0EC2D01
:10254000F0E0E151F14E0C94251E81E00E946008FC
:1025500043E062E081E00E941C08F1CD81E00E942E
:102560003C08F6CF82E0F2CFBBE5EB16BCE7FB06FA
:1025700061F1ECE5EE16ECE7FE06E9F0FAE5EF16A0
:10258000FCE7FF0609F08DCF81E01CC00E94B50B6F
:102590002FEF34E38CE0215030408040E1F700C061
:1025A00000000E94B7096FEF7FEF90E080E00E948B
:1025B000B91E0E94A40E80910A0282FB882780F92E
:1025C00091E089270E944C0B6CCF80E0FBCFC701C4
:1025D0000E94AE07D82E74CFFF2DFF70BF2E8F2D17
:1025E000807F19F0B29490EFB922AA20B9F0BB20F5
:1025F00069F080E28E0D883010F0811009C0809162
:10260000D401B82AB092D4010E94630B8E2D45C02C
:102610008091AB01B82AB092AB01F6CF8E2D0E940B
:10262000CB0EBB20E1F180E28E0D883010F08110DE
:1026300004C08B2D0E94760706C0B0948091AB0138
:10264000B822B092AB010E94630B29C02F2D2F70CE
:10265000B22E8F2D807F803219F0B29480EFB82295
:10266000882059F031E0831609F482C0AA2009F4C9
:102670008EC0992009F44FC0C9CF80910A0282FD13
:1026800046C0AA20F1F1BB2039F08091D4018B29FA
:102690008093D4010E94630B80E00E94FE0EAC2D5B
:1026A000A850BB0B149710F40E94CA04DD20A9F0B7
:1026B0008091A90180FD11C0F8011582869586954B
:1026C00086950E946008C8010E94E90F8091A901C7
:1026D0008695869586950E943C0820E0D8014C910D
:1026E00011965C91119712966C91129713967C91AA
:1026F000139714968C91149715969C910E94270B12
:102700002ECD80E00E94CB0EBB2049F292CFAA20B2
:10271000A1F0911004C08B2D0E94C10EC0CF81E0AA
:102720009812BDCF8091AA019B2D9823B91609F468
:10273000B6CF8B298093AA01B2CF9110B0CF8B2D49
:102740000E94BA0E9091AA018B2D892329F08B2D1E
:10275000809589238093AA0190918F018B2D8923E5
:1027600009F49DCF8B2D8095892380938F0197CF7E
:10277000AA2029F095E0991508F491CFCCCFA4E0D8
:10278000A91508F48CCF8B2D0E94BA0E88CF992002
:10279000D1F3B9E38B1218C1EFEFF7EE23E0E1506C
:1027A000F0402040E1F700C000000EC18F2D86955B
:1027B0008695837061F0813009F071CFC701937005
:1027C000A11002C080E090E00E94800468CFC701A1
:1027D0009370A11002C080E090E00E94A5045FCF3A
:1027E0006A2D8E2D0E946F085ACF8F2D837091F520
:1027F000A11055CF4E2D429546954770440F440F7A
:102800008E2D8F70042E01C0880F0A94EAF72E2DAA
:102810002071E4FE07C02FE030E001C0220F4A958E
:10282000EAF720953F2D369536953370323069F0B2
:1028300050F44091E201313029F0822B84230E9430
:102840006C082DCF842B822BFACF282B8091E201AC
:102850008227F5CF8695AA2011F08F2D81708823CD
:1028600009F41DCF4E2D429546954770440F440FF5
:102870008E2D8F70042E01C0880F0A94EAF72E2D3A
:102880002071E4FE07C02FE030E001C0220F4A951E
:10289000EAF720953F2D369536953370323069F042
:1028A00050F44091E301313029F0822B84230E94BF
:1028B0001908F5CE842B822BFACF282B8091E301C7
:1028C0008227F5CF3F2D3F70F32EAA2029F0832FCA
:1028D0000E9460088E2D20CF8E2D0E94BA0E8F2D63
:1028E0000E943C08DCCE8E2D92EF8916B1F198152E
:1028F00070F0A0EF8A16D1F0B1EF8B1691F0AA20FC
:1029000009F45DC0911082CE8F2D8F712AC0E3EF44
:102910008E1651F1F4EF8F12F2CF80910A0282FDF0
:102920002FC08F2D8F71AA20D9F21BC0AA2081F051
:1029300024E0291508F4B3CE2F2D2F7181E090E00B
:1029400001C0880F2A95EAF79091E3018927AFCF5C
:1029500035E0391508F4A3CEEFCF8F2D8F71A1107C
:10296000BFCF0E9460089BCE80E0AA2009F49FCFD1
:102970009F2D9F7181E001C0880F9A95EAF797CF4C
:10298000AA2091F08F2D8F71F82E0E9460088091FF
:102990000A0282FF07C0A8E0FA9EC00111248360EA
:1029A0008093A9018F2DDDCF81E00E944908B1E01D
:1029B000B91508F074CE82E00E94490870CE9920C3
:1029C00039F0893309F4E8CE8E2D0E94CB0E67CE04
:1029D0008F2D8F7185CFB6E1EB16BCE7FB0609F0B2
:1029E00041CD8091D4018A7A91E009F490E09093EE
:1029F0008E01811133CD89E20E944C040E94630B49
:102A00009ECBE6E1EE16ECE7FE0641F580918E01E5
:102A1000811126CD89E20E942104F0CFF701E8510F
:102A2000FC47E730F10508F43ACC10926302C70185
:102A30009057839780F684E090E00E94851E9093E3
:102A40000A0280930902F701E150F047E232F105F2
:102A500008F047CCE550F14E0C94251EF7E7EF1631
:102A6000FCE7FF0609F47ACD82E028E7E2162CE7BE
:102A7000F20609F474CD15CDCF93DF938091A801B0
:102A8000807F09F04DC08091A701882309F448C0D8
:102A9000E091600250912702C091A301D091A20160
:102AA0006091A4017091A50147E05E17C9F18E2FD6
:102AB00090E0E49FF0011124E85DFD4F2481222382
:102AC00091F1489FF001499FF00D1124DF01A85DAD
:102AD000BD4F11962C9111972C1325C02C912D13BD
:102AE00022C015962C91159721111DC012962D917B
:102AF0003C91261B370B283C3105A8F48091A80196
:102B00008F7080618093A801E25DFD4F80818F709E
:102B10008061808382EA91E00E94E90F0E94A4070D
:102B2000DF91CF910895FC013196E770BECFA4E10B
:102B3000B0E0EDE9F5E10C94381E8C0186E0F80177
:102B4000DE011F9601900D928A95E1F7F8018481CC
:102B5000E58092EAA92E91E0B92E9091A6019111FB
:102B600028C0882319F1EE20F1F0C8010E94040B5F
:102B7000F82E8823C1F087E0F801D50101900D926D
:102B80008A95E1F78091A601813031F48091A2010C
:102B90009091A3010E94F70A0E943C158F2D649624
:102BA000ECE00C94541EC8010E94E90FFF24F3943A
:102BB000F5CFD080C18082809380F090A7012091D2
:102BC000A4013091A501A401421B530BFF2009F47D
:102BD000D9C0483C510508F092C08823F9F2909181
:102BE000A3018091A801282F207F09F056C0C912A7
:102BF00014C09091A201D91210C0E11048C08F708A
:102C000080618093A80182EA91E00E94E90F80919F
:102C1000A801F8018683F12CC1CFE11038C06C2DDA
:102C20008D2D0E948A026C2D8D2D0E948A02E82E25
:102C30008111F1CFDF86C88A8F8598890E94F70AB3
:102C4000292F22952F70243058F49F70223088F05D
:102C5000992399F0F8019681907F79F4FE2C9ECF0C
:102C60002A5F2F70223068F0C8010E94E90FEF2C14
:102C7000F5CF992311F0882389F3805E883070F3B3
:102C8000F3CF803F58F3815F833070F7E7CF8091B7
:102C9000A80181608093A801BECFC91207C090919E
:102CA000A201D91203C0EE2009F48DC0C8010E9410
:102CB000040B882309F477CFEE2009F474CF8091B8
:102CC000A801803288F02091A2013091A3013987B8
:102CD00028879B868A869091A6019C871D868E8771
:102CE000CE0108960E94E90F87E0F801A2EAB1E060
:102CF00001900D928A95E1F70E943C1557CF909173
:102D0000A801292F207F51F482EA91E00E94E90F67
:102D100087E0F50111928A95E9F77DCF882309F4C0
:102D20003DCF8091A3018C1110C08091A201D812D7
:102D30000CC0E1100AC09683C8010E94E90F87E029
:102D4000F50111928A95E9F729CFC8010E94040B79
:102D5000882309F428CFEE2009F425CF8091A8011B
:102D6000803210F22091A2013091A3013A8329838D
:102D70009C828B829091A6019D831E828F83CE01BF
:102D80000196B0CF483C5105D0F6882309F40ECF08
:102D9000FE2CEE2009F407CF8091A3018C1120C0F6
:102DA0008091A201D8121CC08091A80180FD0FC0A3
:102DB000982F907F61F08683903F31F0982F907F1D
:102DC000905F8F70892B8683C8010E94E90F87E08E
:102DD000F801A2EAB1E001900D928A95E1F7DECE0A
:102DE000C8010E94040B81117FCF8091A8018160EE
:102DF0008093A801C8010E94E90FD0CEABE1B0E0FA
:102E0000E4E0F7E10C94401E4E8B5F8B688F798F66
:102E10008A8F9B8F192F91111092AB011D8A86E02A
:102E2000FE017696DE011F9601900D928A95E1F7DC
:102E30000A8D002341F021E04F85588969897A89FC
:102E4000C8010E94270B0B8B1C8B87E0FE013F966D
:102E5000DE01189601900D928A95E1F7CE01089651
:102E60000E94971581110CC087E0FE013896DE01A3
:102E7000119601900D928A95E1F78C8581110BC016
:102E800017E08091600290912702891331C06B9600
:102E9000E4E00C945C1E2091270230E0C901019609
:102EA00087709927409160024817190699F097E0BA
:102EB000929FD001939FB00D1124A85DBD4FFE01DC
:102EC000319601900D929A95E1F7809327020E9426
:102ED000A407D6CF0E94B50B109227021092600271
:102EE00087E0E2EAF1E0DF011D928A95E9F7C8CFB9
:102EF000819FC0011124885D9D4F0E9497158823F2
:102F000031F28091600290E001968770992780935A
:102F10006002B7CFA6E0B0E0E0E9F7E10C94401E14
:102F20000E9415048C018091D5019091D6018017E3
:102F3000910781F019821A820E941504682F498135
:102F40005A81792F80E090E00E94FE161093D601FE
:102F50000093D5012696E4E00C945C1EA8E0B0E056
:102F6000E4EBF7E10C94381E8E010F5F1F4F88E0F1
:102F7000F80111928A95E9F794E4E92E91E0F92E8F
:102F80006801AA24A394B12CF70181917F018F3F9E
:102F900009F446C0F894E82FE295EF70F0E021A123
:102FA0008F70A50102C0440F551F8A95E2F7CA0130
:102FB000922F982B91A392A18095892382A3789434
:102FC00000C0E8E4F1E021E030E0912C812C419157
:102FD0004F3F09F44EC0A42FA295AF70B0E0909679
:102FE0008C9190E04F7002C0959587954A95E2F7D5
:102FF00080FD3FC0C901882A992A220F331F51E062
:10300000E435F50721F7F701319780818F3F11F003
:103010000E94500580EA8A95F1F7F601918280823C
:10302000F2E0CF0ED11C48E4E41641E0F40609F0CA
:10303000ABCF48E050E0B8018AED91E00E94CF1E8E
:10304000892BE1F088E0F801AAEDB1E001900D9242
:103050008A95E1F781E08093D9010E94150490934D
:10306000D8018093D70110E0812F2896ECE00C94D2
:10307000541E90E080E0BFCF10E01FC01091D90136
:10308000112389F38091D7019091D8010E94060401
:10309000059748F348E050E06AED71E08EEE91E06C
:1030A0000E94CF1E892B41F388E0EAEDF1E0AEEEFD
:1030B000B1E001900D928A95E1F71092D901D4CF39
:1030C0001F920F920FB60F9211242F933F934F939D
:1030D0005F936F937F938F939F93AF93BF93CF93A0
:1030E000DF93EF93FF93D091E900DF708091EC00C4
:1030F000C82FC17080FDC0E81092E9008091F000F7
:10310000877F8093F00078940E94E60B1092E9008C
:103110008091F00088608093F000CD2BCF70C09339
:10312000E900FF91EF91DF91CF91BF91AF919F9116
:103130008F917F916F915F914F913F912F910F9060
:103140000FBE0F901F9018951F920F920FB60F92FF
:1031500011242F933F934F935F936F937F938F939C
:103160009F93AF93BF93EF93FF938091E10082FF12
:1031700009C08091E20082FF05C08091E1008B7F51
:103180008093E1008091DA0080FF24C08091D80014
:1031900080FF20C08091DA008E7F8093DA008091DA
:1031A000D90080FF9DC080E189BD82E189BD09B45D
:1031B00000FEFDCF81E080931D02809110028111FD
:1031C00009C00E94A9020E944A038091E200846023
:1031D0008093E2008091E10080FF17C08091E200BF
:1031E00080FF13C08091E2008E7F8093E200809187
:1031F000E20080618093E2008091D8008062809339
:10320000D80019BC85E080931D028091E10084FF05
:103210002BC08091E20084FF27C080E189BD82E15C
:1032200089BD89B5982F917080FFFBCF8091D80020
:103230008F7D8093D8008091E1008F7E8093E100A4
:103240008091E2008F7E8093E2008091E2008160B5
:103250008093E20080911E02882309F447C084E035
:1032600080931D0280911D028091E10083FF27C0A1
:103270008091E20083FF23C08091E100877F8093EB
:10328000E10082E080931D0210921E028091E10015
:103290008E7F8093E1008091E2008E7F8093E20038
:1032A0008091E20080618093E20042E060E080E093
:1032B0000E9418038091F00088608093F000FF91D5
:1032C000EF91BF91AF919F918F917F916F915F919E
:1032D0004F913F912F910F900FBE0F901F90189517
:1032E00019BC10921D021092100274CF8091E3005D
:1032F00087FD93E090931D02B5CF78941F921FB67F
:103300001F9211248F939F93AF93BF9380910C02D0
:1033100090910D02A0910E02B0910F020196A11D95
:10332000B11D80930C0290930D02A0930E02B093F6
:103330000F02BF91AF919F918F911F901FBE1F9061
:1033400018951F921FB61F9211248F939F93AF93CE
:10335000BF9380910B02811113C080910C02909158
:103360000D02A0910E02B0910F024196A11DB11D58
:1033700080930C0290930D02A0930E02B0930F0263
:10338000BF91AF919F918F911F901FBE1F90189575
:10339000CDB7DEB7A6970FB6F894DEBF0FBECDBF90
:1033A00085B7806885BF85B7806885BF84B7877F0C
:1033B00084BF0FB6F894A8958091600088618093CF
:1033C0006000109260000FBE80E890E00FB6F894A5
:1033D00080936100909361000FBE8EE495E090931E
:1033E0006501809364010E94A9020E944A038091B2
:1033F000E20084608093E200789480911D0288232B
:10340000A1F01091E9001F709091EC00892F81705C
:1034100090FD80E8182B1092E9008091E80083FD70
:103420000E94E60B1F701093E90082E084BD93E0D8
:1034300095BD9AEF97BD80936E000E94720A81112C
:1034400002C00E94620A80E30E94500581E30E944C
:10345000500582E30E94500587E60E94500508E46B
:1034600011E0D8018D918D018F3F11F00E94500520
:10347000B1E004351B07A9F788E0EEEEF1E0DF01CB
:10348000282F1D922A95E9F7EAEDF1E0DF011D9260
:103490008A95E9F790E080E00E94851E863E9E4F67
:1034A00021F40E94720A811168C066EE7EEF90E0FE
:1034B00080E00E94B91E60E082E090E00E949B1EC6
:1034C00081E08093E20161E083E090E00E949B1E36
:1034D00060E074E184E090E00E94B91E60E086E064
:1034E00090E00E949B1E6FEF87E090E00E949B1E81
:1034F00040E050E0BA0188E090E00E94AD1E60E03C
:1035000084E290E00E949B1E60E087E190E00E94D0
:103510009B1E60E08CE090E00E949B1E60E08DE0CE
:1035200090E00E949B1E19821A821B821C821D82BF
:103530001E821F82188648E050E068E170E0CE01EC
:1035400001960E948B1E40E050E0BA0180E290E0BC
:103550000E94AD1E80E00E94DB090E94620A40E0EA
:1035600050E0BA018FE090E00E94AD1E40E050E0D4
:10357000BA0183E190E00E94AD1E82E090E00E94DB
:103580007D1E8093E40184E090E00E94851E90936C
:103590000A02809309020E94AE17EFEFF6E721E0DE
:1035A000E150F0402040E1F700C000000E94AE175B
:1035B0008091EE0180FF08C06FEF7FEF90E080E028
:1035C0000E94B91E0E94B70983E090E00E947D1E10
:1035D0000E946C0880E091E09093060280930502BF
:1035E000E8E14E2E512CF6EF6F2EF1E07F2E809108
:1035F0001D0212E1853009F496C00E94AE1765EEF7
:10360000A62E61E0B62E7EEE872E71E0972ED401B5
:10361000F501219131918D919D9141E0ED3EF407AD
:1036200009F48BC028173907A1F3312CD4010D916F
:103630001D914D01F501C190D1905F01C016D106D9
:1036400061F1C026D126212CEE24E394F12CC60191
:103650008E219F21892BB9F029A23AA20E9415043C
:103660009CA38BA3F1E0FDA391E098012E213F21C3
:10367000232B09F490E09EA349A15AA16BA17CA140
:103680008DA10E94FE162394EE0CFF1C2CE022124A
:10369000DECFF501329711830083339444E0341276
:1036A000C5CF8FB7F89440910C0250910D026091F4
:1036B0000E0270910F028FBF46C080911D028430B0
:1036C00011F110920B0240E40FB6F894A8954092C5
:1036D00060000FBE4093600083B7817F846083BF2A
:1036E00083B7816083BF7894889583B78E7F83BFCB
:1036F0000FB6F894A895809160008861809360006F
:10370000109260000FBE80911C02882361F00E941D
:10371000AE17EEEEF1E081919191892B09F052C242
:103720006E167F06C1F780911D02853009F4C5CF62
:103730000E94B50B0E94CA0460CF2817390709F010
:1037400074CF0E948A1786E0EDEFF1E0DE0111965A
:1037500001900D928A95E1F7D090FE011091FF0142
:10376000F0900002E0900102009102021092FF012D
:10377000109200021092010210920202812F8F29F2
:1037800009F445C08091FB019091FC010E94060460
:103790009C019091F601992309F43EC2253131052F
:1037A000B0F19F3F19F09F5F9093F601112359F0FC
:1037B0000E9420059FEF11160CF491E0899F802D47
:1037C00011248093FF01FF2059F00E94200591E011
:1037D0001F140CF09FEF899F802D1124809300020D
:1037E0008091FF01882399F0C0900002CC2079F0ED
:1037F0000E944005882309F4B3C08093FF018C2DFB
:103800000E944005882309F4ADC0809300028E2DEC
:10381000802B09F445C08091F9019091FA010E9432
:1038200006049C019091F701992309F4F0C1213518
:103830003105B0F19F3F19F09F5F9093F701EE20A3
:1038400059F00E94FE049FEF1E140CF491E0899F32
:10385000802D112480930102002359F00E94FE0460
:1038600091E010160CF09FEF899F802D112480931A
:10387000020280910102882399F0E0900202EE207A
:1038800079F00E944005882309F46EC080930102FC
:103890008E2D0E944005882309F468C0809302029F
:1038A0008091FE01D81217C08091FF01882311F08A
:1038B000181311C020910002222311F02F110BC008
:1038C00090910202992311F0091305C03091010271
:1038D000332309F48EC10E94D70486E0FE0131969D
:1038E000ADEFB1E001900D928A95E1F70E94CA0414
:1038F0009091ED01891769F08093ED018FB7F894ED
:1039000040910C0250910D0260910E0270910F02D5
:103910008FBF80911D02843009F069CE83E08093CF
:10392000E9008091E80082FF62CE8091E80090E09B
:1039300085FF05C00E94C8028823D1F091E08091E4
:10394000E8008B778093E800992309F450CEE98151
:10395000E150E331A0F5F0E0E35EF04E0C94251E5B
:1039600081E04BCF81E051CF81E090CF81E096CFD5
:1039700000E210E0CE0101967C018091E80085FD17
:103980000AC08091E8008B778093E8000E94C8020B
:10399000882399F3D3CF8091F100D7018D937D01D6
:1039A0000150110951F7CACF1A828CE08B8324C0D1
:1039B0008A81823009F422C128F4813061F08FEFCE
:1039C00089831AC0833009F18430C9F71B821C82B5
:1039D0001D821E8211C02FB7F89460910C02709165
:1039E0000D0280910E0290910F022FBF0E942B1E9C
:1039F0006B837C838D839E8340E250E0BE016F5FCA
:103A00007F4F82E00E945309F2CD2B81822F90E0FC
:103A1000FE013196225F8430910570F7DC01AA0F18
:103A2000BB1FA251BE4F3C9111964C9143833483EE
:103A3000019632962813EFCFDFCF8A81823019F0BA
:103A40008530D1F2BCCF6B817C818D819E810E94BB
:103A50002B1E88E290E00E949B1ECECF4C816B8192
:103A60008A810E948B0A9827892798279E838D83B5
:103A7000C3CF2D813E813227232732274C816B8192
:103A80008A810E94040AB8CF0E942A0AB5CFB0E109
:103A9000BA83B2CF82E08A8387E588CF0A811B810F
:103AA000102701271027FE0131966F01EC80CF010E
:103AB0008E0D911D7C01C80187559E4FEC14FD04AD
:103AC00009F49ACF0735A2E01A0750F40E947D1E30
:103AD000F60184830F5F1F4FBFEFCB1ADB0AEBCFDA
:103AE000D60114961C92F6CF0A811B81102701275C
:103AF0001027FE0131966F01EC80E00EF12EF11CD3
:103B0000C80187559E4FE016F10609F475CF0735B9
:103B1000F2E01F0728F4D60114966C910E949B1EB8
:103B2000BFEFCB1ADB0A0F5F1F4FEACF0E94F409E9
:103B300063CF84E08A8360CF0A811B81102701272D
:103B40001027FE0131966F01EC80CF018E0D911D83
:103B50007C01C8018996CE14DF0409F44DCF0038EA
:103B6000A1E01A0750F40E947D1EF60184830F5FC6
:103B70001F4FBFEFCB1ADB0AECCFD60114961C9275
:103B8000F6CF0A811B81102701271027FE013196ED
:103B90006F01EC80E00EF12EF11CC8018996E01651
:103BA000F10609F429CF0038F1E01F0728F4D60107
:103BB00014966C910E949B1EBFEFCB1ADB0A0F5F1D
:103BC0001F4FEBCFE0E1E9BD19BD09B400FEFDCF09
:103BD0008091D8008F7D8093D8008091E000826032
:103BE0008093E0008091E00081FDFCCF0E94B50B46
:103BF0009ACD822B892B09F470CE6DCE88E290E0AD
:103C00000E947D1E1B821C821D828E83F5CE2B306E
:103C1000310508F011CE44CE2B30310508F0C3CD6C
:103C2000F6CD97FB072E16F4009407D077FD09D048
:103C30000E94691E07FC05D03EF4909581959F4F28
:103C40000895709561957F4F0895EE0FFF1F0590C1
:103C5000F491E02D0994692796276927782787270B
:103C6000782708952F923F924F925F926F927F92A2
:103C70008F929F92AF92BF92CF92DF92EF92FF927C
:103C80000F931F93CF93DF93CDB7DEB7CA1BDB0B28
:103C90000FB6F894DEBF0FBECDBF09942A883988CD
:103CA00048885F846E847D848C849B84AA84B984D4
:103CB000C884DF80EE80FD800C811B81AA81B981E0
:103CC000CE0FD11D0FB6F894DEBF0FBECDBFED01F4
:103CD0000895AA1BBB1B51E107C0AA1FBB1FA61753
:103CE000B70710F0A61BB70B881F991F5A95A9F7A5
:103CF00080959095BC01CD010895F999FECF92BDB4
:103D000081BDF89A992780B50895A8E1B0E042E016
:103D100050E00C94C11EDC01A40FB51F415050406F
:103D200048F0CB01840F951F2E910E949C1E41509C
:103D30005040D0F70895262FF999FECF92BD81BD4E
:103D4000F89A019700B4021639F01FBA20BD0FB6D9
:103D5000F894FA9AF99A0FBE08950396272F0E94B5
:103D60009C1E0E949B1E252F0E949C1E242F0C949B
:103D70009C1E0196272F0E949C1E0C949B1EDC010A
:103D8000CB01FC01F999FECF06C0F2BDE1BDF89A66
:103D9000319600B40D9241505040B8F70895FB01A0
:103DA000DC0104C08D910190801921F441505040F4
:103DB000C8F7881B990B0895F894FFCFC70CEF0C38
:103DC000920EEF0C920E220D430D920E410E4E0EEE
:103DD0005E11621153115A1166116A116E11EC12C3
:103DE000EC1226132613D613F0134F134F13F513AB
:103DF000621473147314AB112012B3117D1181116D
:103E0000B7118511BB11C711911119129511CB1161
:103E10009911CF11F7119D11D311FE11A311D911D1
:103E2000E1118911BF118D11C311A711DD11ED1120
:103E3000071217127711AF112712D41CD81C1D1DA1
:103E40002E1D391D441DDF1CDF1CDF1CDF1CDF1C89
:103E5000471D4A1D4E1D741D961D991D9C1DC11D9B
:103E60000304A3099C0995098E0901818283E2005C
:103E7000E900EA00B500B600B700CD008301CC0030
:103E80008A019201940121022302240225022602C2
:103E900027022A02B300B4006F0070009F01CB011B
:103EA0009F02A00230313267F0F1F4F5F6F7663682
:103EB000353497964422B684016201AC000A04238B
:043EC00004430400B3
:00000001FF
