:100000000C9437060C9454060C9454060C945D30F2
:100010000C9454060C9454060C9454060C945406F8
:100020000C9454060C9454060C944D1B0C94091B10
:100030000C9493270C9454060C9454060C94540678
:100040000C9454060C9454060C9454060C945406C8
:100050000C9454060C94261C0C9454060C945406D0
:100060000C9454060C9454060C9454060C945406A8
:100070000C9454060C9454060C9454060C94540698
:100080000C9454060C9454060C9454060C94540688
:100090000C9454060C9454060C9454060C94540678
:1000A0000C9454060C9454060C94540605010980D3
:1000B000A101850319012AB700150126B700950192
:1000C00075108100C0050C0901A101850419012AE0
:1000D000A002150126A002950175108100C005013E
:1000E0000906A1018506050719E029E71500250184
:1000F0009508750181020507190029EF15002501F2
:1001000095F075018102050819012905950575010C
:100110009102950175039101C00660FF0961A1017B
:100120000962150026FF00952075088102096315F4
:100130000026FF00952075089102C005010906A15F
:1001400001050719E029E7150025019508750181CA
:10015000029501750881010507190029FF15002680
:10016000FF0095067508810005081901290515008D
:100170002501950575019102950175039101C00056
:10018000000000000000000000000000000000006F
:10019000000000000000000000000000000000005F
:1001A0000000007E0F00D4FFFFFFC70000007800B2
:1001B000000000000000002A2B28000000000000C2
:1001C0000000000000000000000029000000002CDA
:1001D0001E3420212224342627252E362D37382779
:1001E0001E1F202122232425263333362E37381F85
:1001F0000405060708090A0B0C0D0E0F1011121347
:100200001415161718191A1B1C1D2F3130232D35E4
:100210000405060708090A0B0C0D0E0F1011121326
:100220001415161718191A1B1C1D2F3130354C20A8
:100230002020206162636465666768696A6B6C6D23
:100240006E6F707172737475767778797A31323334
:1002500034353637383930524542545F2D3D5B5D79
:100260005C233B27602C2E2F20202000DA0281FF08
:10027000D9F1DB20A4A62EAF00A0C0D30000A1C8F6
:10028000D30000AED580A81F408D1420001E0F059E
:1002900000047F3F1F643214643214783C1E1E1425
:1002A0000A05556E6465660041646A757374005290
:1002B00061697365004C6F776572004465666175AE
:1002C0006C74004C617965723A20003A002C206B06
:1002D000007800808182838485868788898A8B8CD8
:1002E0008D8E8F9091929394A0A1A2A3A4A5A6A76E
:1002F000A8A9AAABACADAEAFB0B1B2B3B4C0C1C2E5
:10030000C3C4C5C6C7C8C9CACBCCCDCECFD0D1D245
:10031000D3D4000001010101010101010102020227
:1003200002020202020203030303030303030404A1
:10033000040404040405050505050606060606076B
:100340000707070708080808090909090A0A0A0B24
:100350000B0B0C0C0C0D0D0D0E0E0E0F0F0F1010C5
:10036000111111121213131414151516161717184C
:100370001819191A1A1B1B1C1D1D1E1E1F202021B7
:100380002222232424252626272829292A2B2C2DFE
:100390002D2E2F30313232333435363738393A3B1F
:1003A0003C3D3E3F404142434445464748494A4C14
:1003B0004D4E4F50515354555658595A5B5D5E5FE0
:1003C000616264656668696B6C6D6F707273757776
:1003D000787A7B7D7E8082838587888A8C8E8F91D8
:1003E000939596989A9C9EA0A2A3A5A7A9ABADAF02
:1003F000B1B3B5B7BABCBEC0C2C4C6C9CBCDCFD1EC
:10040000D4D6D8DBDDDFE2E4E7E9EBEEF0F3F5F894
:10041000FAFDFFFFAA7F55402223252628292A2CF2
:100420002D2F3032333536383A3B3D3E404243453E
:1004300047494A4C4E5051535557595A5C5E606279
:10044000646668696B6D6F71737577797B7D7F8189
:10045000838587898A8C8E90929496989A9C9E9F89
:10046000A1A3A5A7A8AAACAEAFB1B3B4B6B8B9BBA7
:10047000BCBEBFC1C2C3C5C6C7C9CACBCCCDCED016
:10048000D1D2D2D3D4D5D6D7D7D8D9D9DADADBDB03
:10049000DBDCDCDCDCDCDDDDDDDDDCDCDCDCDCDB9A
:1004A000DBDBDADAD9D9D8D7D7D6D5D4D3D2D2D1E3
:1004B000D0CECDCCCBCAC9C7C6C5C3C2C1BFBEBCD6
:1004C000BBB9B8B6B4B3B1AFAEACAAA8A7A5A3A147
:1004D0009F9E9C9A98969492908E8C8A8987858309
:1004E000817F7D7B79777573716F6D6B69686664E9
:1004F00062605E5C5A5957555351504E4C4A4947B9
:10050000454342403E3D3B3A3836353332302F2D5D
:100510002C2A29282625232200AF00AE2B00140008
:100520001A00080015001700E0000400160007007C
:1005300009000A00E1001D001B000600190005006B
:10054000000000000000E300777C2C002A0013006C
:1005500012000C0018001C00340033000F000E00C5
:100560000D000B0029003800370036001000110084
:10057000000000000000E600787C28002B001E0030
:100580001F00200021002200E00000000000000009
:1005900000000000E100000000000000000000007A
:1005A000000000000000E30001002C002A002700EA
:1005B0002600250024002300000000004F00520008
:1005C000510050000000000000000000000000008A
:1005D000000000000000E600010028002B001E02C1
:1005E0001F02200221022202E000000000000000A1
:1005F00000000000E100000000000000000000001A
:10060000000000000000E30001002C002A00270287
:1006100026022502240223023500310030002F007B
:100620002E002D003502310230022F022E022D0243
:10063000000000000000E60001002800007C00002F
:10064000000000000000000020782378257827783B
:100650000000000021782478267828780000000027
:10066000000000000000E30001002C00000000007A
:10067000000000000000000000000000000000007A
:10068000000000000000000000000000000000006A
:10069000000000000000E6000100280009025B00E5
:1006A000030100A0FA09040000010301010009216F
:1006B000110100012244000705810308000109041B
:1006C00001000203000000092111010001222200A3
:1006D0000705820320000107050303200001090428
:1006E00002000103000000092111010001226D0038
:1006F00007058403200001120100020000000853D6
:100700004601000100010200010C0343006F00726A
:10071000006E0065000000100366006F006F00733C
:1007200000740061006E0000000403090400000072
:100730000000003E5B4F5B3E003E6B4F6B3E001C7B
:100740003E7C3E1C00183C7E3C18001C577D571C0C
:10075000001C5E7F5E1C0000183C180000FFE7C311
:10076000E7FF00001824180000FFE7DBE7FF003078
:10077000483A060E00262979292600407F050507FC
:1007800000407F05253F005A3CE73C5A007F3E1C55
:100790001C0800081C1C3E7F0014227F2214005FEE
:1007A0005F005F5F0006097F017F00006689956A30
:1007B0000060606060600094A2FFA2940008047E64
:1007C00004080010207E20100008082A1C080008D9
:1007D0001C2A0808001E10101010000C1E0C1E0C05
:1007E0000030383E383000060E3E0E060000000095
:1007F00000000000005F0000000007000700001478
:100800007F147F1400242A7F2A12002313086462B5
:1008100000364956205000000807030000001C2243
:100820004100000041221C00002A1C7F1C2A0008F5
:10083000083E08080000807030000008080808081A
:10084000000000606000002010080402003E5149D2
:10085000453E0000427F4000007249494946002160
:1008600041494D33001814127F1000274545453982
:10087000003C4A49493100412111090700364949E4
:10088000493600464949291E0000001400000000B6
:100890004034000000000814224100141414141401
:1008A000000041221408000201590906003E415D82
:1008B000594E007C1211127C007F49494936003E96
:1008C00041414122007F4141413E007F4949494128
:1008D000007F09090901003E41415173007F08086A
:1008E000087F0000417F4100002040413F01007F20
:1008F00008142241007F40404040007F021C027FDC
:10090000007F0408107F003E4141413E007F0909FD
:100910000906003E4151215E007F09192946002643
:10092000494949320003017F0103003F4040403FF5
:10093000001F2040201F003F4038403F0063140844
:100940001463000304780403006159494D43000017
:100950007F41414100020408102000004141417FD5
:100960000004020102040040404040400000030730
:100970000800002054547840007F28444438003850
:100980004444442800384444287F003854545418C0
:100990000000087E0902001824241C78007F080447
:1009A00004780000447D4000002040403D00007F6E
:1009B000102844000000417F4000007C0478047847
:1009C000007C08040478003844444438007C18242F
:1009D000241800182424187C007C0804040800480B
:1009E000545454240004043F4424003C4040207CE0
:1009F000001C2040201C003C4030403C004428109B
:100A00002844004C9090907C004464544C44000076
:100A10000836410000000077000000004136080061
:100A2000000201020402003C2623263C00000000D4
:100A300000000000000000000000000000C0E0F026
:100A4000F8F81800C0F0FCFEFFFFFFFFFFFFFF7E7D
:100A500000000000000000000080C0E0E0E0E0E0F6
:100A6000E0E0E0C0800000000080C0E0E0E0E0E006
:100A7000E0E0E0C080000000E0E0C0C0E0E0E0E0D6
:100A80000000E0E0C0C0E0E0E0E0E0C08000000086
:100A90000080C0E0E0E0E0E0E0E0E0C080000000D6
:100AA0000000000000000000000000E0F0F0F0E0B6
:100AB000ECEEF7F37020007C7C7C7E007E7E7E7FF7
:100AC0007F7F000080C0E07E5B4F5BFEC00000C007
:100AD00000DCD7DEDEDED7DC00C000000000000056
:100AE0000000000000000000000000000000000006
:100AF000000000000000F8FCFEFFE000FFFFFFFF29
:100B0000FFFF80FFFFFFFFFFFFFFFFFF1F07010049
:100B10000000000000000000FFFFFF810000000057
:100B2000000081C3C3C30000FFFFFF81000000007D
:100B3000000081FFFFFF0000FFFFFF010000000039
:100B40000000FFFFFF010000000001FFFFFF0000A9
:100B5000FFFFFF9D1C1C1C1C1C1C9DDFDFDF000019
:100B600000000000000000000000000F1F3F7F7F1A
:100B70007F7F7F3F1E0C001F1F1F3F003F3F3F7FB7
:100B80007F7F00307B7F7830202030787F3B0003F0
:100B9000000F7F0F0F0F7F0F000300000000000009
:100BA0000000000000000000000000000000000045
:100BB000000000000000030F1F3F3F3F3F1F1F3F8B
:100BC0003F7F7F7F3F3F1F3F7F7F7F7F7C787838ED
:100BD0001C0F0000000000000001030707070707C3
:100BE00007070703010000000001030707070707C5
:100BF00007070703010000000707070000000000C7
:100C000000000707070000000000000707070000BA
:100C10000001030707070707070707030100000094
:100C200000000000000000000000000000000000C4
:100C300000000000000000000000000000000000B4
:100C400000000000000000000000000000000000A4
:100C50000000000000000000000000000000000094
:100C6000000000000000000000000000000011244F
:100C70001FBECFEFDAE0DEBFCDBF27E0A4EDB1E0CD
:100C800001C01D92A330B207E1F711E0A0E0B1E08E
:100C9000E0EEF7E602C005900D92A43DB107D9F74A
:100CA0000E94BA270C9487330C940000482F20919F
:100CB000F4049091BB0457E0291302C080E008952A
:100CC00030E0529FF001539FF00D1124E454FB4F8C
:100CD0008181681306C08081481303C0858181111A
:100CE000EECF2F5F3F4F2770E7CFFC01AC014C5F89
:100CF0005F4F8FEF91E32191822728E030E087FF5B
:100D000009C0880F892721503109C9F7E417F50771
:100D100091F70895880FF7CFE8EDF0E080818E7F9E
:100D200080831092E2001092DA001092E100A0EEAF
:100D3000B0E08C9181608C9380818F77808319BC27
:100D4000A7EDB0E08C918E7F8C9380818F7E808325
:100D50001092A40408952091E4003091E50095E6F6
:100D6000A9012091EC00822F817020FF06C08091A4
:100D7000E80080FF06C080E008952091E80022FD91
:100D80001AC08091B104882389F0853089F0809160
:100D9000EB0085FD0FC02091E4003091E500421783
:100DA0005307F9F29150E1F684E0089582E0089546
:100DB00083E0089581E008958091B30487FF13C014
:100DC0008091E80082FF06C08091E8008B778093D5
:100DD000E80004C08091B1048111F2CF08958091A0
:100DE000B1048823D9F38091E80080FFF8CF809187
:100DF000E8008E77ECCF982F9093E900242F762F80
:100E000050E0891731F07091EC002091ED00509185
:100E1000F00021FD07C09F5F973071F78093E900D4
:100E200081E008953091EB003E7F3093EB003091EC
:100E3000ED003D7F3093ED003091EB003160309359
:100E4000EB007093EC002093ED005093F0002091A4
:100E5000EE0027FDE0CF80E00895B0E0A0E0E3E3FE
:100E6000F7E00C949731C8EDD0E088818F7E8883BD
:100E7000E7EDF0E080818160808384E082BF81E0E3
:100E80008093A40488818E7F888302EE10E0F801AD
:100E900010821092DA0081EEC82ED12CF601108259
:100EA00088818F77888388818068888388818F7D17
:100EB000888319BC1092B1041092B2041092B0044D
:100EC0001092AF0490EEE92EF12CF70180818B7F18
:100ED000808388818160888342E060E080E00E94B6
:100EE000FB06F60180818E7F8083F801808181601E
:100EF0008083808188608083F70180818E7F8083FA
:100F0000888180618883CDB7DEB7E8E00C94B33187
:100F1000FC018091B9049091BA0486179707A0F05C
:100F20006115710529F49091E8009E779093E8008F
:100F300090E06115710551F4911108C08091E800AD
:100F400082FF34C080E00895BC01F2CF8091B104EB
:100F50008823C1F18530C1F18091E80083FD30C064
:100F60008091E80082FDEACF8091E80080FFE1CF28
:100F70008091F3002091F200382F6115710519F06E
:100F80002830310558F091E02830310509F090E023
:100F90002091E8002E772093E800CBCF81918093B9
:100FA000F100615071092F5F3F4FE7CF8091B1048D
:100FB000882341F0853041F08091E80083FFBECF67
:100FC00081E0089582E0089583E0089508950895EA
:100FD0008091A604089587E797E79093010880938E
:100FE000000888E19AE00FB6F894A8958093600015
:100FF0000FBE90936000FFCF2FB7F8946091A004CC
:101000007091A1048091A2049091A3042FBF089530
:1010100090914C019923D1F090919D0497FF16C0B7
:10102000E82FE695E695E695EE31E0F4F0E0E25241
:10103000FE4F282F277081E090E001C0880F2A958D
:10104000EAF780959281892382830895E8EDF1E0A3
:101050009191891303C0DF0111971C9291E0EE3D3D
:10106000F907B1F7089590914C019923C1F090913F
:101070009D0497FF14C0E82FE695E695E695EE31BE
:10108000F8F4F0E0E252FE4F877021E030E001C05A
:10109000220F8A95EAF78281822B82830895A8ED38
:1010A000B1E0EFEF90E02D91821751F0EF3F19F48E
:1010B000211101C0E92F9F5F9630A9F7EF3F09F496
:1010C00008950E2E000CFF0BEA52FE4FE6CFA3E070
:1010D000B0E0EDE6F8E00C949D3120919B04309156
:1010E0009C0428173907A1F090939C0480939B04DB
:1010F000E0919904F0919A04309751F024E029830B
:101100009B838A830084F185E02DCE0101960995A9
:101110002396E2E00C94B931A3E0B0E0E2E9F8E014
:101120000C949D3120919704309198042817390729
:10113000A1F09093980480939704E0919904F09122
:101140009A04309751F023E029839B838A8300849B
:10115000F185E02DCE01019609952396E2E00C94ED
:10116000B93180919504882359F0E0919904F09168
:101170009A04309729F00190F081E02D09950895A7
:1011800080E00895FA01811101C0FB0109950895DD
:10119000E1EDF2E011828281846082830895809182
:1011A0008704982F9C7F61F4837084608093870408
:1011B00080918A04833318F082E380938A0408952F
:1011C0008C3AB0F38370886AF1CFAF92BF92DF920E
:1011D000EF92FF920F931F93CF93DF93182F062F59
:1011E000E901433308F042E3E42FF0E0ED5EFC4F09
:1011F000011110C0E4915E2F4E2F4983E8835A837A
:10120000DF91CF911F910F91FF90EF90DF90BF90F2
:10121000AF900895202F30E04491D42EE42EF12C8D
:1012200056E0159FC0011124EFEFF0E0BF010E94CE
:101230007931812F90E0880F991F55E5569FD00195
:10124000579FB00D11248A1B9B0B982F990F890F64
:101250005F01A21AB30AAE9CD001AF9CB00DBE9C38
:10126000B00D11245B2F089F80011124012F11273D
:101270005F01A01AB10AAE9C8001AF9C100DBE9C0C
:10128000100D11245F01A81AB108A29EC001A39EEF
:10129000900DB29E900D1124892F9927E81BF90B10
:1012A000EE9DC001EF9D900DFE9D900D1124E92F44
:1012B00062307105A1F050F46115710509F49DCFFC
:1012C0006130710581F0EB2F512F97CF643071059C
:1012D00069F080F06630710509F48FCFF4CFE42F08
:1012E0004B2F592F8ACFE42F412F87CFEB2F542F2D
:1012F000492F83CF4B2F5D2DE12F7FCF80E00895C5
:10130000F894E82FE295EF70F0E031A1282F2F70CC
:1013100081E090E001C0880F2A95EAF7982F909518
:10132000932391A392A1892B82A3789408950F937C
:101330001F9380919504882329F00E94FC071F9138
:101340000F9108950E94FC07009177021091780296
:101350002091790230917A02600F711F821F931FD2
:10136000EECF90919D0492FF10C041E0282F247190
:10137000243009F040E031E0282F2871283009F0AE
:1013800030E0431711F02CE0822793FF10C041E0BA
:10139000282F2471243109F040E031E0282F2871F2
:1013A000283109F030E0431711F02CE0822730910A
:1013B0009E0430FF10C051E0282F2171213009F028
:1013C00050E041E0282F2871283009F040E0541700
:1013D00011F029E0822731FF10C041E0282F217150
:1013E000213109F040E031E0282F2871283109F03F
:1013F00030E0431711F029E0822794FD877E08959D
:1014000082389105B9F1B0F48133910509F47DC0BA
:1014100048F48932910509F46DC08A32910509F4C6
:101420007BC008958533910509F45FC08933910528
:1014300009F10895833E9105D9F138F4803E910574
:1014400029F1823E910579F10895863E9105D9F101
:10145000873E910509F43EC0843E910541F52091F7
:101460009E0421FF24C080919D0484FD19C087EE55
:1014700090E0089520919D04237009F05AC02091B6
:101480009E0423FF14C089E290E0089520919D04FA
:1014900020FD38C030919E0430FF09C024FF43C0B6
:1014A00090E080E0089520919D0422FDF7CF0895FB
:1014B00020919D0422FD3AC030919E0430FD39C038
:1014C00024FFF5CFEDCF20919D0423FFF0CF24FD25
:1014D000E7CFCDCF20919D0423FD2EC030919E04F7
:1014E00031FFEECF84EE90E0089520919D0425FF1A
:1014F000DECFC9CF20919D0425FD21C020919E04FF
:1015000023FFD5CF89E390E0D2CF20919D0426FF21
:10151000CECF8AE290E0089520919D0426FFC7CFA8
:1015200081E390E0089583EE90E0089582EE90E0EC
:10153000089580EE90E0089586EE90E0089585E3AA
:1015400090E008951F93CF93DF930E94000AEC016F
:10155000C11580E5D807F0F5C11580E4D80708F07B
:101560009CC0C03ED10520F5CD3CD10508F082C01D
:10157000C83AD10578F4C53AD10508F073C0C13036
:10158000D10519F1209709F1C430D105F0F4D0E06C
:10159000C0E01BC0C33CD105D0F7C85AD0E0CC0F87
:1015A000DD1FC05BDE4F0990D881C02DD4640DC013
:1015B000C11580E2D80708F0D1C0C11581E0D80775
:1015C00008F05AC0C83ED10510F7CE01DF91CF9187
:1015D0001F910895C03682E5D80718F5C03482E51A
:1015E000D80708F06BC0C03282E5D80708F05FC0AA
:1015F000C11582E5D80708F497C02C2F26952695AB
:1016000080E2289F900111248C2F8370C1E0D0E0EC
:1016100002C0CC0FDD1F8A95E2F7C22BD32BDD6809
:10162000D4CFC03A82E5D80760F4C03882E5D80745
:1016300008F459C0CF71D0E0DC2FCC27C46FD06A3A
:10164000C4CFC03C82E5D80708F462C0C03E82E542
:10165000D80708F09CCFDC2FCC27CC27DF71C06FD8
:10166000D06AB3CFC55AD0E0C35BDE4FC881D0E0AB
:10167000D064ABCFD065A9CF8D2F0E94B109182FB0
:10168000CE0199270E94000AC12FD0E0DC2FCC2781
:10169000CC27DF71C82BD92B98CFCE0199270E9478
:1016A000000ACC27DF70C82BD92BD06A8ECFCF7120
:1016B000D0E0DC2FCC27C16FD06A87CF2C2F2695A6
:1016C0002695277080E2289F900111248C2F83702B
:1016D000C1E0D0E002C0CC0FDD1F8A95E2F7C22B3B
:1016E000D32BDC6872CF2C2F26952695277080E2AD
:1016F000289F900111248C2F8370C1E0D0E002C09C
:10170000CC0FDD1F8A95E2F7C22BD32BDA685DCFB1
:101710008C2F8F710E94B109C82FD0E0DC2FCC270D
:10172000CC27DF71D06251CF8C2F8F710E94B1090D
:1017300055E0D695C7955A95E1F7CF70D0E0DC2FEC
:10174000CC27282F30E084FF05C044E0220F331F50
:101750004A95E1F7C22BD32BD06937CF8D2F8F71EC
:101760000E94B109182FCE0199270E94000AC12FAB
:10177000D0E0DC2FCC27CC27DF71C82BD92BD2CFE0
:10178000809590914402982390934402089580910B
:10179000440290911B02892B90911A02992391F097
:1017A000892B90914C01992371F090919D0497FFA2
:1017B0000AC09EE120EE31E040E0915040F441113A
:1017C00010921A02089596E028ED31E0F5CFF90164
:1017D00051919F01552389F34F5FEFCF8091F4041E
:1017E0009091BB04981301C008958F5F8770FACF62
:1017F000292F983078F5863068F590E036E0239F01
:10180000800D911D1124682F677023E096958795B0
:101810002A95E1F7FC01EE0FFF1FE80FF91FE050DA
:10182000FE4F50E040E080E0219130E0062E02C003
:10183000369527950A94E2F721703327042E01C0CC
:10184000220F0A94EAF7822B4F5F5F4F4330510516
:1018500059F7089580E00895292F983098F586303B
:1018600088F590E036E0239F800D911D1124282FEC
:10187000277041E001C0440F2A95EAF723E09695CE
:1018800087952A95E1F7FC01EE0FFF1FE80FF91F7E
:10189000E050FE4F30E020E070E05191DF01119701
:1018A000CB01022E02C0969587950A94E2F78170CB
:1018B00081958527842385278C932F5F3F4F233085
:1018C000310559F7089580939202089590919202FC
:1018D00021E030E0F90101C0EE0F8A95EAF7D90165
:1018E00002C0AA0FBB1F6A95E2F7EA2B01C0220FC4
:1018F0004A95EAF7892F8E23E81305C0292B822FFA
:101900000E94630C089520952923F9CF21E030E04F
:1019100001C0220F8A95EAF72095809192028223D6
:101920000E94630C089590911902809589238093F9
:101930001902282F277069F4891759F090919E0495
:1019400092FF07C08695869586950E94860C109218
:101950001902089521E030E001C0220F8A95EAF7CC
:1019600080919202822B0E94630C0895809345021D
:101970000895982F92959F7011F0892F94E0282F49
:101980002695269511F09E5F822F869509F09F5F20
:10199000892F0895CF93DF93682F81E06A3019F083
:1019A0006D3031F480E00E94580DDF91CF910895A1
:1019B000809101079091020726E0FC01ABEFB6E0B1
:1019C00001900D922A95E1F7603E08F458C026E098
:1019D000FC0111922A95E9F7C0910107D091020705
:1019E00046E050E0BE018BEF96E00E94B6329E01C9
:1019F0002B5F3440892B41F1C90145E096958795CD
:101A00004A95E1F741E050E0BA0102C0660F771F46
:101A10008A95E2F7CB016091F9047091FA04862B64
:101A2000972BB9016B5F7F4FE5E076956795EA9557
:101A3000E1F702C0440F551F6A95E2F7842B952BFE
:101A40009093FA048093F9042A5F3F4F4091F80481
:101A5000642F70E0C9010E947931481B463010F4B0
:101A6000240F311D211572E0370710F030E020E01F
:101A700025503B4F309302072093010796CFF6E0A5
:101A80006F9FB0011124635D784F46E050E00E94E3
:101A9000A032A2CFCF93DF93EC01FE01849181119C
:101AA00003C0DF91CF9108950E94CA0C2196F5CF13
:101AB000CF93382FE0910107F0910207EB5FF440DC
:101AC0002091F804622F70E0CF010E947931281B29
:101AD000822F332361F066E00E94C431C82FC150C9
:101AE00010F4CF91089580E20E94CA0CF8CF9F01B4
:101AF000280F311D2115324018F080E0F0E0E0E0C1
:101B00008E0F9F2F911D85509B4F909302078093BE
:101B10000107E7CF0E944A0D81E00E94580D089509
:101B200080914C01882359F180919D0487FF27C043
:101B30000E94C70B8093DF0140E250E06CE172E04D
:101B40008EED91E00E94B632892BC1F080E2EEED7D
:101B5000F1E0ACE1B2E001900D928A95E1F7E091FD
:101B60009904F0919A04309749F086E08093DE0161
:101B70000480F581E02D8EED91E0099508950E9495
:101B8000C70B8093D60148E050E06CE372E086ED2D
:101B900091E00E94B632892B89F388E0E6EDF1E00E
:101BA000ACE3B2E001900D928A95E1F7E0919904DF
:101BB000F0919A04309711F30280F381E02D86EDC5
:101BC00091E0DBCF1092440280914C018823C1F058
:101BD00080919D0487FF14C0E0EEF1E08EE1DF010B
:101BE0001D928A95E9F790E080E00E948C0890E0D1
:101BF00080E00E94670810921B020E94900D0895D9
:101C0000E8EDF1E086E0EBCFAAE2B0E0EAE0FEE04A
:101C10000C949C3183EB94E02091F100DC012D9336
:101C2000CD01B4E08B3B9B07B9F78091B4048330BE
:101C300009F472C0B8F4813009F449C0823009F463
:101C4000B3C08091E80083FF8BC28091B304909170
:101C5000B4049A3008F084C2E92FF0E0E757FC4C56
:101C60000C94F2318A3009F48EC08B3009F471C0C3
:101C7000893039F78091B304813219F78091B70424
:101C80009091B804009711F00297D9F68091E8007E
:101C9000877F8093E8008091E80082FF38C09091B0
:101CA000F3008091F200029731F48091F1008130CD
:101CB00011F0863021F48091F1008093A604809188
:101CC000E8008B778093E8000E94DC06BACF809111
:101CD000B304813A09F0B5CF8091E800877F809303
:101CE000E8008091B7049091B804892B61F468E012
:101CF00087EA94E070E00E9488078091E8008B7783
:101D00008093E8009ECF60E090E080E0F3CF809188
:101D1000B1048111C0CF95CF8091B304813A09F00D
:101D200090CF8091B7049091B804892B09F089CFA6
:101D30008091E800877F8093E8008091E80080FF31
:101D4000FCCF80914C018093F1008091E8008E7768
:101D5000B9CF8091B304813209F073CF8091B70479
:101D60009091B804892B09F06CCF8091E800877FAF
:101D70008093E8000E94DC068091B50480934C01BA
:101D80000E94E20D5ECF8091B304813209F059CFF9
:101D90008091E800877F8093E8000E94DC068091B4
:101DA000B6048093A5044DCF8091B304813A09F025
:101DB00048CF8091E800877F8093E8008091E80019
:101DC00080FFFCCF8091A504BECF803899F0823887
:101DD00009F0C6C18091B7048F70873008F0C0C188
:101DE0008093E9008091EB0085FB882780F91092B1
:101DF000E90006C08091AF049091B0049111826017
:101E00009091E800977F9093E8008093F100109202
:101E1000F1008091E8008E779FC1882309F48DC17D
:101E2000823009F09DC18091B504811190C18091EB
:101E3000B7048F702FEF280F263008F091C18093E0
:101E4000E9002091EB0020FF82C1933031F48091B2
:101E5000EB0080628093EB007AC19091EB0090617F
:101E60009093EB0021E030E001C0220F8A95EAF761
:101E70002093EA001092EA008091EB008860EACF9C
:101E800081116EC11091B5041F778091E3008078B5
:101E9000812B8093E3008091E800877F8093E800A6
:101EA0000E94DC068091E80080FFFCCF8091E30077
:101EB00080688093E30082E0111183E08093B10495
:101EC0004FC18058823008F04BC12091B504309149
:101ED000B6042C3DE3E03E07A1F583E08A838AE265
:101EE00089834FB7F894DE01139620E03EE051E27B
:101EF000E32FF0E050935700E49120FF03C0E295F8
:101F0000EF703F5FEF708E2F90E0EA30C0F0C79621
:101F10008D939D932F5F243159F74FBF8091E80037
:101F2000877F8093E8006AE270E0CE0101960E940C
:101F300088078091E8008B778093E80011C1C096F4
:101F4000E7CF8091B7049091B804432F55274330D1
:101F5000510509F44AC078F54130510509F47AC0B9
:101F60008BE590E0ECE9F6E04230510509F0F8C06D
:101F70002091E800277F2093E8002091B904309158
:101F8000BA048217930708F49C0140E0211531053B
:101F900009F065C0411163C08091E80082FDC9CF9E
:101FA0008091B104882329F2853019F28091E800EC
:101FB00083FFF2CFBECF4132510509F43CC042321B
:101FC000510509F0CDC08330910508F0C9C0FC016E
:101FD000EE0FFF1FE853FE4F0190F081E02D8B5371
:101FE0009E4FDC018C9190E01AC0332721303105DF
:101FF000D1F02115310561F02230310509F0B0C072
:10200000E9E0F7E0E4918E2F90E0E9E0F7E007C027
:10201000E9E2F7E0E4918E2F90E0E9E2F7E0009743
:1020200009F49EC0A5CFE7E1F7E0E4918E2F90E0A0
:10203000E7E1F7E0F4CF8330910508F091C0880F15
:10204000991FFC01E253FE4F0190F081E02D89E0E1
:1020500090E08ECF82E190E0E7EFF6E089CF8091CB
:10206000B104882309F465CF853009F462CF8091EB
:10207000E80083FD5ECF8091E80082FD8DCF8091E6
:10208000E80080FF83CF9091F3008091F20021154A
:10209000310519F08830910550F041E0089709F0BA
:1020A00040E08091E8008E778093E8006FCF449104
:1020B0004093F1003196215031090196E8CF8038E4
:1020C00009F04EC08091E800877F8093E8008091FE
:1020D000B2048093F1009DCE811142C01091B504ED
:1020E0001230F0F58091E800877F8093E80010932C
:1020F000B2040E94DC06112311F084E005C0809137
:10210000E30087FDFACF81E08093B10442E061EC07
:1021100081E00E94FB0642E261EC84E00E94FB0643
:1021200042E261EC82E00E94FB0642E260EC83E066
:102130000E94FB068091B10413C08091B5048130E8
:1021400079F481E0933009F080E08093B00410923C
:10215000E9008091E800877F8093E8000E94DC0618
:102160008091E80083FF0AC08091E800877F809318
:10217000E8008091EB0080628093EB00AA96E3E098
:102180000C94B831882321F00E94C00B0E94900D5E
:102190000895882339F090914402982B909344023B
:1021A0000E94900D0895882339F19CEF980F913A81
:1021B00028F40E9408080E94900D089590E2980F5C
:1021C000983050F4877091E001C0990F8A95EAF732
:1021D000892F0E94C00BEFCF9BE5980F933028F416
:1021E00090E080E00E948C080895885A8B3120F49A
:1021F00090E080E00E9467080895CF93C82F88235D
:10220000B9F18CEF8C0F813AA8F580914C018823AD
:1022100001F180919D0487FF1CC0EC2FE695E695A7
:10222000E695F0E0E252FE4F828190E04C2F47703D
:1022300021E030E002C0220F331F4A95E2F78223EB
:102240009323892B81F08C2F0E9408080E94900D07
:102250000AC0E8EDF1E08EED91E02191C21799F30B
:102260008E179F07D1F78C2F0E9433080E94900D84
:10227000CF91089580E28C0F883068F4C77021E018
:1022800030E001C0220FCA95EAF780914402822B08
:1022900080934402EBCFEBE5EC0FE33040F4F0E049
:1022A000E35BFE4F808190E00E948C08E1CFC85A2A
:1022B000CB31F0F6EC2FF0E0EE0FFF1FE05BFE4FAE
:1022C000808191810E946708D3CF0F931F93CF9392
:1022D000DF938B01EA019091B104943061F5809312
:1022E000E9008FEF9091E800815095FD06C095EDD3
:1022F0009A95F1F700008111F5CF8091E80085FFF4
:102300001AC00E94AB06811111C08091E80085FDC2
:1023100006C08091E8008E778093E800F2CFF80144
:1023200081918F018093F100219779F78091E800E6
:102330008E778093E800DF91CF911F910F910895E0
:1023400043E050E0BC0184E00E946511089540E242
:1023500050E0BC0184E00E9465110895CF93DF93A3
:10236000EC0148E050E0BC0181E00E94651188E08A
:10237000FE01A7EAB4E001900D928A95E1F7DF91A2
:10238000CF910895609148018091870480FF20C01B
:102390008091470143E0849FC001112489529D4FE1
:1023A000539A2BB1277F3BB138605FB7F894FC019B
:1023B000649FE00DF11D1124BF0168177907D1F466
:1023C0005FBF8FE594E00197F1F700C0000008952A
:1023D0008091490190914A0123E0829FF0011124EC
:1023E000E952FD4F8917A0F61182108212828F5F89
:1023F0003396F8CFFC014191CF01E8E03BB90000F2
:1024000000C047FF2BB9440F000000C000C000C04F
:102410002BB900C0EA9591F7D0CF0F931F93CF93BC
:10242000DF93EC0110E000E090914B019017110652
:1024300009F06CF40E94C2118C8190E001968170C9
:1024400099278C83DF91CF911F910F91089520914F
:102450004901A801420F511D9A01220F331F240F79
:10246000351F29523D4F4C81609189048091880429
:1024700096959017110651F04CF0442349F0409185
:102480008A040E94E5080F5F1F4FCECF4423B9F3A3
:1024900040E0F7CFB0E0A0E0E0E5F2E10C9493314A
:1024A000EC014C81042F10E09801D8010E94783390
:1024B0009B01AC010E9443334B015C01E0E2F0E080
:1024C000E01BF10BA5E5B0E0AC019B010E9443339A
:1024D0006B017C019F01DF010E94FF319B01AC0178
:1024E0000E944E339B01AC01280D391D4A1D5B1D16
:1024F000C701B6010E945633F22E822F90E039E2D6
:102500003F1520F143E0249F900111243595279534
:10251000122F109500E085E5E82EEF1880914B0111
:10252000081718F10E94C2119C8181E0992319F0CB
:10253000903219F48FEF8093460180914601890F04
:102540008C83CDB7DEB7ECE00C94AF3125E530E0FD
:10255000B901681B790B9B01220F331F260F371F10
:1025600037FFD4CF2F5F3F4FD1CF8E2D01FD8F2D61
:1025700020914901622F600F7727771F9B01220F5F
:10258000331F260F371F29523D4F412F6091890479
:102590000E94E5080F5FC2CFEF92FF920F931F9347
:1025A000CF93DF93EC018C81811109C081E08C8392
:1025B0001092D50292E0909345018093440180915E
:1025C000490190914A0123E0829FF0011124E952D0
:1025D000FD4F891758F110E003E060914B01161789
:1025E00058F10E94C211809144012091D502280F18
:1025F0002093D50290914501980F909345011916AB
:1026000054F4022E000C330B40914B014150550BFA
:102610002417350734F0819580934401813009F403
:102620001C82CDB7DEB7E6E00C94B5311182108282
:1026300012828F5F3396CDCFE12EF12C70E0C7016F
:102640000E94DE3120914901820F482F50E02091F5
:10265000D502022E000C330BE216F306BCF02091DB
:102660004501022E000C330B2E153F057CF0809F98
:102670009001112429523D4F40918A0460918904B0
:10268000809188040E94E5081F5FA7CFFA01EE0F32
:10269000FF1FE40FF51FE952FD4F118210821282D5
:1026A000F3CFB0E0A0E0E7E5F3E10C949331EC0167
:1026B0008A81BB24BA9480FD02C0BB24B394A0904D
:1026C0004B018C81811109C081E0B81220C08FEFCD
:1026D0008A0D8093D40281E08C83F12CE12C46E3B7
:1026E000942EEA14B8F00E94C2118091D40291E0B5
:1026F000B91257C0811150C080914B018150809315
:10270000D4021C82CDB7DEB7ECE00C94AF3110924E
:10271000D402E1CF009149010E0D1F2D111DC801FA
:10272000880F991F080F191F09521D4FF8011182B8
:102730001082128234E0C32ED12C812C8091D402DD
:10274000880D87332CF1692D0E94D031892F082EF6
:10275000000C990B8E159F0591F480918A048C9D35
:10276000A0018D9D500D1124559547955595479580
:10277000980160918904809188040E94E5088B0C7F
:10278000F1E0CF1AD108D1F68FEFE81AF80AA9CFF5
:1027900087FFDDCF8A0DDBCF81508093D402BC82CE
:1027A000B1CF90E0019660914B0170E00E94DE3164
:1027B0008093D4028C83A6CFEF92FF921F93CF9386
:1027C000DF93EC0110E0EE24EA94F12C60914B01D0
:1027D000161770F00E94C2119A818C8190FF27C059
:1027E0008F5F8C83DF91CF911F91FF90EF900895C1
:1027F00020914901422F410F5527551FCA019A01C7
:10280000220F331F280F391F29523D4F70E0C70197
:102810000E94DE31962F8C8140918A046091890458
:10282000199F800D11240E94E5081F5FCFCF8150B2
:10283000D8CF9091870490FF0EC0909149012091CC
:102840004A0133E0939FF0011124E952FD4F9217A2
:1028500018F00E94C21108958183608342839F5FB4
:102860003396F5CFA3E0B0E0E8E3F4E10C949B31BC
:102870008C018091D60281110AC09E012F5F3F4FCB
:1028800042E36FEF0E94E5088A818093D602F80147
:102890006481613069F08091D60240E0662361F086
:1028A00040E0623011F44091D60280E060E004C064
:1028B0006091D60240E080E00E941914F801848102
:1028C00090E0019663E070E00E94DE3184832396FD
:1028D000E4E00C94B731A3E0B0E0E1E7F4E10C945C
:1028E0009D319091870490FF0AC09E012F5F3F4F5A
:1028F0000E94E5084B8169818A810E941914239600
:10290000E2E00C94B931CF93DF93EC01E7E8F4E017
:10291000438162818C810E946B148C818F5F8C83D8
:10292000DF91CF910895CF93DF93EC01EC81F0E03C
:10293000E85EFB4F4491E7E8F4E0628181810E9408
:102940006B148C818F5F8C83DF91CF910895E7E8C2
:10295000F4E080818E7F80830E94C808E1EDF2E080
:102960008281816082830E94C2110895B0E0A0E05C
:10297000ECEBF4E10C9495317C015B016A018091F0
:10298000760201E010E08A3010F40AE010E0C1E0C5
:10299000D0E0B501C701F6010995811104C0219667
:1029A0000C171D072CF4CDB7DEB7EAE00C94B1315B
:1029B000CC9F9001CD9F300D300D112490E080E030
:1029C00045E34A95F1F70000019682179307C1F796
:1029D000E0CF1F93CF93DF93182FD0E0C0E089336F
:1029E00011F4C0E5D0E0812F0E94FD10209739F44A
:1029F000812F0E94D310DF91CF911F9108958FE90D
:102A00009FE00197F1F700C000002197EFCF0E94EF
:102A1000E20D2FEF84E39CE0215080409040E1F7ED
:102A200000C0000088E19AE00FB6F894A895809362
:102A300060000FBE90936000FFCFCF93C82F6FEF61
:102A4000811164E285E290E00E94F0326FEFC111E3
:102A500062E086E290E00E94F0326FEFC11163E025
:102A600087E290E00E94F032CF910895CF93DF93F8
:102A7000C9EAD1E060E0CE010E94F0322196C11592
:102A800084E0D807B9F7DF91CF9108951F93CF93D2
:102A9000DF93122F8430E0F46830D0F44630C0F475
:102AA000C42FD0E0CC0FDD1F9CE0699FC00DD11D6D
:102AB000112490E6899FC00DD11D1124632FCE01F2
:102AC00089960E94F032612FCE018A960E94F032E0
:102AD000DF91CF911F910895AF92BF92CF92DF9275
:102AE000EF92FF921F93CF93DF938CE1C82E85E086
:102AF000D82ED0E07601C0E014C0F50125913491C4
:102B0000412F6C2F8D2F0E94461582E0A80EB11C1C
:102B10001F5F163091F78CE0E80EF11CCF5FC830D4
:102B200019F0570110E0E9CFDF5F80E6C80ED11C35
:102B3000D43001F7DF91CF911F91FF90EF90DF909C
:102B4000CF90BF90AF90089580E00E941D1560E087
:102B500088E290E00E94F0320E946C150E943615C7
:102B600081E00E941D15089585E290E00E94CC321C
:102B7000843289F486E290E00E94CC32823059F4AB
:102B800087E290E00E94CC3291E0833009F090E03F
:102B9000892F8170089580E0FCCF0F931F93CF930E
:102BA000DF93843030F5683020F5463010F5C42FBF
:102BB000D0E0CC0FDD1F2CE0629FC00DD11D112491
:102BC00030E6839FC00DD11D1124CE0189960E944D
:102BD000CC32082F10E0102F0027CE018A960E94D9
:102BE000CC329801282BC901DF91CF911F910F9111
:102BF000089590E080E0F8CF462F783040F46630BA
:102C000030F4843020F4672F0E94CD15089590E0B1
:102C100080E00895CF92DF92FF920F931F93CF939E
:102C2000DF936C010091920280914502082BC3E072
:102C3000D0E010E0FC2EC8010C2E02C095958795BF
:102C40000A94E2F780FD0CC02197A0F7F12C8F2D9C
:102C5000DF91CF911F910F91FF90DF90CF9008955A
:102C6000B6018C2F0E94FC150E94A20A019761F305
:102C7000EECFCF93DF93EC010E940A16BE010E94B3
:102C8000FC150E94A20ADF91CF910895FC012481D6
:102C90002223C1F0808191810E94391692959F7004
:102CA000963091F058F4925F9F70923058F4803FC4
:102CB00019F030F4883E30F481E008959A5FF4CF43
:102CC000843FD1F380E00895883EB0F3813FD1F78F
:102CD000F3CFA6E0B0E0EFE6F6E10C949C31498337
:102CE0005A8349815A819923A1F0222391F0CA0184
:102CF0000E940A16182F682F89819A810E942C0C35
:102D000069817A81812F0E94FC152696E3E00C945C
:102D1000B831CA010E94F80B182FF2CFB0E0A0E042
:102D2000E4E9F6E10C9497316C017B0164E670E014
:102D300088E70E94D72E8C01E601EC0CFD1C17FDE4
:102D40000BC0FE01849164E670E00E94432F8C0169
:102D50002196CE15DF0599F70E94B92F81E0011564
:102D6000110509F080E0CDB7DEB7E8E00C94B3318F
:102D70008091930490919404911103C091E089276C
:102D80000895882369F062E070E08AE195E00E948E
:102D90008E16811103C080919304089510929304BC
:102DA00080919304EBCFCF93C091930480919404CE
:102DB0008823D1F00E94FC07605A75418F4F9F4FC6
:102DC00060938F0470939004809391049093920485
:102DD000C11108C062E070E088E195E00E948E16A3
:102DE000811105C0C09193048C2FCF91089581E08B
:102DF00080939304F7CFB0E0A0E0E1E0F7E10C941A
:102E00008F31FC016280448081E08483E8E1F4E05A
:102E10007490E7E9F4E0E491C0918A04C695C15842
:102E2000D0E0CC0FDD1FCD2FDD27812C75E0972E54
:102E3000AA24AA94B12C55245A94E719EE2EF12C09
:102E400080914B01881638F00E94C211CDB7DEB7D1
:102E5000E0E10C94AB31C82CD12C82E0861568F0EF
:102E60009C9CF0019D9CF00D1124E758FC4F809133
:102E700088048083809189048183411023C09C9CB5
:102E8000F0019D9CF00D1124E758FC4F1382128233
:102E900020914901C601820F911D9C01220F331F11
:102EA000280F391F29523D4F9C9CF0019D9CF00D2D
:102EB0001124E758FC4F4281618180810E94E5081E
:102EC0008394BECF9C9C80019D9C100D11240758BB
:102ED0001C4FF80183818823F1F081508383859D05
:102EE000C0011124648170E00E947931FB01FF2749
:102EF000E85EFB4F8491E82FE719E59DC00111249E
:102F0000B7010E94793180918A04689FB001112431
:102F1000F8017283BDCF0E949032B5010E94DE316C
:102F20008C179D070CF0B4CFF2E0F61598F40E94D0
:102F30009032B5010E94DE31F80180830E94903208
:102F4000209189042695622F70E00E94DE31280FBF
:102F5000F80121839C9CF0019D9CF00D1124E75801
:102F6000FC4F128280918A04893C58F088EC9C9C2A
:102F7000F0019D9CF00D1124E758FC4F848383835E
:102F800087CF8431A0F784E1F2CFB0E0A0E0EBEC92
:102F9000F7E10C94933149015A016B017C010E94C5
:102FA000CF088401A4016A2D7B2D88E090E00E9467
:102FB000023394014A2D5B2DB601C70100E20E9445
:102FC0002932622F84E290E00E94F032CDB7DEB762
:102FD000ECE00C94AF31A3E0B0E0E1EFF7E10C944A
:102FE0009631082FE62EF42EC22E9091870490FF82
:102FF00041C020918804281308C080918904861359
:1030000004C080918A04841729F08091D3028260E1
:103010008093D302E92FE695E695AE2FB0E0A65651
:10302000BE4F8C918093D1029C7F943039F59E01E4
:103030002F5F3F4F4F2D6E2D802F0E94E5084B8153
:1030400069818A810E94191400938804E09289049E
:10305000F0928A04CC2071F02091870460918B0457
:1030600070918C04302FA70180918D0490918E0473
:103070000E94C5172396E9E00C94B231823019F40E
:10308000F0908A04E1CF8630A1F1893091F1893145
:10309000D9F6E9516E2F6170B62EE695F0E0ED5E3F
:1030A000FB4F1491D12C60914B01D61618F00E9461
:1030B000C211CACFD19EC001112470E00E947931A3
:1030C000802FB11014C0860F20914901622F6D0D21
:1030D0007727771F9B01220F331F260F371F295297
:1030E0003D4F4F2D6E2D0E94E508D394DCCF861BFB
:1030F000EBCF022FA9CFE7E8F4E0438121E1421BA7
:1031000008F440E021E0628181810E94EB1708957C
:10311000E7E8F4E0438121E1420F08F44FEF21E0BA
:10312000628181810E94EB170895E7E8F4E06281F3
:1031300021E1621B08F460E021E0438181810E946B
:10314000EB170895E7E8F4E0628121E1620F08F4EB
:103150006FEF21E0438181810E94EB170895E7E83A
:10316000F4E0818121E04381628188500E94EB1765
:103170000895E7E8F4E0818121E043816281885F7E
:103180000E94EB17089580918B04882319F08150D9
:1031900080938B04209187043091880440918904A6
:1031A00050918A0460918B0470918C0480918D04FD
:1031B00090918E040E94C517089580918B048330EE
:1031C00018F48F5F80938B042091870430918804DA
:1031D0004091890450918A0460918B0470918C0411
:1031E00080918D0490918E040E94C5170895E7E8A0
:1031F000F4E085E0808311828FEF828382E3838312
:103200001482A1EDB2E012968C911297836012960F
:103210008C93758125E030E04FEF52E360E08681CA
:1032200097810E94C517089590919E0492FB2227D2
:1032300020F9281779F080FB92F990939E04609111
:103240009D0470919E0484E090E00E940E3382E021
:103250000E94930C089590E080E00E94DA32863E4E
:103260009E4F19F40E94B415089580E00895A4E0DB
:10327000B0E0EDE3F9E10C949C3140915A02509199
:103280005B0260915C0270915D022FB7F8948091AF
:10329000A0049091A104A091A204B091A3042FBF17
:1032A000841B950BA60BB70B11E084369105A10585
:1032B000B10570F10E9497096E5F7F4F8F4F9F4F4E
:1032C00069837A838B839C83809115019091160189
:1032D000825A9D4F4091140150E04530510510F045
:1032E00044E050E0BE016F5F7F4F0E94C33282E036
:1032F00090E00E940331182F882351F00E94FC07B0
:1033000060935A0270935B0280935C0290935D021B
:10331000812F2496E3E00C94B831ABE0B0E0E3E910
:10332000F9E10C949D3188E0E7E8F4E0DE011196C4
:1033300001900D928A95E1F78091D1029091D2028D
:10334000A091D30289879A87AB872B85409172021F
:103350005091730260917402709175023FB7F894B6
:103360008091A0049091A104A091A204B091A30423
:103370003FBF841B950BA60BB70B84369105A105A7
:10338000B10510F4222319F180911D0190911E01C5
:10339000825A9D4F40911C0150E04C30510510F075
:1033A0004BE050E0BE016F5F7F4F0E94C33283E06D
:1033B00090E00E940331882369F00E94FC0760932B
:1033C000720270937302809374029093750210924C
:1033D000D30281E02B96E2E00C94B931EF92FF9298
:1033E0001F93CF93DF9300D000D00F92CDB7DEB7FD
:1033F0007B0190E080E00E940331182F882309F4BC
:1034000087C04091070150E04115510511F041E09E
:1034100050E06091080170910901625A7D4FCE0120
:1034200005960E94C3324091560250915702609116
:103430005802709159022FB7F8948091A00490918E
:10344000A104A091A204B091A3042FBF841B950BEB
:10345000A60BB70B84369105A105B10540F48FE5A5
:1034600092E00E9475069D81891709F451C081E0A0
:1034700090E00E94033181111AC010E08091520245
:1034800090915302A0915402B0915502F7018083AC
:103490009183A283B383812F0F900F900F900F9091
:1034A0000F90DF91CF911F91FF90EF900895409181
:1034B0000F0150E04530510510F044E050E06091BC
:1034C000100170911101625A7D4FCE0101960E9448
:1034D000C3328FE592E00E9475069D818913CDCF9E
:1034E0000E94FC0760935602709357028093580223
:1034F0009093590289819A81AB81BC818093520259
:1035000090935302A0935402B093550211E0B6CFAA
:1035100080915F0290916002A0916102B09162027D
:1035200089839A83AB83BC831111E4CFA7CFA8E032
:10353000B0E0EDE9FAE10C949D3166EE7EEF90E0AB
:1035400080E00E940E3360E082E090E00E94F03262
:1035500081E08093450261E083E090E00E94F032D8
:1035600060E074E184E090E00E940E3360E086E069
:1035700090E00E94F0326FEF87E090E00E94F0321E
:1035800040E050E0BA0188E090E00E94023360E041
:1035900084E290E00E94F03260E087E190E00E94D7
:1035A000F03260E08CE090E00E94F03260E08DE06C
:1035B00090E00E94F03219821A821B821C821D82C6
:1035C0001E821F82188648E050E068E170E0CE015C
:1035D00001960E94E03240E050E0BA0180E290E0C3
:1035E0000E94023380E00E941D150E94A41540E055
:1035F00050E0BA018FE090E00E94023340E050E0DA
:10360000BA0183E190E00E9402332896E2E00C9434
:10361000B9311F920F920FB60F9211242F933F933F
:103620004F935F936F937F938F939F93AF93BF93CA
:10363000CF93DF93EF93FF93D091E900DF708091F8
:10364000EC00C82FC17080FDC0E81092E9008091A5
:10365000F000877F8093F00078940E94040E10920F
:10366000E9008091F00088608093F000CD2BCF704E
:10367000C093E900FF91EF91DF91CF91BF91AF919E
:103680009F918F917F916F915F914F913F912F917A
:103690000F900FBE0F901F9018951F920F920FB6AC
:1036A0000F9211242F933F934F935F936F937F93C8
:1036B0008F939F93AF93BF93EF93FF938091E1001C
:1036C00082FF09C08091E20082FF05C08091E10085
:1036D0008B7F8093E1008091DA0080FF24C080918D
:1036E000D80080FF20C08091DA008E7F8093DA00BE
:1036F0008091D90080FF9DC080E189BD82E189BDB4
:1037000009B400FEFDCF81E08093B1048091A40450
:10371000811109C00E948C060E942D078091E20051
:1037200084608093E2008091E10080FF17C0809167
:10373000E20080FF13C08091E2008E7F8093E20060
:103740008091E20080618093E2008091D8008062E5
:103750008093D80019BC85E08093B1048091E1008A
:1037600084FF2BC08091E20084FF27C080E189BDE7
:1037700082E189BD89B5982F917080FFFBCF809140
:10378000D8008F7D8093D8008091E1008F7E809358
:10379000E1008091E2008F7E8093E2008091E20060
:1037A00081608093E2008091B204882309F447C0CD
:1037B00084E08093B1048091B1048091E10083FFA3
:1037C00027C08091E20083FF23C08091E100877FC2
:1037D0008093E10082E08093B1041092B204809162
:1037E000E1008E7F8093E1008091E2008E7F8093E4
:1037F000E2008091E20080618093E20042E060E0BC
:1038000080E00E94FB068091F00088608093F000C9
:10381000FF91EF91BF91AF919F918F917F916F91A8
:103820005F914F913F912F910F900FBE0F901F907E
:10383000189519BC1092B1041092A40474CF809111
:10384000E30087FD93E09093B104B5CF78941F9285
:103850001FB61F9211248F939F93AF93BF938091B4
:10386000A0049091A104A091A204B091A304019698
:10387000A11DB11D8093A0049093A104A093A20464
:10388000B093A304BF91AF919F918F911F901FBEE2
:103890001F9018959C014FB7F8948091A0049091C7
:1038A000A104A091A204B091A3044FBF821B930B6B
:1038B00008952FB7F8948091A0049091A104A0914D
:1038C000A204B091A3042FBF08950F931F93CF9329
:1038D000DF93C62FD42F022FFC0185818823A9F006
:1038E0006093F7040E94591C9093F6048093F504AA
:1038F000C77081E001C0880FCA95EAF70E94C9101D
:10390000DF91CF911F910F9108958091F704681373
:1039100032C08091F5049091F6040E944A1C883CC4
:10392000910548F510E21D0FCD17B9F080E28C0F1C
:10393000883040F4C77081E001C0880FCA95EAF76B
:103940000E94C210183048F481E09D2F977001C08A
:10395000880F9A95EAF70E94C910802F0E94E914F7
:10396000183070F6D77081E001C0880FDA95EAF759
:103970000E94C210C5CFC77081E001C0880FCA95F0
:10398000EAF7F6CF80919504882319F00E94591C1C
:1039900008950E949709CB01089560918704669568
:1039A000669570E04BE050E089E391E00E94A93217
:1039B000892B19F481E08093D2020E94C21C90935B
:1039C000CC028093CB028091D30284608093D30297
:1039D00008959091870490FF3AC09370811138C088
:1039E0009460909387048091D30281608093D30286
:1039F000662391F0209187043091880440918904D6
:103A000050918A0460918B0470918C0480918D0494
:103A100090918E040E94C517609187046695669503
:103A200070E04BE050E089E391E00E94A932892BDD
:103A3000B9F00E94C80881E08093CE0220E0409156
:103A40008A0460918904809188040E94EB1708958C
:103A50008B3210F0986AC5CF880F880F982BC1CF92
:103A60000E94CD1CE8CF8091870486958695815071
:103A700009F48AE261E00E94E91C089580918704BC
:103A8000869586958F5F8B3208F081E061E00E9419
:103A9000E91C08959091870490FF09C0969596952A
:103AA000981728F0961718F40E943E1D089561E0BB
:103AB0000E94E91C0895A8E0B0E0E1E6FDE10C9465
:103AC0008F318C01DC0114968C911497882309F4B2
:103AD000B8C021E04C9111965C91119712966C91AF
:103AE000129713967C91139715969C910E946916D4
:103AF0007C01F8019581992309F4C2C597013757D4
:103B00002038310508F036C1FFE0FE1508F489C001
:103B10008FEF93E00E94CC32811183C069EAA62E18
:103B2000BB24B394E11047C0FE01339686E0DF0169
:103B30001D928A95E9F75AE0452E7501BFEFEB1A01
:103B4000FB0AC5010E94CC3289831A82882309F4BA
:103B500068C0813009F079C06501E2E0CE0ED11C69
:103B6000C7010E94CC328A83882309F45AC09FEF90
:103B7000980F933070F5F3E0AF0EB11CC6010E94B0
:103B8000CC328B83882309F44CC01C82DE01119651
:103B90007D01F7012081222381F2213009F095C0B7
:103BA00091818281913009F052C0F2E0EF0EF11C58
:103BB0000E94E91453C0A11424E0B20691F1C5019A
:103BC0000E94CC32811101C0EA943FEFA31AB30ADC
:103BD000A9CF56018430D1F642E0E42EF12C5601F3
:103BE0002FEFA21AB20AC6010E94CC32E1E0F0E047
:103BF000EC0FFD1FEE0DFF1D8083882391F08C37A5
:103C000041F4E2E0F0E0EC0FFD1FEE0DFF1D10822D
:103C1000BDCF3FEFE31AF30A650187E0E816F10430
:103C2000F1F680911902877061F0D80115968C9198
:103C3000882339F080919E0482FF03C082E00E94B5
:103C4000930C2896E0E10C94AB3157019FCF923052
:103C500049F422E0E20EF11C0E94FD10EFEFEE1A93
:103C6000FE0A97CF933031F432E0E30EF11C0E944C
:103C7000D310F4CF943021F08FEFE81AF80AEECF8A
:103C800092E0E90EF11C30E020E0B7016F5F7F4F5A
:103C9000D70111964C918053990B8A30910550F0C1
:103CA00021503109D8F2EFE9FFE03197F1F700C078
:103CB0000000F6CF429EF001439EF00D11249C01BE
:103CC0002E0F3F1F842F7B01E0CFE22FF0E0E15564
:103CD000FE4F5490822F86958695869590E0FC0144
:103CE000E156FE4F64902770712C022E02C075942D
:103CF00067940A94E2F731E063227724FC01E157EC
:103D0000FE4F8490912C022E02C0959487940A94C1
:103D1000E2F7A1E08A229924FC01E158FE4FC49009
:103D2000D12C02C0D594C7942A95E2F7B1E0CB22FA
:103D3000DD246114710419F081EE0E94FD108114DC
:103D4000910419F086EE0E94FD10852D0E94E91461
:103D50008114910419F086EE0E94D310611471044D
:103D600019F081EE0E94D310C114D10409F476CF6A
:103D70008CE21ECF818180939D02808180939C0282
:103D800080E280933101F0929B02E0929A029701C7
:103D900030522115304228F48681807FB1F0F7013E
:103DA0000BC09701305421153041C8F4D801169644
:103DB0008C91807FF70109F0FF27ED33F10528F49E
:103DC000E15DFD4FE491E0933101F701E851FC47DB
:103DD000E730F10578F5ED56FC4C0C94F231970183
:103DE0003A9521153F41D8F29701205A32452032A9
:103DF000310558F3F701E1CF26E241EE61EEC8014B
:103E00000E94651C0ECF27E245EE65EEF8CF26E254
:103E100041EE60EEF4CF27E245EE64EEF0CF26E20D
:103E200041EE62EEECCF27E245EE66EEE8CF28E207
:103E300041E0EBCF1092F704970130572332310560
:103E400008F039C484E090E00E94DA3290939E0436
:103E500080939D04F701E150F047E232F10520F430
:103E6000E656FC4C0C94F23180919D048160809365
:103E70009D0495C080919E04886080939E048FC0AD
:103E800080919D048260F3CF80919D048460EFCF88
:103E900080919D048860EBCF80919E048160EDCF7E
:103EA00080919E048260E9CF80919D048061DFCF84
:103EB00080919D048062DBCF80919D048064D7CF88
:103EC0000E94E20D80919D048068D1CF80919D0475
:103ED0008C60CDCF80919E048360CFCF80919D0474
:103EE0008E7FC5CF80919E04877FC7CF80919D0430
:103EF0008D7FBDCF80919D048B7FB9CF80919D0434
:103F0000877FB5CF80919E048E7FB7CF80919E042E
:103F10008D7FB3CF80919D048F7EA9CF80919D042A
:103F20008F7DA5CF80919D048F7BA1CF0E94E20D54
:103F300080919D048F779BCF80919D04837F97CF45
:103F400080919E048C7F99CF80919D0482FB99275C
:103F500090F921E0922790FB82F990FB83F987CFBB
:103F600080919E04982F909591708E7F892B90FB65
:103F700081F983CF90919D04892F8F7B96FF806478
:103F800076CF0E94E20D90919D04892F97FB87F9CF
:103F900080586DCF61E08EE090E00E94F032609139
:103FA0009D0470919E0484E090E00E940E330E9474
:103FB000E20D37CE60E0EFCF90919D04892F8F7E88
:103FC00094FF806154CF90919D04892F8E7F90FF44
:103FD00081604DCF90919E04892F877F93FF8860E9
:103FE0004CCF85E379C38091FE01811104C089E241
:103FF0000E94080873C385E3FBCF992309F44DC3DE
:10400000B7E7EB16BCE7FB0609F4FBC082E0E8E784
:10401000EE16ECE7FE0609F4F5C033E0E3163CE7E4
:10402000F30609F41CC108F0FBC0E1149CE7F90693
:1040300009F408C1A1E0EA16ACE7FA0609F08DC060
:104040000E9407158091870480FF1EC0282F2E7FB5
:1040500020938704309188044091890450918A0408
:1040600060918B0470918C0480918D0490918E04EA
:104070000E94C5170E94C8088091D3028160809376
:10408000D3020E94C211CDCD81608093870461E08C
:10409000869586950E94E91CC4CD43E35DE16EE3FD
:1040A0007DE10E94C208BDCD4EE35DE163E37DE1A9
:1040B000F8CF4FEA58E169EB78E1F3CF49EB58E1EB
:1040C0006FEA78E1EECF45E958E162EA78E1E9CFBD
:1040D00042EA58E165E978E1E4CF4BE758E168E866
:1040E00078E1DFCF48E858E16BE778E1DACF43ECDD
:1040F00058E16DED78E1D5CF4DED58E163EC78E115
:10410000D0CF61E081E0C6CF65E082E00E944A1D29
:1041100088CD68E086E0FACF6EE089E0F7CF64E111
:104120008FE0F4CF67E185E1F1CF61E088E1B2CFC4
:1041300062E289E1EBCF61E083E2ACCF6AE285E243
:10414000E5CFF7E7EF16FCE7FF0609F463C028E7C1
:10415000E2162CE7F20609F461C0F8018581E080DF
:10416000F180882309F48EC0C7010E940A16D82E58
:10417000682FC7010E942C0CB7018D2D0E94FC15E1
:104180000E94A20A7C01882ED8011596AC90159742
:1041900016969C9092943FE093228091190287702A
:1041A00009F1CA2CAA20F9F08F2D807F803469F0A4
:1041B00080E28E0D8830B0F08F2D807E803229F421
:1041C000B1E0BE1578F4992069F080919E0482FFD9
:1041D00009C082E00E94930C809119028770CC2460
:1041E000C3948111C12CBF2CB2942FE0B222EBE01A
:1041F000EB1508F4AFC0EB2DF0E0E454FC4C0C944C
:10420000F23181E00E94AA0C43E062E081E00E946A
:10421000660C07CD81E00E94860CF6CF82E0FBCFD2
:10422000BBE5EB16BCE7FB0659F1ECE5EE16ECE757
:10423000FE06E1F0FAE5EF16FCE7FF0609F08DCF88
:1042400081E01BC00E94E20D2FEF34E38CE021508F
:1042500030408040E1F700C000000E94EB076FEFA4
:104260007FEF90E080E00E940E33EACE80919E04C2
:1042700082FB882780F991E089270E9414196DCF6D
:1042800080E0FBCFC7010E94F80BD82E75CFFF2D21
:10429000FF70DF2E8F2D807F19F0D29490EFD922FE
:1042A000AA20B9F0DD2069F080E28E0D883010F090
:1042B000811009C080914402D82AD09244020E9401
:1042C000900D8E2D45C080911B02D82AD0921B02E2
:1042D000F6CF8E2D0E94D310DD20E1F180E28E0D0D
:1042E000883010F0811004C08D2D0E94C00B06C0D4
:1042F000D09480911B02D822D0921B020E94900D74
:1043000029C02F2D2F70D22E8F2D807F803219F053
:10431000D29480EFD822882059F031E0831609F436
:1043200081C0AA2009F48DC0992009F44FC0C9CFDB
:1043300080919E0482FD46C0AA20F1F1DD2039F073
:1043400080914402D82AD09244020E94900D80E0CD
:104350000E94FD10AB2DA850BB0B149710F40E94C7
:10436000B108CC20A9F08091190280FD11C0F8019C
:1043700015828695869586950E94AA0CC8010E9492
:104380005B1D809119028695869586950E94860C04
:1043900020E0D8014C9111965C91119712966C9186
:1043A000129713967C91139714968C9114971596E7
:1043B0009C910E94691645CC80E00E94D310DD20BC
:1043C00049F292CFAA20A1F0911004C08D2D0E9435
:1043D000C910C0CF81E09812BDCF80911A029D2DE7
:1043E0009823D91609F4B6CFD82AD0921A02B2CFA0
:1043F0009110B0CF8D2D0E94C21090911A028D2D78
:10440000892329F08D2D8095892380931A0280912C
:10441000FF019D2D982309F49DCFD094D822D092EE
:10442000FF0198CFAA2029F095E0991508F492CFC2
:10443000CDCFA4E0A91508F48DCF8D2D0E94C21018
:1044400089CF9920D1F3B9E38B1213C1EFEFF7EEC7
:1044500023E0E150F0402040E1F700C0000009C136
:104460008F2D86958695837061F0813009F072CF2B
:10447000C7019370A11002C080E090E00E9467081D
:1044800069CFC7019370A11002C080E090E00E9444
:104490008C0860CF8F2D837091F5A1105BCF4E2DCE
:1044A000429546954770440F440F8E2D8F70042E11
:1044B00001C0880F0A94EAF72E2D2071E4FE07C090
:1044C0002FE030E001C0220F4A95EAF720953F2DFA
:1044D000369536953370323069F050F4409145028C
:1044E000313029F0822B84230E94B60C33CF842BE9
:1044F000822BFACF282B809145028227F5CF869513
:10450000AA2011F08F2D8170882309F423CF4E2D1E
:10451000429546954770440F440F8E2D8F70042EA0
:1045200001C0880F0A94EAF72E2D2071E4FE07C01F
:104530002FE030E001C0220F4A95EAF720953F2D89
:10454000369536953370323069F050F440919202CE
:10455000313029F0822B84230E94630CFBCE842B04
:10456000822BFACF282B809192028227F5CF3F2D04
:104570003F70F32EAA2029F0832F0E94AA0C8E2DC3
:1045800026CF8E2D0E94C2108F2D0E94860CE2CE67
:104590008E2D92EF8916B1F1981570F0A0EF8A1662
:1045A000D1F0B1EF8B1691F0AA2009F45DC0911003
:1045B00088CE8F2D8F712AC0E3EF8E1651F1F4EF64
:1045C0008F12F2CF80919E0482FD2FC08F2D8F71AC
:1045D000AA20D9F21BC0AA2081F024E0291508F4F2
:1045E000B9CE2F2D2F7181E090E001C0880F2A9560
:1045F000EAF7909192028927AFCF35E0391508F498
:10460000A9CEEFCF8F2D8F71A110BFCF0E94AA0C22
:10461000A1CE80E0AA2009F49FCF9F2D9F7181E059
:1046200001C0880F9A95EAF797CFAA2091F08F2DB5
:104630008F71F82E0E94AA0C80919E0482FF07C001
:10464000A8E0FA9EC00111248360809319028F2D87
:10465000DDCF81E00E94930CB1E0B91508F07ACE6D
:1046600082E00E94930C76CE992039F0893309F4C8
:10467000EDCE8E2D0E94D3106DCE8F2D8F7185CFF4
:10468000F701E851FC47E730F10508F4A4CBE6E177
:10469000EE16ECE7FE0609F4A6CC80914402827285
:1046A000F701E052F847E531F10508F04ACDE8534B
:1046B000FC4C0C94F231F6E1EF16FCE7FF0609F032
:1046C0009CCC809144028A7A91E009F490E0909326
:1046D000FE01811186CC89E20E9433080E94900D70
:1046E000A0CACF93DF9380911802807F09F04DC05C
:1046F00080911702882309F448C0E091F404509196
:10470000BB04C0911302D091120260911402709107
:10471000150247E05E17C9F18E2F90E0E49FF0018B
:104720001124E454FB4F2481222391F1489FF0018E
:10473000499FF00D1124DF01A454BB4F11962C9119
:1047400011972C1325C02C912D1322C015962C9156
:10475000159721111DC012962D913C91261B370BE8
:10476000283C3105A8F4809118028F7080618093F5
:104770001802EE53FB4F80818F708061808382E14D
:1047800092E00E945B1D0E94EE0BDF91CF91089595
:10479000FC013196E770BECFA4E1B0E0E2EDF3E2B8
:1047A0000C9493318C0186E0F801DE011F96019094
:1047B0000D928A95E1F7F8018481E58092E1A92EB6
:1047C00092E0B92E90911602911128C0882319F118
:1047D000EE20F1F0C8010E944616F82E8823C1F0A1
:1047E00087E0F801D50101900D928A95E1F780915B
:1047F0001602813031F480911202909113020E94CE
:1048000039160E9471238F2D6496ECE00C94AF3121
:10481000C8010E945B1DFF24F394F5CFD080C180B6
:1048200082809380F090170220911402309115023B
:10483000A401421B530BFF2009F4D9C0483C510589
:1048400008F092C08823F9F2909113028091180227
:10485000282F207F09F056C0C91214C0909112026F
:10486000D91210C0E11048C08F7080618093180287
:1048700082E192E00E945B1D80911802F80186831C
:10488000F12CC1CFE11038C06C2D8D2D0E94560641
:104890006C2D8D2D0E945606E82E8111F1CFDF86FA
:1048A000C88A8F8598890E943916292F22952F70E2
:1048B000243058F49F70223088F0992399F0F80141
:1048C0009681907F79F4FE2C9ECF2A5F2F70223044
:1048D00068F0C8010E945B1DEF2CF5CF992311F001
:1048E000882389F3805E883070F3F3CF803F58F3DC
:1048F000815F833070F7E7CF8091180281608093E9
:104900001802BECFC91207C090911202D91203C07B
:10491000EE2009F48DC0C8010E944616882309F4D0
:1049200077CFEE2009F474CF80911802803288F09E
:104930002091120230911302398728879B868A863C
:10494000909116029C871D868E87CE0108960E9444
:104950005B1D87E0F801A2E1B2E001900D928A951B
:10496000E1F70E94712357CF90911802292F207FE1
:1049700051F482E192E00E945B1D87E0F501119203
:104980008A95E9F77DCF882309F43DCF8091130202
:104990008C1110C080911202D8120CC0E1100AC014
:1049A0009683C8010E945B1D87E0F50111928A95EC
:1049B000E9F729CFC8010E944616882309F428CFB9
:1049C000EE2009F425CF80911802803210F2209158
:1049D0001202309113023A8329839C828B82909138
:1049E00016029D831E828F83CE010196B0CF483C74
:1049F0005105D0F6882309F40ECFFE2CEE2009F4E1
:104A000007CF809113028C1120C080911202D8121E
:104A10001CC08091180280FD0FC0982F907F61F01C
:104A20008683903F31F0982F907F905F8F70892B15
:104A30008683C8010E945B1D87E0F801A2E1B2E015
:104A400001900D928A95E1F7DECEC8010E944616CC
:104A500081117FCF80911802816080931802C80174
:104A60000E945B1DD0CEABE1B0E0E9E3F5E20C942F
:104A70009B314E8B5F8B688F798F8A8F9B8F192F1D
:104A8000911110921B021D8A86E0FE017696DE01CE
:104A90001F9601900D928A95E1F70A8D002341F04F
:104AA00021E04F85588969897A89C8010E94691671
:104AB0000B8B1C8B87E0FE013F96DE011896019060
:104AC0000D928A95E1F7CE0108960E94CC238111C0
:104AD0000CC087E0FE013896DE01119601900D9220
:104AE0008A95E1F78C8581110BC017E08091F40461
:104AF0009091BB04891331C06B96E4E00C94B731FC
:104B00002091BB0430E0C90101968770992740913C
:104B1000F4044817190699F097E0929FD001939FEB
:104B2000B00D1124A454BB4FFE01319601900D929B
:104B30009A95E1F78093BB040E94EE0BD6CF0E94BA
:104B4000E20D1092BB041092F40487E0E2E1F2E07F
:104B5000DF011D928A95E9F7C8CF819FC00111241A
:104B600084549B4F0E94CC23882331F28091F4041B
:104B700090E00196877099278093F404B7CFA3E162
:104B8000B0E0E5ECF5E20C9492318E01045F1F4F2A
:104B900088E0D8011D928A95E9F788E8C82E81E05F
:104BA000D82EF12CE12CAA24A394B12C22E9822E38
:104BB00021E0922EF60181916F018F3F09F442C0EE
:104BC000F894E82FE295EF70F0E021A18F70A50135
:104BD00002C0440F551F8A95E2F7CA01922F982B05
:104BE00091A392A18095892382A3789400C0ECE8D8
:104BF000F1E0712C31E021912F3F09F498C0A22FF0
:104C0000A295AF70B0E090968C9190E02F7002C0AA
:104C1000959587952A95E2F780FD89C0832F782A9C
:104C2000330F8E169F0639F7F601319780818F3F3B
:104C300011F00E94800950EA5A95F1F7F801EE0D43
:104C4000FF1D70828FEFE81AF80AA4E0EA16F1045B
:104C500009F0B0CF48E050E0B8018BE792E00E9445
:104C6000B632009741F028E0F801ABE7B2E00190DE
:104C70000D922A95E1F70091840210E00D531D4F2B
:104C8000892B09F456C081E080934A020E94591C86
:104C90009093490280934802F12CE0909504EE2015
:104CA00009F4A1C019821A821B821C8280917602AB
:104CB0008A3008F062C04EEE59E1BE016F5F7F4F4F
:104CC000C8010E94B614882309F47CC047E359E167
:104CD000BE016F5F7F4FC8010E94B614882309F49C
:104CE00071C04DE859E1BE016F5F7F4FC8010E945E
:104CF000B614882309F466C010927602809183026C
:104D000090E044E050E0BE016F5F7F4F8D539D4FB8
:104D10000E94B63221E020935102892B09F044C051
:104D2000E12C8E2D8F296396EDE00C94AE3180E05E
:104D300076CFF0904A02FF2009F4AECF809148026E
:104D4000909149020E944A1C059708F4A5CF44E0BF
:104D500050E06BE772E0C8010E94B632892B59F02F
:104D600084E0EBE7F2E0D80101900D928A95E1F73B
:104D700010924A0292CFF12CFBCF80914B0290917E
:104D80004C020E944A1C843F914008F094CF8091CD
:104D90005102882329F284E0FE013196DF011D9241
:104DA0008A95E9F710925102E0918302F0E0ED5309
:104DB000FD4F89819A81AB81BC8180839183A283DD
:104DC000B383AFCF809176028F3F31F08F5F8093B6
:104DD00076028A3008F492CF0E94591C90934C02BC
:104DE00080934B02D4CF84E0F801AFE5B2E00190AC
:104DF0000D928A95E1F78FE592E00E947506809307
:104E00005E028090630290906402A0906502B09070
:104E1000660280914D0290914E02A0914F02B09196
:104E2000500288169906AA06BB06B1F080924D0280
:104E300090924E02A0924F02B09250020E94FC0744
:104E4000861A970AA80AB90A809277029092780285
:104E5000A0927902B0927A028BE0E7E6F2E0DE01FE
:104E6000119601900D928A95E1F7809167028695DF
:104E70008695D0906802C0906902B0906A02009155
:104E800070021091710210927102112309F449CF3E
:104E900010FF0BC0998190FF1CC090918704916016
:104EA0009093870460E00E94E91C11FF06C020E097
:104EB0004B2D6C2D8D2D0E94EB1712FF04C000238B
:104EC00059F00E94CD1C13FF2CCF81E08093CE02BD
:104ED00028CF0E94A714E9CF0E94C808F4CFA6E00B
:104EE000B0E0E5E7F7E20C949B310E94591C8C017D
:104EF00080914602909147028017910781F01982B4
:104F00001A820E94591C682F49815A81792F80E0AA
:104F100090E00E94332510934702009346022696A4
:104F2000E4E00C94B7311F921FB61F9211248F93A7
:104F30009F93AF93BF9380919F04811113C0809181
:104F4000A0049091A104A091A204B091A304419661
:104F5000A11DB11D8093A0049093A104A093A2046D
:104F6000B093A304BF91AF919F918F911F901FBEEB
:104F70001F901895CDB7DEB7AB970FB6F894DEBF8C
:104F80000FBECDBF85B7806885BF85B7806885BFF8
:104F900084B7877F84BF0FB6F894A895809160008E
:104FA000886180936000109260000FBE80E890E0FE
:104FB0000FB6F89480936100909361000FBE8EE766
:104FC00099E09093D5018093D4010E948C060E94B1
:104FD0002D078091E20084608093E20078948091B4
:104FE000B1048823A1F01091E9001F709091EC00AA
:104FF000892F817090FD80E8182B1092E900809134
:10500000E80083FD0E94040E1F701093E90082E007
:1050100084BD93E095BD9AEF97BD80936E0010928A
:105020007702109278021092790210927A020E940E
:10503000B415811102C00E94A4158091D80080612E
:105040008093D8002AE12A95F1F700C08091D90019
:10505000182F117080FD04C00E948C061092B104BC
:10506000109395041093960410932401112309F4CE
:1050700072C0109247018BE1809348010E94173063
:10508000809124018091240194E0811190E090931B
:10509000840284E0891B8093830284E90E94800952
:1050A00086E60E94800987E90E94800986EC0E94BA
:1050B00080090CE811E062E9E62E61E0F62ED801E5
:1050C0008D918D018F3F11F00E948009E016F1064D
:1050D000B1F788E0E3ECF2E0DF01282F1D922A957A
:1050E000E9F7EBE7F2E0DF011D928A95E9F70E940C
:1050F0002B19811102C00E94971A82E090E00E9451
:10510000CC328093860284E090E00E94DA32909361
:105110009E0480939D040E94BF25BFEFE6E7F1E067
:10512000B150E040F040E1F700C000000E94BF2510
:1051300080919604E4E08111E0E0F0E0ED53FD4F52
:10514000808181FF0EC06FEF7FEF90E080E00E94D2
:105150000E330E94EB078BE1809347018093480157
:105160008FCF83E090E00E94CC320E94B60C8091F9
:10517000950481112FC182E08093BE0280E8809364
:10518000F8040E94D12E6BE070E082E892E00E9469
:105190008E168823E9F18091BE0265E070E081FD02
:1051A0001BC18DE792E00E948E16882389F16DE085
:1051B00070E08BE692E00E948E16882349F10E94EF
:1051C000FC07605A75418F4F9F4F60938F04709317
:1051D00090048093910490939204EBEFF4E080E0CC
:1051E00092E0DF019C011D9221503040E1F7F093E5
:1051F0000207E09301078FEF9FEF9093FA048093EB
:10520000F90481E080939404809393041092BF0288
:1052100080918502811179C00E942B19811104C0EF
:105220000E94971A0E94F71888E090E00E94D432FA
:105230004B015C0184E290E00E94CC32282F30E0E8
:1052400040E050E060E070E080E090E000E20E942A
:105250000E32282939294A295B2920938704309363
:1052600088044093890450938A0460938B0470935C
:105270008C0480938D0490938E048091D30283607C
:105280008093D3022C7F89F50E94F71888E090E084
:105290000E94D4326B017C0184E290E00E94CC3207
:1052A000282F30E040E050E060E070E080E090E0E7
:1052B0000E940E32B22FA32FF42FE52F5B0197012E
:1052C0008601BC29A12BFE29E32BB0938704A09370
:1052D0008804F0938904E0938A0460938B04B0926D
:1052E0008C0480938D0490938E040E94CF080E94BA
:1052F000C8088091870480FF05C060E08695869588
:105300000E94E91C81E080938502809195048111BF
:1053100002C00E941A3085E291E090939A04809333
:1053200099045AE0852E912CA12CB12C8091B104C6
:1053300000E112E1853009F48BC00E94BF2507E827
:1053400012E043ECE42E42E0F42ED701F8019191F3
:105350008D9122E0EF38F20709F484C09817B9F371
:1053600040909504D12CD701CD907D01F80151904A
:105370008F015C1431F15C24712C66246394852DBB
:105380008621B9F04420A9F079A2DAA20E94591C22
:105390009CA38BA3F1E0FDA391E08C2D862109F461
:1053A00090E09EA349A15AA16BA17CA18DA10E946E
:1053B00033257394660C26E07212E1CFF801319721
:1053C000C082D39438E0D312CECF0E94970941E037
:1053D0004FA34DC080E0D0CE88E792E0E4CE80912C
:1053E000B104843031F10E94B81610929F0488E114
:1053F00090E0A0E40FB6F894A895809360000FBEEB
:10540000A093600083B7817F846083BF83B781608E
:1054100083BF7894889583B78E7F83BF0FB6F89447
:10542000A895809160008861809360001092600070
:105430000FBE8091B004882359F00E94BF25E3EC91
:10544000F2E0819181118EC4B2E0EB3CFB07C9F719
:105450008091B104853009F4C2CF0E94E20D0E9410
:10546000B1086BCF98137CCF0E946F271FA2809149
:10547000D202882309F465C08091D102E0918704AB
:10548000E695E695E81BE093CD02823009F08FC0E7
:10549000F0E0E256FD4FE4910E2F10E033E9E32EE9
:1054A00034E1F32E8091CE02882361F01092CE0277
:1054B0000E94C21C9093CC028093CB021092D00227
:1054C0001092CF020E94C21CE091CB02F091CC025C
:1054D0009C012E1B3F0B2F3F3F4798F520919102D7
:1054E0002223B1F01092910220918F02309190020C
:1054F000821B930B8F3F9F4758F4205D3A483093AF
:10550000900220938F028091D30288608093D3020F
:10551000C090CF02D090D002E00FF11FF093CC02E8
:10552000E093CB028BEC92E0F70109958091CF02DA
:105530009091D002892B29F4CD2819F0F1E0F09355
:10554000910280919404882309F4FEC08091C002E6
:105550009091C1020E944A1CC29708F4D5C00E94D3
:10556000591C9093C1028093C0028BEF94E09093FA
:1055700002078093010780919504882309F460C194
:1055800083EC92E00E944A0D809192020E94B90C35
:10559000813009F411C1882309F475C0823009F4FF
:1055A0000EC1833009F40EC182EA92E06EC08630EB
:1055B00059F4F0E0E556FD4FE4910E2F10E023E89A
:1055C000E22E24E1F22E6ECF893061F4E695F0E010
:1055D000E856FD4FE4910E2F10E09CEDE92E93E18B
:1055E000F92E60CF8F3061F4E695F0E0EB56FD4F79
:1055F000E4910E2F10E081E5E82E83E1F82E52CFE2
:10560000853159F4F0E0EE56FD4FE4910E2F10E095
:10561000BCECEB2EB2E1FB2E45CF883169F1833231
:1056200049F4E0E9F2E005911491A2E3EA2EA4E145
:10563000FA2E38CF04EF11E07DE0E72E72E1F72E6D
:10564000843209F42FCF00ED17E066EEE62E67E016
:10565000F62E853209F026CF8E2F63E00E94C431EA
:10566000E92FF0E0E357FD4FE4910E2F10E0FBEF40
:10567000EF2EF6E1FF2E16CF08E210E0EAE4EE2E60
:10568000E2E1FE2E0FCF8BEB92E00E948A0D80911B
:105690009D02805D0E94CA0C81ED92E00E944A0D3D
:1056A00080919C02805D0E94CA0C8DEC92E00E9469
:1056B0004A0D40909A0250909B0280912F01909148
:1056C00030014816590609F080C080919902803255
:1056D00009F07BC0E3E9F2E08F0181918032E1F3D0
:1056E000F80101900020E9F79F012150310979016B
:1056F0000E151F0508F49EC08BEC92E00E944A0D27
:10570000809131010E94CA0C8091F9049091FA04B1
:10571000892B09F09AC0809193048823A9F00E94F4
:10572000FC0700918F041091900420919104309116
:105730009204601B710B820B930B6F3F7F4F8F4F57
:105740009F4710F40E94B8164FA141110E94D31632
:105750000E94B1089091C202891721F08093C20281
:105760000E94FC078091B104843009F0DFCD83E012
:105770008093E9008091E80082FFD8CD8091E80015
:1057800090E085FF06C00E94AB06882309F43EC165
:1057900091E08091E8008B778093E800992309F4E9
:1057A000C5CD8981EFEFE80FE33108F056C1F0E095
:1057B000E352FC4C0C94F23185EB92E066CF8FEA19
:1057C00092E063CF88EA92E060CF5092300140923D
:1057D0002F0180E280939902712C612C1092980223
:1057E0005EE8E52E52E0F52E03E912E0C301B201B6
:1057F000A50194010E945633605D603321F422E0DC
:105800000339120731F0411451046104710409F4A1
:1058100060E2D80114966C93C301B201A501940112
:105820000E94563329013A0101501109E016F10690
:10583000E9F650CFD8018D918D010E94CA0C58CF46
:1058400083ED92E00E944A0D5FCF809194048823FB
:1058500009F461CF8091BF0281115DCF0E94D31600
:105860002091F9043091FA042115310509F453CF40
:1058700080E041E050E0082F10E02A01082E02C02D
:10588000440C551C0A94E2F7B90164217521672B79
:1058900011F48F5FF0CF9091BE0290FF9EC0880FF1
:1058A000880F880F8093340110923701895F8093AD
:1058B000350183E08093380124E630E047E050E092
:1058C00062E371E088E70E94712F892B09F023CFF2
:1058D000A80195E0440F551F9A95E1F78091BE020B
:1058E00080FF8DC0EEE9F2E080E2DF011D928A9533
:1058F000E9F7E6E9F1E0FBA7EAA762E971E087E0F2
:10590000E82EDD24D394AAA5BBA52D91BBA7AAA7F9
:10591000FB012190BF01240E352E311CC1018550A1
:105920009B4F1C01E22FF0E0E256FD4F90E080E03B
:105930006E2C681AFD2C082E01C0FF0C0A94EAF7A1
:1059400039A628A600E0A8A5B9A51D91B9A7A8A7C2
:105950001F21262D201B2770C22E022E000C330B78
:10596000B12F01C0BB0FCA94EAF7CB2E3195219518
:1059700031092770332701C016952A95EAF7C12A05
:105980001081C12AC0820F5F0830E9F60196319676
:105990008830910569F6EAE9F1E02AA53BA5E2170E
:1059A000F30709F0B0CF04E610E020E230E04EE962
:1059B00052E060E488E70E94922F892B09F0ABCE79
:1059C000409450948091F9049091FA04482259220D
:1059D0005092FA044092F9049ECE8295880F807608
:1059E0008093340198013695279536952795209315
:1059F0003701815E80933501209338015DCF45509A
:105A00005B4F04E610E020E230E0D3CF00E210E08C
:105A1000CE0101967C018091E80085FD0AC080914D
:105A2000E8008B778093E8000E94AB06882399F307
:105A3000AFCE8091F100D7018D937D010150110906
:105A400051F7A6CE1A828CE08B831BC08A818230EC
:105A500009F49EC128F4813061F08FEF898311C071
:105A60008330C1F08430C9F71B821C821D821E82E4
:105A700008C00E94FC070E94F8316B837C838D83F1
:105A80009E8340E250E0BE016F5F7F4F82E00E9444
:105A900065114CCC2B81822F90E0FE013496245E60
:105AA0008830910570F7DC01AD53BD4F3C913193C7
:105AB00001962813F5CFE5CF8A81823049F08530F1
:105AC00061F68091870480FF0EC00E94A714D9CF91
:105AD0006B817C818D819E810E94F83188E290E00B
