:020000041000EA
:1000000000B5324B212058609868022188439860DF
:10001000D860186158612E4B002199600421596104
:100020000121F02299502B49196001219960352056
:1000300000F044F80222904214D00621196600F024
:1000400034F8196E01211966002018661A6600F04E
:100050002CF8196E196E196E052000F02FF8012189
:100060000842F9D1002199601B49196000215960AB
:100070001A491B48016001219960EB211966A021F2
:10008000196600F012F800219960164914480160C1
:100090000121996001BC002800D000471248134993
:1000A000086003C880F30888084703B5996A0420EC
:1000B0000142FBD001200142F8D103BD02B5186610
:1000C0001866FFF7F2FF186E186E02BD00000240BE
:1000D000000000180000070000035F00212200005C
:1000E000F4000018222000A00001001008ED00E03C
:1000F000000000000000000000000000070B8FD58A
:1001000000040420C5020010E1730010C7020010B3
:10011000C7020010C7020010C7020010C70200107B
:10012000C7020010C7020010C7020010C70200106B
:10013000C7020010C7020010C7020010C70200105B
:10014000F9720010D5720010AD72001085720010A7
:10015000C702001009740010C70200103D9800107B
:10016000C7020010C7020010C70200105173001030
:100170001D730010C7020010C7020010C1730010E9
:1001800085730010C7020010C7020010C7020010DC
:10019000C7020010C7020010C7020010C7020010FB
:1001A000C7020010C7020010C7020010C7020010EB
:1001B000C7020010C7020010C7020010C7020010DB
:1001C00072B62C4880F308882B4880F309880220F7
:1001D00080F31488BFF36F8F28482949086006F020
:1001E000A4FF08F0CCF827482749224A914202DAB6
:1001F00008600431FAE725491F4A914202DA086093
:100200000431FAE72249234A234B14469A4204DA7E
:100210000868106004310432F8E719490C601F497E
:100220001F4A204B9A4204DA0868106004310432F5
:10023000F8E700201C491D4A914202DA08600431A7
:10024000FAE708F081F808F09BF8194C194DAC4218
:1002500003DA216888470434F9E708F0B3F8164C4C
:10026000164DAC4203DA216888470434F9E7144993
:100270000847000000040420000C042000010010C6
:1002800008ED00E0555555550000042000040420F9
:100290000001001000010010C0010010F8A80010BB
:1002A000000000204C0B0020500B0020582A00209A
:1002B000C0010010C0010010C0010010C0010010FA
:1002C0007D8300107CE700F000F8FEE7F0B54446BF
:1002D0004D4656465F46F0B46B46CB60C3689D46BC
:1002E000F0BCA046A946B246BB46F0BD06F09CFF56
:1002F00062B6281CA047002007F02EFCFEE707F09E
:100300008DFC024A024B1360FEE7C04604ED00E09C
:10031000000000807047C0469E2110B5C905041C2E
:1003200000F0AAFC002803D1201C00F015FC10BD31
:100330009E21201CC90500F04BFA00F00DFC802323
:100340001B069C466044F2E7F8B557464E464546C4
:10035000DE464402E0B546008846640A360EC70F02
:10036000002E63D0FF2E24D08023E400DB041C4346
:10037000002399469B467F3E434642465D02D20F8C
:100380005B006D0A1B0E9046924665D0FF2B55D040
:1003900080220021ED00D2047F3B1543F61A43462C
:1003A0004A467B400F2A00D98DE06D489200825862
:1003B0009746002C54D108239946063BFF269B46BE
:1003C000DAE70025534602291BD0032900D1BFE0FC
:1003D000012928D030007F30002820DD6A0704D0B2
:1003E0000F222A40042A00D004352A0103D5300008
:1003F0005C4A80301540FE2803DCAC01640AC2B2BE
:1004000001E0FF2200246402D205600ADB071043EA
:1004100018433CBC90469946A246AB46F8BD012223
:10042000101A1B287CDD00220024ECE7002C1DD1D3
:1004300004239946033B00269B469DE7FF3E002D83
:1004400020D1022143464A467B400A430F2AD8D88E
:100450004548920082589746002D19D10121F1E7B5
:100460000C239946093BFF269B4685E7200000F0B8
:100470000DFC7626431F9C4000237642361A99468F
:100480009B4679E74A4603231A439146032186E7B0
:10049000280000F0FBFB431F36189D4076360021F4
:1004A0007DE780240023E403FF22ACE700258023BE
:1004B000DB031C4228D01D4226D12B435C02640A78
:1004C0004346FF229FE762016C01A24224D21B2116
:1004D0000025013E012710006D005200002801DBBD
:1004E000944201D8121B3D4301390029F3D1140075
:1004F000621E944125436DE7BA465946250053468E
:10050000022900D061E77CE78023DB031C436402FF
:10051000640A3B00FF2276E7121B1A210125D9E766
:100520009E362A00B5402C00C240651EAC411443E3
:10053000620704D00F222240042A00D00434620152
:1005400003D4A401640A00225DE7012200245AE7D3
:100550008024E4032C436402640AFF2253E7C0466C
:10056000A49E0010FFFFFFF7E49E0010F0B54E467A
:1005700057464546DE46E0B543025B0A450083B078
:100580000F1C99462D0EC60F002D57D0FF2D24D0DD
:100590008020DB00C0041843002381469A469B4616
:1005A0007F3D7C027A00FB0F640A120E984623D02E
:1005B000FF2A4BD0E30080240020E4047F3A1C4350
:1005C000AD186B1C47460193534677403A000F2BFA
:1005D00048D87D499B00CB589F46002B00D085E032
:1005E00008339A46063B9B467C027A00FB0FFF25A8
:1005F000640A120E9846DBD1002C00D090E05246DF
:1006000001231A4392460120DBE74C465846170067
:10061000022824D0032800D1CFE0002200230128A3
:100620004DD15802D205400AFF071043384303B0AA
:100630003CBC90469946A246AB46F0BD002B5BD130
:1006400004239A46033B00259B46AAE7FF35002C6E
:1006500060D1524602231A4392460220B1E7FF229C
:100660000023DEE74B461B0C9C464B462604360C0B
:10067000180461463300220C6446000C43434E4389
:100680005043544380191A0C1218964203D9802102
:1006900049028C4664441B041B0C1004C0188301DF
:1006A0005E1EB341800E1843130C1B199B010343BC
:1006B0001C00230179D5012362081C401443019AD0
:1006C0007F32002A4DDD630704D00F232340042B23
:1006D00000D00434230103D53C4B019A1C408032E6
:1006E000FE2ABCDCA3015B0AD2B29AE70C239A462D
:1006F000093BFF259B4654E7180000F0C7FA4A461D
:10070000431F76259A4000236D4291462D1A9A4642
:100710009B4646E7524603231A439246032050E77E
:10072000200000F0B3FA431F2D1A9C40763D0020B4
:1007300047E780230027DB03FF2272E7424666E794
:100740004C463200584662E780234A46DB031A4291
:1007500022D01C4220D123435B025B0A4746FF2282
:100760005FE701239A1A1B2A21DC23000199D34059
:100770009E318C401A0023005C1EA34113435A078C
:1007800004D00F221A40042A00D004335A0111D495
:100790009B015B0A002244E780234A46DB031343A4
:1007A0005B025B0A3700FF223BE7019587E70022E7
:1007B000002336E70122002333E78023DB032343B2
:1007C0005B025B0AFF222CE7249F0010FFFFFFF76C
:1007D000F8B54746CE464400C20F80B547024802EE
:1007E000400A8446664648007F0A240EF60025002B
:1007F0009046FB00000EC90FB146FF2800D185E0EE
:1008000001267140261A914257D0002E43DD002860
:1008100000D07FE04946002900D1AAE0013E002E29
:1008200000D0F7E05B1A5A0100D48BE09B019C09D1
:10083000200000F02BFA05388440854200DDD3E02B
:10084000451B230020200135EB40451BAC40621EB8
:1008500094412343072400251C40012241460A40BD
:10086000002C04D00F211940042900D00433590171
:1008700000D480E00135ECB2FF2D00D0A3E0FF24CE
:1008800000235B02E405580AD207204310430CBC46
:1008900090469946F8BD002E74D1601CC0B2012864
:1008A00000DCA7E04A469C1A620100D5B6E0002CA5
:1008B000BED1002200240023E3E7002E00DC85E007
:1008C000002846D0FF2C49D080224846D20410434D
:1008D000814601221B2E09DC20204C46801B8440CF
:1008E0004A462000F240441EA04102439B185A0190
:1008F00028D50135FF2D00D1A8E001220724944915
:100900001A405B080B4013431C40A6E7002E00D0A2
:1009100078E775E7FF2C54D080224946D204114372
:10092000894601221B2E09DC20214846891B88406C
:100930004A460100F240481E81410A439B1A5A016F
:1009400000D573E7012241460A40590700D089E7E4
:1009500011E04846002858D1FF2C0CD1DB08002BB1
:1009600000D18CE78020C00303435B025B0AFF24B5
:1009700087E7FF2C25D0DB08FF2DF0D05B025B0A58
:10098000ECB27EE7002C4DD0FF2818D08024E40480
:10099000724223431B2A00DDC4E01C002025D44002
:1009A000AA1A93405A1E934123434A460500D31A7C
:1009B000884638E7721CF8D0F243FF28EAD10A00D3
:1009C0004B46FF25D7E79B015B0A5AE7002E41D132
:1009D000651CE9B2012945DDFF2D00D14FE7072451
:1009E0004B445B081C4038E707225A4B2D1A234022
:1009F000144032E7002C1DD1002B7AD14B46002B3E
:100A000000D191E00A000025B5E7013E002E19D182
:100A10004B446CE7FF2C84D1FF25ACE74A4688465F
:100A2000D41A05E7002BC5D10A00FF28C8D005005D
:100A30004B46A0E7002B49D14B46002B77D00A004C
:100A4000FF2598E7FF2C00D043E787E70A00FF2443
:100A5000002316E7002C15D1002B57D1FF28E6D133
:100A60004B467BE7002C20D1002B57D0494600296C
:100A700053D04B445A0168D50724364A1C400125FF
:100A80001340EAE6FF28EBD08022D20476421343DB
:100A90001B2E53DC2025AD1B1A00AB40F2405C1E20
:100AA000A34113434B44050021E7002BD8D049460E
:100AB000002900D152E78021C9030F4200D14DE740
:100AC0006046084200D049E74B4647E74846FF25C5
:100AD000002800D14FE78022D203174204D060469D
:100AE000104201D14B46884601224146FF250A406B
:100AF00041E7484600281FD01A1A500120D54A461F
:100B00000724D31A1C4088460025A6E6741CC9D0C9
:100B1000F643FF28BCD14B4620E799464B460025BB
:100B2000DB082BE7012340E700220023A9E680230E
:100B30000022DB03FF24A4E600251CE70123B1E724
:100B4000002AF1D013000025FCE60025FAE6C04695
:100B5000FFFFFF7DFFFFFFFB41024200C30F490A79
:100B6000120E00207E2A0DD99D2A0CD88020000468
:100B70000143952A0ADC9620821AD1404842002B74
:100B800000D108007047034A9818FBE7963A914055
:100B9000F4E7C046FFFFFF7F70B5041E34D000F0BD
:100BA00075F89E22121A962A07DCD2B208282EDD8A
:100BB000083884406002400A21E0992A09DD0300D8
:100BC00021001B3399404B1E994105231B1ADC4021
:100BD0000C43052801DD431F9C4023000D490B40B9
:100BE000650709D00F252C40042C05D004335C0187
:100BF00002D59F220B40121A9B01580AD2B2400222
:100C0000D205400A104370BD00220020F7E76002C1
:100C1000400AF4E7FFFFFFFB8446081C6146FFE73C
:100C20001FB500F0C7F8002801D40021C8421FBD3D
:100C300010B500F049F84042013010BD10B500F089
:100C4000B9F8002801DB002010BD012010BDC0460E
:100C500010B500F0AFF8002801DD002010BD012024
:100C600010BDC04610B500F057F8002801DC002088
:100C700010BD012010BDC04610B500F04DF8002891
:100C800001DA002010BD012010BDC0461C21012347
:100C90001B04984201D3000C10391B0A984201D35F
:100CA000000A08391B09984201D30009043902A23D
:100CB000105C40187047C0460403020201010101A4
:100CC000000000000000000070B542004E024C0021
:100CD00045026D0A120EC30F760A240EC90FFF2AB1
:100CE0000FD0FF2C11D00120A24200D070BDB54220
:100CF000FCD18B420DD0002AF8D12800451EA84116
:100D0000F4E70120002DF1D1EBE70120002EEDD119
:100D1000E9E70020EAE7C04670B54A004E02450206
:100D200044006D0A240EC30F760A120EC90FFF2C61
:100D300015D0FF2A0ED0002C15D1002A01D1002E8B
:100D40001CD0002D14D08B4227D00220013B18402C
:100D5000013870BD002EEED002204042F9E7002D90
:100D6000FAD1FF2A0ED0002A0ED1002EEDD00BE0D2
:100D700001230139994308000130EAE70020002DE2
:100D8000E7D0E2E7002EE7D18B42DED1944205DDC9
:100D90000221581E08400138DBE70024A24204DC8F
:100DA000B542D2D80020B542D3D2581E0123984371
:100DB0000130CEE730B5420044024D02C30F480077
:100DC000640A120E6D0A000EC90FFF2A12D0FF2806
:100DD0000CD0002A12D1002819D1002D17D1002CD7
:100DE0002BD00220013B1840013826E0002DF0D026
:100DF000022022E0002CFBD1FF281FD000281FD1A9
:100E0000002D1DD10220013B1840013815E0002CB7
:100E10000ED08B42E5D10022904204DCAC42E0D8F7
:100E20000020AC4209D2581E01239843013004E04F
:100E30000123013999430800013030BD002DD7D17D
:100E40008B42CED18242E7DD0221581E0840013894
:100E5000F3E7C04602B47146490849000956490003
:100E60008E4402BC7047C04602B47146490849002E
:100E7000095C49008E4402BC7047C04603B4714609
:100E8000490840004900095E49008E4403BC704790
:100E900003B47146490840004900095A49008E448C
:100EA00003BC7047414208401C2101231B049842A7
:100EB00001D3000C10391B0A984201D3000A0839EB
:100EC0001B09984201D30009043902A2105C401AA0
:100ED0007047C0461B1C1D1D1E1E1E1E1F1F1F1FF0
:100EE0001F1F1F1F072130B5032400220140C00827
:100EF0006043074C012524181000A35CCB402B4015
:100F0000934001321843C0B2032AF6D130BDC04627
:100F1000F014002070B503240125CB085C430A4B74
:100F20002E001C19072319408E400022F6B2030040
:100F3000D340A15C2B405B424B4033404B40A35419
:100F40000132032AF3D170BDF014002072B6D02113
:100F500009060B68054A9B00D3185B689865022355
:100F60005B424B6505331370FEE7C046E01000207E
:100F7000F0B50C4B0C4A1B7816780C4CB34202D1DE
:100F800000221000F0BDDD00621957788F4205D1B4
:100F90002D5D854202D15279002AF2D10722013318
:100FA0001340EBE789150020881500204815002024
:100FB00070B5FF233125041D0821027853405EB22D
:100FC0005A00D3B2002E01DA6A40D3B201390029A7
:100FD000F5D10130A042EFD1180070BDF0B5050089
:100FE0000C2485B00E00110E1202019201981A0015
:100FF0000023029108F01CFF6C432B4B0700E41800
:1010000063680391834200D260602B1FDBB20093C0
:10101000C023009A9B012343012A0FD8012E0DD132
:1010200003221A603300A2681A42FCD0E02322682F
:101030001A4080235B0123431A6017E080221201CB
:101040001A601A4BAA00D158002905D0586908F037
:10105000BFFE01300138FDD1E02322681A40802311
:101060005B0123431A60009A012A09D803212268F0
:1010700072400A401A600123B340A2681342FCD0B8
:10108000802380229B01234312011A600198039B55
:1010900067603A00029908F0CBFE044BAD00E850BF
:1010A000012005B0F0BDC04600800040F4100020D3
:1010B000074810B50178052908D10300E0331B78F3
:1010C000037043681B68002B00D0984710BDC046D2
:1010D0005C0C00208322534B920010B5DA62002290
:1010E000AA21514B09019A67504A51481160213198
:1010F000FF31D1604F49086051680029FCDA0121B5
:101100004D4A11605A6C012AFCD103214B4A1160EF
:101110009A6B012AFCD14A4B1A68002A11DA3F2146
:101120001A680A40012A0CD19A681205120D7D2A0C
:1011300007D1EE21DA68C9020A40C421C9028A42F5
:101140001AD080223F4952010A603F493F480A6055
:10115000140081688C43211EFAD101221A607C326E
:101160009A603B4A2131116019680029FCDAC421D8
:10117000C902D96008231360364B1A68002A11DAB5
:101180003F211A680A40012A0CD19A681205120DF3
:10119000642A07D1EE21DA68C9020A40AA21C902ED
:1011A0008A421AD08022274992010A60264927489C
:1011B0000A60140081688C43211EFAD101221A6052
:1011C00063329A60244A2131116019680029FCDADF
:1011D000AA21C902D96008231360204B02211A00FA
:1011E0000420FFF7FBFE1E4B01211A000520FFF72C
:1011F000F5FE1C4B00211A000720FFF7EFFE194BEC
:1012000000211A000820FFF7E9FE174B154A0021BC
:101210000920FFF7E3FE124B00211A000620FFF71A
:10122000DDFE10BD0080054000800040004002400F
:1012300000B0FA00006002403CB0004030B0004016
:101240000080024000E0004000F0004000C000408C
:1012500004B0024000C0024004F00240001BB7008E
:1012600040597307006CDC021BB7000010B5002961
:1012700003D101240A4A0B4BD4500B4ACB009B18D4
:101280008022DC6F12012243DA67012202318900D9
:1012900041184B685B695A7500229A7510BDC046AB
:1012A00000001150682000000400105010B5002903
:1012B00003D102240A4A0B4BD4500B4ACB009B1893
:1012C0008022DC6F12012243DA6701220231890099
:1012D00041184B689B69DA7400221A7510BDC0462C
:1012E000000011506820000008001050F0B50029DF
:1012F00030D11D4BDD6C8B1C9B00C0184068012257
:101300008469267DA27433005F1EBB417240227542
:101310002668408A5F03B04200D930008023DB009A
:101320000343124A9BB23B431340626880188642D3
:1013300002D88022D20113430D4A15408022920523
:10134000154300290BD1084AD5640A4AC9008918F7
:101350004B60F0BD084ACB009B185D68CBE70648A0
:10136000CA0012185560F0E700001150FF7FFFFF20
:10137000FFFFFFAF80001050000010507F220138A7
:10138000C31713401B18DB110133DB0102329BB280
:10139000FF3210B593420ED0FF2480220749D200BD
:1013A000240259181000214204D0181C934200D97D
:1013B000101C80B210BD80208000FBE780FDFFFF85
:1013C000F0B58B1C9B00C3185F6885B000900C1EA5
:1013D0007E69BD6912D14023434AB383B261B175BE
:1013E000317571752975A974E9748021AA61AB837F
:1013F0003E4A3F4B8905D15005B0F0BD002E39D093
:101400003C4BCA00D31803933B4BD2180023D3673D
:10141000B3753A68337573750192012A60D1388AC1
:10142000FFF7ACFF802202239200904208D0802276
:101430000133D200904203D0431EFF3B5A42534136
:10144000DB060293009A4100E2329446634612881A
:1014500051181980294BB083D118B1618021019BAB
:10146000090698068132FF3201431143039A029B19
:1014700002C2D367002DBFD01E4BE400E618204BFC
:101480004020E4180023E3672B753C68AB74EB74D1
:10149000012C11D1388AFFF771FF802202239200BC
:1014A000904208D080220133D200904203D0431EE4
:1014B000FF3B5A425341DB06009AE232118847183B
:1014C00017800E4AA8838A18AA61A2068024813157
:1014D00024061443FF310C4374600836F3678BE72E
:1014E00002934020AEE7C0460001105000001150AA
:1014F0004C200000000010500400105080011050DB
:101500000800105010B50E4C0E4B20000021E36077
:10151000FFF756FF00230C4AE234136001222380B8
:101520000A49D0000A4C4018D1000C198360E367C7
:10153000C360084801320918CB670F2AF0D110BDEB
:101540005C0C002020A4001000001150F8FF0F5088
:101550000400105008001050034B1A6882431A60B0
:101560009A681042FCD0704700C00040BFF35F8F04
:10157000D023BE221B0652009B5062B6704772B643
:10158000D021BE22090652008B58002BFCD0BFF39D
:101590005F8F7047C0224368D20510B5D968DA6002
:1015A0008368054A0133DB009C58002C02D0D31815
:1015B0005868A04710BDC0463411002070B5050022
:1015C000012004008C400E00698921436981B11C0F
:1015D0008900691849688C69A260002223606260F2
:1015E000E260934205D1208231002800FFF77EFEA1
:1015F00070BD498A013B581808F0EAFBF3E7000088
:101600000300020010B5D6331B78DE3213707F2240
:101610001340064A0400136043681B68002B01D086
:10162000012198470323237010BDC04600001150CC
:10163000036910B51960C268013AC260C2699B189B
:1016400082690361934201D3436A03610023836289
:10165000036B002B00D0984710BD436902699A4282
:1016600005D1C268002A02D0002008607047180027
:1016700008C80B60FAE7C368C269013BC3604369ED
:1016800010B59B1882694361934201D3436A436159
:1016900000238362036B002B00D0984710BD03002A
:1016A0001B68984204D09A6894468A689445F7D299
:1016B0005A680B604A6011605960704730BFFDE79F
:1016C000034B996A9A6A521A9042FBD87047C046F7
:1016D0000040054070477047C26F70B51468030042
:1016E00021780120042919D1197A022916D105007F
:1016F000517962898D40154210D1DA691D6AAA427A
:1017000002D19D69002D09D104320120002A05D0A3
:101710009B6A2000043BFFF751FF002070BD10B50D
:10172000406BFFF7D9FF10BD014B18787047C046DA
:10173000A012002010B5D430C379074984791B0268
:101740000A782343022B04D1012A01D0062A02D1B0
:101750004A78024B1A7010BDA0140020A01200207D
:101760000F2230B507490C78631C1340064A1578E0
:1017700000229D4203D0054A0B7010550122100033
:1017800030BDC046F8110020F9110020E8110020FA
:10179000D430C37882781B021A43437901791B0243
:1017A0000B43110A03291ED006D801290FD00229A4
:1017B00016D000231A000CE021291DD02229F8D1CF
:1017C000022BF6D8104A99008A58104912E01223C9
:1017D0000F4A1049101E4A600B6000D00800704785
:1017E0005B230D4AF5E7D3B2022BE2D80B4A9900EE
:1017F0008A580B49CB5CECE7022BDAD8094A9B00EC
:101800009A580923E5E7C046BCA00010C8A0001004
:1018100026A1001028110020CBA0001064A0001009
:10182000AAA00010B0A000101423188804331B884D
:10183000034910B598470021030008009847C046A7
:101840005542000070B5FFF79AFE144B1448154935
:101850009C6A0D680368144AE41AA54208D9134D1E
:101860006419134D5B190360136812481B18136049
:1018700015680C60FFF77AFEFA2200239200200020
:10188000002108F0BDFA00230B4A801859410B4A89
:10189000002308F0CDFA281870BDC046004005406E
:1018A0003015002010130020F013002080C20E001D
:1018B000803DF1FF708541003F420F0040420F0024
:1018C00030B5104B1B78002B11D00F4B1A7800232A
:1018D0007F2A0CD9C2081D2A08D80C4B01219B185D
:1018E0000722104081409A788A439A7030BD0024C4
:1018F0000749CA189578854200D194700133062BA8
:10190000F7D1F3E71A090020AA1200209C0E00204C
:10191000040E002070B5154B1B78002B11D0144B12
:101920001B787F2B0CD9C3081D2B08D8114AD2185D
:1019300007231840063B834091780B43937070BD9A
:10194000002301220C495242CC18A4785DB2A04277
:10195000F5D0561C02D1002C00D12A000133062BF1
:10196000F2D1531CEBD08A189070E8E71A090020D6
:10197000AA1200209C0E0020040E00200A4B13B572
:101980001A8882420ED01880084B1968002909D0A5
:10199000042301AA13706B465871000A98710B69F1
:1019A0001000984713BDC046AE1200209C110020C5
:1019B0000A4B13B51A8882420ED01880084B19685A
:1019C000002909D0032301AA13706B465871000A3D
:1019D00098710B691000984713BDC0460C13002086
:1019E0009C1100200020064B10B51B78834205D0C7
:1019F000044B1B68834201D01B68984710BDC0464A
:101A0000021500209C11002010B5FFF71BFF0222D9
:101A100083B20E488256002A03D103228256002A3E
:101A200001D00B4A138004228256002A03D10522DA
:101A30008256002A01D0074A1380074B1B68002BEF
:101A400003D00222DB680270984710BDE11300202A
:101A500014130020161300209C110020344BCD28B5
:101A600019D1DA787F2A1CD90022DA7002229A561C
:101A7000002A05D103229A56002A01D12D490A7065
:101A800004229A56002A05D15B795BB2002B01D162
:101A9000294A13707047CE280FD103229A56002A84
:101AA000E2DC02002F32D2B2072A31D80121D1382C
:101AB00081405A788A435A70D8E702229A56CF2832
:101AC00004D1002AEDDA00229A70CFE7D02802D1A3
:101AD000002AF8DCE5E704229A56D92804D1002A26
:101AE000DFDD00221A71C1E7DA2802D1002AD8DA34
:101AF000F7E7DB2805D15A797F2AD2D900225A711B
:101B0000B4E7DC28CDD105229A56002AF6DCC8E7D6
:101B1000DD2805D10949DC380A7882430A70A5E737
:101B2000DE28F7D0DF28A1D10449DB380A78F4E7B2
:101B3000E1130020EE130020EF130020ED1300202E
:101B400010B501240F4B02211A78224214D104232C
:101B50000A420ED11A4213D10B4B187800280DD02F
:101B600027280DD8C000263108F042F983B200289A
:101B700000D0DCB2200010BD0B00FAE72300F8E72C
:101B80000823F6E7ED130020EF13002010B50D4BEE
:101B900014201B78DA0712D400189A070FD42830C3
:101BA0005B070CD4084B48381B78002B07D0483013
:101BB0001D2B04D858431E2108F01AF980B2C0B278
:101BC00010BDC046ED130020EE130020022310B517
:101BD000324CE356002B0BD10323E356002B07D1E5
:101BE0000523E356002B03D10423E356002B05D035
:101BF00008222B4B1A702B4B073A1A70CD2804D1B0
:101C0000FFF7C4FF4042E07010BDCE2802D1FFF7BD
:101C1000BDFFF8E7CF2804D1FFF7B8FF4042A0701E
:101C2000F2E7D02802D1FFF7B1FFF8E7D92803D1B6
:101C3000FFF786FF2071E7E7DA2803D1FFF780FF7F
:101C40004042F7E7DB2804D1FFF77AFF404260719A
:101C5000DAE7DC2802D1FFF773FFF8E703002F3340
:101C6000DBB2072B06D80123D138834062781343B7
:101C70006370C9E7DD2805D101230B4A11780B43B6
:101C80001370C1E7DE2803D1074A02231178F6E773
:101C9000DF28B9D1044A04231178F0E7E1130020CA
:101CA000EE130020EF130020ED130020B52358435E
:101CB000002806DA8038C317DBB21818001240B2C9
:101CC00070478030FAE710B5002801D0904710BD6A
:101CD0008847FCE7F0B5104C6478002C19D1172820
:101CE00019DD1838032444430C4D2E1977788F42A0
:101CF00005D1645D944202D1B4789C420BD0012698
:101D0000074C2670032460432C1861702A54A3707A
:101D100001E01728E6DDF0BD0215002008140020C0
:101D2000942500200022014B1A7070479425002052
:101D3000F72330B55B01FF22984202D842090832EE
:101D4000D2B201218B185B101D005D43ADB2DCB235
:101D5000A84206D2013CE2B29142F3D90139C8B29D
:101D600030BDFF2B02D00134E1B2F5E71800F7E7F0
:101D7000074A1379103B1BB2191C002B00DA002113
:101D800001231171034A11780B4313707047C04649
:101D90000014002030110020064A13791033191C5A
:101DA000FF2B00D9FF2101231171034A11780B4346
:101DB00013707047001400203011002030B5084C1B
:101DC0002578AD070AD0A1706070111C322A00D9A5
:101DD0003221044AE17011780B43137030BDC046C4
:101DE000001400203011002010B50748C378103BC4
:101DF0001BB21A1C002B00DA00228178D2B2407884
:101E00000123FFF7DBFF10BD0014002010B50748C9
:101E1000C37810331A1CFF2B00D9FF228178D2B26D
:101E200040780123FFF7CAFF10BDC0460014002010
:101E300010B507488378C278103B1BB2191C002BE1
:101E400000DA0021C9B240780123FFF7B7FF10BDC7
:101E50000014002010B507488378C2781033191C8D
:101E6000FF2B00D9FF21C9B240780123FFF7A6FF5D
:101E700010BDC0460014002010B5054B5878DA7824
:101E80000838997880B20123FFF798FF10BDC0464B
:101E90000014002010B5044B5878DA78997808308F
:101EA0000123FFF78BFF10BD0014002010B50324A1
:101EB0000B4A137823400BD000280AD10430034387
:101EC00013700022074B1A70074B1A7811431970D0
:101ED00010BD2C2802D950204042F0E78000EEE7E8
:101EE000001400202909002030110020064B10B5F5
:101EF000187880080138C0B2002800D12C300121A8
:101F0000FFF7D4FF10BDC04600140020054B10B5EC
:101F10001878800801302C2800D901200121FFF712
:101F2000C5FF10BD001400200A235843C0B20300AF
:101F30000A331A1CDBB282B0302B00D930220B4995
:101F4000D3B2497800290AD0182B00D91822D3B26D
:101F5000FF22134010401B02184302B07047021CBE
:101F6000182800D21822D0B2F2E7C046021500208D
:101F7000074B10B51870074B074A1B789B079B0F40
:101F8000137006F045F80322044B1A7010BDC046CA
:101F9000270900200014002028090020290900201A
:101FA00084B004AA12880190D21A92B2131CFF2A9C
:101FB00000D9FF23DB4301AA9178DBB25B18191C1F
:101FC000FF2B00D9FF211288FF231000120A1840AE
:101FD00012020B401B041043184304B070471FB596
:101FE00006AA12880190D21A92B2131CFF2A00D9B5
:101FF000FF23DBB2D84301AA9178C0B20918107848
:102000000C1C1B181370FF2900D9FF241288FF2312
:102010001000120A1840120223401B0410431843F8
:1020200004B010BD7FB5040C160008AA019001ADE4
:10203000E0B21288FF24482B06D8D31A9BB21A1C90
:10204000A34200D9221C94B2083189B2102905D9C3
:10205000330008339BB2102B00D9FF240322E44342
:10206000F3171A400B4B92195B78E4B292102418C4
:10207000D2182A70211CFF2C00D9FF212A88FF23A7
:102080001000120A184012020B401B0410431843A0
:1020900004B070BD001400201FB5019006A8008890
:1020A000C318C81709184140D017121809B29BB2BB
:1020B00042400901FF2900DDFF2112B21201FF2A6F
:1020C00000DDFF22081C14B209B2A14200DD101C81
:1020D0001B189BB21A1CFF2B00D9FF22D34301AA65
:1020E0009178DBB25B18191CFF2B00D9FF211288F5
:1020F000FF231000120A184012020B401B04104369
:10210000184304B010BD052184B04B4304AA1288C3
:102110000190D21892B2131CFF2A00D9FF23DB438F
:1021200001AA9178DBB25B18191CFF2B00D9FF21A3
:102130001288FF231000120A184012020B401B04E1
:102140001043184304B07047CAB2822184B0891A80
:10215000019001AB081C002900DA00201A78997858
:1021600012181A701A88FF231000120A184012025F
:102170000B401B041043184304B07047C943030CC1
:10218000C9B2DBB24B4382B218001100FF23120A1E
:10219000000A1940184012020A43000484B0104398
:1021A00004B070471FB518310F4B4900CB5C01904C
:1021B0009A1AD2B253B201ACC0B2002B01DA524229
:1021C00053B21822DBB25A431212801820702288B0
:1021D000FF231000A178120A184012020B401B04C2
:1021E0001043184304B010BD3CA40010F0B51833E0
:1021F000174E5B00F5186F780325203F7D436A4337
:102200009D5D85B02B00703B5BB2019001ACC0B20C
:10221000002B02DA70235B1B5BB23825ED1A032317
:102220006B4359437F238918CA171A405218D21199
:10223000821822702288A17810008033120A184078
:1022400012020B401B041043184305B0F0BDC046FA
:102250003CA40010F0B585B00190051C183310485F
:102260005F00C3195E783B5C203E760056437F22B8
:10227000703B5B0059437118C81710404018C011DB
:1022800001AC401920702288FF231000A178120AA7
:10229000184012020B401B041043184305B0F0BD58
:1022A0003CA400107FB5114E18335B000190051C53
:1022B000F018407801AC20384243985DFF23703815
:1022C00048437F211218D01708408018C0114019C8
:1022D00020702288A1781000120A184012020B40C8
:1022E0001B041043184304B070BDC0463CA400104A
:1022F00084B004AA01901078032253435B1001A913
:10230000C3180B700A88FF2310008978120A18403E
:1023100012020B401B041043184304B07047000026
:10232000F0B51831114E4B00F3185F7885B03B00C3
:10233000203B5BB2019001ACC0B2002B02DA202539
:10234000ED1B6BB24900715C8A1AD318C318237055
:102350002288FF231000A178120A184012020B40B5
:102360001B041043184305B0F0BDC0463CA4001048
:1023700084B0019018310A4849004118497801ABEE
:102380008A1A1A701A8899781000FF23120A1840C6
:1023900012020B401B041043184304B07047C046A0
:1023A0003CA4001084B00190183109484900095C30
:1023B00001AB8A1A1A701A8899781000FF23120A42
:1023C000184012020B401B041043184304B070471E
:1023D0003CA4001084B001AB01901A701A8899785F
:1023E0001000FF23120A184012020B401B04104376
:1023F000184304B070470000030C84B001901831FA
:10240000D8B2104B4900C95CE4234B431B121C3368
:102410009A1AD317D2185A40D200821A131C1204E7
:1024200000D500231BB2584301AB1B88FF211A00C3
:1024300000121B0A0A4008401B0213430004184301
:1024400004B070473CA400101FB5040A0190183175
:10245000E0B2114C49000C5DE421614309121C31CA
:102460008A1AD11752184A40D200821A01AB111CA5
:10247000120400D5002109B24843001258701A888E
:1024800099781000FF23120A184012020B401B0417
:102490001043184304B010BD3CA4001010B5FFF762
:1024A00019FC10BDF8B505000E001700002420002F
:1024B0003B00320029000134FFF7F0FF302CF6D149
:1024C000F8BD000010B5064B1B791033191CFF2B0B
:1024D00000D9FF2189B20909024807F089FC10BD23
:1024E00000140020B80B00001FB51C004BB2019077
:1024F000002B01DA49424BB23820C01A80B292B2A6
:1025000040435243801880B2012812D8C0B203223F
:10251000504301AB24181C701A8899781000FF23CF
:10252000120A184012020B401B041043184304B057
:1025300010BDFFF7FDFBEAE710B5041E02D1C80F7E
:10254000C00110BDC217831853401BB2CA1800291E
:102550000DDBC81A4001110007F04AFC2021081ABF
:1025600040B2C0B2002CECDA4042C0B2E9E7591ADE
:10257000500107F03DFC6021F1E730B585B00190D6
:1025800008A8047810001C1BFFF7D6FFE4B201ADC9
:10259000241A2C702A88FF231000A978120A1840E8
:1025A00012020B401B041043184305B030BD30B578
:1025B00085B0019010001D00FFF7BEFF01AC40196F
:1025C00020702288FF231000A178120A18401202FE
:1025D0000B401B041043184305B030BD7FB5061CEB
:1025E000040C08A8057810005D1BFFF7A5FFE4B2F6
:1025F0006519EDB2281AB3B2C0B260431A00FF24C5
:102600001B0A000A224020401B0213430004184307
:1026100004B070BD7FB5060A019008A80078F6B234
:102620001C1A1000FFF788FF3419E4B2241AE4B230
:10263000744301AD24126C702A88FF231000A9781E
:10264000120A184012020B401B041043184304B036
:1026500070BD7FB5040C061CE4B21000E51AFFF74C
:102660006BFF8300EDB2C01A2818B2B2C0B260434B
:102670001300FF24120A000A2340204012021A43CA
:102680000004104304B070BD7FB5040A0190E4B2A9
:102690001000E51AFFF750FF8300C01AEDB22D18A5
:1026A000EDB26C4301AE241274703288FF23100027
:1026B000B178120A184012020B401B041043184351
:1026C00004B070BD402110B501400200002901D0C6
:1026D000C243D2B20F234C1EA141134092065B1895
:1026E000920F084952008A18517812784B431B11F7
:1026F0009B1840B2DBB2002801DA5B42DBB2803BC0
:10270000D8B210BD0CA400107FB50E000190C4B269
:102710001000FFF7D7FF1836114B7600F35C01ADC0
:10272000C018C0B20300803B5BB2002B03DA8023E9
:102730005B421B1A5BB20C225B00DBB253431B12E1
:10274000E3182B702A88FF231000A978120A18407A
:1027500012020B401B041043184304B070BDC04666
:102760003CA40010054B06481A885043054A8018BF
:1027700080B21880030A1818C0B2704722090020DE
:102780000508000019360000054B2F225B78002B4E
:1027900001D00023172282425B41D8B27047C04665
:1027A000021500207FB50500061C2D0A000C264BE3
:1027B000C0B2EDB2F6B21C5C002D41D00620FF2164
:1027C000704307F015FB55235B4243437600F61830
:1027D00003235E43FF21F6B233008E1B4A1B6B437B
:1027E00075431B122D12CB1A491B6243634361438D
:1027F00012121B120912D2B2DBB2C9B206281AD8C1
:10280000FEF732FB040612101519040023000C0019
:10281000FF210B400C4018020A40120420431043D1
:1028200004B070BD21001C0013000A00F0E70B008B
:1028300021001400F9E7210014001A000B00E7E75B
:1028400022002300E4E7C046649F0010F0B5374E35
:1028500087B001903078FFF767FB02AB1880344BEC
:1028600005041B79C4B22D0E591CFF2B00D1FF218A
:10287000304807F0BDFA87B2E1B28D4204D8280093
:10288000FFF782FF07B0F0BD23002B4A9033D35CE3
:1028900072781A4237D0294A94461378013B5BB2CA
:1028A0001A0632D538008022214B520019790131A5
:1028B000914200D1FF215A1C414350785B780002BD
:1028C000034390780912000489B21843019B98478A
:1028D00003AB02041870120E00025A70000E9870BA
:1028E0001B8804AA138090700498FFF75BFF010413
:1028F000030205AA090E1B0E107051709370C2B22C
:102900002000FFF7CBFD0134B6E76246D218527CB7
:102910008A4209D11A000C325200624450789278EF
:10292000120210438742BED8013BB9E724090020B8
:1029300000140020FFFF00003CA40010FA1100204A
:10294000F0B5484B8FB0089018780991FFF7ECFA72
:1029500003041B0E0493444B0AAA1B78C5B21080D3
:102960000593424A6B0031339B18049A0393EBB2F0
:102970009A4204D81000FFF707FF0FB0F0BD2B00FC
:102980003A4A9033D35C374A52781A4224D0002412
:102990003749032201310BA807F048F9089E059A30
:1029A000F3B29A421CD8324B0BAAD8780CAB4443F2
:1029B0002412947012889C701A800C98FFF7F2FE13
:1029C000010403020DAA090E1B0E107051709370C2
:1029D000C2B22800FFF762FD039B01350233C4E752
:1029E000214A039B9219013B18785378527AC01AF6
:1029F00080B203B20693039B40431B789B1A9BB2A1
:102A00001AB25B43C01880B20792012826D8C0B220
:102A10003300154A0C335B00D2185178937880222A
:102A20001B021943124B52001B790133934200D110
:102A3000FF234B430BAF1B12BC709BB20093099C4E
:102A40000300079A06990B98A047030404021B0E83
:102A5000240E38707B70BC700136A0E7FFF768F970
:102A6000D6E7C04624090020FA1100203CA400103B
:102A700000140020F0B5264E87B007003078FFF72D
:102A800053FA02AB1880234B05041B792D0E9B08CB
:102A9000591C214BC4B21B689BB24B431B12DBB2C7
:102AA0000193E1B28D4204D82800FFF76DFE07B014
:102AB000F0BD2300194A9033D35C72781A4225D0B6
:102AC000144B5A1C50785B78000203439078019AAB
:102AD00000041843B84703AB02041870120E00023A
:102AE0005A70000E98701B8804AA13809070049886
:102AF000FFF758FE0104030205AA090E1B0E107011
:102B000051709370C2B22000FFF7C8FC0134C8E7CF
:102B10002409002000140020541200203CA40010BE
:102B2000F0B52E4B89B007001878FFF7FDF904AB1C
:102B300018802B4A2B4B15791B68AD089BB25D435F
:102B40002D12EDB20604C4B228004030C0B2FFF727
:102B5000B9FD803843B228000293FFF7B3FD8038F7
:102B600043B2360E0393E3B29E4204D83000FFF71F
:102B70000BFE09B0F0BD22001B4990328A5C174958
:102B80004978114227D0164A0095511C487852784E
:102B9000000202438878029900041043039AB84760
:102BA00005AB02041870120E00025A70000E9870E5
:102BB0001B8806AA138090700698FFF7F3FD0104A6
:102BC000030207AA090E1B0E107051709370C2B257
:102BD0002000FFF763FC0134C5E7C046240900204C
:102BE00000140020541200203CA40010F0B5354B16
:102BF0008BB007001878FFF797F906AB1880324BB7
:102C0000C4B21A68314B92B21B7965005B0853431A
:102C10001B12DBB203932E4B06043135360EED1832
:102C2000E3B29E4204D83000FFF7AEFD0BB0F0BD1A
:102C30002300274A9033D35C224A52781A423DD06F
:102C40006B1E1878703880B203B204932B7840431F
:102C5000203B9BB21AB25B43C01880B20592C3B24C
:102C6000012802D9FFF764F80300184A0398511CA1
:102C70000090487852780002024388780499000452
:102C80001043059AB84707AB02041870120E0002F1
:102C90005A70000E98701B8808AA138090700898CC
:102CA000FFF780FD0104030209AA090E1B0E107034
:102CB00051709370C2B22000FFF7F0FB013402356F
:102CC000AEE7C04624090020541200200014002062
:102CD0003CA40010F0B52D4B87B007001878FFF723
:102CE00023F902AB18802A4BC4B21A68294B92B25E
:102CF0001B7965005B0853431B12DBB20193264B23
:102D000006043135360EED18E3B29E4204D8300089
:102D1000FFF73AFD07B0F0BD23001F4A9033D35CA4
:102D20001A4A52781A422ED06B1E1978194B2A78FB
:102D3000581C844640785B780002034360468078E4
:102D4000203A7039000409B212B21843019BB84707
:102D500003AB02041870120E00025A70000E987035
:102D60001B8804AA138090700498FFF71BFD0104D0
:102D7000030205AA090E1B0E107051709370C2B2A7
:102D80002000FFF78BFB01340235BDE7240900204A
:102D900054120020001400203CA4001037B5040099
:102DA000FFF7E0FC0500FFF7DDFC6A46094BC001B8
:102DB000DB7800127F301570937050700098FFF729
:102DC000F1FC01040302C2B21B0E090E2000FFF742
:102DD00065FB37BD00140020F0B5154B85B0DA78DF
:102DE0009F7801925C780600FFF7BCFCB4210500D7
:102DF00020004900B43007F00BF803230A1BD11759
:102E00001940891889101D404D43019A02AB65197C
:102E10001D705F709A700298FFF7C4FC01040302F2
:102E2000C2B21B0E090E3000FFF738FB05B0F0BD33
:102E30000014002030B55200074C12180319121963
:102E4000064D1C1A64191D880233ED430D5393423D
:102E5000F6D1012030BDC04600E01F100020E0EF99
:102E600010B5EFF3108372B6044C236006F0B8FF80
:102E7000236883F31088012010BDC0465C12002037
:102E8000044A054B0220D15C002902D00021013800
:102E9000D15470478C15002004100000044A054BE3
:102EA0000220D15C002901D10138D0547047C046BE
:102EB0008C1500200410000000207047F0B5114B65
:102EC00085B01B7802900F0003920A26092B00D9C7
:102ED000093E012539000298039B9847002802D13A
:102EE0000135B54201DD05B0F0BD2B0004006B4398
:102EF00001930A20FEF7E4FB019B01349C42F8D1C8
:102F0000E8E7C0461E11002000207047064B10B5B0
:102F10001B78002B02D0FEF795FC10BDFEF792FC4B
:102F2000024B1B681818F8E7021500202015002036
:102F3000244A30B511784B070DD514230340043BC8
:102F40005C425C4118230340083B5D426B419C425C
:102F500001D00C2358400B070DD514230340143B1C
:102F60005C425C4118230340183B5D426B419C422C
:102F700001D00C2358405278D3070DD511230340BC
:102F8000013B5C425C4118230340083B5D426B41BE
:102F90009C4201D00923584093070DD511220240CD
:102FA000113A53425A4118230340183B5C42634193
:102FB0009A4201D009235840CB0601D518239843E3
:102FC00030BDC046AA12002010B582280CD014D8FB
:102FD000312866D004D829285AD02A2867D010BDB5
:102FE000352850D03928FAD1384B1A78920767D152
:102FF0005B781B07F3D52920F1E7E32827D00BD80E
:10300000E02816D0E228EAD1304B1B785A07E6D5E3
:10301000E320DB0619D4E2E7E62826D0E72829D00A
:10302000E428DCD1294B5A789207D8D51B78E720C1
:10303000EFE7264C0121227813000B402FD1647852
:103040000C42CCD0E320D206C9D50020C7E71F4AE6
:103050001378590732D45278D20731D41022134052
:103060005A4253415B421840B9E7184B1B781A0784
:10307000DDD4B4E7154A1378190723D452789207A0
:10308000ECD5E420ABE7114B1B789B06B3D4A6E745
:103090000E4B1A78920617D45B781B079FD5392000
:1030A0009DE70A4B1B785B0699D52A2097E7074BCB
:1030B0001B785B0600D492E7312090E7E2208EE790
:1030C000E0208CE7E6208AE7352088E7AA12002076
:1030D00070B5FFF779FF5F4B0400984228D8802332
:1030E000DB01984268D2DF2818D8CD2853D2A72810
:1030F00009D8A52849D2012818D0002801D00428D1
:1031000014D2002412E0C228FBD85834E4B2524B47
:103110006400E05A8824E401044307E04F4B9842DE
:1031200000D987E0FF283AD8E728EAD8201C70BDEC
:103130004B4B984212D84B4B98424DD24A4B984237
:1031400045D81F3B984267D30323C4B2A0081C4054
:10315000023BA34040011843444C1EE0444B9842BC
:1031600007D81F3B984242D31F2020400002414C09
:10317000D2E7414B984244D9404B9842C1D804020F
:10318000F820400104403E48C6E75B343D4AE0B2C7
:10319000145C1C43CAE7A020C001044315E0000AE8
:1031A000C0B2FFF7C5FE0500E0B2F8242D026401AD
:1031B000FFF70AFF2C40F0E7C0B2FFF705FFF0234E
:1031C0001B012340304C1C430443A4B2AEE71F2034
:1031D000204000022D4C9FE70323C0B2C4061840D4
:1031E000023B640F83402A4864011843D5E7032358
:1031F000C0B2C406640F1840023B834064012548F6
:10320000F3E71F202040FFF793FEF824000264013B
:1032100020400134FF347FE71F202040FFF788FE65
:10322000E405240F2402C30600D500011A4B00B2A6
:103230001C43B2E7C004C00EFFF77AFE0500E0B2FF
:10324000F8242D0264012C408025FFF7BDFEAD015E
:103250002843A2E7FF4F000074A00010FF1F0000EA
:103260005F520000405200001F520000008DFFFF1F
:103270009F520000F4A00000BF520000DF52000087
:10328000F0A0000070A0001000A0FFFFF1A000005F
:10329000008CFFFF008AFFFF0090FFFF024A1378B7
:1032A000834313707047C046FF13002030B5144BA2
:1032B000144A1B781078144918430B78002B13D04C
:1032C0001843124B1B78002B0FD0114B1B787F2B10
:1032D0000BD91E240F4B002202331C199C4207D12C
:1032E000002A01D000230B7030BD06240A4BF2E700
:1032F0001D78002D01D00132D2B20133EEE7C04675
:10330000FF1300208A150020F61300201A09002060
:10331000AA1200209C0E0020040E00200721054B5D
:10332000054A1B7812789A4200D1704701330B404E
:10333000F9E7C0468915002088150020012370B5E3
:103340001E00864030001E008E403100074D0143B4
:103350002C78C9B293400800220020409A43814251
:1033600001D12343DAB22A7070BDC0462813002071
:103370000122824002490B7893430B707047C0468C
:103380002813002070B5094D07242B781A008243BA
:103390002A70144009D19A4207D0054B5B785B072D
:1033A00003D5D008FFF7E4FF2C7070BDF4130020A4
:1033B000AA12002001238340024A11780B431370A4
:1033C0007047C0462813002070B51D4B1B78002B9A
:1033D0001ED01C4B1B787F2B1AD9FFF767FF1A4CA6
:1033E0001A4D607020222900200006F0D1FC002830
:1033F0000DD020222100280006F018FC144B1B6879
:10340000002B04D006229B6822702000984770BDD4
:10341000FFF74CFF0F4C104D2070082229002000B0
:1034200006F0B6FC0028F2D008222100280006F0A1
:10343000FDFB074B1B68002BE9D05B68E5E7C04646
:103440001A090020AA1200209C0E0020E61200207B
:103450009C110020040E0020DE12002010B5002870
:1034600003D0FFF71BFFFFF7AFFF10BD10B500281B
:1034700005D0034B1A7810431870FFF7A5FF10BD55
:10348000FF13002010B5002807D0031FDBB2A02BCC
:1034900004D8FEF715FAFFF797FF10BD030020339D
:1034A000DBB2072B07D80723034001209840C0B2A6
:1034B000FFF7F4FEEFE703005B33DBB2022B03D828
:1034C0000020FEF775FAE8E703005833DBB21A2B49
:1034D00003D80020FEF752FADFE703003333DBB2F4
:1034E000122BDAD8FEF7BAFAFEF78EFAD5E700000B
:1034F00010B5041E29D0031FDBB2A02B26D82A4BFF
:103500001B78002B14D0294B1A7800237F2A0FD95F
:10351000274BC2089B180722997801230240934049
:103520000B420DD02000FEF7CBF9FFF74DFF07E06F
:10353000204AD1188978A142F4D00133062BF8D162
:103540002000FEF7E7F9FFF73FFF10BD030020332F
:10355000DBB2072B08D807231C40063BA340164AC2
:1035600011780B431370EEE703005B33DBB2022BE1
:1035700004D8124AD05CFEF71BFAE6E70300583382
:10358000DBB21A2B05D80E4A5B00985AFEF7F6F903
:10359000DBE703003333DBB2122BD6D8FEF716FB82
:1035A000FEF732FAD1E7C0461A090020AA1200201D
:1035B0009C0E0020040E0020FF13002070A00010BD
:1035C00074A0001000238268037503691B68996862
:1035D0009142FBD25A6803604260106058607047A5
:1035E00010B50C00FDF7CBFF207D052807D8FDF7AF
:1035F0003BFC0C060603130F0022A3691A6001238B
:103600005B42A3612000FFF7DDFFFDF7AFFF10BDB8
:10361000A269936801339360226863681A60226824
:103620005360ECE7D0231B061968084A890052183A
:103630005268016910B5914205D01A6D920702D502
:10364000012252425A65FFF7BDFF10BDE010002075
:1036500070B5022504006D422068844200D170BD1F
:10366000036823605C608561FFF7DCFFF4E770B5F9
:1036700005000E000468AC4200D170BDE36833431E
:10368000E360236933420AD06068A368C2691343C8
:10369000027DC3610A2A04D182691A4207D12468D3
:1036A000E9E70B2AFBD1826913409A42F7D1002344
:1036B0008361FFF7B7FFF2E72131890010B50C589D
:1036C000002C2CD0FDF75BFF0421201DFFF7CFFF5E
:1036D0002100E36F0C311A685B7902339B00D31829
:1036E0005B689B695A68E3691A60A2690132A2614A
:1036F000A26A9B18626AE361934201D3236BE36180
:10370000E068814206D00368E3605960002383616A
:10371000FFF788FF2000FDF7DFFFFDF727FF10BD53
:103720001C4BFA21D8681C4B89001B6870B5DB0064
:10373000D8400F231840194B0130584306F048FB7E
:10374000174B596A9C6A5A6A8A4220D10026220085
:1037500004008C200B0035000021400024184D414E
:1037600012196B410F490A604B60FDF708FF0E4BC1
:103770009A6801329A60B24206DC186802685360A7
:103780001A608661FFF74EFFFDF7F0FE70BD110075
:10379000D8E7C046000020503007002030750000F8
:1037A00000400540500C002034070020F0B50468AC
:1037B000C2608B6048600C6061600160142B00D2B5
:1037C0001423D0252D062968144C890061184968F6
:1037D0009E188F6A1249381D800046500120B8405B
:1037E00048638E6B3043886314208E6AB71ABB42DD
:1037F0000CD82B6801309B00E3185B6812189B6A99
:1038000004339B00CA5003003200EEE7142803D9AA
:103810000123E2681343E360F0BDC046E0100020DE
:1038200000400540F0B5142900D21421D0261422FE
:103830000D4C0E4D3606336847189B00E3185B6845
:103840009B6A04339B005F51AB6A181A814203D80C
:10385000013211001800EEE7142A03D90123E268AF
:103860001343E360F0BDC046E01000200040054077
:1038700070B5D0252D062B681B4A9B00D3185B68BA
:103880000468196988420CD041680C600268846839
:10389000516091680919916000220260013A9A61B1
:1038A00070BD190010311C616160002404601E6944
:1038B0000E4CB1420AD12968A36B89005218526894
:1038C000916A01228A409343A363E9E78168B26861
:1038D000DB695118B160A06AC31A9942E0D9C91ACC
:1038E000FFF7A0FFDCE7C046E010002000400540E5
:1038F00010B503689C68A2420CD85C688A600B60B3
:103900004C602160596099688A1A9A6001235B4271
:10391000836010BD121B1B68ECE70000D02212066A
:103920001368F0B52D4E9B00F3185D6885B02B0031
:103930001033019303922C69294FEA69B86AA16890
:10394000831A994240D85318EB6122680293636846
:103950001A6022685360002323602A69019B934206
:103960000AD10121039B1B68BA6B9B00F3185B68AB
:103970009B6A99408A43BA63FDF7F8FD20002169EC
:10398000E3689847FDF7FBFD60690028D3D0029BF0
:10399000BA6AD11A431A884204D20223F068034358
:1039A000F360002301982F69B84204D12100FFF78A
:1039B000FDFE05B0F0BD5A188A4200D21A0021005F
:1039C0000198FFF795FFB6E7019AA242F1D0C91A14
:1039D000E861A160FFF726FFEBE7C046E01000209A
:1039E0000040054070B5130004000E4A00680E0048
:1039F000926A844203D12000FFF7D8FE70BDE168CF
:103A0000511A5D188D4200D21D008168A94203D968
:103A100019001000FFF706FF2A0031002000FFF711
:103A200067FFEBE70040054070B50D4C05002368CB
:103A30000E00002B02D02000FFF71AFFD0231B0638
:103A40001A68084B92009B185868074B2A00E360DD
:103A500000231030210026616361FFF7C3FF70BDB2
:103A600088120020E0100020514300100100D431E2
:103A70000B7870B57F22040018001040212800D078
:103A800096E01800904347D0802800D090E0487816
:103A9000022839D0032829D0012800D088E04B79AA
:103AA0000A791B02250013432200C835CC32D034DA
:103AB000002B0CD0022B10D088785B4B2B60187039
:103AC000CB7988791B020343136000233AE05749FE
:103AD000296008211160236070BD8B78022BEBD127
:103AE000534B2B60062313600023F4E74A790879CF
:103AF000120202435CD1230001204E49C833D03466
:103B0000196058602260E7E7230001204A4AC83361
:103B10001A605860D034E7E74A780A2A40D00B2A66
:103B200013D0092A44D14A7908791202024301D0FC
:103B3000022A3DD12300414AC8331A6002225A604A
:103B40003F4BD03423600120C6E74B790A791B0232
:103B500013431FD18D78374B1D70002D1AD1364E6F
:103B60003378002B16D0FDF70AFD364A0023307853
:103B7000290006F045F90023334A80185941FA22FA
:103B80000023920006F054F921008000FFF74CFF5B
:103B9000FDF7ECFC22000023C8321360536041E0C3
:103BA0002A4ACB78244E15783370ED09D9D0F1E745
:103BB000602218009043812818D14A78062A15D12E
:103BC0004B790A7960681B0213434568CA78200064
:103BD0008978A847002801D100207DE723004268AA
:103BE000C8331A600268D0345A606EE7184AC2328D
:103BF0001278002AF0D060221340202BECD1230051
:103C0000D5331A780023202AE6D3212A04D9222A80
:103C1000E2D12200C832C0E722000E49C83211604A
:103C200007215160D0348DE734150020A112002007
:103C3000E71300201A09002084120020A01400209D
:103C40003517001040420F00E7030000AA120020C1
:103C5000B40700201B090020F0B58FB0FFF71EF954
:103C60000B90EFF3108372B68022FF20324E334F59
:103C70001201310040033B6006F0D2F83B6883F349
:103C8000108880200021B4462D4A2E4B4001664604
:103C9000775C1D0057403B02099300233C000893CA
:103CA0003A002B0012196B413F0F2E013E43019643
:103CB00026010096009E019F92197B4112196B41CB
:103CC000E70E6E013E43039666010296029E039F35
:103CD00092197B41670EEE013E430596E60104967C
:103CE000049E059F92197B41270E2E023E430796A4
:103CF00026020696069E079F92197B41089E099F01
:103D0000013192197B418142C1D10C920D93EFF3A5
:103D1000108372B6094C04220CA90B48236006F0EC
:103D20007FF8236883F310880B9B012B01D1FFF7E9
:103D3000A7F802200FB0F0BD8C1500205C12002007
:103D400025232284E49CF2CB00F01F0070B5802470
:103D5000084D6401084B2A5901209A4209D9FFF7FE
:103D60007FF803000020834203D0FFF775FF034B69
:103D70002B5170BD8C150020FF1F000008100000A3
:103D800073B580246A460C4D6401911D2B5908803F
:103D9000EFF3108272B6094E3260FF225203981878
:103DA000012206F03DF8336883F310882B59023363
:103DB0002B51FFF7CBFF76BD8C1500205C12002045
:103DC0008B1C9B0070B5C318050050690E001400D1
:103DD0005A60002803D02022002105F0E8FFA069E6
:103DE000002803D02022002105F0E1FF3100280047
:103DF000FDF7E6FA70BD000070B50400052973D820
:103E00000800FDF731F8597103595972FDF7B7FBF6
:103E10003F4A01212000FFF7D3FF3E4A0421200042
:103E2000FFF7CEFF3C4D3D4A2B00C03319782000F0
:103E3000FFF7C6FF2B00C1331978394A2000FFF77E
:103E4000BFFF2B00C2331978002903D0354A200068
:103E5000FFF7B6FF2B002C000026FC34F8331E6061
:103E60006369314863602360A661E661FFF7F0FB98
:103E70002B00F4331E70A36C2C486363E36C26653F
:103E8000E363A3636665FFF7E3FB96235B00EE54F1
:103E900001212748FFF7EBFB2648FDF71DFCFDF746
:103EA00065FB254B1B78B34202D00520FDF758FC7B
:103EB0000220FDF755FC17E0FDF752FCFDF75FFB14
:103EC00002211B48FFF7D3FB134C01252300F433D9
:103ED0001D701548FFF7BCFB96235B00E5541348A3
:103EE000FFF7B6FBFDF742FB70BDFDF748FB10483E
:103EF0000121FFF7BCFB084B00221900F4310A70C6
:103F0000962149005A54FDF731FB0520D1E7C04600
:103F100000A5001054A70010B40700201C080020C2
:103F20003808002054080020A0080020D8080020ED
:103F300098080020940800200613002010B5094BB3
:103F40001B78002B0AD0084B1B787F2B06D91E222A
:103F500006480021023005F02AFF10BD0448062261
:103F6000F7E7C0461A090020AA1200209C0E002084
:103F7000040E002010B500240D4B1C70FFF7DEFF6F
:103F80002000FDF715FD2000FDF7F8FC094B1C7023
:103F9000FFF71AFA06222100074805F008FF074B31
:103FA0001C70074B1C70074B1C70FDF72DFD10BDDE
:103FB000FF1300208A150020E1130020EE130020DB
:103FC000EF130020ED13002070B58024044D640130
:103FD00028002200002105F0EAFE024B2B5170BDA3
:103FE0008C1500200810000070B5FEF757FF051E65
:103FF00003D1FEF745FF280070BDFEF731FF040036
:10400000FFF7E2FF012D04D1FEF73AFF431E98416E
:1040100004402000F0E7F7B51700012202318900C3
:1040200041184B685C692275216822691B8A8D1AC8
:104030009D4200D91D000023180052198A425841A0
:10404000226182030092A17DAEB20800421E90411F
:104050004203019201224A40A275A0699F4200D00A
:10406000A38BC0182A00A16805F0E0FD8420A36896
:1040700000025D19009B30431843019BA560034378
:104080001800002F00D01804FEBD00008B1C9B0000
:10409000C3185B68F7B506000C1E5F6924D11A4B84
:1040A000DB6C0022210030000193FFF7B4FF3A6877
:1040B0003B6905009A4205D0012221003000FFF73C
:1040C000AAFF05436B0113D5104A019B13401A0048
:1040D000A023DB051343002C11D10B4AD3640C4BF6
:1040E0001034E4001D51F7BD094ACB00D358D8E77E
:1040F000084A019B13401A0080239B05EAE7044904
:10410000E2008B50EBE7C04600001150FFFFFFDFDD
:1041100000001050FFFFFFAF70B501258D400489EE
:104120002C4304818C1CA400041964686469236016
:104130000023A2606360E3602361FFF7A7FF70BD07
:1041400070B50600C43632780400152A16D801234B
:1041500093401A4A134220D180256D031D400ED191
:104160009B020BD50B233370FDF709FA2B002A00B5
:1041700029002000FFF7D0FFFDF7F8F970BDC368F4
:104180009B695B68002BF9D10300D0331B68002BBF
:1041900000D0984700233370F0E70021FDF766F860
:1041A00000212000FDF782F863681B68002B02D015
:1041B0000621200098470623EDE7C046410E000087
:1041C00070B50500C43504002878152835D8FCF7EB
:1041D0004BFE3E34343434343E34340B28353434DE
:1041E0003434343434343E3E2300CC33DA7B186824
:1041F0000E331B7812021343984212D2E368198AD5
:1042000005F0DEFD0E1E0CD1FDF7B9F933003200CA
:1042100031002000FFF780FFFDF7A8F90A232B707B
:104220000BE014232B70FDF7AAF9002320001A00DD
:104230001900FDF7C3F9FDF799F970BD2300D033DC
:104240001B68002B01D0200098470023E7E70021DE
:104250002000FDF70BF800212000FDF727F8636828
:104260001B68002B02D00621200098470623D6E7C2
:104270000B00F0B511339B00C3185C6885B00500D6
:104280000E00002C43D0FDF77AF9201D0821FFF71E
:10429000EEF92300B7004433EF190193FB685B6923
:1042A0001B68002B17D0236D226E01332365A36D8D
:1042B0009B18E26DA365934201D3A36EA365606C66
:1042C000019B984207D00368019A63645A600023F7
:1042D0008361FFF7A7F903A90198FDF7BEF9039BD6
:1042E000021E0ED1FB685A691268002A0DD01B8A83
:1042F000013B1A4209D1E36F1B7E002B05D12A0036
:10430000D43231002800FFF707FFFDF72FF905B081
:10431000F0BD13B5446BE36F1A681178042915D109
:10432000217A022912D1197901238B4012891A426C
:104330000CD1200001A94430FDF78FF9021E05D0F1
:10434000E46F019B21792068FFF7E6FE13BD0000B2
:1043500070B50C00FDF713F92378042B02D0FDF79C
:1043600005F970BD144B1B78DB09F8D1134D2B7880
:10437000002BF4D0124B1B78002BF0D023899B0725
:1043800005D408230F4A01212000FFF7C5FE287835
:104390000D4A0023002105F033FD00230B4A80184D
:1043A0005941FA220023920005F042FD21008000CD
:1043B000FFF73AFBD3E7C046AA1200208412002080
:1043C0001A090020A112002040420F00E70300005C
:1043D000F7B5FDF7D4F8284C2300FC331A6E1168AA
:1043E0000878042836D12000E8300078022831D13E
:1043F000107901228240098911422BD1DA6B996B25
:104400008A4227D1596B002924D0196D002921D067
:104410000439891A1ED01160596B01395963596CDE
:104420005218196C9A638A4222D225000026FC3564
:104430002E6501A91148FDF710F92B6E07001A7EB1
:10444000B2420AD1FC34206E019B01793A00006827
:10445000FFF762FEFDF78AF8F7BD01981A6931008F
:10446000121A381805F0A3FC2B6E1B690193E9E7BB
:10447000DA6C9A63D9E7C046B4070020D808002058
:10448000030070B580249D18080064010021A54236
:1044900004D80349591805F0C9FB0121080070BD73
:1044A0008C15002013B56B46DC1D00230122210072
:1044B0002370FFF7E5FF207816BD10B52820FFF721
:1044C000F1FF10BD10B52520FFF7ECFF242801D027
:1044D000002010BD2620FFF7E5FF0228F8D1253087
:1044E000FFF7E0FF243843425841F2E770B50C244F
:1044F0004C43602148435200A4182418200029305E
:10450000FFF7D0FF000285B220002A30FFF7CAFF74
:10451000284380B270BD07B50B0401AA1180190EA3
:104520000023072907D81278052A04D8052802D8BD
:10453000FFF7DCFF030018000EBD0000F0B50524F6
:10454000012785B00F4B01AE30801A780E4B1B78D7
:104550001A430092009BE5B223413B4205D1013C46
:10456000F8D20025280005B0F0BD328803AB1A80D0
:1045700003992800FFF7CFFFFEF7AAFD80B20128BC
:10458000EDD0EFE728130020271100201FB501AC64
:1045900020800198FFF7D2FF228803AB1A8003998D
:1045A000FFF7B9FFFEF794FD04B010BD10B500246D
:1045B0000379A3420ED00088FFF7E8FFC3B20004DE
:1045C000000F0B2806D8012282400B490A4203D172
:1045D00052060CD4200010BDF02B02D003D8E72BDC
:1045E00003D80124F6E7F42BFBD00024F2E7E72BF5
:1045F000F7D9F12BEED1F4E70C0C000073B5090AE2
:10460000040AC9B20090E4B2C5B2002912D0002A4F
:1046100010D0FFF793FF0600072C06D8052D04D80D
:10462000062161434919FCF775FC30000099FFF73A
:1046300072FF76BD0026072CF7D8052DF5D8062089
:1046400060434019FCF74EFC0600EEE737B56B46B9
:1046500000249D1D022229002000DC80FFF710FFAE
:104660002A88034B20009A4201D1FFF72BFF3EBD61
:10467000E6FE00008023F0B5160089B08218050020
:1046800000915B019A4216D8604F3200C719390079
:10469000009805F07DFB0124002800D1B1E0320034
:1046A0000099380005F0C2FAFEF7F8FB05900028E3
:1046B00003D1FEF7E5FB0024A3E0009B1A78012E4E
:1046C00033D0EB0731D4524B9D422ED8009B5B7800
:1046D0001B021343012B28D85A4253411F225B422D
:1046E0009343603B6A0A1343FF220399DBB2914371
:1046F0000A001A43039203996B08464ADBB21B0275
:104700000A401A436B4603929889FFF739FB04006D
:1047100001286AD1009B023E023502330093002E2D
:10472000CBD1FFF713FB040063E03F2D18D8FF2126
:1047300002984023884301002B43DBB21943354BD9
:1047400012020B40134302936B461889FFF718FBC4
:104750000400012849D1009B013E01350133DDE70A
:104760000496052E01D90523049306AC06220021E8
:10477000A01C05F01CFB072200272B0C1340049AF9
:10478000A570D200134323702B0A63700194009A22
:10479000019BD25DDB19DA70049B0137BB42F6D175
:1047A000019B1888FFF7ECFA040001281DD1019B3A
:1047B0005888FFF7E5FA0400012816D1012E0FD022
:1047C000019B9888FFF7DCFA040001280DD1032E25
:1047D00006D9019BD888FFF7D3FA0400012804D139
:1047E000009BF61BED19DB1998E7002C01D0022C79
:1047F0000AD1059B012B04D1FEF742FB002800D112
:1048000059E7200009B0F0BD0024F2E78C15002024
:10481000FF3F0000FF00FFFF37B50025042201A97C
:1048200004000195FFF72CFE019BAB4205D004224A
:1048300001A920000195FFF71DFF37BD13B5040046
:10484000082269461820FFF71BFE0822694620004F
:1048500005F09EFA002804D0082221001820FFF756
:1048600009FF13BD10B50348FFF7E8FF0022024B14
:104870001A7010BD0014002030110020352310B52F
:10488000064C032223700649601C05F0CFF98123F2
:104890005B42A380FFF7E6FF10BDC0460014002076
:1048A000409E001073B56B469C1D00230E00022233
:1048B000210023800500FFF7E3FD23889E4205D0F9
:1048C0000222210028002680FFF7D4FE73BD0000DD
:1048D0000A4910B54B785A07D20F82420CD00122F8
:1048E000024004209200834313434B700988FFF772
:1048F000D9FF0220FEF746FD10BDC046AA120020D7
:1049000037B50D000400FFF7CDFDA84206D06B4679
:104910000122D91D20000D70FFF7ACFE37BD70B528
:1049200005002424002800D1DB3421002520FFF7D6
:10493000E7FF0221002D00D1FD312620FFF7E0FF27
:1049400021002720FFF7DCFF70BD70B50C244C431D
:10495000602148435200A41824182000190A293065
:104960001D00FFF7CDFF2000E9B22A30FFF7C8FF96
:1049700070BD0000F7B500273C00002502E00135BE
:10498000082D17D00C2200266A430D4BFB18D318B4
:104990000193F3B29C46E0B2E9B20123032C02DC9E
:1049A000019A7300D35A62460136FFF7CEFF062EF6
:1049B000EFD1E4E701346037062CDED1F7BDC04605
:1049C0001CA5001070B58025044C6D01200000214D
:1049D0000134FFF795FFAC42F8D170BD69020000C9
:1049E00010B50020FFF79BFF00212820FFF788FF6C
:1049F000FFF7C0FFFFF7E6FF0120FFF790FF10BDB4
:104A000007B5FFF7F1FA22490020FFF74BFF00211D
:104A10000220FFF775FF01211E4B03201970FFF7DD
:104A20006FFFA02104204901FFF73CFF0021062071
:104A3000FFF766FFFF210720FFF762FF0820FFF75F
:104A4000EBFE00212420FFF75BFF00211720FFF77A
:104A500057FF00210C20FFF753FF00210D20FFF727
:104A60004FFF00220023684600920193FFF7E6FE05
:104A70002020FFF7D1FE0020FFF751FFFFF7B0FF26
:104A80000F20FFF7C9FE1320FFF7C6FE07BDC04683
:104A9000E6FE000027110020D0231B061A68084BF1
:104AA00092009B185B6810B5D96808751868026891
:104AB0001A60536001220275D860FBF707FC10BD35
:104AC000E01000200A00D02109060B6830B5040070
:104AD00012489B00C3185B6887B0DD68531C18D070
:104AE0000B6869469B00C0180D4B40680393002378
:104AF000103005930495FEF775FF2000FFF7CCFFFB
:104B0000009B002B02D06846FEF7B2FEA86907B0F2
:104B100030BD2000FFF7C0FFF8E7C046E0100020DE
:104B2000E1350010D0231B061A680A4B92009B182F
:104B30005B6810B5DB68002908D0426818605A60CD
:104B4000136043600420FFF7BDFF10BD0120404209
:104B5000FBE7C046E010002070B504000D00E368DC
:104B6000002B07D0236900201A1DA262E2699B185E
:104B7000E36208E0237A002B06D129002000FFF72A
:104B8000D1FF0028EBDA70BD02204042FBE7F7B509
:104B900004000F00009201930025FCF7F0FCA36ACB
:104BA000002B09D101992000FFF7D6FF002803D080
:104BB000FCF7DCFC2800FEBDA06AE36A009A1B1A21
:104BC000561B9E4200D91E00402E19D939004022A2
:104BD00005F02CF8A36A40374033A3624035A36A3E
:104BE000E26A934204D3E3692000191FFCF720FD19
:104BF000FCF7BCFC009B9D42DCD2FCF7C0FCCEE77E
:104C00003900320005F012F8A36ABF199B19A3629C
:104C1000AD19E4E710B54430FFF7B9FF10BD01232B
:104C200010B544305B42FFF7B2FF10BD70B5040011
:104C30000E001500FCF7A3FCA36A002B09D1290084
:104C40002000FFF789FF051E03D0FCF78FFC28002A
:104C500070BDA36A1E70A36AE26A0133A362934225
:104C600004D3E3692000191FFCF7E2FCFCF77EFC8B
:104C70000025ECE710B54430FFF7D8FF10BD012246
:104C800010B544305242FFF7D1FF10BD70B504009B
:104C90000D00E368002B07D062690020131D126825
:104CA000A3629B18E36208E0237A002B06D1290057
:104CB0002000FFF737FF0028EBDA70BD02204042EA
:104CC000FBE7F7B504000F00009201930025FCF705
:104CD00056FCA36A002B09D101992000FFF7D6FFEB
:104CE000002803D0FCF742FC2800FEBDA16AE36A5D
:104CF000009A5B1A561B9E4200D91E00402E17D9FF
:104D00003800402204F092FFA36A40374033A36288
:104D10004035A36AE26A934202D32000FCF7ABFC61
:104D2000FCF724FC009B9D42DED2FCF728FCD0E778
:104D30003800320004F07AFFA36ABF199B19A362FE
:104D4000AD19E6E710B50C30FFF7BBFF10BD01232E
:104D500010B50C305B42FFF7B4FF10BD70B5040016
:104D60000D00FCF70CFCA36A002B09D129002000E0
:104D7000FFF78CFF051E03D0FCF7F8FB280070BD81
:104D8000A36AE26A1D780133A3629342F4D3200040
:104D9000FCF771FCF0E710B50C30FFF7DFFF10BD3A
:104DA000012110B50C304942FFF7D8FF10BD10B5F6
:104DB0000400FCF7E4FB21000820FFF783FEFCF76A
:104DC000D5FB10BD70B505005024392800D0002453
:104DD0002800FA26FEF78CFBB600002C03D1280031
:104DE000FEF750FB70BD3000013CFFF7E0FFA4B2BE
:104DF000F3E70000F7B50193150042790C00264B4C
:104E0000002A0CD01970FCF71DFD244B18800723D5
:104E100001201C40A040C0B2FEF728FBF7BD1E7861
:104E20008E422FD11D4B1F88FCF70CFDC71BBFB254
:104E3000C72F27D82C002034AE4215D033002033A2
:104E4000DBB2072B06D8072301201E40B040C0B2BA
:104E5000FEF704FBE3B2072B19D8072301202B40F0
:104E60009840C0B2FEF702FB0198E4B2FFF7AAFF38
:104E7000072CD3D8072301201D40A840C0B2FEF75D
:104E8000EDFACBE7072301201C40A040F6E701988C
:104E9000FFF798FFC2E7C0469C1400209E14002034
:104EA00010B5FFF767F80648FFF781FFBFF34F8F94
:104EB000044B054ADA60BFF34F8FC046FDE7C0469A
:104EC00090D0030000ED00E00400FA05F0B5B24B0D
:104ED0009DB01A7804900123824208D1AF4BB04AAA
:104EE0001B7812789B079B0F9B1A5A1E9341AD4F5C
:104EF000BB70AA4B7A785B799A4205D000221100E8
:104F000010007B70FDF7CEFA049B2C2B01D900F02A
:104F1000C9FD1800FBF7BCFF2D004B007B00CF0044
:104F200008014C0196019A019C01A001A201A60171
:104F3000A801AA01AC01AE01B001B201B401B601F1
:104F4000B801BC01BE01C001000240028C028E0209
:104F500090020E03B7033504DE047F058405860541
:104F600093059605A005A205AC05AE05B805BA05E2
:104F7000C405BB78002B14D100208A4A1378013372
:104F8000137000280BD10222874B1A70854A927841
:104F9000002A04D1049A002A01D103321A701DB0EC
:104FA000F0BD002211001000FDF77CFAE4E738782C
:104FB000FCF7BAFF1BAB1880784B0322591C050481
:104FC000C4B208A804F032FE0898FDF7EBFB030416
:104FD000190E030209AA1B0E2D0E1070517093704A
:104FE000C6B202910193E3B29D4201D8280049E084
:104FF00023006E4A9033D35C7A781A4205D0019B25
:10500000320002992000FDF749FA0134EBE73878C5
:10501000FCF78AFF614D0304AF78EE786C781B0EC5
:1050200001930CAB1C705F709E701BAA1080C2B203
:105030000C980592FDF7B6FB020403020DA9120EAF
:105040001B0E8B7008704A70C1B2069303910792D1
:105050002A790AABA4181C705F709E700A98FDF73D
:10506000A1FB0126030407020BAA1B0E3F0E059CA1
:10507000107053709770C5B20293019AE3B29A42CE
:1050800003D81000FDF780FB77E72300474A9033F1
:10509000D35C444A52781A4207D0334207D03B00CF
:1050A0002A0002992000FDF7F9F90134E5E7069B93
:1050B000039A0799F6E73878FCF736FF1BAB1880A0
:1050C000364B04049E78DD781B79240E9B080193EF
:1050D000C7B2FBB29C4201D82000D3E73B00334962
:1050E000304A9033CB5C52781A421BD07B0031336C
:1050F000CB5C01991B094B4328490EAA497856708D
:105100005B18137095700E98FDF74CFB01040302B9
:105110000FAA090E1B0E107051709370C2B23800A6
:10512000FDF7BCF90137D4E73878FCF7FDFE1BAB7F
:1051300018801A4B04049E78DD781B79240E9B0896
:105140000193C7B2FBB29C42C6D93B001749154A2E
:105150009033CB5C52781A421BD07B003033CB5C4F
:10516000019910AA4B430D495B11497856705B18A1
:10517000137095701098FDF715FB0104030211AA36
:10518000090E1B0E107051709370C2B23800FDF7FB
:1051900085F90137D6E7C046270900200014002012
:1051A0002809002024090020290900203CA400101F
:1051B0003878FCF7B9FE03041B0E0193C54B1BAAFC
:1051C00010805F78C34A9E78DD78C34BC4B21B68F9
:1051D00010799BB2C00858430012C0B2FDF772FAB2
:1051E0000300803B5BB2002B03DA80235B421B1A77
:1051F0005BB25B00DBB25D4312AA2D1217705670D2
:1052000095701298FDF7CEFA0704060213AB3F0E15
:10521000360E18705F709E70C5B2019AE3B29A4262
:1052200000D82EE72300AD4A9033D35CAC4A5278C5
:105230001A4205D033002A0039002000FDF72EF96C
:105240000134EAE7A748FDF715FC96E6A648FAE719
:10525000A648FDF73FFD90E6A548FAE7A548FDF70B
:10526000C5FC8AE6A448FAE7A448ECE7A448EAE7C4
:10527000A448E8E7A448E6E7A448F0E7A448E8E73C
:10528000A448E6E7A448EAE7A448FDF749FC74E629
:10529000A348FAE7A348F8E73878FCF745FE1BABCC
:1052A0001880BA780404240E002A25D1894B1A7973
:1052B000894B10321968101C89B2FF2A00D9FF20CF
:1052C00080B24843001280B20A2104F079FD89B20D
:1052D000002900D000E7FDF745FA030030205843CD
:1052E0007E4B00121B1890337A781B78134200D142
:1052F000F2E6FDF771FDEFE61D78A54200DBEBE677
:105300002B00764A9033D35C7A781A4202D0280078
:10531000FDF762FD0135F0E73878FCF705FE1BABC1
:105320001880BA780404240E002A25D1694B1A7912
:10533000694B10321968101C89B2FF2A00D9FF206E
:1053400080B24843001280B2052104F039FD89B2D1
:10535000002900D0C0E6FDF705FA030030205843CD
:105360005E4B00121B1890337A781B78134200D1E1
:10537000B2E6FDF713FDAFE61D78A54200DBABE614
:105380002B00564A9033D35C7A781A4202D0280018
:10539000FDF704FD0135F0E73878FCF7C5FD19ABE2
:1053A00018804C4B1AAE591C05040322C4B23000BD
:1053B00004F03CFC474B474A5B782D0E0193464B6B
:1053C00010791B68C0089BB258430012C0B2FDF7A9
:1053D00079F90300803B5BB2002B03DA80235B4248
:1053E0001B1A5BB20C205B00DBB24343019A1B1219
:1053F000D31833701A98FDF7D5F91BAE030430703B
:1054000000021B0E000E7370B070E3B29D4200D814
:10541000ECE52300314A9033D35C7A781A4205D008
:10542000B378327871782000FDF738F80134ECE772
:105430003D4808E73D4806E73878FCF775FD264EFD
:105440003B4B32681B6805042D0E9A4200D8CDE50F
:10545000FDF788F930244443204B24121B19903364
:105460001B787A781A4200D1C0E5FDF77BF98307F3
:105470002BD4FDF777F90700FDF774F9154BC00140
:1054800000127F30DB78C0B214AA9370177050708E
:105490001498FDF787F9010403021B0EC2B2090E2E
:1054A0002000FCF7FBFF0B4B1B791033191CFF2B63
:1054B00000D9FF21FA2089B20909400004F098FCC4
:1054C0003368C0181A4B186090E5002318001F00BD
:1054D000DAE7C04600140020541200203CA400105B
:1054E0002409002049240010F92300108926001007
:1054F0005326001015260010DD250010D5230010BE
:10550000A52300107123001021230010F1220010A8
:10551000E9240010AF2500107B250010A522001003
:1055200055220010ED21001009270010A5210010C0
:105530003C150020DB4B00201B680193DA4B019ADD
:105540001B689A4200D918E5BB78834218D0020044
:105550000100FCF7A7FF0126FDF704F90223751EE1
:1055600018423DD001337343D04A9B180022D91E04
:105570000A70991E013B0A701A700136312EEBD168
:105580003878FCF7D1FC0325C4B265430304C74E49
:105590001BAA1B0E10800193AD19019AE3B29A4227
:1055A0003AD81000FDF7F0F8002817D104000325C1
:1055B000019B5F1EBC423FDBFDF7D4F8830747D554
:1055C00003235F430023F355F6197370B370FCF7A0
:1055D00079FFB54B1B681818B24B1860019851E55C
:1055E000FDF7C0F816AC2070FDF7BCF8C001001242
:1055F0007F30AF4B6070DB78A370032316985D4358
:10560000AA4CFDF7CFF828550304000264191B0EBD
:10561000000E6370A070B0E72300A64A9033D35CFD
:105620007A781A4205D0AB782A7869782000FCF79E
:1056300035FF03350134B0E7280029006043013409
:10564000614330187118032204F0F0FAE4B2AFE7B6
:10565000FDF788F817AC2070FDF784F8C001001240
:105660007F30934B6070DB78A370032317985F4300
:10567000FDF798F8F05503040002F7191B0E000E11
:105680007B70B870A3E7BB78002B04D00022110018
:105690001000FCF707FF3878FCF746FC03041B0EEC
:1056A0000693814B1BAA10801A68834B1B689A4291
:1056B00053D97F4B0322591C18A804F0B7FA189845
:1056C000FDF770F80204030219A9120E1B0E0870F0
:1056D0004A708B70794CC1B2764F0191029203935C
:1056E000002500E001257B1B5B79665D785D0593F5
:1056F000002E34D0039B019A0299FCF7CFFE039B46
:10570000019A02990598FCF7C9FE63195B78635505
:10571000012DE7D1A578B878FE78002D28D0039B1D
:10572000019A0299FCF7BAFE039B019A0299300094
:10573000FCF7B4FEFDF716F8032318404342584126
:105740005F4BA070033406379C42C9D1FCF7BAFE08
:10575000554B1B681818584B1860069892E4330094
:1057600032003100FCF79AFE330032003100C9E705
:105770002B002A002900FCF791FE2B002A002900AB
:10578000D5E73878FCF7D0FB19AA030410801B0E6C
:10579000C2B203920293BB78002B09D00022110001
:1057A0001000FCF77FFE30220021464804F0FFFA8B
:1057B0003B78002B10D1444C2588FCF743F8182384
:1057C000451BADB2AB429B41404A5B421370182D62
:1057D00002D9FCF737F82080002401940025062226
:1057E0006243344B99184F5D0399B9424BD80299E3
:1057F000B94248D90199DB190131C9B20191344943
:1058000090331B78497819423DD02E4B9B185E5D32
:10581000274B32003000553AAA30997812B2031C57
:10582000FF2800D9FF230320434321480233C078D7
:10583000DBB24343101C1B0A002A00DA0020562268
:105840005242121A1AA80270417083701A98FCF71B
:10585000A9FF010403021BAA1B0E090E107093700E
:105860005170C2B23800FCF719FE184B1B78002BA0
:1058700009D0013E36B2731C00D1002606226243D5
:10588000104B9B185E550135EDB2062DA7D10134A2
:10589000E4B2082C02D10298FFF7F4FB019B092B1C
:1058A0009CD9F8E74015002054120020291300204D
:1058B000001400203CA4001044150020B91300205F
:1058C000D1130020231200205A120020261100209C
:1058D00024090020764BFF20DC78032363439B10D0
:1058E00001936B461B792100059304F081FAC3B242
:1058F0000393BB78002B0CD0002211001000FCF7A2
:10590000D1FD302200216B4804F051FA00226A4B8D
:105910001A706A4A674D137801331370684B02930B
:105920000026002E39D1644B1B78002B35D104F0B2
:1059300087F9644B984230DC2C7006237343029A3B
:10594000D75CFF2F0FD0E85C059B834234D2019BCC
:10595000C01AE11A584304F04BFAC1B20B002200FE
:105960003800FCF79BFD0136082EDAD1029B013589
:1059700001330293544BAB42D2D1504B03991A7866
:105980008A4201D100221A704B4A13780133DBB2EC
:105990001C2B19D81370FFF7EFFA06227243AB5C89
:1059A000002BCAD09C42C8D9444903980978814247
:1059B000C3D1013BAB54C0E70199604304F018FA2E
:1059C0000023C2B21900CBE700232A21137007225B
:1059D000384B4942063B0193601E364D019B6E1ABF
:1059E0000D0030355B1A0295072A05D1029D5D191D
:1059F0002F78A74200D128701D78A54201D31870D6
:105A00009C710133B342EFD1013AD2B20631002A80
:105A1000E3D1FFF7B1FA2D48FCF718FFFFF7ADFA15
:105A20002B48F9E72B4B1878013800B2431C00D102
:105A300000202949C0B2FCF783FFFFF79EFA2649F0
:105A40000020F8E7234B1878013800B2431C00D13E
:105A50000020C0B22149EEE72049F1E71D4B18783C
:105A6000013800B2431C00D10020C0B21C49E2E75B
:105A70001B49E5E7174B1878013800B2431C00D1E9
:105A80000020C0B21749D6E71649D9E7114B18785C
:105A9000013800B2431C00D10020C0B21249CAE74D
:105AA0001149CDE73B7801333B70FFF76CFAC046F4
:105AB0000014002023120020A41100202511002032
:105AC0003CA4001054555505291200207D210010DA
:105AD00049210010FA110020072100109920001020
