:100000000C9437060C9454060C9454060C944C3102
:100010000C9454060C9454060C9454060C945406F8
:100020000C9454060C9454060C94DA1B0C94961BF6
:100030000C9454280C9454060C9454060C945406B6
:100040000C9454060C9454060C9454060C945406C8
:100050000C9454060C94B21C0C9454060C94540644
:100060000C9454060C9454060C9454060C945406A8
:100070000C9454060C9454060C9454060C94540698
:100080000C9454060C9454060C9454060C94540688
:100090000C9454060C9454060C9454060C94540678
:1000A0000C9454060C9454060C94540605010980D3
:1000B000A101850319012AB700150126B700950192
:1000C00075108100C0050C0901A101850419012AE0
:1000D000A002150126A002950175108100C005013E
:1000E0000906A1018506050719E029E71500250184
:1000F0009508750181020507190029EF15002501F2
:1001000095F075018102050819012905950575010C
:100110009102950175039101C00660FF0961A1017B
:100120000962150026FF00952075088102096315F4
:100130000026FF00952075089102C005010906A15F
:1001400001050719E029E7150025019508750181CA
:10015000029501750881010507190029FF15002680
:10016000FF0095067508810005081901290515008D
:100170002501950575019102950175039101C00056
:10018000000000000000000000000000000000006F
:10019000000000000000000000000000000000005F
:1001A0000000007E0F00D4FFFFFFC70000007800B2
:1001B000000000000000002A2B28000000000000C2
:1001C0000000000000000000000029000000002CDA
:1001D0001E3420212224342627252E362D37382779
:1001E0001E1F202122232425263333362E37381F85
:1001F0000405060708090A0B0C0D0E0F1011121347
:100200001415161718191A1B1C1D2F3130232D35E4
:100210000405060708090A0B0C0D0E0F1011121326
:100220001415161718191A1B1C1D2F3130354C20A8
:100230002020206162636465666768696A6B6C6D23
:100240006E6F707172737475767778797A31323334
:1002500034353637383930524542545F2D3D5B5D79
:100260005C233B27602C2E2F20202000DA0281FF08
:10027000D9F1DB20A4A62EAF00A0C0D30000A1C8F6
:10028000D30000AED580A81F408D1420001E0F059E
:1002900000047F3F1F643214643214783C1E1E1425
:1002A0000A05556E6465660041646A757374005290
:1002B00061697365004C6F776572004465666175AE
:1002C0006C74004C617965723A20003A002C206B06
:1002D000007800808182838485868788898A8B8CD8
:1002E0008D8E8F9091929394A0A1A2A3A4A5A6A76E
:1002F000A8A9AAABACADAEAFB0B1B2B3B4C0C1C2E5
:10030000C3C4C5C6C7C8C9CACBCCCDCECFD0D1D245
:10031000D3D4000001010101010101010102020227
:1003200002020202020203030303030303030404A1
:10033000040404040405050505050606060606076B
:100340000707070708080808090909090A0A0A0B24
:100350000B0B0C0C0C0D0D0D0E0E0E0F0F0F1010C5
:10036000111111121213131414151516161717184C
:100370001819191A1A1B1B1C1D1D1E1E1F202021B7
:100380002222232424252626272829292A2B2C2DFE
:100390002D2E2F30313232333435363738393A3B1F
:1003A0003C3D3E3F404142434445464748494A4C14
:1003B0004D4E4F50515354555658595A5B5D5E5FE0
:1003C000616264656668696B6C6D6F707273757776
:1003D000787A7B7D7E8082838587888A8C8E8F91D8
:1003E000939596989A9C9EA0A2A3A5A7A9ABADAF02
:1003F000B1B3B5B7BABCBEC0C2C4C6C9CBCDCFD1EC
:10040000D4D6D8DBDDDFE2E4E7E9EBEEF0F3F5F894
:10041000FAFDFFFFAA7F55402223252628292A2CF2
:100420002D2F3032333536383A3B3D3E404243453E
:1004300047494A4C4E5051535557595A5C5E606279
:10044000646668696B6D6F71737577797B7D7F8189
:10045000838587898A8C8E90929496989A9C9E9F89
:10046000A1A3A5A7A8AAACAEAFB1B3B4B6B8B9BBA7
:10047000BCBEBFC1C2C3C5C6C7C9CACBCCCDCED016
:10048000D1D2D2D3D4D5D6D7D7D8D9D9DADADBDB03
:10049000DBDCDCDCDCDCDDDDDDDDDCDCDCDCDCDB9A
:1004A000DBDBDADAD9D9D8D7D7D6D5D4D3D2D2D1E3
:1004B000D0CECDCCCBCAC9C7C6C5C3C2C1BFBEBCD6
:1004C000BBB9B8B6B4B3B1AFAEACAAA8A7A5A3A147
:1004D0009F9E9C9A98969492908E8C8A8987858309
:1004E000817F7D7B79777573716F6D6B69686664E9
:1004F00062605E5C5A5957555351504E4C4A4947B9
:10050000454342403E3D3B3A3836353332302F2D5D
:100510002C2A29282625232200AF00AE2B00140008
:100520001A00080015001700E0000400160007007C
:1005300009000A00E1001D001B000600190005006B
:10054000000000000000E300777C2C002A0013006C
:1005500012000C0018001C00340033000F000E00C5
:100560000D000B0029003800370036001000110084
:10057000000000000000E600787C28002B001E0030
:100580001F00200021002200E00000000000000009
:1005900000000000E100000000000000000000007A
:1005A000000000000000E30001002C002A002700EA
:1005B0002600250024002300000000004F00520008
:1005C000510050000000000000000000000000008A
:1005D000000000000000E600010028002B001E02C1
:1005E0001F02200221022202E000000000000000A1
:1005F00000000000E100000000000000000000001A
:10060000000000000000E30001002C002A00270287
:1006100026022502240223023500310030002F007B
:100620002E002D003502310230022F022E022D0243
:10063000000000000000E60001002800007C00002F
:10064000000000000000000020782378257827783B
:100650000000000021782478267828780000000027
:10066000000000000000E30001002C00000000007A
:10067000000000000000000000000000000000007A
:10068000000000000000000000000000000000006A
:10069000000000000000E6000100280009025B00E5
:1006A000030100A0FA09040000010301010009216F
:1006B000110100012244000705810308000109041B
:1006C00001000203000000092111010001222200A3
:1006D0000705820320000107050303200001090428
:1006E00002000103000000092111010001226D0038
:1006F00007058403200001120100020000000853D6
:100700004601000100010200010C0343006F00726A
:10071000006E0065000000100366006F006F00733C
:1007200000740061006E0000000403090400000072
:100730000000003E5B4F5B3E003E6B4F6B3E001C7B
:100740003E7C3E1C00183C7E3C18001C577D571C0C
:10075000001C5E7F5E1C0000183C180000FFE7C311
:10076000E7FF00001824180000FFE7DBE7FF003078
:10077000483A060E00262979292600407F050507FC
:1007800000407F05253F005A3CE73C5A007F3E1C55
:100790001C0800081C1C3E7F0014227F2214005FEE
:1007A0005F005F5F0006097F017F00006689956A30
:1007B0000060606060600094A2FFA2940008047E64
:1007C00004080010207E20100008082A1C080008D9
:1007D0001C2A0808001E10101010000C1E0C1E0C05
:1007E0000030383E383000060E3E0E060000000095
:1007F00000000000005F0000000007000700001478
:100800007F147F1400242A7F2A12002313086462B5
:1008100000364956205000000807030000001C2243
:100820004100000041221C00002A1C7F1C2A0008F5
:10083000083E08080000807030000008080808081A
:10084000000000606000002010080402003E5149D2
:10085000453E0000427F4000007249494946002160
:1008600041494D33001814127F1000274545453982
:10087000003C4A49493100412111090700364949E4
:10088000493600464949291E0000001400000000B6
:100890004034000000000814224100141414141401
:1008A000000041221408000201590906003E415D82
:1008B000594E007C1211127C007F49494936003E96
:1008C00041414122007F4141413E007F4949494128
:1008D000007F09090901003E41415173007F08086A
:1008E000087F0000417F4100002040413F01007F20
:1008F00008142241007F40404040007F021C027FDC
:10090000007F0408107F003E4141413E007F0909FD
:100910000906003E4151215E007F09192946002643
:10092000494949320003017F0103003F4040403FF5
:10093000001F2040201F003F4038403F0063140844
:100940001463000304780403006159494D43000017
:100950007F41414100020408102000004141417FD5
:100960000004020102040040404040400000030730
:100970000800002054547840007F28444438003850
:100980004444442800384444287F003854545418C0
:100990000000087E0902001824241C78007F080447
:1009A00004780000447D4000002040403D00007F6E
:1009B000102844000000417F4000007C0478047847
:1009C000007C08040478003844444438007C18242F
:1009D000241800182424187C007C0804040800480B
:1009E000545454240004043F4424003C4040207CE0
:1009F000001C2040201C003C4030403C004428109B
:100A00002844004C9090907C004464544C44000076
:100A10000836410000000077000000004136080061
:100A2000000201020402003C2623263C00000000D4
:100A300000000000000000000000000000C0E0F026
:100A4000F8F81800C0F0FCFEFFFFFFFFFFFFFF7E7D
:100A500000000000000000000080C0E0E0E0E0E0F6
:100A6000E0E0E0C0800000000080C0E0E0E0E0E006
:100A7000E0E0E0C080000000E0E0C0C0E0E0E0E0D6
:100A80000000E0E0C0C0E0E0E0E0E0C08000000086
:100A90000080C0E0E0E0E0E0E0E0E0C080000000D6
:100AA0000000000000000000000000E0F0F0F0E0B6
:100AB000ECEEF7F37020007C7C7C7E007E7E7E7FF7
:100AC0007F7F000080C0E07E5B4F5BFEC00000C007
:100AD00000DCD7DEDEDED7DC00C000000000000056
:100AE0000000000000000000000000000000000006
:100AF000000000000000F8FCFEFFE000FFFFFFFF29
:100B0000FFFF80FFFFFFFFFFFFFFFFFF1F07010049
:100B10000000000000000000FFFFFF810000000057
:100B2000000081C3C3C30000FFFFFF81000000007D
:100B3000000081FFFFFF0000FFFFFF010000000039
:100B40000000FFFFFF010000000001FFFFFF0000A9
:100B5000FFFFFF9D1C1C1C1C1C1C9DDFDFDF000019
:100B600000000000000000000000000F1F3F7F7F1A
:100B70007F7F7F3F1E0C001F1F1F3F003F3F3F7FB7
:100B80007F7F00307B7F7830202030787F3B0003F0
:100B9000000F7F0F0F0F7F0F000300000000000009
:100BA0000000000000000000000000000000000045
:100BB000000000000000030F1F3F3F3F3F1F1F3F8B
:100BC0003F7F7F7F3F3F1F3F7F7F7F7F7C787838ED
:100BD0001C0F0000000000000001030707070707C3
:100BE00007070703010000000001030707070707C5
:100BF00007070703010000000707070000000000C7
:100C000000000707070000000000000707070000BA
:100C10000001030707070707070707030100000094
:100C200000000000000000000000000000000000C4
:100C300000000000000000000000000000000000B4
:100C400000000000000000000000000000000000A4
:100C50000000000000000000000000000000000094
:100C6000000000000000000000000000000011244F
:100C70001FBECFEFDAE0DEBFCDBF27E0AAEDB1E0C7
:100C800001C01D92A131B207E1F711E0A0E0B1E08F
:100C9000E0EEF9E602C005900D92AA3DB107D9F742
:100CA0000E947B280C9493340C940000982FE091C0
:100CB00002054091C90457E0E41302C080E00895A2
:100CC0002E2F30E05E9FF0011124E653FB4F81810F
:100CD000681306C08081981303C085818111EFCF0E
:100CE000F9013196E770E8CFFC01AC014C5F5F4F32
:100CF0008FEF91E32191822728E030E087FF09C040
:100D0000880F892721503109C9F7E417F50791F7B2
:100D10000895880FF7CFE8EDF0E080818E7F808323
:100D20001092E2001092DA001092E100A0EEB0E022
:100D30008C9181608C9380818F77808319BCA7ED23
:100D4000B0E08C918E7F8C9380818F7E8083109217
:100D5000B20408952091E4003091E50095E6A901E0
:100D60002091EC00822F817020FF06C08091E80066
:100D700080FF06C080E008952091E80022FD1AC09F
:100D80008091BF04882389F0853089F08091EB0041
:100D900085FD0FC02091E4003091E5004217530714
:100DA000F9F29150E1F684E0089582E0089583E03D
:100DB000089581E008958091C10487FF13C0809158
:100DC000E80082FF06C08091E8008B778093E800FE
:100DD00004C08091BF048111F2CF08958091BF04B7
:100DE0008823D9F38091E80080FFF8CF8091E80054
:100DF0008E77ECCF982F9093E900242F762F50E038
:100E0000891731F07091EC002091ED005091F000C5
:100E100021FD07C09F5F973071F78093E90081E063
:100E200008953091EB003E7F3093EB003091ED0060
:100E30003D7F3093ED003091EB0031603093EB005B
:100E40007093EC002093ED005093F0002091EE00A1
:100E500027FDE0CF80E00895B0E0A0E0E2E3F7E016
:100E60000C948732C8EDD0E088818F7E8883E7EDCF
:100E7000F0E080818160808384E082BF81E08093A4
:100E8000B20488818E7F888302EE10E0F801108220
:100E90001092DA0081EEC82ED12CF60110828881E2
:100EA0008F77888388818068888388818F7D888315
:100EB00019BC1092BF041092C0041092BE0410928C
:100EC000BD0490EEE92EF12CF70180818B7F8083A9
:100ED00088818160888342E060E080E00E94FA06B9
:100EE000F60180818E7F8083F8018081816080831C
:100EF000808188608083F70180818E7F80838881F4
:100F000080618883CDB7DEB7E8E00C94A332FC01A2
:100F1000CB012091C7043091C8042617370790F001
:100F2000009729F42091E8002E772093E80040E014
:100F3000009751F4411108C08091E80082FF31C050
:100F400080E00895C901F3CF2091BF042223A9F1C5
:100F50002530A9F12091E80023FD2DC02091E80063
:100F600022FDEACF2091E80020FFE2CF3091F3008C
:100F70002091F200009719F02830310558F041E037
:100F80002830310509F040E02091E8002E772093C9
:100F9000E800CECF41914093F10001972F5F3F4F82
:100FA000E9CF8091BF04882341F0853041F08091E2
:100FB000E80083FFC1CF81E0089582E0089583E0D7
:100FC0000895089508958091B404089587E797E7F8
:100FD000909301088093000888E19AE00FB6F89496
:100FE000A895809360000FBE90936000FFCFA4E0AF
:100FF000B0E0EDEFF7E00C948D328FB7F8942091CC
:10100000AE043091AF044091B0045091B1042983F3
:101010003A834B835C838FBF69817A818B819C810A
:101020002496E2E00C94A932909154019923E1F0C6
:101030009091AB0497FF18C0E82FE695E695E695EA
:10104000803FF0F4F0E0EC51FE4F877021E030E09B
:10105000A90102C0440F551F8A95E2F7CA01809585
:101060009281892382830895EEEDF1E091918913B5
:1010700003C0DF0111971C9251E0E43EF507B1F780
:101080000895909154019923C1F09091AB0497FF7A
:1010900014C0E82FE695E695E695803FF8F4F0E079
:1010A000EC51FE4F877021E030E001C0220F8A959D
:1010B000EAF78281822B82830895AEEDB1E0EFEFF3
:1010C00090E02D91821751F0EF3F19F4211101C0EA
:1010D000E92F9F5F9630A9F7EF3F09F408950E2E90
:1010E000000CFF0BE452FE4FE6CFA3E0B0E0EBE7CD
:1010F000F8E00C948D329C018091A9049091AA048F
:1011000082179307A1F03093AA042093A904E091D9
:10111000A704F091A804309751F084E089833B83C1
:101120002A830084F185E02DCE010196099523964E
:10113000E2E00C94A932A3E0B0E0E1EAF8E00C941C
:101140008D329C018091A5049091A604821793078B
:10115000A1F03093A6042093A504E091A704F09198
:10116000A804309751F083E089833B832A8300846D
:10117000F185E02DCE01019609952396E2E00C94CD
:10118000A9328091A304882359F0E091A704F0913B
:10119000A804309729F00190F081E02D0995089579
:1011A00080E00895FA01882311F009950895FB0164
:1011B000FCCFEFEDF2E0118282818460828308959A
:1011C00080919504982F9C7F61F483708460809354
:1011D000950480919804833318F082E380939804F7
:1011E00008958C3AB0F38370886AF1CFB0E0A0E044
:1011F000ECEFF8E00C948532082F162FE901433309
:1012000008F042E3E42FF0E0ED5EFC4F11110BC05B
:10121000E4915E2F4E2F4983E8835A83CDB7DEB722
:10122000EAE00C94A132212F30E0449186E0089F3F
:1012300060011124EE24EA94F12CC601B7010E944A
:101240006932802F90E0880F991F55E5569FF00175
:10125000579FF00D11248E1B9F0B982F990F890F0C
:10126000F701E21BF30B4E9FD0014F9FB00D1124ED
:10127000EB2F189F80011124012F11275701A01A6D
:10128000B10A4A9D80014B9D100D1124512F570129
:10129000A81AB108A29EC001A39E900DB29E900D07
:1012A0001124892F9927E81AF90A4E9DC0014F9DF4
:1012B000900D112463307105D1F02CEFC21623E09C
:1012C000D20670F461307105B1F062307105B9F089
:1012D0002FEFC216D10408F09ECF5B2FE92F9BCFD2
:1012E0006430710579F066307105B9F394CFE12F60
:1012F000542F4B2F90CFE42F412F5B2F8CCF592FA2
:10130000E42FF7CF542F492F86CF80E00895F8942B
:10131000E82FE295EF70F0E041A18F7021E030E01E
:10132000B90102C0660F771F8A95E2F7CB01962FAD
:101330009095942391A392A1892B82A378940895E8
:10134000A4E0B0E0E6EAF9E00C948D328091A304C9
:10135000882371F00E94F70769837A838B839C83CB
:1013600069817A818B819C812496E2E00C94A93278
:101370000E94F70769837A838B839C83809185021F
:1013800090918602A0918702B091880229813A81CA
:101390004B815C81280F391F4A1F5B1F29833A83C9
:1013A0004B835C83DDCF9091AB0492FF10C041E092
:1013B000282F2471243009F040E031E0282F2871D3
:1013C000283009F030E0431711F02CE0822793FF1A
:1013D00010C041E0282F2471243109F040E031E0B1
:1013E000282F2871283109F030E0431711F02CE044
:1013F00082273091AC0430FF10C051E0282F2171BA
:10140000213009F050E041E0282F2871283009F000
:1014100040E0541711F029E0822731FF10C041E06D
:10142000282F2171213109F040E031E0282F287167
:10143000283109F030E0431711F029E0822794FDAC
:10144000877E0895803E9105C1F1C8F481339105EE
:1014500009F47DC048F48932910509F46DC08A32DF
:10146000910509F47BC0089589339105D1F0823844
:101470009105B9F08533910509F459C00895843E6A
:101480009105C1F138F4823E910521F1833E910529
:1014900031F10895863E9105C1F1873E9105E1F154
:1014A00008952091AB04237009F065C02091AC042D
:1014B00023FF14C089E290E008952091AB0420FD41
:1014C00043C03091AC0430FF09C024FF4EC090E00F
:1014D00080E008952091AB0422FDF7CF089520917C
:1014E000AB0422FD45C03091AC0430FD44C024FF64
:1014F000F5CFEDCF2091AC0421FFF0CF8091AB046C
:1015000084FDE5CF87EE90E008952091AB0423FFA2
:10151000E5CF24FDDCCFF6CF2091AB0423FD2EC018
:101520003091AC0431FFE3CF84EE90E00895209138
:10153000AB0425FFD3CFBECF2091AB0425FD21C046
:101540002091AC0423FFCACF89E390E0C7CF20915C
:10155000AB0426FFC3CF8AE290E008952091AB044C
:1015600026FFBCCF81E390E0089583EE90E00895DC
:1015700082EE90E0089580EE90E0089586EE90E08F
:10158000089585E390E008951F93CF93DF930E9421
:10159000220AEC018115924508F05FC0C11580E573
:1015A000D80708F0DDC0C03ED10538F5CD3CD105E7
:1015B00008F0AEC0C83AD10580F4C53AD10508F0AC
:1015C000A4C0C130D10509F443C0CE010497813ACB
:1015D0009105F0F1D0E0C0E03BC0CE01885A9109FE
:1015E0004B97C0F7C85AD0E0CC0FDD1FCB5ADE4F67
:1015F0000990D881C02DD4642BC0C11590E4D907BF
:10160000F0F4C11520E2D20708F0C4C0C83ED105ED
:10161000F8F0CE019A9581159F41E0F68D2F0E943A
:10162000D309182FCE0199270E94220AC12FD0E09A
:10163000DC2FCC27CC27DF71C82BD92B09C0CE01DA
:1016400099270E94220ACC27DF70C82BD92BD06A99
:10165000CE01DF91CF911F910895C03882E5D80760
:10166000B8F5C03692E5D90708F05BC0C03422E572
:10167000D207C8F4C03282E5D80708F04BC02C2F3F
:101680002695269590E2299F900111248C2F837036
:10169000C1E0D0E002C0CC0FDD1F8A95E2F7C22B7B
:1016A000D32BDD68D5CF2C2F26952695277080E289
:1016B000289F900111248C2F8370C1E0D0E002C0DC
:1016C000CC0FDD1F8A95E2F7C22BD32BDC68C0CF8D
:1016D000C03C92E5D90760F48C2F8F71C03AD24597
:1016E000A8F5C82FD0E0DC2FCC27C46FD06AB0CFCC
:1016F000CE01805C9245809708F06CCFDC2FCC2720
:10170000CC27DF71C06FD06AA3CFA497D064A0CFDD
:10171000D0659ECFCF71D0E0DC2FCC27C16FD06ACF
:1017200097CF2C2F26952695277080E2289F900131
:1017300011248C2F8370C1E0D0E002C0CC0FDD1FDC
:101740008A95E2F7C22BD32BDA6882CF0E94D309A5
:10175000C82FD0E0DC2FCC27CC27DF71D06278CF28
:101760008C2F8F710E94D30955E0D695C7955A9555
:10177000E1F7CF70D0E0DC2FCC27282F30E084FFBA
:1017800005C044E0220F331F4A95E1F7C22BD32B4B
:10179000D0695ECF8D2F8F710E94D309182FCE0193
:1017A00099270E94220AC12FD0E0DC2FCC27CC271A
:1017B000DF71C82BD92BD2CF982F909580914A02F8
:1017C000892380934A02089580914A0290912102D0
:1017D000892B90912002992391F0892B90915401AB
:1017E000992371F09091AB0497FF0AC09EE126EE19
:1017F00031E040E0915040F44111109220020895F0
:1018000096E02EED31E0F5CFF90151919F0155237E
:1018100089F34F5FEFCF809102059091C90498132F
:1018200001C008958F5F8770FACF292F983078F51F
:10183000863068F590E036E0239F800D911D1124DD
:10184000682F677023E0969587952A95E1F7FC014C
:10185000EE0FFF1FE80FF91FEA5FFD4F50E040E079
:1018600080E0219130E0062E02C0369527950A943B
:10187000E2F721703327042E01C0220F0A94EAF701
:10188000822B4F5F5F4F4330510559F7089580E039
:101890000895292F983090F5863080F590E036E055
:1018A000239F800D911D1124282F277041E001C036
:1018B000440F2A95EAF723E0969587952A95E1F754
:1018C000FC01EE0FFF1FE80FF91FEA5FFD4F90E0EC
:1018D00080E070E05191DF0111979B01082E02C05A
:1018E000369527950A94E2F7217021952527242320
:1018F00025272C9301968330910561F708958093F5
:10190000A00208959091A00221E030E0F90101C009
:10191000EE0F8A95EAF7D90102C0AA0FBB1F6A959C
:10192000E2F7EA2B01C0220F4A95EAF7892F8E23AE
:10193000E81305C0292B822F0E947F0C0895209563
:101940002923F9CF21E030E001C0220F8A95EAF780
:1019500020958091A00282230E947F0C089590918F
:101960001F028095892380931F02282F277069F416
:10197000891759F09091AC0492FF07C0869586951F
:1019800086950E94A20C10921F02089521E030E07B
:1019900001C0220F8A95EAF78091A002822B0E9453
:1019A0007F0C089580934B020895982F82958F7035
:1019B00011F0982F84E0292F2695269511F08E5F3F
:1019C000922F969509F08F5F0895CF93DF93682F3C
:1019D00081E06A3019F06D3031F480E00E94730DBF
:1019E000DF91CF91089580910F079091100726E025
:1019F000FC01A9E0B7E001900D922A95E1F7603E65
:101A000008F458C026E0FC0111922A95E9F7C0912C
:101A10000F07D091100746E050E0BE0189E097E043
:101A20000E94C2339E0129503540892B41F1C901E2
:101A300045E0969587954A95E1F741E050E0BA0177
:101A400002C0660F771F8A95E2F7CB016091070508
:101A500070910805862B972BB9016B5F7F4FE5E0EE
:101A600076956795EA95E1F702C0440F551F6A9590
:101A7000E2F7842B952B90930805809307052A5F46
:101A80003F4F40910605642F70E0C9010E94693202
:101A9000481B463010F4240F311D211572E0370722
:101AA00010F030E020E0275F3A4F3093100720938A
:101AB0000F0796CFF6E06F9FB0011124635D784F5A
:101AC00046E050E00E94AC33A2CFCF93DF93EC010D
:101AD000FE018491811103C0DF91CF9108950E948E
:101AE000E50C2196F5CFCF93382FE0910F07F091B9
:101AF0001007E950F54020910605622F70E0CF01F4
:101B00000E946932281B822F332361F066E00E9415
:101B1000B432C82FC15010F4CF91089580E20E94D2
:101B2000E50CF8CF9F01280F311D2115324018F028
:101B300080E0F0E0E0E08E0F9F2F911D875F9A4FCD
:101B40009093100780930F07E7CF0E94650D81E007
:101B50000E94730D089580915401882359F180915A
:101B6000AB0487FF27C00E94E40B8093E50140E2AD
:101B700050E062E272E084EE91E00E94C233892B71
:101B8000C1F080E2E4EEF1E0A2E2B2E001900D9259
:101B90008A95E1F7E091A704F091A804309749F005
:101BA00086E08093E4010480F581E02D84EE91E0ED
:101BB000099508950E94E40B8093DC0148E050E011
:101BC00062E472E08CED91E00E94C233892B89F3CC
:101BD00088E0ECEDF1E0A2E4B2E001900D928A958C
:101BE000E1F7E091A704F091A804309711F3028087
:101BF000F381E02D8CED91E0DBCF10924A028091D1
:101C000054018823C1F08091AB0487FF14C0E6EE35
:101C1000F1E08EE1DF011D928A95E9F790E080E026
:101C20000E949B0890E080E00E94750810922102BB
:101C30000E94AB0D0895EEEDF1E086E0EBCFAAE255
:101C4000B0E0E5E2FEE00C948C3281EC94E0FC0123
:101C500001962091F100208324E0893C9207B9F796
:101C60008091C204893009F456C0C8F4823009F466
:101C7000B3C0833009F482C0813071F18091E800F3
:101C800083FF85C28091C1049091C2049A3008F00C
:101C90007EC2E92FF0E0EB56FB4C0C94E2328A3026
:101CA00009F489C08B3051F78091C104813231F73A
:101CB0008091C5049091C604892B01F78091E800BA
:101CC000877F8093E8000E94DB068091C3048093A5
:101CD00054010E94FD0DD2CF8091C104813A71F66A
:101CE0008091E800877F8093E8008091C5049091FF
:101CF000C604892B61F468E085EB94E070E00E94F3
:101D000087078091E8008B778093E800B7CF60E089
:101D100090E080E0F3CF8091C104813209F0AECF32
:101D20008091C5049091C6048D7F892B09F0A6CFC0
:101D30008091E800877F8093E8008091E80082FF2F
:101D400018C09091F3008091F200029731F48091D5
:101D5000F100813011F0863021F48091F100809300
:101D6000B4048091E8008B778093E8000E94DB0642
:101D700085CF8091BF048111E0CF80CF8091C104D5
:101D8000813A09F07BCF8091C5049091C604892BDC
:101D900009F074CF8091E800877F8093E8008091FC
:101DA000E80080FFFCCF809154018093F100809186
:101DB000E8008E77D9CF8091C104813209F05ECFDF
:101DC0008091E800877F8093E8000E94DB06809185
:101DD000C4048093B30452CF8091C104813A09F0C6
:101DE0004DCF8091E800877F8093E8008091E800E4
:101DF00080FFFCCF8091B304D8CF803899F082382F
:101E000009F0C5C18091C5048F70873008F0BFC14B
:101E10008093E9008091EB0085FB882780F9109280
:101E2000E90006C08091BD049091BE0491118260CA
:101E30009091E800977F9093E8008093F1001092D2
:101E4000F1008091E8008E779EC1882309F48CC14F
:101E5000823009F09CC18091C30481118FC18091AF
:101E6000C5048F702FEF280F263008F090C18093A3
:101E7000E9002091EB0020FF81C1933031F4809183
:101E8000EB0080628093EB0079C19091EB00906150
:101E90009093EB0021E030E001C0220F8A95EAF731
:101EA0002093EA001092EA008091EB008860EACF6C
:101EB00081116DC11091C3041F778091E300807878
:101EC000812B8093E3008091E800877F8093E80076
:101ED0000E94DB068091E80080FFFCCF8091E30048
:101EE00080688093E30082E0111183E08093BF0457
:101EF0004EC18058823008F04AC14091C3045091CD
:101F0000C4044C3D83E05807A1F583E08A838AE24C
:101F100089834FB7F894DE01139620E03EE051E24A
:101F2000E32FF0E050935700E49120FF03C0E295C7
:101F3000EF703F5FEF708E2F90E0EA30C0F0C796F1
:101F40008D939D932F5F243159F74FBF8091E80007
:101F5000877F8093E8006AE270E0CE0101960E94DC
:101F600087078091E8008B778093E80010C1C096C6
:101F7000E7CF8091C5049091C604252F33272330E5
:101F8000310509F44AC078F52130310509F479C0EA
:101F90008BE590E0ECE9F6E02230310509F0F7C07E
:101FA0002091E800277F2093E8002091C70430911A
:101FB000C8048217930708F49C0140E021153105FD
:101FC00009F064C0411162C08091E80082FDC9CF70
:101FD0008091BF04882329F2853019F28091E800AE
:101FE00083FFF2CFBECF2132310509F43BC022324C
:101FF000310509F0CCC08330910508F0C8C0FC0160
:10200000EE0FFF1FE353FE4F0190F081E02D86534A
:102010009E4FDC018C9190E011C0CA01992741309C
:1020200089F082309105B1F0892B09F0B0C0E9E266
:10203000F7E0E4918E2F90E0E9E2F7E0009709F4F1
:10204000A6C0AECFE7E1F7E0E4918E2F90E0E7E1A4
:10205000F7E0F4CFE9E0F7E0E4918E2F90E0E9E0DB
:10206000F7E0ECCF8330910508F091C0880F991FFD
:10207000FC01ED52FE4F0190F081E02D89E090E0EF
:102080008FCF82E190E0E7EFF6E08ACF8091BF0446
:10209000882309F466CF853009F463CF8091E80086
:1020A00083FD5FCF8091E80082FD8ECF8091E800B4
:1020B00080FF84CF9091F3008091F20021153105CB
:1020C00019F08830910550F041E0089709F040E0A0
:1020D0008091E8008E778093E80070CF4491409320
:1020E000F1003196215031090196E8CF803809F08E
:1020F0004EC08091E800877F8093E8008091C00403
:102100008093F1009ECE811142C01091C304123021
:10211000F0F58091E800877F8093E8001093C00479
:102120000E94DB06112311F084E005C08091E300DA
:1021300087FDFACF81E08093BF0442E061EC81E04B
:102140000E94FA0642E261EC84E00E94FA0642E252
:1021500061EC82E00E94FA0642E260EC83E00E94B9
:10216000FA068091BF0413C08091C304813079F4D2
:1021700081E0933009F080E08093BE041092E90082
:102180008091E800877F8093E8000E94DB068091C1
:10219000E80083FF0AC08091E800877F8093E80011
:1021A0008091EB0080628093EB00AA96E3E00C94B0
:1021B000A832882321F00E94DC0B0E94AB0D089509
:1021C000882339F090914A02892B80934A020E9419
:1021D000AB0D0895882339F19CEF980F913A28F4BC
:1021E0000E9414080E94AB0D089590E2980F983059
:1021F00050F4877091E001C0990F8A95EAF7892F12
:102200000E94DC0BEFCF9BE5980F933028F490E011
:1022100080E00E949B080895885A8B3120F490E05A
:1022200080E00E9475080895CF93C82F8823B1F1EC
:102230008CEF8C0F813AA0F580915401882301F135
:102240008091AB0487FF1CC0EC2FE695E695E695E0
:10225000F0E0EC51FE4F828190E04C2F477021E07E
:1022600030E002C0220F331F4A95E2F78223932306
:10227000892B79F08C2F0E9414080E94AB0D09C0A5
:10228000EEEDF1E08191C817A9F321E0E43EF207F9
:10229000C9F78C2F0E9441080E94AB0DCF91089581
:1022A00080E28C0F883068F4C77021E030E001C014
:1022B000220FCA95EAF780914A02822B80934A0244
:1022C000EBCF8BE58C0F833038F42C2F2452330B5B
:1022D000C9010E949B08E2CFC85ACB31F8F6EC2F17
:1022E000F0E0EE0FFF1FEB5AFE4F808191810E94BC
:1022F0007508D4CF0F931F93CF93DF938B01EA011F
:102300009091BF04943061F58093E9008FEF909134
:10231000E800815095FD06C095ED9A95F1F7000013
:102320008111F5CF8091E80085FF1AC00E94AA06AE
:10233000811111C08091E80085FD06C08091E80000
:102340008E778093E800F2CFF80181918F0180931E
:10235000F100219779F78091E8008E778093E8006B
:10236000DF91CF911F910F910895BC0143E050E0A0
:1023700084E00E947A110895BC0140E250E084E0BC
:102380000E947A110895CF93DF93D82FC92F48E088
:1023900050E0682F792F81E00E947A1188E0ED2FBC
:1023A000FC2FA5EBB4E001900D928A95E1F7DF9147
:1023B000CF910895609150018091950480FF20C0D5
:1023C00080914F0143E0849FC00111248B519D4FA8
:1023D000539A2BB1277F3BB138605FB7F894FC016B
:1023E000649FE00DF11D1124BF0168177907D1F436
:1023F0005FBF8FE594E00197F1F700C000000895FA
:10240000809151019091520123E0829FF0011124AB
:10241000EB51FD4F8917A0F61182108212828F5F57
:102420003396F8CFFC014191CF01E8E03BB90000C1
:1024300000C047FF2BB9440F000000C000C000C01F
:102440002BB900C0EA9591F7D0CF0F931F93CF938C
:10245000DF93EC0110E000E090915301901711061A
:1024600009F06CF40E94DA118C8190E00196817081
:1024700099278C83DF91CF911F910F91089520911F
:102480005101A801420F511D9A01220F331F240F41
:10249000351F2B513D4F4C816091970480919604DC
:1024A00096959017110651F04CF0442349F0409155
:1024B00098040E94F6080F5F1F4FCECF4423B9F354
:1024C00040E0F7CFAEE0B0E0E8E6F2E10C9489320C
:1024D0008D879E87AD85BE8514961C91212F30E097
:1024E000D9010E9484349B01AC010E944F3469835E
:1024F0007A838B839C83E0E2F0E0E11BF109A5E5A0
:10250000B0E09B01AC010E944F3469877A878B87CA
:102510009C879F01DF010E94EF326D837E838F8352
:1025200098879B01AC010E945A349B01AC016981E0
:102530007A818B819C81260F371F481F591F69851F
:102540007A858B859C850E946234F22E822F90E0E2
:1025500079E2721740F183E0289F900111243595AC
:102560002795122F109500E085E5E82EEF18809151
:102570005301081738F10E94DA11AD85BE85149613
:102580009C9181E0992319F0903219F48FEF809398
:102590004E0180914E01890FED85FE8584832E9634
:1025A000E6E00C94A53225E530E0D901A81BB90B73
:1025B0009D01220F331F2A0F3B1F37FFD0CF2F5F04
:1025C0003F4FCDCF8E2D01FD8F2D20915101E22F58
:1025D000E00FFF27FF1F9F01220F331F2E0F3F1F0A
:1025E0002B513D4F412F609197040E94F6080F5FD9
:1025F000BECFCF92DF92FF920F931F93CF93DF93C3
:10260000EC018C81811109C081E08C831092E3027E
:1026100092E090934D0180934C0110915101909163
:10262000520183E0189FF0011124EB51FD4F812FDF
:10263000891778F100E093E0F92E609153010617B5
:1026400070F10E94DA1180914C012091E302280F71
:102650002093E30290914D01980F90934D0119162C
:1026600054F4022E000C330B409153014150550B92
:102670002417350734F0819580934C01813009F49B
:102680001C82DF91CF911F910F91FF90DF90CF902F
:1026900008951182108212828F5F3396C9CFC02EA7
:1026A000D12C70E0C6010E94CE32810F482F50E03D
:1026B0002091E302022E000C330BC216D306BCF0AD
:1026C00020914D01022E000C330B2C153D057CF0A2
:1026D0008F9D900111242B513D4F409198046091A2
:1026E0009704809196040E94F6080F5FA6CFFA0126
:1026F000EE0FFF1FE40FF51FEB51FD4F118210820B
:102700001282F3CFB0E0A0E0E8E8F3E10C94843269
:10271000EC018A81BB24BA9480FD02C0BB24B3942F
:10272000A09053018C81811109C081E0B8121EC0B4
:102730008FEF8A0D8093E20281E08C83F12CE12CF3
:10274000EA14B8F00E94DA118091E20291E0B91225
:1027500057C0811150C08091530181508093E20293
:102760001C82CDB7DEB7EBE00C94A0321092E202EF
:10277000E3CF009151010E0D1F2D111DC801880FCF
:10278000991F080F191F0B511D4FF801118210825C
:10279000128234E0C32ED12C912C8091E202890D5B
:1027A00087332CF166E30E94C032892F082E000C7B
:1027B000990B8E159F0591F4809198048C9DA00132
:1027C0008D9D500D11245595479555954795980128
:1027D00060919704809196040E94F6089B0CF1E0AA
:1027E000CF1AD108D1F68FEFE81AF80AA9CF87FFE0
:1027F000DDCF8A0DDBCF81508093E202BC82B1CF66
:1028000090E001966091530170E00E94CE32809377
:10281000E2028C83A6CFEF92FF921F93CF93DF93B8
:10282000EC0110E0EE24EA94F12C609153011617AC
:1028300070F00E94DA119A818C8190FF27C08F5F1F
:102840008C83DF91CF911F91FF90EF90089520919D
:102850005101422F410F5527551FCA019A01220FDE
:10286000331F280F391F2B513D4F70E0C7010E94C5
:10287000CE32962F8C814091980460919704199FD5
:10288000800D11240E94F6081F5FCFCF8150D8CF52
:102890009091950490FF0EC09091510120915201AA
:1028A00033E0939FF0011124EB51FD4F921718F084
:1028B0000E94DA1108958183608342839F5F33967B
:1028C000F5CFA3E0B0E0E7E6F4E10C948B328C01A5
:1028D0008091E40281110AC09E012F5F3F4F42E3C5
:1028E0006FEF0E94F6088A818093E402F801648108
:1028F000613049F06230D1F08091E40240E066231B
:1029000031F040E015C06091E40240E080E00E94B8
:102910004814F801848190E0019663E070E00E9421
:10292000CE3284832396E4E00C94A7324091E402F3
:1029300080E060E0ECCFA3E0B0E0E1EAF4E10C94E9
:102940008D329091950490FF0AC09E012F5F3F4FFA
:102950000E94F6084B8169818A810E94481423965F
:10296000E2E00C94A932CF93DF93EC01E5E9F4E0C7
:10297000438162818C810E949B148C818F5F8C8348
:10298000DF91CF910895CF93DF93EC01EC81F0E0DC
:10299000E85EFB4F4491E5E9F4E0628181810E94A9
:1029A0009B148C818F5F8C83DF91CF910895E5E933
:1029B000F4E080818E7F80830E94D908EFEDF2E001
:1029C0008281816082830E94DA110895B0E0A0E0E4
:1029D000ECEEF4E10C948532F82EE92ED62EC72EBB
:1029E0008A0180918402AA24A394B12C8A3018F41D
:1029F0008AE0A82EB12CC1E0D0E06D2D7C2D8F2D6A
:102A00009E2DF8010995811104C02196AC16BD06D2
:102A10002CF4CDB7DEB7EAE00C94A132CC9F900144
:102A2000CD9F300D300D112490E080E045E34A95B4
:102A3000F1F70000019682179307C1F7DECF0F93DD
:102A40001F93CF93C82F10E000E0893311F400E505
:102A500010E08C2F0E9414110115110539F48C2FF0
:102A60000E94EA10CF911F910F9108958FE99FE086
:102A70000197F1F700C0000001501109EDCF0E944D
:102A8000FD0D2FEF84E39CE0215080409040E1F762
:102A900000C0000088E19AE00FB6F894A8958093F2
:102AA00060000FBE90936000FFCFCF93C82F6FEFF1
:102AB000811164E285E290E00E94FC336FEFC11166
:102AC00061E186E290E00E94FC336FEFC11163E1A7
:102AD00087E290E00E94FC33CF910895CF93DF937B
:102AE000C9EAD1E060E0CE010E94FC332196C11515
:102AF00084E0D807B9F7DF91CF9108951F93CF9362
:102B0000DF93962F122F632F8430D8F49830C8F4B7
:102B10004630B8F4C42FD0E0CC0FDD1F2CE0929FDC
:102B2000C00DD11D112490E6899FC00DD11D112427
:102B3000CE0189960E94FC33612FCE018A960E94B5
:102B4000FC33DF91CF911F910895AF92BF92CF9246
:102B5000DF92FF920F931F93CF93DF93B12CA12CA1
:102B600000E0650110E013C0FE01259134914F2D66
:102B7000612F802F0E947E152296F39486E0F81232
:102B8000F3CF86E0C80ED11C1F5F183039F0E60184
:102B9000CC0FDD1FC45EDA4FF12CE6CF0F5F80E370
:102BA000A80EB11C0430E9F6DF91CF911F910F916F
:102BB000FF90DF90CF90BF90AF90089580E00E948B
:102BC000551560E088E290E00E94FC330E94A51554
:102BD0000E946E1581E00E945515089585E290E0EF
:102BE0000E94D833843289F486E290E00E94D83380
:102BF000813159F487E290E00E94D83391E083312B
:102C000009F090E0892F8170089580E0FCCF0F9348
:102C10001F93CF93DF93843030F5683020F5463032
:102C200010F5C42FD0E0CC0FDD1F2CE0629FC00D4B
:102C3000D11D112430E6839FC00DD11D1124CE017A
:102C400089960E94D833082F10E0102F0027CE015C
:102C50008A960E94D8339801282BC901DF91CF9121
:102C60001F910F91089590E080E0F8CF462F672FD5
:102C7000783038F4463028F4843018F40E9407166F
:102C8000089580E090E00895B0E0A0E0EAE4F6E185
:102C90000C9488327C010091A00280914B02082B99
:102CA000C3E0D0E010E0DC2EC8010C2E02C09595E8
:102CB00087950A94E2F780FD09C02197A0F7D12CEF
:102CC0008D2DCDB7DEB7E7E00C94A432B7018C2F81
:102CD0000E9436160E94C40A019779F3F1CFCF9370
:102CE000DF93D82FC92F0E9444166D2F7C2F0E948E
:102CF00036160E94C40ADF91CF910895FC018481A9
:102D00008823A1F0808191810E946F16282F9295CF
:102D10009F70963091F060F4925F9F70923030F423
:102D200081E0203F81F030F4283E30F080E004C0A4
:102D30009A5FF3CF243FD1F7089581E0283E20F039
:102D4000213FA1F7F9CF08950895A6E0B0E0EBEA9E
:102D5000F6E10C948C3249835A83392F89819A8108
:102D6000332399F0222389F00E944416182F682FEC
:102D700089819A810E94490C69817A81812F0E9400
:102D800036162696E3E00C94A8320E94150C182FF4
:102D9000F3CFB0E0A0E0EFECF6E10C9487326C01E9
:102DA0007B0164E670E088E70E94B62FEC018601A3
:102DB000EC0CFD1CD7FD0CC0F801849164E670E0BA
:102DC0000E942630EC010F5F1F4F0E151F0591F773
:102DD0000E94A83081E0CD2B09F080E0CDB7DEB7AE
:102DE000E8E00C94A3328091A1049091A204911187
:102DF00003C091E089270895882369F062E070E0BC
:102E00008AE195E00E94C916811103C08091A10456
:102E100008951092A1048091A104EBCFA5E0B0E049
:102E2000E4E1F7E10C948D328091A1048D838091CF
:102E3000A2048823F1F00E94F707DC01CB01805A3D
:102E40009541AF4FBF4F80939D0490939E04A093F4
:102E50009F04B093A0048D81811108C062E070E0EE
:102E600088E195E00E94C916811108C08091A104F3
:102E70008D838D812596E2E00C94A93281E08093C8
:102E8000A104F4CFB0E0A0E0E8E4F7E10C947F32D5
:102E9000FC016280448081E08483E8E1F4E0749086
:102EA000E7E9F4E0E491C0919804C695C158D0E0F8
:102EB000CC0FDD1FCD2FDD27812C75E0972EAA24A6
:102EC000AA94B12C55245A94E719EE2EF12C809136
:102ED0005301881638F00E94DA11CDB7DEB7E0E171
:102EE0000C949B32C82CD12C82E0861568F09C9CF7
:102EF000F0019D9CF00D1124E957FC4F8091960440
:102F00008083809197048183411023C09C9CF001B1
:102F10009D9CF00D1124E957FC4F138212822091E1
:102F20005101C601820F911D9C01220F331F280FF2
:102F3000391F2B513D4F9C9CF0019D9CF00D11249D
:102F4000E957FC4F4281618180810E94F608839499
:102F5000BECF9C9C80019D9C100D112409571C4FD5
:102F6000F80183818823F1F081508383859DC0011E
:102F70001124648170E00E946932FB01FF27E85E42
:102F8000FB4F8491E82FE719E59DC0011124B7019B
:102F90000E94693280919804689FB0011124F80161
:102FA0007283BDCF0E949C33B5010E94CE328C1734
:102FB0009D070CF0B4CFF2E0F61598F40E949C3314
:102FC000B5010E94CE32F80180830E949C3320918B
:102FD00097042695622F70E00E94CE32280FF801E8
:102FE00021839C9CF0019D9CF00D1124E957FC4F1E
:102FF000128280919804893C58F088EC9C9CF001E6
:103000009D9CF00D1124E957FC4F8483838387CF67
:103010008431A0F784E1F2CFB0E0A0E0E2E1F8E192
:103020000C94833249015A018B01D82FC92F0E9479
:10303000E00864017501A401B50188E090E00E94F8
:103040000E349401A501B8018D2F9C2F00E20E943F
:103050001933622F84E290E00E94FC33CDB7DEB7D3
:10306000ECE00C949F32A3E0B0E0E9E3F8E10C94CB
:103070008632082FE62EF42EC22E9091950490FFF2
:1030800041C020919604281308C0809197048613AC
:1030900004C080919804841729F08091E102826035
:1030A0008093E102E92FE695E695AE2FB0E0A156B8
:1030B000BE4F8C918093DF029C7F943039F59E0146
:1030C0002F5F3F4F4F2D6E2D802F0E94F6084B81B2
:1030D00069818A810E94481400939604E0929704C3
:1030E000F0929804CC2071F020919504609199049D
:1030F00070919A04302FA70180919B0490919C04B9
:103100000E940C182396E9E00C94A232823019F444
:10311000F0909804E1CF8630A1F1893091F18931A6
:10312000D9F6E9516E2F6170B62EE695F0E0ED5EAE
:10313000FB4F1491D12C60915301D61618F00E94C8
:10314000DA11CACFD19EC001112470E00E94693209
:10315000802FB11014C0860F20915101622F6D0D88
:103160007727771F9B01220F331F260F371F2B5105
:103170003D4F4F2D6E2D0E94F608D394DCCF861B59
:10318000EBCF022FA9CFE5E9F4E0438121E1421B17
:1031900008F440E021E0628181810E9433180895A3
:1031A000E5E9F4E0438121E1420F08F44FEF21E02B
:1031B000628181810E9433180895E5E9F4E062811B
:1031C00021E1621B08F460E021E0438181810E94DB
:1031D00033180895E5E9F4E0628121E1620F08F413
:1031E0006FEF21E0438181810E9433180895E5E962
:1031F000F4E0818121E04381628188500E9433188C
:103200000895E5E9F4E0818121E043816281885FEE
:103210000E943318089580919904882319F08150F1
:1032200080939904209195043091960440919704DD
:10323000509198046091990470919A0480919B0434
:1032400090919C040E940C180895809199048330F9
:1032500018F48F5F8093990420919504309196041F
:1032600040919704509198046091990470919A0448
:1032700080919B0490919C040E940C180895E5E9AC
:10328000F4E085E0808311828FEF828382E3838381
:103290001482AFEDB2E012968C9112978360129671
:1032A0008C93758125E030E04FEF52E360E086813A
:1032B00097810E940C1808959091AC0492FB2227EC
:1032C00020F9281779F080FB92F99093AC04609173
:1032D000AB047091AC0484E090E00E941A3482E068
:1032E0000E94AF0C089590E080E00E94E633863E95
:1032F0009E4F19F40E94EE15089580E008958F9274
:103300009F92AF92BF92EF92FF920F931F93CF9332
:10331000DF937B01B901D801F70180809180A28001
:10332000B3809FB7F8940091AE041091AF04209140
:10333000B0043091B1049FBF081919092A093B094B
:10334000043611052105310518F4C1E0442321F1AB
:10335000C82F082E000CDD0B98E08902F001112423
:10336000EC5FFE4F818192818C599D4F408150E0EE
:10337000A417B50708F4AD010E94CF33CE010E9417
:10338000F331C82F882341F00E94F707D7016D93CE
:103390007D938D939C9313978C2FDF91CF911F91E9
:1033A0000F91FF90EF90BF90AF909F908F900895F6
:1033B000ABE0B0E0EEEDF9E10C948B3288E0E5E9AA
:1033C000F4E0DE01119601900D928A95E1F780916B
:1033D000DF029091E002A091E10289879A87AB8792
:1033E00041E08B85811101C040E00BE010E09E01BF
:1033F0002F5F3F4F60E872E084E00E947F198111E7
:103400001092E1022B96E4E00C94A7320F931F93E5
:10341000CF93DF93D82FC92F44E050E069E672E0E4
:103420000E94C23341E0892B09F440E004E010E03F
:103430002D2F3C2F60E672E082E00E947F19DF9121
:10344000CF911F910F910895A8E0B0E0EAE2FAE170
:103450000C948C3240917C0250917D0260917E02EE
:1034600070917F022FB7F8948091AE049091AF04D1
:10347000A091B004B091B1042FBF841B950BA60B93
:10348000B70B11E084369105A105B10578F10E94D2
:10349000A009DC01CB010296A11DB11D89839A838D
:1034A000AB83BC8380911D0190911E018C599D4F6F
:1034B00020911C01422F50E0253010F044E050E0F4
:1034C000BE016F5F7F4F0E94CF3383E090E00E9488
:1034D000F331182F882351F00E94F70760937C0284
:1034E00070937D0280937E0290937F02812F2896B5
:1034F000E3E00C94A832EF92FF921F93CF93DF93F7
:1035000000D000D00F92CDB7DEB77B0190E080E015
:103510000E94F331182F882309F487C08091070196
:10352000482F50E0882311F041E050E060910801FD
:10353000709109016C597D4FCE0105960E94CF33E1
:1035400040915C0250915D0260915E0270915F0259
:103550002FB7F8948091AE049091AF04A091B0047D
:10356000B091B1042FBF841B950BA60BB70B84360B
:103570009105A105B10540F485E692E00E9474062C
:103580009D81891709F451C081E090E00E94F331D8
:1035900081111AC010E08091580290915902A091B7
:1035A0005A02B0915B02F70180839183A283B383B7
:1035B000812F0F900F900F900F900F90DF91CF9170
:1035C0001F91FF90EF90089580910F01482F50E0D8
:1035D000853010F044E050E06091100170911101CD
:1035E0006C597D4FCE0101960E94CF3385E692E063
:1035F0000E9474069D818913CDCF0E94F7076093C6
:103600005C0270935D0280935E0290935F028981F9
:103610009A81AB81BC818093580290935902A09308
:103620005A02B0935B0211E0B6CF8091650290918F
:103630006602A0916702B091680289839A83AB8386
:10364000BC831111E4CFA7CFA8E0B0E0EAE2FBE130
:103650000C948D3266EE7EEF90E080E00E941A348A
:1036600060E082E090E00E94FC3381E080934B02B6
:1036700061E083E090E00E94FC3360E074E184E06C
:1036800090E00E941A3460E086E090E00E94FC33F3
:103690006FEF87E090E00E94FC3340E050E0BA0119
:1036A00088E090E00E940E3460E084E290E00E94A6
:1036B000FC3360E087E190E00E94FC3360E08CE046
:1036C00090E00E94FC3360E08DE090E00E94FC33CB
:1036D00019821A821B821C821D821E821F821886FA
:1036E00048E050E068E170E0CE0101960E94EC33C2
:1036F00040E050E0BA0180E290E00E940E3480E0A9
:103700000E9455150E94DE1540E050E0BA018FE09E
:1037100090E00E940E3440E050E0BA0183E190E076
:103720000E940E342896E2E00C94A9321F920F9268
:103730000FB60F9211242F933F934F935F936F9384
:103740007F938F939F93AF93BF93CF93DF93EF9329
:10375000FF93D091E900DF708091EC00C82FC17019
:1037600080FDC0E81092E9008091F000877F80938F
:10377000F00078940E941F0E1092E9008091F000F2
:1037800088608093F000CD2BCF70C093E900FF914B
:10379000EF91DF91CF91BF91AF919F918F917F91E9
:1037A0006F915F914F913F912F910F900FBE0F90AE
:1037B0001F9018951F920F920FB60F9211242F93FE
:1037C0003F934F935F936F937F938F939F93AF93A9
:1037D000BF93EF93FF938091E10082FF09C0809136
:1037E000E20082FF05C08091E1008B7F8093E100C1
:1037F0008091DA0080FF24C08091D80080FF20C033
:103800008091DA008E7F8093DA008091D90080FF6A
:103810009BC080E189BD82E189BD09B400FEFDCF76
:1038200081E08093BF048091B204811109C00E949D
:103830008B060E942C078091E20084608093E20056
:103840008091E10080FF17C08091E20080FF13C0EB
:103850008091E2008E7F8093E2008091E20080619F
:103860008093E2008091D80080628093D80019BCD8
:1038700085E08093BF048091E10084FF29C080919E
:10388000E20084FF25C080E189BD82E189BD09B4E1
:1038900000FEFDCF8091D8008F7D8093D80080916D
:1038A000E1008F7E8093E1008091E2008F7E809323
:1038B000E2008091E20081608093E2008091C00488
:1038C000882309F447C084E08093BF048091BF043B
:1038D0008091E10083FF27C08091E20083FF23C035
:1038E0008091E100877F8093E10082E08093BF04B4
:1038F0001092C0048091E1008E7F8093E10080915E
:10390000E2008E7F8093E2008091E20080618093EC
:10391000E20042E060E080E00E94FA068091F00060
:1039200088608093F000FF91EF91BF91AF919F91DC
:103930008F917F916F915F914F913F912F910F9058
:103940000FBE0F901F90189519BC1092BF041092D3
:10395000B20476CF8091E30087FD02C081E0B4CF4E
:1039600083E0B2CF78941F921FB61F9211248F93D9
:103970009F93AF93BF938091AE049091AF04A091B9
:10398000B004B091B1040196A11DB11D8093AE04A5
:103990009093AF04A093B004B093B104BF91AF91E2
:1039A0009F918F911F901FBE1F9018959C014FB73C
:1039B000F8948091AE049091AF04A091B004B091BE
:1039C000B1044FBF821B930B08952FB7F8948091D9
:1039D000AE049091AF04A091B004B091B1042FBF98
:1039E0000895FF920F931F93CF93DF93C62FD42F89
:1039F000122FFC0185818823A9F0609305050E94A0
:103A0000E51C9093040580930305C77081E001C015
:103A1000880FCA95EAF70E94E010CDB7DEB7E5E05F
:103A20000C94A63280910505681330C0809103057F
:103A3000909104050E94D61C883C910538F500E25F
:103A40000D0FCD17A9F0C770FF24F3948F2D01C07F
:103A5000880FCA95EAF70E94D910083048F48D2FD4
:103A6000877001C0FF0C8A95EAF78F2D0E94E01045
:103A7000812F0E941F15083080F6D77081E001C0A9
:103A8000880FDA95EAF70E94D910C7CFC77081E096
:103A900001C0880FCA95EAF7F6CF8091A304882366
:103AA00019F00E94E51C08950E94A009CB01089519
:103AB000609195046695669570E04BE050E081E476
:103AC00091E00E94B533892B19F481E08093E002E4
:103AD0000E944D1D9093DA028093D9028091E102F9
:103AE00084608093E10208959091950490FF3AC01C
:103AF0009370811138C09460909395048091E10295
:103B000081608093E102662391F0209195043091C9
:103B10009604409197045091980460919904709193
:103B20009A0480919B0490919C040E940C186091CF
:103B300095046695669570E04BE050E081E491E075
:103B40000E94B533892BB9F00E94D90881E0809397
:103B5000DC0220E0409198046091970480919604E3
:103B60000E94331808958B3210F0986AC5CF880FE1
:103B7000880F982BC1CF0E94581DE8CF90919504D3
:103B8000969596958FEF890F913009F48AE261E05E
:103B90000E94741D089580919504869586958F5F87
:103BA0008B3208F081E061E00E94741D08959091CD
:103BB000950490FF09C096959695981728F096174A
:103BC00018F40E94CB1D089561E00E94741D0895B1
:103BD000A8E0B0E0EEEEFDE10C947F328C01DC0158
:103BE00014968C911497882309F4B8C021E04C9165
:103BF00011965C91119712966C91129713967C9185
:103C0000139715969C910E94A5167C01F801958149
:103C1000992309F4B6C5970137572038310508F0C4
:103C200035C1FFE0FE1508F489C08FEF93E00E94D4
:103C3000D833811183C069EAA62EBB24B394E11066
:103C400049C01A821982FE01339686E0DF011D9277
:103C50008A95E9F75AE0452E6501BFEFCB1ADB0ADA
:103C6000C5010E94D83389831A82882309F466C06B
:103C7000813009F077C07501E2E0EE0EF11CC6015B
:103C80000E94D8338A83882309F458C09FEF980F85
:103C9000933070F5F3E0AF0EB11CC7010E94D8332A
:103CA0008B83882309F44AC01C82DE0111967D01B2
:103CB000F7012081222381F2213009F093C0918104
:103CC0008281913009F050C0F2E0EF0EF11C0E94A9
:103CD0001F1551C0A11424E0B20681F1C5010E9454
:103CE000D833811101C0EA943FEFA31AB30AA7CFDA
:103CF0008430D9F442E0C42ED12CC7012FEFE21A50
:103D0000F20A0E94D833E1E0F0E0EC0FFD1FEC0D69
:103D1000FD1D8083882391F08C3749F4E2E0F0E0C8
:103D2000EC0FFD1FEC0DFD1D10825701BECF3FEFC4
:103D3000C31AD30A87E0C816D104F9F680911F028E
:103D4000877061F0D80115968C91882339F08091A5
:103D5000AC0482FF03C082E00E94AF0C2896E0E131
:103D60000C949B325601A1CF923049F422E0E20E2E
:103D7000F11C0E941411EFEFEE1AFE0A99CF933056
:103D800031F432E0E30EF11C0E94EA10F4CF9430DB
:103D900021F08FEFE81AF80AEECF92E0E90EF11C5D
:103DA00030E020E0B7016F5F7F4FD70111964C9153
:103DB0008053990B8A30910550F021503109D8F287
:103DC000EFE9FFE03197F1F700C00000F6CF429E27
:103DD000F001439EF00D11249C012E0F3F1F842FF4
:103DE0007B01E0CFE22FF0E0E155FE4F5490822FAF
:103DF00086958695869590E0FC01E156FE4F64908D
:103E00002770712C022E02C0759467940A94E2F711
:103E100031E063227724FC01E157FE4F8490912C1E
:103E2000022E02C0959487940A94E2F7A1E08A22B8
:103E30009924FC01E158FE4FC490D12C02C0D594C6
:103E4000C7942A95E2F7B1E0CB22DD246114710416
:103E500019F081EE0E9414118114910419F086EE7C
:103E60000E941411852D0E941F158114910419F0D0
:103E700086EE0E94EA106114710419F081EE0E942E
:103E8000EA10CD2809F477CF8CE221CF818180938D
:103E9000AB0280818093AA0280E280933901F09284
:103EA000A902E092A802970130522115304228F46D
:103EB0008681807FB1F0F7010BC097013054211546
:103EC0003041C8F4D80116968C91807FF70109F033
:103ED000FF27ED33F10528F4E15DFD4FE491E09318
:103EE0003901F701E851FC47E730F10578F5E15673
:103EF000FB4C0C94E23297013A9521153F41D8F2E0
:103F00009701205A32452032310558F3F701E1CFAD
:103F100026E241EE61EEC8010E94F11C0FCF27E2BC
:103F200045EE65EEF8CF26E241EE60EEF4CF27E2F3
:103F300045EE64EEF0CF26E241EE62EEECCF27E2F2
:103F400045EE66EEE8CF28E241E0EBCF10920505A2
:103F5000970130572332310508F02EC484E090E0F9
:103F60000E94E6339093AC048093AB04F701E150D8
:103F7000F047E232F10520F4EA55FB4C0C94E232B2
:103F80008091AB0481608093AB046091AB0470912D
:103F9000AC0484E090E00E941A340E94FD0DCECE65
:103FA0008091AC0488608093AC04EFCF8091AB0427
:103FB0008260E9CF8091AB048460E5CF8091AB044F
:103FC0008860E1CF8091AC048160EDCF8091AC043A
:103FD0008260E9CF8091AB048061D5CF8091AB0442
:103FE0008062D1CF8091AB048064CDCF0E94FD0D63
:103FF0008091AB048068C7CF8091AB048C60C3CF45
:104000008091AC048360CFCF8091AB048E7FBBCF17
:104010008091AC04877FC7CF8091AB048D7FB3CFF5
:104020008091AB048B7FAFCF8091AB04877FABCF08
:104030008091AC048E7FB7CF8091AC048D7FB3CFDD
:104040008091AB048F7E9FCF8091AB048F7D9BCFFF
:104050008091AB048F7B97CF0E94FD0D8091AB04C4
:104060008F7791CF8091AB04837F8DCF8091AC040B
:104070008C7F99CF8091AB0482FB992790F921E046
:10408000922790FB82F990FB83F97DCF8091AC045D
:10409000982F909591708E7F892B90FB81F983CF1B
:1040A0009091AB04892F8F7B96FF80646CCF0E9428
:1040B000FD0D9091AB04892F97FB87F9805863CF52
:1040C00061E08EE090E00E94FC335FCF60E0F9CFCA
:1040D0009091AB04892F8F7E94FF806154CF909193
:1040E000AB04892F8E7F90FF81604DCF9091AC04FF
:1040F000892F877F93FF886056CF85E36EC38091B9
:104100000402811104C089E20E94140868C385E397
:10411000FBCF992309F442C3B7E7EB16BCE7FB06D4
:1041200009F060C381E00E94C60C43E062E081E0D8
:104130000E94820C03CE8091950480FF1EC0282F20
:104140002E7F2093950430919604409197045091CE
:1041500098046091990470919A0480919B049091C5
:104160009C040E940C180E94D9088091E102816091
:104170008093E1020E94DA11E1CD81608093950481
:1041800061E0869586950E94741DD8CD4EEB5DE169
:104190006BEC7DE10E94D208D1CD4BEC5DE16EEB82
:1041A0007DE1F8CF47EF58E161E079E1F3CF41E0FD
:1041B00059E167EF78E1EECF4DED58E16AEE78E135
:1041C000E9CF4AEE58E16DED78E1E4CF43EC58E1F8
:1041D00060ED78E1DFCF40ED58E163EC78E1DACFD4
:1041E0004BE059E165E279E1D5CF45E259E16BE079
:1041F00079E1D0CF61E081E0C6CF65E082E00E9446
:10420000D71D9CCD68E086E0FACF6EE089E0F7CF5D
:1042100064E18FE0F4CF67E185E1F1CF61E088E10F
:10422000B2CF62E289E1EBCF61E083E2ACCF6AE238
:1042300085E2E5CFF7E7EF16FCE7FF0609F479C062
:1042400028E7E2162CE7F20609F479C0F801858127
:10425000C080D180882309F495C0C6010E9444160D
:10426000F82E682FC6010E94490CB6018F2D0E94BE
:1042700036160E94C40AC82EF92E982ED80115961B
:10428000BC9015971696AC90A2943FE0A322809123
:104290001F02877009F1DB2CBB20F9F0892F807F8A
:1042A000803469F080E28C0D8830B0F0892F807EF8
:1042B000803229F4B1E0BC1578F4AA2069F080912D
:1042C000AC0482FF09C082E00E94AF0C80911F0203
:1042D0008770DD24D3948111D12CEF2CE2942FE050
:1042E000E222E8E0EE1609F459C1EE1508F485C0A3
:1042F000F3E0FE1508F44BC08F2D807F2F2D2F701B
:10430000F22E31E03E1508F08CC0803219F0F294A4
:1043100080EFF8228C2D992009F4BAC0B1E09B16E9
:1043200009F400C1BB2009F40CC1AA2009F4CEC0D5
:104330008FC081E00E94A20CF8CE82E0F4CE82E031
:10434000F9CFEBE5EE16ECE7FE06D1F0FCE5EF1653
:10435000FCE7FF0609F07ACF8091AC0482FB882746
:1043600080F991E089270E945C1970CF6FEF7FEF91
:1043700090E080E00E941A340E943F1581E0F3CF64
:1043800080E0F1CFC6010E94150CF82E6ECF84E0BC
:10439000E81609F4E7C0AE2DA850BB0B149710F433
:1043A0000E94C108DD20A9F080911F0280FD11C08C
:1043B000F80115828695869586950E94C60CC801DF
:1043C0000E94E81D80911F028695869586950E9421
:1043D000A20C20E0D8014C9111965C911197129695
:1043E0006C91129713967C91139714968C91149755
:1043F00015969C910E94A516B1CC99E0E91609F496
:104400003CC186E08E0D8F70823028F68C2DA2EF95
:104410009A1244C18F2D8F71B1103DC10E94C60CFC
:10442000BACF882319F0F29490EFF9228C2DBB209B
:10443000B9F0FF2069F090E29C0D983010F0C110A7
:1044400009C090914A02F92AF0924A020E94AB0DEB
:104450008C2D2EC090912102F92AF0922102F6CFE4
:104460000E94EA10FF2009F496CF80E28C0D88307C
:1044700010F0911004C08F2D0E94DC0B06C0F09448
:1044800090912102F922F09221020E94AB0D83CF7C
:104490008091AC0482FD16C0BB2069F0FF2039F08A
:1044A00090914A02F92AF0924A020E94AB0D80E0F4
:1044B0000E94141170CF80E00E94EA10FF2009F4DE
:1044C0006ACFD9CFBB20A1F0A11004C08F2D0E94CC
:1044D000E01061CFE1E0AE125ECF909120028F2D0F
:1044E0008923F81609F457CFF92AF092200253CF06
:1044F000A11051CF8F2D0E94D910909120028F2DA5
:10450000892329F08F2D8095892380932002909113
:1045100005028F2D892309F43ECFF094F922F09201
:10452000050239CFBB2029F0F5E0FA1508F433CFA6
:10453000CDCF24E02A1508F42ECF8F2D0E94D9105C
:104540002ACFAA20D1F3893349F43FEF87EE93E0D5
:10455000315080409040E1F700C000008C2D0E9457
:10456000EA1019CF8F2D86958695837069F081307A
:1045700009F011CF8C2D9F2D9370B11002C080E0F7
:1045800090E00E94750807CF8C2D9F2D9370B1107D
:1045900002C080E090E00E949B08FDCE8F2D8370CA
:1045A00099F5B110F8CE4C2D429546954770440FC1
:1045B000440F8C2D8F70042E01C0880F0A94EAF7E7
:1045C0002C2D2071C4FE07C02FE030E001C0220F67
:1045D0004A95EAF720953F2D36953695337032305F
:1045E00071F0333051F040914B02313029F0822B81
:1045F00084230E94D20CCFCE842B822BFACF282B7F
:1046000080914B028227F5CF8695BB2011F08F2D2C
:104610008170882309F4BFCE4C2D42954695477092
:10462000440F440F8C2D8F70042E01C0880F0A9404
:10463000EAF72C2D2071C4FE07C02FE030E001C046
:10464000220F4A95EAF720953F2D3695369533701F
:10465000323071F0333051F04091A002313029F006
:10466000822B84230E947F0C96CE842B822BFACF40
:10467000282B8091A0028227F5CFAF2DAF70FA2EA4
:10468000BB2029F08A2F0E94C60C8C2D20CF8C2DA8
:104690000E94D9108F2D0E94A20C7DCEB2EFB915C9
:1046A00070F0E0EF9E16D1F0F1EF9F1691F0BB2075
:1046B00009F457C0A110CCCE8F2D8F71AFCE23EF50
:1046C000921619F134EF9312F2CF8091AC0482FD6F
:1046D00028C08F2D8F71BB20F1F2A0CEBB2081F0BE
:1046E00084E08A1508F457CE2F2D2F7181E090E0D9
:1046F00001C0880F2A95EAF79091A0028927B2CFCE
:1047000095E09A1508F447CEEFCF80E0BB2009F47E
:10471000A9CF9F2D9F7181E001C0880F9A95EAF77C
:10472000A1CFBB2099F0AF2DAF71FA2E8A2F0E9436
:10473000C60C8091AC0482FF07C0B8E0FB9EC001AC
:104740001124836080931F028F2D68CE81E00E9428
:10475000AF0CE1E0EA1508F01ECE82E00E94AF0C3B
:104760001ACEAA2059F0893309F0F8CEFFEF27EED0
:1047700033E0F15020403040E1F7EECE8F2D8F71C5
:104780008ACFF701E851FC47E730F10508F4AFCBD9
:10479000E6E1EE16ECE7FE0609F4B1CC80914A02A0
:1047A0008272F701E052F847E531F10508F042CD99
:1047B000E853FB4C0C94E232E6E1EE16ECE7FE0621
:1047C00009F0A7CC80914A028A7A91E009F490E03E
:1047D00090930402811191CC89E20E9441080E94C9
:1047E000AB0DACCAF8E7EF16FCE7FF0609F4A5CD60
:1047F0003AE5E3163CE7F30609F4C0CD08F0A1CD95
:1048000091E0E9169CE7F90609F4B6CDA3E0EA16B3
:10481000ACE7FA0609F4AACDE114BCE7FB0609F0FF
:1048200015CD0E94FD0D2FEF34E38CE02150304078
:104830008040E1F700C000000E94E607CF93DF93BD
:1048400080911E02807F09F04DC080911D02882357
:1048500009F448C0E09102055091C904C0911902C1
:10486000D091180260911A0270911B0247E05E1706
:10487000C9F18E2F90E0E49FF0011124E653FB4F25
:104880002481222391F1489FF001499FF00D1124CA
:10489000DF01A653BB4F11962C9111972C1325C005
:1048A0002C912D1322C015962C91159721111DC006
:1048B00012962D913C91261B370B283C3105A8F40C
:1048C00080911E028F70806180931E02E053FB4F27
:1048D00080818F708061808388E192E00E94E81D72
:1048E0000E940B0CDF91CF910895FC013196E77087
:1048F000BECFADE0B0E0EFE7F4E20C9483328C0180
:1049000086E0F801DE01189601900D928A95E1F794
:10491000F8018481E58098E1A92E92E0B92E90916A
:104920001C02911128C0882319F1EE20F1F0C80172
:104930000E947E16F82E8823C1F087E0F801D50189
:1049400001900D928A95E1F780911C02813031F43B
:1049500080911802909119020E946F160E941E24E5
:104960008F2D2D96ECE00C949F32C8010E94E81D1B
:10497000FF24F394F5CFD080C18082809380F090A3
:104980001D0220911A0230911B02A401421B530BFD
:10499000FF2009F4BCC0483C510508F092C08823B0
:1049A000F9F29091190280911E02282F207F09F0C0
:1049B00056C0C91214C090911802D91210C0E1104B
:1049C00048C08F70806180931E0288E192E00E944F
:1049D000E81D80911E02F8018683F12CC1CFE11001
:1049E00038C06C2D8D2D0E9456066C2D8D2D0E9489
:1049F0005606E82E8111F1CFD886C986888599851B
:104A00000E946F16292F22952F70903458F49F70B2
:104A1000223088F0992399F0F8019681907F79F4FB
:104A2000FE2C9ECF2A5F2F70223068F0C8010E94B2
:104A3000E81DEF2CF5CF992311F0882389F3805ED0
:104A4000883070F3F3CF803F58F3815F833040F3B9
:104A5000EDCF80911E02816080931E02BECFC912ED
:104A600007C090911802D91203C0EE2009F470C05B
:104A7000C8010E947E16882309F477CFEE2009F43E
:104A800074CF80911E02803288F0209118023091FC
:104A900019023A8329839C828B8290911C029D8308
:104AA0001E828F83CE0101960E94E81D87E0F801E7
:104AB000A8E1B2E001900D928A95E1F70E941E24D0
:104AC00057CF90911E02292F207F51F488E192E068
:104AD0000E94E81D87E0F50111928A95E9F77DCFE4
:104AE000882309F43DCF809119028C11C1CF8091A8
:104AF0001802D812BDCFE110BBCF9683C8010E9427
:104B0000E81D87E0F50111928A95E9F729CF483C25
:104B10005105B8F7882309F42BCFFE2CEE2009F4B9
:104B200024CF809119028C1120C080911802D812D4
:104B30001CC080911E0280FD0FC0982F907F61F0F5
:104B40008683903F31F0982F907F905F8F70892BF4
:104B50008683C8010E94E81D87E0F801A8E1B2E061
:104B600001900D928A95E1F7FBCEC8010E947E1656
:104B700081119CCF80911E02816080931E02C8012A
:104B80000E94E81DEDCEABE1B0E0E9ECF5E20C945B
:104B90008B324E8B5F8B688F798F8A8F192F9B8F0B
:104BA0009111109221021D8A86E0FE017696DE01A7
:104BB0001F9601900D928A95E1F70A8D002341F02E
:104BC00021E04F85588969897A89C8010E94A51614
:104BD0000B8B1C8B87E0FE013F96DE01189601903F
:104BE0000D928A95E1F7CE0108960E9479248111F1
:104BF0000CC087E0FE013896DE01119601900D92FF
:104C00008A95E1F74C8541110BC017E080910205B0
:104C10009091C904891332C06B96E4E00C94A732DA
:104C20002091C90430E0C9010196877099275091FD
:104C3000020558171906A1F04D8397E0929FD00105
:104C4000939FB00D1124A653BB4FFE0131960190E6
:104C50000D929A95E1F78093C9040E940B0CD5CF71
:104C60000E94FD0D1092C9041092020587E0E8E150
:104C7000F2E0DF011D928A95E9F7C7CF819FC0015D
:104C8000112486539B4F0E947924882329F2809116
:104C9000020590E001968770992780930205B6CFB0
:104CA000A7E1B0E0E6E5F6E20C9483321D861C86AF
:104CB000FE013E9686E0DF011D928A95E9F78DE8B8
:104CC000E82E81E0F82E10E000E0CC24C394D12C33
:104CD00027E9A22E21E0B22EF70181917F018F3FBB
:104CE00009F445C0F894E82FE295EF70F0E021A1B7
:104CF0008F70A60102C0440F551F8A95E2F7CA01C2
:104D0000922F982B91A392A18095892382A37894C6
:104D100000C0E1E9F1E031E0912C21912F3F09F44D
:104D2000A8C0A22FA295AF70B0E090968C9190E0B1
:104D30002F7002C0959587952A95E2F780FD99C05E
:104D4000832F982A330FAE16BF0639F7F701319734
:104D500080818F3F11F00E94870950EA5A95F1F740
:104D6000ECE0F0E0EC0FFD1FE00FF11F90820F5F11
:104D70001F4F0430110509F0AFCF48E050E0BE01ED
:104D8000645F7F4F89E892E00E94C2339C01892BC7
:104D900049F088E0FE013C96A9E8B2E001900D924E
:104DA0008A95E1F70091920210E00F521D4F232BDC
:104DB00009F461C081E0809350020E94E51C909349
:104DC0004F0280934E02F12CE090A304EE2009F4F0
:104DD000ACC01A8219821C821B82809184028A30A4
:104DE00008F06DC04BE75AE1BE016F5F7F4FC8010D
:104DF0000E94E614882309F487C046E05AE1BE0108
:104E00006F5F7F4FC8010E94E614882309F47CC0BD
:104E100044E25AE1BE016F5F7F4FC8010E94E61471
:104E2000882309F471C048ED59E1BE016F5F7F4FDF
:104E3000C8010E94E614882309F466C01092840217
:104E40008091910290E044E050E0BE016F5F7F4F9F
:104E50008F529D4F0E94C23321E020935702892B2D
:104E600009F044C0E12C8E2D8F296796ECE00C945C
:104E70009F3280E066CFF0905002FF2009F4A3CF6C
:104E800080914E0290914F020E94D61C059708F423
:104E90009ACF44E050E069E872E0C8010E94C23352
:104EA000892B59F084E0E9E8F2E0D80101900D92F5
:104EB0008A95E1F71092500287CFF12CFBCF8091B9
:104EC0005102909152020E94D61C843F914008F0FA
:104ED00089CF80915702882329F284E0FE01319620
:104EE000DF011D928A95E9F710925702E091910235
:104EF000F0E0EF52FD4F89819A81AB81BC818083C4
:104F00009183A283B383AFCF809184028F3F31F02E
:104F10008F5F809384028A3008F492CF0E94E51C50
:104F20009093520280935102D4CFC0909102D12C21
:104F3000F601EF52FD4F6F01F80180819181A2814E
:104F4000B3818093650290936602A0936702B09349
:104F5000680285E692E00E94740680936402809164
:104F6000690290916A02A0916B02B0916C02F60105
:104F700080839183A283B38380906D0290906E02B0
:104F8000A0906F02B09070028091530290915402F1
:104F9000A0915502B091560288169906AA06BB0642
:104FA000B1F08092530290925402A0925502B092B6
:104FB00056020E94F707861A970AA80AB90A809231
:104FC000850290928602A0928702B09288028BE0BE
:104FD000E1E7F2E0DE01119601900D928A95E1F78A
:104FE0008091710286958695D0907202C09073026E
:104FF000B090740200917A0210917B0210927B02B1
:10500000112309F430CF10FF11C099819370282F1C
:10501000220F220F922B998390FF1CC09091950430
:1050200091609093950460E00E94741D11FF06C08A
:1050300020E04B2D6C2D8D2D0E94331812FF04C0E3
:10504000002359F00E94581D13FF0DCF81E080937B
:10505000DC0209CF0E94D714E9CF0E94D908F4CF0F
:10506000A6E0B0E0E6E3F8E20C948B320E94E51C87
:105070008C0180914C0290914D028017910781F034
:1050800019821A820E94E51C682F49815A81792F62
:1050900080E090E00E94C32510934D0200934C02E3
:1050A0002696E4E00C94A7321F921FB61F9211249B
:1050B0008F939F93AF93BF938091AD04811113C0E1
:1050C0008091AE049091AF04A091B004B091B1046E
:1050D0004196A11DB11D8093AE049093AF04A0939F
:1050E000B004B093B104BF91AF919F918F911F9085
:1050F0001FBE1F901895CDB7DEB7A6970FB6F894D0
:10510000DEBF0FBECDBF85B7806885BF85B780681D
:1051100085BF84B7877F84BF0FB6F894A895809128
:105120006000886180936000109260000FBE80E88C
:1051300090E00FB6F89480936100909361000FBEE9
:1051400085E899E09093DB018093DA010E948B0659
:105150000E942C078091E20084608093E2007894A2
:105160008091BF048823A1F01091E9001F709091F5
:10517000EC00892F817090FD80E8182B1092E900D7
:105180008091E80083FD0E941F0E1F701093E900BC
:1051900082E084BD93E095BD9AEF97BD80936E0049
:1051A0001092850210928602109287021092880255
:1051B0000E94EE15811102C00E94DE158091D80078
:1051C00080618093D8002AE12A95F1F700C0809190
:1051D000D900182F117080FD04C00E948B06109218
:1051E000BF041093A3041093A40410932C01112363
:1051F00009F46FC010924F018BE1809350010E941F
:10520000063180912C0180912C0194E0811190E075
:105210009093920284E0891B8093910284E90E941A
:10522000870986E60E94870987E90E94870986EC3C
:105230000E94870901E911E0D8018D918D018F3F0E
:1052400011F00E948709B1E007391B07A9F788E030
:10525000E1EDF2E0DF01282F1D922A95E9F7E9E858
:10526000F2E0DF011D928A95E9F70E94731981111E
:1052700002C00E94241B82E090E00E94D8338093F9
:10528000940284E090E00E94E6339093AC04809313
:10529000AB040E945026BFEFE6E7F1E0B150E040DA
:1052A000F040E1F700C000000E9450268091A40465
:1052B000E4E08111E0E0F0E0EF52FD4F808181FFFA
:1052C0000EC06FEF7FEF90E080E00E941A340E94E2
:1052D000E6078BE180934F018093500192CF83E0EA
:1052E00090E00E94D8330E94D20C8091A3048111D7
:1052F00033C182E08093CC0280E8809306050E944F
:10530000B02F6BE070E082E892E00E94C91688231B
:1053100009F443C08091CC0265E070E081FD1EC1BC
:105320008DE792E00E94C9168823B9F16DE070E024
:105330008BE692E00E94C916882379F10E94F70754
:1053400069A37AA38BA39CA3DC01CB01805A95416E
:10535000AF4FBF4F80939D0490939E04A0939F04F2
:10536000B093A004E9E0F5E080E092E0DF019C0169
:105370001D9221503040E1F7F0931007E0930F07A2
:105380008FEF9FEF909308058093070581E080934E
:10539000A2048093A1041092CD0280919302811106
:1053A00076C00E947319811104C00E94241B0E94C0
:1053B0003F1988E090E00E94E0336B017C0184E2B9
:1053C00090E00E94D833282F30E040E050E060E0C9
:1053D00070E080E090E000E20E94FE32260137019A
:1053E0002C2935294E29572920939504309396046A
:1053F00040939704509398046093990470939A048F
:1054000080939B0490939C048091E102836080933D
:10541000E1022C7F61F50E943F1988E090E00E9434
:10542000E0336B017C0184E290E00E94D833282FA6
:1054300030E040E050E060E070E080E090E00E940A
:10544000FE3226013701C22A35294E295729C0923A
:105450009504309396044093970450939804609376
:10546000990470939A0480939B0490939C040E94E7
:10547000E0080E94D9088091950480FF05C060E093
:10548000869586950E94741D81E080939302809199
:10549000A304811102C00E9409318DE291E0909332
:1054A000A8048093A7046AE0862E912CA12CB12C2D
:1054B0008091BF0400E112E1853009F48BC00E94A5
:1054C000502605E912E051EDE52E52E0F52ED70108
:1054D000F80191918D9122E0ED39F20709F484C031
:1054E0009817B9F34090A304D12CD701CD907D013A
:1054F000F80151908F015C1431F15C24712C662409
:105500006394862D8521B9F04420A9F07982DA824E
:105510000E94E51C9C838B83F1E0FD8391E0862D46
:105520008C2109F490E09E8349815A816B817C81B2
:105530008D810E94C3257394660C26E07212E1CF20
:10554000F8013197C082D39438E0D312CECF0E94B5
:10555000A009772473944DC080E0CCCE88E792E018
:10556000E1CE8091BF04843031F10E94F316109295
:10557000AD0448E150E080E40FB6F894A89540935C
:1055800060000FBE8093600083B7817F846083BF1B
:1055900083B7816083BF7894889583B78E7F83BFFC
:1055A0000FB6F894A89580916000886180936000A0
:1055B000109260000FBE8091BE04882359F00E94B3
:1055C0005026E1EDF2E081918111ABC492E0E93D1A
:1055D000F907C9F78091BF04853009F4C2CF0E9452
:1055E000FD0D0E94C1086BCF98137CCF0E9430281C
:1055F000712C8091E002882309F465C08091DF025C
:10560000E0919504E695E695E81BE093DB02823095
:1056100009F029C1F0E0E256FD4FE4910E2F10E0B1
:1056200043ECE42E44E1F42E8091DC02882361F007
:105630001092DC020E944D1D9093DA028093D902F1
:105640001092DE021092DD020E944D1D9C01E0913D
:10565000D902F091DA028E1B9F0B8F3F9F4798F57E
:1056600080919F028823B1F010929F0280919D0249
:1056700090919E02281B390B2F3F3F4758F4805DC5
:105680009A4890939E0280939D028091E1028860E7
:105690008093E102C090DD02D090DE02E00FF11FA6
:1056A000F093DA02E093D90289ED92E0F7010995CF
:1056B0008091DD029091DE02892B29F4CD2819F02A
:1056C000F1E0F0939F028091A204882309F494C032
:1056D0008091CE029091CF020E94D61CC29708F40E
:1056E00061C00E94E51C9093CF028093CE0289E0B6
:1056F00095E09093100780930F078091A30488236F
:1057000009F476C183EC92E00E94650D8091A002BD
:105710000E94D50C823009F41AC108F010C1811121
:1057200013C18BEB92E00E94A50D8091AB02805DCE
:105730000E94E50C81ED92E00E94650D8091AA0225
:10574000805D0E94E50C8DEC92E00E94650D8091D9
:10575000A8029091A9022091370130913801821757
:10576000930709F0FAC02091A702203209F0F5C092
:10577000E1EAF2E08F0181918032E1F3F8010190DA
:105780000020E9F79F012150310979010E151F050D
:1057900008F428C18BEC92E00E94650D80913901DC
:1057A0000E94E50C8091070590910805892B09F06E
:1057B00024C18091A1048823F9F00E94F70769A30E
:1057C0007AA38BA39CA380919D0490919E04A091A9
:1057D0009F04B091A00429A13AA14BA15CA1281B70
:1057E000390B4A0B5B0BDA01C9018F3F9F4FAF4F5B
:1057F000BF4710F40E94F31671100E940E170E940A
:10580000C1089091D002891721F08093D0020E94A4
:10581000F7078091BF04843009F04ACE83E080937B
:10582000E9008091E80082FF43CE8091E80090E09B
:1058300085FF06C00E94AA06882309F4BFC191E033
:105840008091E8008B778093E800992309F430CEAB
:105850008981EFEFE80FE33108F0DAC1F0E0E352BD
:10586000FB4C0C94E232863059F4F0E0E556FD4FE3
:10587000E4910E2F10E033EBE32E34E1F32ED4CE7F
:10588000893061F4E695F0E0E856FD4FE4910E2F83
:1058900010E02BE0E22E24E1F22EC6CE8F3061F430
:1058A000E695F0E0EB56FD4FE4910E2F10E092E804
:1058B000E92E93E1F92EB8CE853159F4F0E0EE5699
:1058C000FD4FE4910E2F10E089EFE82E82E1F82ED3
:1058D000ABCE08E210E0F2E6EF2EF2E1FF2E8831C7
:1058E00009F4A2CE833249F4E0E9F2E00591149183
:1058F000B1E6EB2EB4E1FB2E97CE8432C9F000ED79
:1059000017E071EEE72E77E0F72E853209F08CCEA6
:105910008E2F63E00E94B432E92FF0E0E357FD4F91
:10592000E4910E2F10E0A2E4EA2EA7E1FA2E7CCE3D
:1059300004EF11E0E5E2EE2EE2E1FE2E75CE8330BB
:1059400049F082EA92E0EFCE85EB92E0ECCE8FEA6E
:1059500092E0E9CE88EA92E0E6CE90933801809317
:10596000370120E22093A7029C0150E040E029A3E8
:105970003AA34BA35CA31092A60251EAC52E52E0B3
:10598000D52E6CE9E62E62E0F62E860169A17AA199
:105990008BA19CA1A50194010E946234605D6033DB
:1059A00019F4C016D10649F089A19AA1ABA1BCA1F6
:1059B000892B8A2B8B2B09F460E2D80114966C9307
:1059C00069A17AA18BA19CA1A50194010E946234D6
:1059D00029A33AA34BA35CA301501109E016F106D9
:1059E000A9F6C6CED8018D918D010E94E50CCECED0
:1059F00083ED92E00E94650DD5CE8091A2048823AC
:105A000009F4D7CE8091CD028111D3CE0E940E171A
:105A100020910705309108052115310509F4C9CEFB
:105A200080E041E050E0082F10E02A01082E02C07B
:105A3000440C551C0A94E2F7B90164217521672BC7
:105A400011F48F5FF0CF9091CC0290FF9EC0880F31
:105A5000880F880F80933C0110923F01895F8093EB
:105A60003D0183E08093400124E630E047E050E0D0
:105A70006AE371E088E70E945630892B09F099CEDD
:105A8000A80195E0440F551F9A95E1F78091CC024B
:105A900080FF8DC0ECEAF2E080E2DF011D928A9582
:105AA000E9F7EBE9F1E0FEA3EDA367E971E087E038
:105AB000E82EDD24D394ADA1BEA12D91BEA3ADA34C
:105AC000FB012190BF01240E352E311CC101875FDF
:105AD0009A4F1C01E22FF0E0E455FD4F90E080E08A
