:100000000C944B060C9468060C9468060C94E03033
:100010000C9468060C9468060C9468060C946806A8
:100020000C9468060C9468060C94AB1B0C94671B2C
:100030000C940B280C9468060C9468060C946806C3
:100040000C9468060C9468060C9468060C94680678
:100050000C9468060C94841C0C9468060C94680636
:100060000C9468060C9468060C9468060C94680658
:100070000C9468060C9468060C9468060C94680648
:100080000C9468060C9468060C9468060C94680638
:100090000C9468060C9468060C9468060C94680628
:1000A0000C9468060C9468060C9468060501098097
:1000B000A101850319012AB700150126B700950192
:1000C00075108100C0050C0901A101850419012AE0
:1000D000A002150126A002950175108100C005013E
:1000E0000906A1018506050719E029E71500250184
:1000F0009508750181020507190029EF15002501F2
:1001000095F075018102050819012905950575010C
:100110009102950175039101C00660FF0961A1017B
:100120000962150026FF00952075088102096315F4
:100130000026FF00952075089102C005010906A15F
:1001400001050719E029E7150025019508750181CA
:10015000029501750881010507190029FF15002680
:10016000FF0095067508810005081901290515008D
:100170002501950575019102950175039101C00056
:10018000000000000000000000000000000000006F
:10019000000000000000000000000000000000005F
:1001A0000000007E0F00D4FFFFFFC70000007800B2
:1001B000000000000000002A2B28000000000000C2
:1001C0000000000000000000000029000000002CDA
:1001D0001E3420212224342627252E362D37382779
:1001E0001E1F202122232425263333362E37381F85
:1001F0000405060708090A0B0C0D0E0F1011121347
:100200001415161718191A1B1C1D2F3130232D35E4
:100210000405060708090A0B0C0D0E0F1011121326
:100220001415161718191A1B1C1D2F3130354C20A8
:100230002020206162636465666768696A6B6C6D23
:100240006E6F707172737475767778797A31323334
:1002500034353637383930524542545F2D3D5B5D79
:100260005C233B27602C2E2F20202000DA0281FF08
:10027000D9F1DB20A4A62EAF00A0C0D30000A1C8F6
:10028000D30000AED580A81F408D1420001E0F059E
:1002900000047F3F1F643214643214783C1E1E1425
:1002A0000A05556E6465660047616D696E673200C8
:1002B00047616D696E67004D65646961004D6F75DA
:1002C0007365004E61766967617465004E756D6295
:1002D00065720053796D626F6C0046756E63746968
:1002E0006F6E0044656661756C74004C617965726F
:1002F0003A20003A002C206B0078008081828384B1
:1003000085868788898A8B8C8D8E8F909192939425
:10031000A0A1A2A3A4A5A6A7A8A9AAABACADAEAF65
:10032000B0B1B2B3B4C0C1C2C3C4C5C6C7C8C9CADC
:10033000CBCCCDCECFD0D1D2D3D40000010101019E
:100340000101010101020202020202020202030390
:100350000303030303030404040404040405050560
:100360000505060606060607070707070808080822
:10037000090909090A0A0A0B0B0B0C0C0C0D0D0DCF
:100380000E0E0E0F0F0F1010111111121213131465
:1003900014151516161717181819191A1A1B1B1CDD
:1003A0001D1D1E1E1F202021222223242425262637
:1003B000272829292A2B2C2D2D2E2F30313232336C
:1003C0003435363738393A3B3C3D3E3F4041424375
:1003D0004445464748494A4C4D4E4F505153545559
:1003E0005658595A5B5D5E5F616264656668696B09
:1003F0006C6D6F7072737577787A7B7D7E80828387
:100400008587888A8C8E8F91939596989A9C9EA0CA
:10041000A2A3A5A7A9ABADAFB1B3B5B7BABCBEC0D7
:10042000C2C4C6C9CBCDCFD1D4D6D8DBDDDFE2E4A0
:10043000E7E9EBEEF0F3F5F8FAFDFFFFAA7F554090
:100440002223252628292A2C2D2F303233353638E1
:100450003A3B3D3E4042434547494A4C4E5051533A
:100460005557595A5C5E6062646668696B6D6F715E
:10047000737577797B7D7F81838587898A8C8E9060
:10048000929496989A9C9E9FA1A3A5A7A8AAACAE69
:10049000AFB1B3B4B6B8B9BBBCBEBFC1C2C3C5C6A9
:1004A000C7C9CACBCCCDCED0D1D2D2D3D4D5D6D752
:1004B000D7D8D9D9DADADBDBDBDCDCDCDCDCDDDD90
:1004C000DDDDDCDCDCDCDCDBDBDBDADAD9D9D8D780
:1004D000D7D6D5D4D3D2D2D1D0CECDCCCBCAC9C722
:1004E000C6C5C3C2C1BFBEBCBBB9B8B6B4B3B1AF59
:1004F000AEACAAA8A7A5A3A19F9E9C9A98969492F9
:10050000908E8C8A89878583817F7D7B79777573CF
:10051000716F6D6B6968666462605E5C5A595755AD
:100520005351504E4C4A4947454342403E3D3B3A69
:100530003836353332302F2D2C2A292826252322F0
:1005400000AF00AE2B0014001A00080015001700C1
:10055000E00004001600070009000A00E1001D0089
:100560001B00060019000500000000000000E30069
:10057000777C2C002A00130012000C0018001C00CD
:10058000340033000F000E000D000B00290038006E
:100590003700360010001100000000000000E600E7
:1005A000787C28002B001E001F0020002100220064
:1005B000E00000000000000000000000E10000007A
:1005C0000000000000000000000000000000E30048
:1005D00001002C002A00270026002500240023000B
:1005E000000000004F0052005100500000000000C9
:1005F0000000000000000000000000000000E60015
:10060000010028002B001E021F02200221022202EC
:10061000E00000000000000000000000E100000019
:100620000000000000000000000000000000E300E7
:1006300001002C002A0027022602250224022302A0
:100640003500310030002F002E002D003502310220
:1006500030022F022E022D02000000000000E600F2
:1006600001002800007C00000000000000000000E5
:1006700020782378257827780000000021782478D6
:100680002678287800000000000000000000E30049
:1006900001002C000000000000000000000000002D
:1006A000000000000000000000000000000000004A
:1006B0000000000000000000000000000000E60054
:1006C0000100280009025B00030100A0FA090400F0
:1006D000000103010100092111010001224400076A
:1006E000058103080001090401000203000000095C
:1006F00021110100012222000705820320000107C9
:1007000005030320000109040200010300000009A1
:100710002111010001226D00070584032000011250
:100720000100020000000853460100010001020020
:10073000010C0343006F0072006E006500000010A2
:100740000366006F006F007300740061006E0000AC
:1007500000040309040000000000003E5B4F5B3E04
:10076000003E6B4F6B3E001C3E7C3E1C00183C7EE6
:100770003C18001C577D571C001C5E7F5E1C00004F
:10078000183C180000FFE7C3E7FF0000182418001A
:1007900000FFE7DBE7FF0030483A060E0026297924
:1007A000292600407F05050700407F05253F005AA8
:1007B0003CE73C5A007F3E1C1C0800081C1C3E7F86
:1007C0000014227F2214005F5F005F5F0006097F34
:1007D000017F00006689956A006060606060009437
:1007E000A2FFA2940008047E04080010207E2010BE
:1007F0000008082A1C0800081C2A0808001E1010FF
:100800001010000C1E0C1E0C0030383E3830000654
:100810000E3E0E060000000000000000005F000019
:1008200000000700070000147F147F1400242A7FB3
:100830002A12002313086462003649562050000033
:100840000807030000001C224100000041221C0098
:10085000002A1C7F1C2A0008083E0808000080703F
:100860003000000808080808000000606000002050
:1008700010080402003E5149453E0000427F4000FE
:10088000007249494946002141494D33001814126C
:100890007F10002745454539003C4A494931004110
:1008A0002111090700364949493600464949291EA0
:1008B0000000001400000000403400000000081494
:1008C00022410014141414140000412214080002E0
:1008D00001590906003E415D594E007C1211127CFF
:1008E000007F49494936003E41414122007F414154
:1008F000413E007F49494941007F09090901003E05
:1009000041415173007F0808087F0000417F41008A
:10091000002040413F01007F08142241007F4040F9
:100920004040007F021C027F007F0408107F003ED1
:100930004141413E007F09090906003E4151215EC7
:10094000007F091929460026494949320003017FE1
:100950000103003F4040403F001F2040201F003F58
:100960004038403F00631408146300030478040314
:10097000006159494D4300007F4141410002040894
:10098000102000004141417F0004020102040040A8
:1009900040404040000003070800002054547840C5
:1009A000007F2844443800384444442800384444F4
:1009B000287F0038545454180000087E090200189B
:1009C00024241C78007F080404780000447D400043
:1009D000002040403D00007F102844000000417F7F
:1009E0004000007C04780478007C08040478003817
:1009F00044444438007C1824241800182424187C0B
:100A0000007C080404080048545454240004043FA3
:100A10004424003C4040207C001C2040201C003C22
:100A20004030403C004428102844004C9090907C7A
:100A3000004464544C440000083641000000007734
:100A40000000000041360800000201020402003CE0
:100A50002623263C000000000000000000000000EB
:100A60000000000000C0E0F0F8F81800C0F0FCFE44
:100A7000FFFFFFFFFFFFFF7E0000000000000000FF
:100A80000080C0E0E0E0E0E0E0E0E0C080000000E6
:100A90000080C0E0E0E0E0E0E0E0E0C080000000D6
:100AA000E0E0C0C0E0E0E0E00000E0E0C0C0E0E086
:100AB000E0E0E0C0800000000080C0E0E0E0E0E0B6
:100AC000E0E0E0C080000000000000000000000046
:100AD000000000E0F0F0F0E0ECEEF7F37020007CB6
:100AE0007C7C7E007E7E7E7F7F7F000080C0E07EFB
:100AF0005B4F5BFEC00000C000DCD7DEDEDED7DC73
:100B000000C0000000000000000000000000000025
:100B10000000000000000000000000000000F8FCE1
:100B2000FEFFE000FFFFFFFFFFFF80FFFFFFFFFF73
:100B3000FFFFFFFF1F070100000000000000000092
:100B4000FFFFFF8100000000000081C3C3C300005D
:100B5000FFFFFF8100000000000081FFFFFF000099
:100B6000FFFFFF01000000000000FFFFFF01000089
:100B7000000001FFFFFF0000FFFFFF9D1C1C1C1C6D
:100B80001C1C9DDFDFDF00000000000000000000F3
:100B90000000000F1F3F7F7F7F7F7F3F1E0C001FE5
:100BA0001F1F3F003F3F3F7F7F7F00307B7F7830BC
:100BB000202030787F3B0003000F7F0F0F0F7F0F47
:100BC0000003000000000000000000000000000022
:100BD0000000000000000000000000000000030F03
:100BE0001F3F3F3F3F1F1F3F3F7F7F7F3F3F1F3FD5
:100BF0007F7F7F7F7C7878381C0F0000000000002A
:100C000000010307070707070707070301000000A4
:100C10000001030707070707070707030100000094
:100C2000070707000000000000000707070000009A
:100C30000000000707070000000103070707070778
:100C4000070707030100000000000000000000008B
:100C50000000000000000000000000000000000094
:100C60000000000000000000000000000000000084
:100C70000000000000000000000000000000000074
:100C80000000000000000000000000000000000064
:100C900000000000000011241FBECFEFDAE0DEBF2D
:100CA000CDBF27E0ACEDB1E001C01D92A331B2078A
:100CB000E1F711E0A0E0B1E0E8EFF8E602C005904E
:100CC0000D92AC3DB107D9F70E9432280C940A343A
:100CD0000C940000482F209104059091CB0457E01C
:100CE000291302C080E0089530E0529FF001539F25
:100CF000F00D1124E453FB4F8181681306C08081FD
:100D0000481303C085818111EECF2F5F3F4F2770BD
:100D1000E7CFFC01AC014C5F5F4F8FEF91E3219176
:100D2000822728E030E087FF09C0880F89272150FB
:100D30003109C9F7E417F50791F70895880FF7CF40
:100D4000E8EDF0E080818E7F80831092E2001092C7
:100D5000DA001092E100A0EEB0E08C9181608C93FB
:100D600080818F77808319BCA7EDB0E08C918E7F56
:100D70008C9380818F7E80831092B404089520919B
:100D8000E4003091E50095E6A9012091EC00822F66
:100D9000817020FF06C08091E80080FF06C080E0DF
:100DA00008952091E80022FD1AC08091C104882393
:100DB00089F0853089F08091EB0085FD0FC020918E
:100DC000E4003091E50042175307F9F29150E1F643
:100DD00084E0089582E0089583E0089581E0089515
:100DE0008091C30487FF13C08091E80082FF06C092
:100DF0008091E8008B778093E80004C08091C10463
:100E00008111F2CF08958091C1048823D9F3809194
:100E1000E80080FFF8CF8091E8008E77ECCF982F24
:100E20009093E900242F762F50E0891731F07091CC
:100E3000EC002091ED005091F00021FD07C09F5F74
:100E4000973071F78093E90081E008953091EB00CD
:100E50003E7F3093EB003091ED003D7F3093ED000D
:100E60003091EB0031603093EB007093EC002093F5
:100E7000ED005093F0002091EE0027FDE0CF80E0E0
:100E80000895B0E0A0E0E7E4F7E00C941A32C8ED72
:100E9000D0E088818F7E8883E7EDF0E080818160FB
:100EA000808384E082BF81E08093B40488818E7F58
:100EB000888302EE10E0F80110821092DA0081EED1
:100EC000C82ED12CF601108288818F778883888183
:100ED0008068888388818F7D888319BC1092C104C3
:100EE0001092C2041092C0041092BF0490EEE92E3A
:100EF000F12CF70180818B7F8083888181608883DA
:100F000042E060E080E00E940F07F60180818E7F62
:100F10008083F80180818160808380818860808304
:100F2000F70180818E7F8083888180618883CDB73F
:100F3000DEB7E8E00C943632FC018091C904909150
:100F4000CA0486179707A0F06115710529F49091DE
:100F5000E8009E779093E80090E06115710551F4E8
:100F6000911108C08091E80082FF34C080E00895AC
:100F7000BC01F2CF8091C1048823C1F18530C1F159
:100F80008091E80083FD30C08091E80082FDEACFC7
:100F90008091E80080FFE1CF8091F3002091F20082
:100FA000382F6115710519F02830310558F091E09E
:100FB0002830310509F090E02091E8002E77209349
:100FC000E800CBCF81918093F100615071092F5FD0
:100FD0003F4FE7CF8091C104882341F0853041F035
:100FE0008091E80083FFBECF81E0089582E00895FC
:100FF00083E00895089508958091B604089587E7E1
:1010000097E7909301088093000888E19AE00FB673
:10101000F894A895809360000FBE90936000FFCF76
:101020002FB7F8946091B0047091B1048091B2042C
:101030009091B3042FBF0895909154019923D1F05A
:101040009091AD0497FF16C0E82FE695E695E695DA
:10105000EE31E0F4F0E0EA51FE4F282F277081E0F6
:1010600090E001C0880F2A95EAF780959281892344
:1010700082830895E0EEF1E09191891303C0DF01CE
:1010800011971C9291E0E63EF907B1F7089590910F
:1010900054019923C1F09091AD0497FF14C0E82F3B
:1010A000E695E695E695EE31F8F4F0E0EA51FE4F6C
:1010B000877021E030E001C0220F8A95EAF7828133
:1010C000822B82830895A0EEB1E0EFEF90E02D91A6
:1010D000821751F0EF3F19F4211101C0E92F9F5FF2
:1010E0009630A9F7EF3F09F408950E2E000CFF0B80
:1010F000E252FE4FE6CFA3E0B0E0E1E8F8E00C9466
:1011000020322091AB043091AC0428173907A1F0AC
:101110009093AC048093AB04E091A904F091AA04ED
:10112000309751F024E029839B838A830084F185E2
:10113000E02DCE01019609952396E2E00C943C3215
:10114000A3E0B0E0E6EAF8E00C9420322091A70496
:101150003091A80428173907A1F09093A804809330
:10116000A704E091A904F091AA04309751F023E07C
:1011700029839B838A830084F185E02DCE0101962B
:1011800009952396E2E00C943C328091A5048823D3
:1011900059F0E091A904F091AA04309729F0019048
:1011A000F081E02D0995089580E00895FA018111FC
:1011B00001C0FB0109950895E1EEF2E01182828100
:1011C00084608283089580919704982F9C7F61F4B6
:1011D000837084608093970480919A04833318F01D
:1011E00082E380939A0408958C3AB0F38370886AFE
:1011F000F1CFAF92BF92DF92EF92FF920F931F93C6
:10120000CF93DF93182F062FE901433308F042E311
:10121000E42FF0E0E55CFC4F011110C0E4915E2F7B
:101220004E2F4983E8835A83DF91CF911F910F910D
:10123000FF90EF90DF90BF90AF900895202F30E0A7
:101240004491D42EE42EF12C56E0159FC0011124B8
:10125000EFEFF0E0BF010E94FC31812F90E0880F9A
:10126000991F55E5569FD001579FB00D11248A1B39
:101270009B0B982F990F890F5F01A21AB30AAE9C9E
:10128000D001AF9CB00DBE9CB00D11245B2F089F08
:1012900080011124012F11275F01A01AB10AAE9C11
:1012A0008001AF9C100DBE9C100D11245F01A81A87
:1012B000B108A29EC001A39E900DB29E900D112474
:1012C000892F9927E81BF90BEE9DC001EF9D900D2A
:1012D000FE9D900D1124E92F62307105A1F050F4AC
:1012E0006115710509F49DCF6130710581F0EB2F17
:1012F000512F97CF6430710569F080F06630710529
:1013000009F48FCFF4CFE42F4B2F592F8ACFE42F3E
:10131000412F87CFEB2F542F492F83CF4B2F5D2D9C
:10132000E12F7FCF80E00895F894E82FE295EF70E9
:10133000F0E031A1282F2F7081E090E001C0880FEC
:101340002A95EAF7982F9095932391A392A1892B40
:1013500082A3789408950F931F938091A504882306
:1013600029F00E9410081F910F9108950E94100803
:1013700000918702109188022091890230918A029F
:10138000600F711F821F931FEECF9091AD0492FFEB
:1013900010C041E0282F2471243009F040E031E0F2
:1013A000282F2871283009F030E0431711F02CE085
:1013B000822793FF10C041E0282F2471243109F0C7
:1013C00040E031E0282F2871283109F030E0431740
:1013D00011F02CE082273091AE0430FF10C051E0B4
:1013E000282F2171213009F050E041E0282F287189
:1013F000283009F040E0541711F029E0822731FF2E
:1014000010C041E0282F2171213109F040E031E086
:10141000282F2871283109F030E0431711F029E016
:10142000822794FD877E089582389105B9F1B0F442
:101430008133910509F47DC048F48932910509F49E
:101440006DC08A32910509F47BC0089585339105FA
:1014500009F45FC08933910509F10895833E910530
:10146000D9F138F4803E910529F1823E910579F158
:101470000895863E9105D9F1873E910509F43EC055
:10148000843E910541F52091AE0421FF24C0809156
:10149000AD0484FD19C087EE90E008952091AD045D
:1014A000237009F05AC02091AE0423FF14C089E2D2
:1014B00090E008952091AD0420FD38C03091AE0435
:1014C00030FF09C024FF43C090E080E008952091E0
:1014D000AD0422FDF7CF08952091AD0422FD3AC05E
:1014E0003091AE0430FD39C024FFF5CFEDCF20910F
:1014F000AD0423FFF0CF24FDE7CFCDCF2091AD0485
:1015000023FD2EC03091AE0431FFEECF84EE90E08B
:1015100008952091AD0425FFDECFC9CF2091AD0401
:1015200025FD21C02091AE0423FFD5CF89E390E0B3
:10153000D2CF2091AD0426FFCECF8AE290E008956D
:101540002091AD0426FFC7CF81E390E0089583EE9C
:1015500090E0089582EE90E0089580EE90E0089586
:1015600086EE90E0089585E390E008951F93CF9371
:10157000DF930E94140AEC01C11580E5D807F0F54D
:10158000C11580E4D80708F09CC0C03ED10520F505
:10159000CD3CD10508F082C0C83AD10578F4C53AEF
:1015A000D10508F073C0C130D10519F1209709F1B8
:1015B000C430D105F0F4D0E0C0E01BC0C33CD1057D
:1015C000D0F7C85AD0E0CC0FDD1FC85ADE4F0990C3
:1015D000D881C02DD4640DC0C11580E2D80708F0B1
:1015E000D1C0C11581E0D80708F05AC0C83ED10566
:1015F00010F7CE01DF91CF911F910895C03682E59B
:10160000D80718F5C03482E5D80708F06BC0C0329F
:1016100082E5D80708F05FC0C11582E5D80708F455
:1016200097C02C2F2695269580E2289F90011124A3
:101630008C2F8370C1E0D0E002C0CC0FDD1F8A95F3
:10164000E2F7C22BD32BDD68D4CFC03A82E5D807AE
:1016500060F4C03882E5D80708F459C0CF71D0E0F3
:10166000DC2FCC27C46FD06AC4CFC03C82E5D8073A
:1016700008F462C0C03E82E5D80708F09CCFDC2F9A
:10168000CC27CC27DF71C06FD06AB3CFC55AD0E06A
:10169000CB5ADE4FC881D0E0D064ABCFD065A9CFA4
:1016A0008D2F0E94C509182FCE0199270E94140A78
:1016B000C12FD0E0DC2FCC27CC27DF71C82BD92B52
:1016C00098CFCE0199270E94140ACC27DF70C82B2F
:1016D000D92BD06A8ECFCF71D0E0DC2FCC27C16F51
:1016E000D06A87CF2C2F26952695277080E2289FD9
:1016F000900111248C2F8370C1E0D0E002C0CC0F88
:10170000DD1F8A95E2F7C22BD32BDC6872CF2C2F1A
:1017100026952695277080E2289F900111248C2F12
:101720008370C1E0D0E002C0CC0FDD1F8A95E2F7E4
:10173000C22BD32BDA685DCF8C2F8F710E94C50925
:10174000C82FD0E0DC2FCC27CC27DF71D06251CF5F
:101750008C2F8F710E94C50955E0D695C7955A9573
:10176000E1F7CF70D0E0DC2FCC27282F30E084FFCA
:1017700005C044E0220F331F4A95E1F7C22BD32B5B
:10178000D06937CF8D2F8F710E94C509182FCE01D8
:1017900099270E94140AC12FD0E0DC2FCC27CC2738
:1017A000DF71C82BD92BD2CF809590914C02982312
:1017B00090934C02089580914C0290912302892BC2
:1017C00090912202992391F0892B909154019923B1
:1017D00071F09091AD0497FF0AC09EE128EE31E0D0
:1017E00040E0915040F4411110922202089596E099
:1017F00020EE31E0F5CFF90151919F01552389F396
:101800004F5FEFCF809104059091CB04981301C0F6
:1018100008958F5F8770FACF292F983078F586303A
:1018200068F590E036E0239F800D911D1124682F0C
:10183000677023E0969587952A95E1F7FC01EE0FF6
:10184000FF1FE80FF91FE85FFD4F50E040E080E028
:10185000219130E0062E02C0369527950A94E2F7D2
:1018600021703327042E01C0220F0A94EAF7822B3D
:101870004F5F5F4F4330510559F7089580E0089559
:10188000292F983098F5863088F590E036E0239F30
:10189000800D911D1124282F277041E001C0440FB5
:1018A0002A95EAF723E0969587952A95E1F7FC01BA
:1018B000EE0FFF1FE80FF91FE85FFD4F30E020E05B
:1018C00070E05191DF011197CB01022E02C0969575
:1018D00087950A94E2F7817081958527842385276F
:1018E0008C932F5F3F4F2330310559F70895809334
:1018F000A20208959091A20221E030E0F90101C016
:10190000EE0F8A95EAF7D90102C0AA0FBB1F6A95AC
:10191000E2F7EA2B01C0220F4A95EAF7892F8E23BE
:10192000E81305C0292B822F0E94770C089520957B
:101930002923F9CF21E030E001C0220F8A95EAF790
:1019400020958091A20282230E94770C08959091A5
:1019500021028095892380932102282F277069F422
:10196000891759F09091AE0492FF07C0869586952D
:1019700086950E949A0C10922102089521E030E091
:1019800001C0220F8A95EAF78091A202822B0E9461
:10199000770C089580934D020895982F92959F702B
:1019A00011F0892F94E0282F2695269511F09E5F3F
:1019B000822F869509F09F5F892F0895CF93DF933B
:1019C000682F81E06A3019F06D3031F480E00E94B8
:1019D0006C0DDF91CF9108958091110790911207BE
:1019E00026E0FC01ABE0B7E001900D922A95E1F70B
:1019F000603E08F458C026E0FC0111922A95E9F7F0
:101A0000C0911107D091120746E050E0BE018BE073
:101A100097E00E9439339E012B503540892B41F1CC
:101A2000C90145E0969587954A95E1F741E050E078
:101A3000BA0102C0660F771F8A95E2F7CB01609169
:101A4000090570910A05862B972BB9016B5F7F4FB3
:101A5000E5E076956795EA95E1F702C0440F551FDA
:101A60006A95E2F7842B952B90930A0580930905DC
:101A70002A5F3F4F40910805642F70E0C9010E9422
:101A8000FC31481B463010F4240F311D211572E043
:101A9000370710F030E020E0255F3A4F309312070F
:101AA0002093110796CFF6E06F9FB00111246B5A77
:101AB000784F46E050E00E942333A2CFCF93DF93CC
:101AC000EC01FE018491811103C0DF91CF91089553
:101AD0000E94DE0C2196F5CFCF93382FE0911107AD
:101AE000F0911207EB50F54020910805622F70E04D
:101AF000CF010E94FC31281B822F332361F066E066
:101B00000E944732C82FC15010F4CF91089580E24F
:101B10000E94DE0CF8CF9F01280F311D21153240A5
:101B200018F080E0F0E0E0E08E0F9F2F911D855FC0
:101B30009A4F9093120780931107E7CF0E945E0D92
:101B400081E00E946C0D089580915401882359F121
:101B50008091AD0487FF27C00E94DB0B8093E701D3
:101B600040E250E064E272E086EE91E00E94393398
:101B7000892BC1F080E2E6EEF1E0A4E2B2E0019050
:101B80000D928A95E1F7E091A904F091AA043097AB
:101B900049F086E08093E6010480F581E02D86EE31
:101BA00091E0099508950E94DB0B8093DE0148E0E7
:101BB00050E064E472E08EED91E00E943933892BAD
:101BC00089F388E0EEEDF1E0A4E4B2E001900D923B
:101BD0008A95E1F7E091A904F091AA04309711F3F6
:101BE0000280F381E02D8EED91E0DBCF10924C026C
:101BF000809154018823C1F08091AD0487FF14C007
:101C0000E8EEF1E08EE1DF011D928A95E9F790E0C0
:101C100080E00E94A00890E080E00E947B08109283
:101C200023020E94A40D0895E0EEF1E086E0EBCFE0
:101C3000AAE2B0E0EEE1FEE00C941F3283EC94E007
:101C40002091F100DC012D93CD01B4E08B3C9B078A
:101C5000B9F78091C404833009F472C0B8F48130BC
:101C600009F449C0823009F4B3C08091E80083FFD1
:101C70008BC28091C3049091C4049A3008F084C24E
:101C8000E92FF0E0E45FFB4C0C9475328A3009F4E4
:101C90008EC08B3009F471C0893039F78091C3044C
:101CA000813219F78091C7049091C804009711F010
:101CB0000297D9F68091E800877F8093E8008091B1
:101CC000E80082FF38C09091F3008091F200029703
:101CD00031F48091F100813011F0863021F480914F
:101CE000F1008093B6048091E8008B778093E80040
:101CF0000E94F006BACF8091C304813A09F0B5CFB3
:101D00008091E800877F8093E8008091C7049091DC
:101D1000C804892B61F468E087EB94E070E00E94CE
:101D20009C078091E8008B778093E8009ECF60E06D
:101D300090E080E0F3CF8091C1048111C0CF95CFB6
:101D40008091C304813A09F090CF8091C7049091AB
:101D5000C804892B09F089CF8091E800877F8093A0
:101D6000E8008091E80080FFFCCF809154018093CF
:101D7000F1008091E8008E77B9CF8091C304813261
:101D800009F073CF8091C7049091C804892B09F0A2
:101D90006CCF8091E800877F8093E8000E94F00676
:101DA0008091C504809354010E94F60D5ECF80910E
:101DB000C304813209F059CF8091E800877F809376
:101DC000E8000E94F0068091C6048093B5044DCFD0
:101DD0008091C304813A09F048CF8091E800877F61
:101DE0008093E8008091E80080FFFCCF8091B504EB
:101DF000BECF803899F0823809F0C6C18091C704FF
:101E00008F70873008F0C0C18093E9008091EB00AB
:101E100085FB882780F91092E90006C08091BF04F5
:101E20009091C004911182609091E800977F909307
:101E3000E8008093F1001092F1008091E8008E7725
:101E40009FC1882309F48DC1823009F09DC1809122
:101E5000C504811190C18091C7048F702FEF280FA6
:101E6000263008F091C18093E9002091EB0020FF1B
:101E700082C1933031F48091EB0080628093EB005B
:101E80007AC19091EB0090619093EB0021E030E0FB
:101E900001C0220F8A95EAF72093EA001092EA0027
:101EA0008091EB008860EACF81116EC11091C5046A
:101EB0001F778091E3008078812B8093E3008091ED
:101EC000E800877F8093E8000E94F0068091E80098
:101ED00080FFFCCF8091E30080688093E30082E084
:101EE000111183E08093C1044FC18058823008F003
:101EF0004BC12091C5043091C6042C3DE3E03E0760
:101F0000A1F583E08A838AE289834FB7F894DE01E2
:101F1000139620E03EE051E2E32FF0E050935700AB
:101F2000E49120FF03C0E295EF703F5FEF708E2FCA
:101F300090E0EA30C0F0C7968D939D932F5F2431D7
:101F400059F74FBF8091E800877F8093E8006AE2ED
:101F500070E0CE0101960E949C078091E8008B778B
:101F60008093E80011C1C096E7CF8091C70490919B
:101F7000C804432F55274330510509F44AC078F56A
:101F80004130510509F47AC08BE590E0E4ECF6E0CD
:101F90004230510509F0F8C02091E800277F2093D6
:101FA000E8002091C9043091CA048217930708F40D
:101FB0009C0140E02115310509F065C0411163C065
:101FC0008091E80082FDC9CF8091C104882329F265
:101FD000853019F28091E80083FFF2CFBECF413205
:101FE000510509F43CC04232510509F0CDC083309F
:101FF000910508F0C9C0FC01EE0FFF1FE053FE4F32
:102000000190F081E02D83539E4FDC018C9190E094
:102010001AC0332721303105D1F02115310561F087
:102020002230310509F0B0C0E1E3F7E0E4918E2FF2
:1020300090E0E1E3F7E007C0E1E5F7E0E4918E2FFF
:1020400090E0E1E5F7E0009709F49EC0A5CFEFE34B
:10205000F7E0E4918E2F90E0EFE3F7E0F4CF8330E8
:10206000910508F091C0880F991FFC01EA52FE4FBC
:102070000190F081E02D89E090E08ECF82E190E048
:10208000EFE1F7E089CF8091C104882309F465CF9F
:10209000853009F462CF8091E80083FD5ECF8091A6
:1020A000E80082FD8DCF8091E80080FF83CF909182
:1020B000F3008091F2002115310519F08830910567
:1020C00050F041E0089709F040E08091E8008E77F9
:1020D0008093E8006FCF44914093F10031962150F6
:1020E00031090196E8CF803809F04EC08091E800B0
:1020F000877F8093E8008091C2048093F1009DCE99
:10210000811142C01091C5041230F0F58091E800B1
:10211000877F8093E8001093C2040E94F006112389
:1021200011F084E005C08091E30087FDFACF81E0E3
:102130008093C10442E061EC81E00E940F0742E21B
:1021400061EC84E00E940F0742E261EC82E00E94B1
:102150000F0742E260EC83E00E940F078091C10408
:1021600013C08091C504813079F481E0933009F087
:1021700080E08093C0041092E9008091E800877F9E
:102180008093E8000E94F0068091E80083FF0AC077
:102190008091E800877F8093E8008091EB00806267
:1021A0008093EB00AA96E3E00C943B32882321F065
:1021B0000E94D40B0E94A40D0895882339F09091B9
:1021C0004C02982B90934C020E94A40D08958823F2
:1021D00039F19CEF980F913A28F40E941C080E9454
:1021E000A40D089590E2980F983050F4877091E014
:1021F00001C0990F8A95EAF7892F0E94D40BEFCF7F
:102200009BE5980F933028F490E080E00E94A008AE
:102210000895885A8B3120F490E080E00E947B087A
:102220000895CF93C82F8823B9F18CEF8C0F813A92
:10223000A8F580915401882301F18091AD0487FFB6
:102240001CC0EC2FE695E695E695F0E0EA51FE4FCE
:10225000828190E04C2F477021E030E002C0220FD5
:10226000331F4A95E2F782239323892B81F08C2F29
:102270000E941C080E94A40D0AC0E0EEF1E086EE68
:1022800091E02191C21799F38E179F07D1F78C2FF8
:102290000E9447080E94A40DCF91089580E28C0F00
:1022A000883068F4C77021E030E001C0220FCA9581
:1022B000EAF780914C02822B80934C02EBCFEBE546
:1022C000EC0FE33040F4F0E0EB5AFE4F808190E0F9
:1022D0000E94A008E1CFC85ACB31F0F6EC2FF0E015
:1022E000EE0FFF1FE85AFE4F808191810E947B080C
:1022F000D3CF0F931F93CF93DF938B01EA0190917C
:10230000C104943061F58093E9008FEF9091E8006B
:10231000815095FD06C095ED9A95F1F70000811169
:10232000F5CF8091E80085FF1AC00E94BF06811199
:1023300011C08091E80085FD06C08091E8008E778D
:102340008093E800F2CFF80181918F018093F10032
:10235000219779F78091E8008E778093E800DF91EC
:10236000CF911F910F91089543E050E0BC0184E0AC
:102370000E947911089540E250E0BC0184E00E947F
:1023800079110895CF93DF93EC0148E050E0BC0150
:1023900081E00E94791188E0FE01A7EBB4E0019092
:1023A0000D928A95E1F7DF91CF91089560915001E8
:1023B0008091970480FF20C080914F0143E0849F6B
:1023C000C001112489519D4F539A2BB1277F3BB1F6
:1023D00038605FB7F894FC01649FE00DF11D112493
:1023E000BF0168177907D1F45FBF8FE594E00197CB
:1023F000F1F700C0000008958091510190915201C1
:1024000023E0829FF0011124E951FD4F8917A0F6C6
:102410001182108212828F5F3396F8CFFC014191B6
:10242000CF01E8E03BB9000000C047FF2BB9440FE3
:10243000000000C000C000C02BB900C0EA9591F7B1
:10244000D0CF0F931F93CF93DF93EC0110E000E008
:10245000909153019017110609F06CF40E94D61167
:102460008C8190E00196817099278C83DF91CF91C8
:102470001F910F91089520915101A801420F511D04
:102480009A01220F331F240F351F29513D4F4C81D4
:10249000609199048091980496959017110651F0D7
:1024A0004CF0442349F040919A040E94F9080F5FD0
:1024B0001F4FCECF4423B9F340E0F7CFB0E0A0E008
:1024C000E4E6F2E10C941632EC014C81042F10E0AA
:1024D0009801D8010E94FB339B01AC010E94C633D6
:1024E0004B015C01E0E2F0E0E01BF10BA5E5B0E0A0
:1024F000AC019B010E94C6336B017C019F01DF018F
:102500000E9482329B01AC010E94D1339B01AC013D
:10251000280D391D4A1D5B1DC701B6010E94D93324
:10252000F22E822F90E039E23F1520F143E0249F04
:102530009001112435952795122F109500E085E51F
:10254000E82EEF1880915301081718F10E94D61158
:102550009C8181E0992319F0903219F48FEF8093D8
:102560004E0180914E01890F8C83CDB7DEB7ECE030
:102570000C94323225E530E0B901681B790B9B01E0
:10258000220F331F260F371F37FFD4CF2F5F3F4F48
:10259000D1CF8E2D01FD8F2D20915101622F600F23
:1025A0007727771F9B01220F331F260F371F2951D3
:1025B0003D4F412F609199040E94F9080F5FC2CFEF
:1025C000EF92FF920F931F93CF93DF93EC018C81D7
:1025D000811109C081E08C831092E50292E0909312
:1025E0004D0180934C01809151019091520123E063
:1025F000829FF0011124E951FD4F891758F110E035
:1026000003E060915301161758F10E94D611809192
:102610004C012091E502280F2093E50290914D0195
:10262000980F90934D01191654F4022E000C330BA1
:10263000409153014150550B2417350734F08195D3
:1026400080934C01813009F41C82CDB7DEB7E6E0FF
:102650000C9438321182108212828F5F3396CDCF64
:10266000E12EF12C70E0C7010E94613220915101EE
:10267000820F482F50E02091E502022E000C330B10
:10268000E216F306BCF020914D01022E000C330B34
:102690002E153F057CF0809F9001112429513D4F5C
:1026A00040919A0460919904809198040E94F908DD
:1026B0001F5FA7CFFA01EE0FFF1FE40FF51FE951CF
:1026C000FD4F118210821282F3CFB0E0A0E0EBE662
:1026D000F3E10C941632EC018A81BB24BA9480FD9C
:1026E00002C0BB24B394A09053018C81811109C016
:1026F00081E0B81220C08FEF8A0D8093E40281E060
:102700008C83F12CE12C46E3942EEA14B8F00E945D
:10271000D6118091E40291E0B91257C0811150C0E6
:102720008091530181508093E4021C82CDB7DEB7C3
:10273000ECE00C9432321092E402E1CF00915101AE
:102740000E0D1F2D111DC801880F991F080F191F8D
:1027500009511D4FF80111821082128234E0C32EFC
:10276000D12C812C8091E402880D87332CF1692DC6
:102770000E945332892F082E000C990B8E159F054D
:1027800091F480919A048C9DA0018D9D500D11248F
:102790005595479555954795980160919904809175
:1027A00098040E94F9088B0CF1E0CF1AD108D1F6F9
:1027B0008FEFE81AF80AA9CF87FFDDCF8A0DDBCFAC
:1027C00081508093E402BC82B1CF90E00196609189
:1027D000530170E00E9461328093E4028C83A6CFA3
:1027E000EF92FF921F93CF93DF93EC0110E0EE2462
:1027F000EA94F12C60915301161770F00E94D611E3
:102800009A818C8190FF27C08F5F8C83DF91CF915D
:102810001F91FF90EF90089520915101422F410F99
:102820005527551FCA019A01220F331F280F391F40
:1028300029513D4F70E0C7010E946132962F8C8173
:1028400040919A0460919904199F800D11240E946F
:10285000F9081F5FCFCF8150D8CF9091970490FF98
:102860000EC0909151012091520133E0939FF001ED
:102870001124E951FD4F921718F00E94D6110895C6
:102880008183608342839F5F3396F5CFA3E0B0E0FE
:10289000ECE4F4E10C941E328C018091E60281118B
:1028A0000AC09E012F5F3F4F42E36FEF0E94F9087D
:1028B0008A818093E602F8016481613069F0809139
:1028C000E60240E0662361F040E0623011F440919E
:1028D000E60280E060E004C06091E60240E080E053
:1028E0000E942D14F801848190E0019663E070E06D
:1028F0000E94613284832396E4E00C943A32A3E090
:10290000B0E0E5E8F4E10C9420329091970490FF58
:102910000AC09E012F5F3F4F0E94F9084B816981D9
:102920008A810E942D142396E2E00C943C32CF93CE
:10293000DF93EC01E7E9F4E0438162818C810E943E
:102940007F148C818F5F8C83DF91CF910895CF931B
:10295000DF93EC01EC81F0E0E05CFB4F4491E7E9B0
:10296000F4E0628181810E947F148C818F5F8C836F
:10297000DF91CF910895E7E9F4E080818E7F808335
:102980000E94DC08E1EEF2E08281816082830E9495
:10299000D6110895B0E0A0E0E0EDF4E10C94183217
:1029A0007C015B016A018091860201E010E08A30BF
:1029B00010F40AE010E0C1E0D0E0B501C701F60173
:1029C0000995811104C021960C171D072CF4CDB771
:1029D000DEB7EAE00C943432CC9F9001CD9F300DED
:1029E000300D112490E080E045E34A95F1F70000B6
:1029F000019682179307C1F7E0CF1F93CF93DF9320
:102A0000182FD0E0C0E0893311F4C0E5D0E0812F69
:102A10000E941111209739F4812F0E94E710DF9155
:102A2000CF911F9108958FE99FE00197F1F700C0C2
:102A300000002197EFCF0E94F60D2FEF84E39CE07A
:102A4000215080409040E1F700C0000088E19AE00A
:102A50000FB6F894A895809360000FBE9093600025
:102A6000FFCFCF93C82F6FEF811164E285E290E032
:102A70000E9473336FEFC11165E086E290E00E941F
:102A800073336FEFC11165E287E290E00E94733308
:102A9000CF910895CF93DF93C9EAD1E060E0CE01F2
:102AA0000E9473332196C11584E0D807B9F7DF91EE
:102AB000CF9108951F93CF93DF93122F8430E0F4CA
:102AC0006830D0F44630C0F4C42FD0E0CC0FDD1F06
:102AD0009CE0699FC00DD11D112490E6899FC00D17
:102AE000D11D1124632FCE0189960E947333612F6B
:102AF000CE018A960E947333DF91CF911F91089582
:102B0000AF92BF92CF92DF92EF92FF921F93CF933B
:102B1000DF9384E4C82E85E0D82ED0E07601C0E0B3
:102B200014C0F50125913491412F6C2F8D2F0E94F7
:102B30005A1582E0A80EB11C1F5F163091F78CE089
:102B4000E80EF11CCF5FC83019F0570110E0E9CF53
:102B5000DF5F80E6C80ED11CD43001F7DF91CF9142
:102B60001F91FF90EF90DF90CF90BF90AF900895AE
:102B700080E00E94311560E088E290E00E947333AB
:102B80000E9480150E944A1581E00E943115089527
:102B900085E290E00E944F33843289F486E290E02F
:102BA0000E944F33853059F487E290E00E944F3302
:102BB00091E0853209F090E0892F8170089580E0DE
:102BC000FCCF0F931F93CF93DF93843030F56830A1
:102BD00020F5463010F5C42FD0E0CC0FDD1F2CE0DF
:102BE000629FC00DD11D112430E6839FC00DD11D01
:102BF0001124CE0189960E944F33082F10E0102F28
:102C00000027CE018A960E944F339801282BC901D4
:102C1000DF91CF911F910F91089590E080E0F8CF60
:102C2000462F783040F4663030F4843020F4672F3B
:102C30000E94E115089590E080E00895CF92DF9220
:102C4000FF920F931F93CF93DF936C010091A20229
:102C500080914D02082BC3E0D0E010E0FC2EC801AB
:102C60000C2E02C0959587950A94E2F780FD0CC062
:102C70002197A0F7F12C8F2DDF91CF911F910F910C
:102C8000FF90DF90CF900895B6018C2F0E94101610
:102C90000E94B60A019761F3EECFCF93DF93EC0168
:102CA0000E941E16BE010E9410160E94B60ADF91F5
:102CB000CF910895FC0124812223C1F0808191816C
:102CC0000E944D1692959F70963091F058F4925F45
:102CD0009F70923058F4803F19F030F4883E30F401
:102CE00081E008959A5FF4CF843FD1F380E00895A6
:102CF000883EB0F3813FD1F7F3CFA6E0B0E0E3E840
:102D0000F6E10C941F3249835A8349815A819923F1
:102D1000A1F0222391F0CA010E941E16182F682FDD
:102D200089819A810E94400C69817A81812F0E9459
:102D300010162696E3E00C943B32CA010E940C0C5C
:102D4000182FF2CFB0E0A0E0E8EAF6E10C941A32D6
:102D50006C017B0164E670E088E70E945A2F8C01C9
:102D6000E601EC0CFD1C17FD0BC0FE01849164E62E
:102D700070E00E94C62F8C012196CE15DF0599F7D1
:102D80000E943C3081E00115110509F080E0CDB7CB
:102D9000DEB7E8E00C9436328091A3049091A4044D
:102DA000911103C091E089270895882369F062E0BA
:102DB00070E082E495E00E94A216811103C0809128
:102DC000A30408951092A3048091A304EBCFCF93A2
:102DD000C091A3048091A4048823D1F00E9410081C
:102DE000605A75418F4F9F4F60939F047093A0046A
:102DF0008093A1049093A204C11108C062E070E026
:102E000080E495E00E94A216811105C0C091A30440
:102E10008C2FCF91089581E08093A304F7CFB0E089
:102E2000A0E0E5E1F7E10C941232FC0162804480FD
:102E300081E08483E0E4F4E07490EFEBF4E0E4916B
:102E4000C0919A04C695C158D0E0CC0FDD1FCD2F9C
:102E5000DD27812C75E0972EAA24AA94B12C552445
:102E60005A94E719EE2EF12C80915301881638F010
:102E70000E94D611CDB7DEB7E0E10C942E32C82CFB
:102E8000D12C82E0861568F09C9CF0019D9CF00D91
:102E90001124E757FC4F8091980480838091990416
:102EA0008183411023C09C9CF0019D9CF00D112456
:102EB000E757FC4F1382128220915101C601820F05
:102EC000911D9C01220F331F280F391F29513D4F9F
:102ED0009C9CF0019D9CF00D1124E757FC4F428112
:102EE000618180810E94F9088394BECF9C9C8001FF
:102EF0009D9C100D112407571C4FF80183818823D6
:102F0000F1F081508383859DC0011124648170E0BC
:102F10000E94FC31FB01FF27E05CFB4F8491E82F0E
:102F2000E719E59DC0011124B7010E94FC31809191
:102F30009A04689FB0011124F8017283BDCF0E94EA
:102F40001333B5010E9461328C179D070CF0B4CF8A
:102F5000F2E0F61598F40E941333B5010E94613235
:102F6000F80180830E941333209199042695622FE3
:102F700070E00E946132280FF80121839C9CF001CF
:102F80009D9CF00D1124E757FC4F128280919A040A
:102F9000893C58F088EC9C9CF0019D9CF00D11241C
:102FA000E757FC4F8483838387CF8431A0F784E184
:102FB000F2CFB0E0A0E0EFEDF7E10C94163249015A
:102FC0005A016B017C010E94E3088401A4016A2D6F
:102FD0007B2D88E090E00E94853394014A2D5B2D83
:102FE000B601C70100E20E94AC32622F84E290E099
:102FF0000E947333CDB7DEB7ECE00C943232A3E01D
:10300000B0E0E5E0F8E10C941932082FE62EF42E3A
:10301000C22E9091970490FF41C0209198042813EC
:1030200008C080919904861304C080919A04841783
:1030300029F08091E30282608093E302E92FE69514
:10304000E695AE2FB0E0AE55BE4F8C918093E10275
:103050009C7F943039F59E012F5F3F4F4F2D6E2D91
:10306000802F0E94F9084B8169818A810E942D146A
:1030700000939804E0929904F0929A04CC2071F0A5
:103080002091970460919B0470919C04302FA701BC
:1030900080919D0490919E040E94D9172396E9E0A7
:1030A0000C943532823019F4F0909A04E1CF8630D6
:1030B000A1F1893091F18931D9F6E9516E2F617012
:1030C000B62EE695F0E0E55CFB4F1491D12C6091B3
:1030D0005301D61618F00E94D611CACFD19EC00156
:1030E000112470E00E94FC31802FB11014C0860FB3
:1030F00020915101622F6D0D7727771F9B01220FC1
:10310000331F260F371F29513D4F4F2D6E2D0E9423
:10311000F908D394DCCF861BEBCF022FA9CFE7E9C8
:10312000F4E0438121E1421B08F440E021E06281A8
:1031300081810E94FF170895E7E9F4E0438121E1CE
:10314000420F08F44FEF21E0628181810E94FF1756
:103150000895E7E9F4E0628121E1621B08F460E090
:1031600021E0438181810E94FF170895E7E9F4E09F
:10317000628121E1620F08F46FEF21E043818181D8
:103180000E94FF170895E7E9F4E0818121E043817F
:10319000628188500E94FF170895E7E9F4E0818179
:1031A00021E043816281885F0E94FF17089580912A
:1031B0009B04882319F0815080939B0420919704ED
:1031C000309198044091990450919A0460919B0425
:1031D00070919C0480919D0490919E040E94D91747
:1031E000089580919B04833018F48F5F80939B0433
:1031F00020919704309198044091990450919A0439
:1032000060919B0470919C0480919D0490919E0418
:103210000E94D9170895E7E9F4E085E080831182E0
:103220008FEF828382E383831482A1EEB2E0129651
:103230008C911297836012968C93758125E030E013
:103240004FEF52E360E0868197810E94D91708957D
:103250009091AE0492FB222720F9281779F080FB89
:1032600092F99093AE046091AD047091AE0484E045
:1032700090E00E94913382E00E94A70C089590E0B4
:1032800080E00E945D33863E9E4F19F40E94C8156F
:10329000089580E008954F925F926F927F928F928F
:1032A0009F92AF92BF92EF92FF920F931F93CF9393
:1032B000DF937B01FB0140805180628073809FB768
:1032C000F8948090B0049090B104A090B204B090B3
:1032D000B3049FBF84189508A608B708F4E68F16B4
:1032E0009104A104B10418F4C1E0442329F1C82FCA
:1032F000880FDD0BFE0183E0EE0FFF1F8A95E1F7DB
:10330000EC5FFE4F818192818A599D4F408150E050
:103310000417150708F4A801B9010E944633CE012D
:103320000E948631C82F882339F00E941008F701C7
:1033300060837183828393838C2FDF91CF911F9160
:103340000F91FF90EF90BF90AF909F908F907F90E4
:103350006F905F904F900895ABE0B0E0E2EBF9E141
:103360000C941E3288E0E7E9F4E0DE01119601904A
:103370000D928A95E1F78091E1029091E202A0918D
:10338000E30289879A87AB8741E08B85811101C071
:1033900040E00BE010E09E012F5F3F4F62E872E0DB
:1033A00084E00E944B1981111092E3022B96E4E015
:1033B0000C943A320F931F93CF93DF93EC0144E0C8
:1033C00050E06BE672E00E94393341E0892B09F44A
:1033D00040E004E010E09E0162E672E082E00E94BC
:1033E0004B19DF91CF911F910F910895A4E0B0E0A8
:1033F000ECEFF9E10C941F3240917E0250917F0274
:1034000060918002709181022FB7F8948091B0048E
:103410009091B104A091B204B091B3042FBF841B6A
:10342000950BA60BB70B11E084369105A105B105EC
:1034300070F10E94AB096E5F7F4F8F4F9F4F698382
:103440007A838B839C8380911D0190911E018A5900
:103450009D4F40911C0150E04530510510F044E073
:1034600050E0BE016F5F7F4F0E94463383E090E0E3
:103470000E948631182F882351F00E941008609313
:103480007E0270937F028093800290938102812F4D
:103490002496E3E00C943B32EF92FF921F93CF937C
:1034A000DF9300D000D00F92CDB7DEB77B0190E064
:1034B00080E00E948631182F882309F487C040914C
:1034C000070150E04115510511F041E050E06091D5
:1034D0000801709109016A597D4FCE0105960E943D
:1034E000463340915E0250915F026091600270919C
:1034F00061022FB7F8948091B0049091B104A0912B
:10350000B204B091B3042FBF841B950BA60BB70B6D
:1035100084369105A105B10540F487E692E00E944A
:1035200089069D81891709F451C081E090E00E94CD
:10353000863181111AC010E080915A0290915B028D
:10354000A0915C02B0915D02F70180839183A28318
:10355000B383812F0F900F900F900F900F90DF91FA
:10356000CF911F91FF90EF90089540910F0150E08F
:103570004530510510F044E050E060911001709129
:1035800011016A597D4FCE0101960E94463387E6AC
:1035900092E00E9489069D818913CDCF0E94100878
:1035A00060935E0270935F02809360029093610269
:1035B00089819A81AB81BC8180935A0290935B028E
:1035C000A0935C02B0935D0211E0B6CF80916702D8
:1035D00090916802A0916902B0916A0289839A83EE
:1035E000AB83BC831111E4CFA7CFA8E0B0E0EBEF31
:1035F000FAE10C94203266EE7EEF90E080E00E94CB
:10360000913360E082E090E00E94733381E0809328
:103610004D0261E083E090E00E94733360E074E16A
:1036200084E090E00E94913360E086E090E00E94A8
:1036300073336FEF87E090E00E94733340E050E017
:10364000BA0188E090E00E94853360E084E290E077
:103650000E94733360E087E190E00E94733360E082
:103660008CE090E00E94733360E08DE090E00E9477
:10367000733319821A821B821C821D821E821F8252
:10368000188648E050E068E170E0CE0101960E94A3
:10369000633340E050E0BA0180E290E00E9485335D
:1036A00080E00E9431150E94B81540E050E0BA0158
:1036B0008FE090E00E94853340E050E0BA0183E162
:1036C00090E00E9485332896E2E00C943C321F92F1
:1036D0000F920FB60F9211242F933F934F935F9346
:1036E0006F937F938F939F93AF93BF93CF93DF930A
:1036F000EF93FF93D091E900DF708091EC00C82F29
:10370000C17080FDC0E81092E9008091F000877FD1
:103710008093F00078940E94180E1092E900809136
:10372000F00088608093F000CD2BCF70C093E9004B
:10373000FF91EF91DF91CF91BF91AF919F918F91C9
:103740007F916F915F914F913F912F910F900FBE9D
:103750000F901F9018951F920F920FB60F92112481
:103760002F933F934F935F936F937F938F939F9389
:10377000AF93BF93EF93FF938091E10082FF09C065
:103780008091E20082FF05C08091E1008B7F8093F1
:10379000E1008091DA0080FF24C08091D80080FF92
:1037A00020C08091DA008E7F8093DA008091D9006A
:1037B00080FF9DC080E189BD82E189BD09B400FE22
:1037C000FDCF81E08093C1048091B404811109C0D0
:1037D0000E94A0060E9441078091E20084608093CD
:1037E000E2008091E10080FF17C08091E20080FF3D
:1037F00013C08091E2008E7F8093E2008091E2000E
:1038000080618093E2008091D80080628093D8002C
:1038100019BC85E08093C1048091E10084FF2BC036
:103820008091E20084FF27C080E189BD82E189BDEB
:1038300089B5982F917080FFFBCF8091D8008F7D44
:103840008093D8008091E1008F7E8093E100809189
:10385000E2008F7E8093E2008091E200816080939D
:10386000E2008091C204882309F447C084E0809379
:10387000C1048091C1048091E10083FF27C0809141
:10388000E20083FF23C08091E100877F8093E10005
:1038900082E08093C1041092C2048091E1008E7F87
:1038A0008093E1008091E2008E7F8093E20080911E
:1038B000E20080618093E20042E060E080E00E94EC
:1038C0000F078091F00088608093F000FF91EF91E6
:1038D000BF91AF919F918F917F916F915F914F9128
:1038E0003F912F910F900FBE0F901F90189519BC0C
:1038F0001092C1041092B40474CF8091E30087FD4C
:1039000093E09093C104B5CF78941F921FB61F9295
:1039100011248F939F93AF93BF938091B0049091A4
:10392000B104A091B204B091B3040196A11DB11DE0
:103930008093B0049093B104A093B204B093B30405
:10394000BF91AF919F918F911F901FBE1F901895AF
:103950009C014FB7F8948091B0049091B104A0916C
:10396000B204B091B3044FBF821B930B08952FB7DD
:10397000F8948091B0049091B104A091B204B091F8
:10398000B3042FBF08950F931F93CF93DF93C62FD8
:10399000D42F022FFC0185818823A9F060930705AD
:1039A0000E94B71C9093060580930505C77081E0BF
:1039B00001C0880FCA95EAF70E94DD10DF91CF9110
:1039C0001F910F91089580910705681332C080916F
:1039D0000505909106050E94A81C883C910548F5B4
:1039E00010E21D0FCD17B9F080E28C0F883040F443
:1039F000C77081E001C0880FCA95EAF70E94D6100F
:103A0000183048F481E09D2F977001C0880F9A9577
:103A1000EAF70E94DD10802F0E94FD14183070F626
:103A2000D77081E001C0880FDA95EAF70E94D610BE
:103A3000C5CFC77081E001C0880FCA95EAF7F6CFFD
:103A40008091A504882319F00E94B71C08950E9454
:103A5000AB09CB010895609197046695669570E077
:103A60004BE050E081E491E00E942C33892B19F463
:103A700081E08093E2020E94201D9093DC028093FB
:103A8000DB028091E30284608093E30208959091C9
:103A9000970490FF3AC09370811138C0946090935E
:103AA00097048091E30281608093E302662391F0A2
:103AB00020919704309198044091990450919A0470
:103AC00060919B0470919C0480919D0490919E0450
:103AD0000E94D917609197046695669570E04BE057
:103AE00050E081E491E00E942C33892BB9F00E94D0
:103AF000DC0881E08093DE0220E040919A0460912E
:103B00009904809198040E94FF1708958B3210F059
:103B1000986AC5CF880F880F982BC1CF0E942B1DA4
:103B2000E8CF8091970486958695815009F48AE2C2
:103B300061E00E94471D08958091970486958695BF
:103B40008F5F8B3208F081E061E00E94471D08958D
:103B50009091970490FF09C096959695981728F034
:103B6000961718F40E949C1D089561E00E94471D5D
:103B70000895A8E0B0E0EFEBFDE10C9412328C0167
:103B8000DC0114968C911497882309F4B8C021E0C5
:103B90004C9111965C91119712966C911297139615
:103BA0007C91139715969C910E947D167C01F801DB
:103BB0009581992309F4C2C59701375720383105FB
:103BC00008F036C1FFE0FE1508F489C08FEF93E0DE
:103BD0000E944F33811183C069EAA62EBB24B3949F
:103BE000E11047C0FE01339686E0DF011D928A9501
:103BF000E9F75AE0452E7501BFEFEB1AFB0AC50144
:103C00000E944F3389831A82882309F468C0813067
:103C100009F079C06501E2E0CE0ED11CC7010E9417
:103C20004F338A83882309F45AC09FEF980F93304B
:103C300070F5F3E0AF0EB11CC6010E944F338B83C9
:103C4000882309F44CC01C82DE0111967D01F70126
:103C50002081222381F2213009F095C09181828157
:103C6000913009F052C0F2E0EF0EF11C0E94FD14F9
:103C700053C0A11424E0B20691F1C5010E944F3354
:103C8000811101C0EA943FEFA31AB30AA9CF5601EC
:103C90008430D1F642E0E42EF12C56012FEFA21A27
:103CA000B20AC6010E944F33E1E0F0E0EC0FFD1FC5
:103CB000EE0DFF1D8083882391F08C3741F4E2E004
:103CC000F0E0EC0FFD1FEE0DFF1D1082BDCF3FEFAA
:103CD000E31AF30A650187E0E816F104F1F6809132
:103CE0002102877061F0D80115968C91882339F0F4
:103CF0008091AE0482FF03C082E00E94A70C289648
:103D0000E0E10C942E3257019FCF923049F422E02B
:103D1000E20EF11C0E941111EFEFEE1AFE0A97CF8E
:103D2000933031F432E0E30EF11C0E94E710F4CF3F
:103D3000943021F08FEFE81AF80AEECF92E0E90E06
:103D4000F11C30E020E0B7016F5F7F4FD701119683
:103D50004C918053990B8A30910550F021503109D4
:103D6000D8F2EFE9FFE03197F1F700C00000F6CF9D
:103D7000429EF001439EF00D11249C012E0F3F1F27
:103D8000842F7B01E0CFE22FF0E0E155FE4F54900D
:103D9000822F86958695869590E0FC01E156FE4F30
:103DA00064902770712C022E02C0759467940A9457
:103DB000E2F731E063227724FC01E157FE4F849063
:103DC000912C022E02C0959487940A94E2F7A1E008
:103DD0008A229924FC01E158FE4FC490D12C02C0E4
:103DE000D594C7942A95E2F7B1E0CB22DD24611483
:103DF000710419F081EE0E9411118114910419F0DF
:103E000086EE0E941111852D0E94FD1481149104EB
:103E100019F086EE0E94E7106114710419F081EE2A
:103E20000E94E710C114D10409F476CF8CE21ECFB2
:103E300081818093AD0280818093AC0280E2809387
:103E40003901F092AB02E092AA029701305221159B
:103E5000304228F48681807FB1F0F7010BC09701D2
:103E6000305421153041C8F4D80116968C91807FCA
:103E7000F70109F0FF27ED33F10528F4E15DFD4F6F
:103E8000E491E0933901F701E851FC47E730F1058F
:103E900078F5EA5EFB4C0C94753297013A95211542
:103EA0003F41D8F29701205A32452032310558F36C
:103EB000F701E1CF26E241EE61EEC8010E94C31C8A
:103EC0000ECF27E245EE65EEF8CF26E241EE60EE3A
:103ED000F4CF27E245EE64EEF0CF26E241EE62EE4B
:103EE000ECCF27E245EE66EEE8CF28E241E0EBCFEB
:103EF00010920705970130572332310508F039C475
:103F000084E090E00E945D339093AE048093AD0412
:103F1000F701E150F047E232F10520F4E35EFB4C9B
:103F20000C9475328091AD0481608093AD0495C08E
:103F30008091AE0488608093AE048FC08091AD0400
:103F40008260F3CF8091AD048460EFCF8091AD04A7
:103F50008860EBCF8091AE048160EDCF8091AE049C
:103F60008260E9CF8091AD048061DFCF8091AD04A4
:103F70008062DBCF8091AD048064D7CF0E94F60DC4
:103F80008091AD048068D1CF8091AD048C60CDCF9D
:103F90008091AE048360CFCF8091AD048E7FC5CF7A
:103FA0008091AE04877FC7CF8091AD048D7FBDCF58
:103FB0008091AD048B7FB9CF8091AD04877FB5CF61
:103FC0008091AE048E7FB7CF8091AE048D7FB3CF4A
:103FD0008091AD048F7EA9CF8091AD048F7DA5CF58
:103FE0008091AD048F7BA1CF0E94F60D8091AD042E
:103FF0008F779BCF8091AD04837F97CF8091AE0464
:104000008C7F99CF8091AD0482FB992790F921E0B4
:10401000922790FB82F990FB83F987CF8091AE04C1
:10402000982F909591708E7F892B90FB81F983CF8B
:104030009091AD04892F8F7B96FF806476CF0E948C
:10404000F60D9091AD04892F97FB87F980586DCFBD
:1040500061E08EE090E00E9473336091AD04709156
:10406000AE0484E090E00E9491330E94F60D37CEBA
:1040700060E0EFCF9091AD04892F8F7E94FF806137
:1040800054CF9091AD04892F8E7F90FF81604DCFEA
:104090009091AE04892F877F93FF88604CCF85E392
:1040A00079C380910602811104C089E20E941C0834
:1040B00073C385E3FBCF992309F44DC3B7E7EB1630
:1040C000BCE7FB0609F4FBC082E0E8E7EE16ECE78C
:1040D000FE0609F4F5C033E0E3163CE7F30609F405
:1040E0001CC108F0FBC0E1149CE7F90609F408C103
:1040F000A1E0EA16ACE7FA0609F08DC00E941B1594
:104100008091970480FF1EC0282F2E7F2093970454
:10411000309198044091990450919A0460919B04C5
:1041200070919C0480919D0490919E040E94D917E7
:104130000E94DC088091E30281608093E3020E9488
:10414000D611CDCD81608093970461E086958695E8
:104150000E94471DC4CD41E95DE16CE97DE10E940B
:10416000D608BDCD4CE95DE161E97DE1F8CF43ECD6
:1041700058E16DEC78E1F3CF4DEC58E163EC78E178
:10418000EECF49EA58E166EB78E1E9CF46EB58E13A
:1041900069EA78E1E4CF4FE858E16CE978E1DFCFF4
:1041A0004CE958E16FE878E1DACF47ED58E161EF8B
:1041B00078E1D5CF41EF58E167ED78E1D0CF61E00C
:1041C00081E0C6CF65E082E00E94A81D88CD68E04E
:1041D00086E0FACF6EE089E0F7CF64E18FE0F4CFBC
:1041E00067E185E1F1CF61E088E1B2CF62E289E188
:1041F000EBCF61E083E2ACCF6AE285E2E5CFF7E79F
:10420000EF16FCE7FF0609F463C028E7E2162CE787
:10421000F20609F461C0F8018581E080F18088230D
:1042200009F48EC0C7010E941E16D82E682FC70140
:104230000E94400CB7018D2D0E9410160E94B60AF4
:104240007C01882ED8011596AC90159716969C90F7
:1042500092943FE0932280912102877009F1CA2C49
:10426000AA20F9F08F2D807F803469F080E28E0DD6
:104270008830B0F08F2D807E803229F4B1E0BE15F9
:1042800078F4992069F08091AE0482FF09C082E041
:104290000E94A70C809121028770CC24C3948111C5
:1042A000C12CBF2CB2942FE0B222EBE0EB1508F446
:1042B000AFC0EB2DF0E0E15CFB4C0C94753281E07B
:1042C0000E94BE0C43E062E081E00E947A0C07CDC0
:1042D00081E00E949A0CF6CF82E0FBCFBBE5EB16A3
:1042E000BCE7FB0659F1ECE5EE16ECE7FE06E1F063
:1042F000FAE5EF16FCE7FF0609F08DCF81E01BC061
:104300000E94F60D2FEF34E38CE0215030408040C6
:10431000E1F700C000000E94FF076FEF7FEF90E021
:1043200080E00E949133EACE8091AE0482FB882720
:1043300080F991E089270E9428196DCF80E0FBCF9A
:10434000C7010E940C0CD82E75CFFF2DFF70DF2EF9
:104350008F2D807F19F0D29490EFD922AA20B9F046
:10436000DD2069F080E28E0D883010F0811009C0E8
:1043700080914C02D82AD0924C020E94A40D8E2D1E
:1043800045C080912302D82AD0922302F6CF8E2DE9
:104390000E94E710DD20E1F180E28E0D883010F000
:1043A000811004C08D2D0E94D40B06C0D094809142
:1043B0002302D822D09223020E94A40D29C02F2DBF
:1043C0002F70D22E8F2D807F803219F0D29480EF03
:1043D000D822882059F031E0831609F481C0AA2040
:1043E00009F48DC0992009F44FC0C9CF8091AE0463
:1043F00082FD46C0AA20F1F1DD2039F080914C0207
:10440000D82AD0924C020E94A40D80E00E94111183
:10441000AB2DA850BB0B149710F40E94C508CC20FC
:10442000A9F08091210280FD11C0F80115828695C6
:10443000869586950E94BE0CC8010E94B91D809188
:1044400021028695869586950E949A0C20E0D801D7
:104450004C9111965C91119712966C91129713964C
:104460007C91139714968C91149715969C910E94A9
:104470007D1645CC80E00E94E710DD2049F292CF06
:10448000AA20A1F0911004C08D2D0E94DD10C0CF94
:1044900081E09812BDCF809122029D2D9823D916DC
:1044A00009F4B6CFD82AD0922202B2CF9110B0CF61
:1044B0008D2D0E94D610909122028D2D892329F0F6
:1044C0008D2D8095892380932202809107029D2D56
:1044D000982309F49DCFD094D822D092070298CF88
:1044E000AA2029F095E0991508F492CFCDCFA4E049
:1044F000A91508F48DCF8D2D0E94D61089CF992053
:10450000D1F3B9E38B1213C1EFEFF7EE23E0E150E3
:10451000F0402040E1F700C0000009C18F2D8695D2
:104520008695837061F0813009F072CFC701937076
:10453000A11002C080E090E00E947B0869CFC70113
:104540009370A11002C080E090E00E94A00860CFAC
:104550008F2D837091F5A1105BCF4E2D429546951E
:104560004770440F440F8E2D8F70042E01C0880FAA
:104570000A94EAF72E2D2071E4FE07C02FE030E008
:1045800001C0220F4A95EAF720953F2D36953695C2
:104590003370323069F050F440914D02313029F0DF
:1045A000822B84230E94CA0C33CF842B822BFACF18
:1045B000282B80914D028227F5CF8695AA2011F0F5
:1045C0008F2D8170882309F423CF4E2D4295469577
:1045D0004770440F440F8E2D8F70042E01C0880F3A
:1045E0000A94EAF72E2D2071E4FE07C02FE030E098
:1045F00001C0220F4A95EAF720953F2D3695369552
:104600003370323069F050F44091A202313029F019
:10461000822B84230E94770CFBCE842B822BFACF33
:10462000282B8091A2028227F5CF3F2D3F70F32ED9
:10463000AA2029F0832F0E94BE0C8E2D26CF8E2D0E
:104640000E94D6108F2D0E949A0CE2CE8E2D92EFF2
:104650008916B1F1981570F0A0EF8A16D1F0B1EF7C
:104660008B1691F0AA2009F45DC0911088CE8F2D91
:104670008F712AC0E3EF8E1651F1F4EF8F12F2CF53
:104680008091AE0482FD2FC08F2D8F71AA20D9F2A8
:104690001BC0AA2081F024E0291508F4B9CE2F2DE3
:1046A0002F7181E090E001C0880F2A95EAF7909180
:1046B000A2028927AFCF35E0391508F4A9CEEFCF94
:1046C0008F2D8F71A110BFCF0E94BE0CA1CE80E0B4
:1046D000AA2009F49FCF9F2D9F7181E001C0880F10
:1046E0009A95EAF797CFAA2091F08F2D8F71F82E27
:1046F0000E94BE0C8091AE0482FF07C0A8E0FA9E23
:10470000C00111248360809321028F2DDDCF81E0D1
:104710000E94A70CB1E0B91508F07ACE82E00E94A1
:10472000A70C76CE992039F0893309F4EDCE8E2D81
:104730000E94E7106DCE8F2D8F7185CFF701E85164
:10474000FC47E730F10508F4A4CBE6E1EE16ECE710
:10475000FE0609F4A6CC80914C028272F701E05269
:10476000F847E531F10508F04ACDE55BFB4C0C94C8
:104770007532F6E1EF16FCE7FF0609F09CCC80915C
:104780004C028A7A91E009F490E09093060281113C
:1047900086CC89E20E9447080E94A40DA0CACF934C
:1047A000DF9380912002807F09F04DC080911F022D
:1047B000882309F448C0E09104055091CB04C091CE
:1047C0001B02D0911A0260911C0270911D0247E0F9
:1047D0005E17C9F18E2F90E0E49FF0011124E4539D
:1047E000FB4F2481222391F1489FF001499FF00D56
:1047F0001124DF01A453BB4F11962C9111972C1358
:1048000025C02C912D1322C015962C91159721119E
:104810001DC012962D913C91261B370B283C31056B
:10482000A8F4809120028F70806180932002EE5264
:10483000FB4F80818F70806180838AE192E00E94CB
:10484000B91D0E94020CDF91CF910895FC013196B1
:10485000E770BECFA4E1B0E0E0E3F4E20C941632DE
:104860008C0186E0F801DE011F9601900D928A9579
:10487000E1F7F8018481E5809AE1A92E92E0B92E52
:1048800090911E02911128C0882319F1EE20F1F0B9
:10489000C8010E945A16F82E8823C1F087E0F8015B
:1048A000D50101900D928A95E1F780911E02813029
:1048B00031F480911A0290911B020E944D160E94C1
:1048C000CF238F2D6496ECE00C943232C8010E9405
:1048D000B91DFF24F394F5CFD080C18082809380EE
:1048E000F0901F0220911C0230911D02A401421B76
:1048F000530BFF2009F4D9C0483C510508F092C081
:104900008823F9F290911B0280912002282F207FAA
:1049100009F056C0C91214C090911A02D91210C0E1
:10492000E11048C08F708061809320028AE192E09C
:104930000E94B91D80912002F8018683F12CC1CF1D
:10494000E11038C06C2D8D2D0E946A066C2D8D2DC6
:104950000E946A06E82E8111F1CFDF86C88A8F8512
:1049600098890E944D16292F22952F70243058F4D3
:104970009F70223088F0992399F0F8019681907FFA
:1049800079F4FE2C9ECF2A5F2F70223068F0C80188
:104990000E94B91DEF2CF5CF992311F0882389F3DC
:1049A000805E883070F3F3CF803F58F3815F8330AF
:1049B00070F7E7CF80912002816080932002BECF04
:1049C000C91207C090911A02D91203C0EE2009F44F
:1049D0008DC0C8010E945A16882309F477CFEE20B3
:1049E00009F474CF80912002803288F020911A025D
:1049F00030911B02398728879B868A8690911E02F8
:104A00009C871D868E87CE0108960E94B91D87E07F
:104A1000F801AAE1B2E001900D928A95E1F70E94B7
:104A2000CF2357CF90912002292F207F51F48AE184
:104A300092E00E94B91D87E0F50111928A95E9F78D
:104A40007DCF882309F43DCF80911B028C1110C0CB
:104A500080911A02D8120CC0E1100AC09683C801D6
:104A60000E94B91D87E0F50111928A95E9F729CFD7
:104A7000C8010E945A16882309F428CFEE2009F4B1
:104A800025CF80912002803210F220911A023091BD
:104A90001B023A8329839C828B8290911E029D8304
:104AA0001E828F83CE010196B0CF483C5105D0F6CF
:104AB000882309F40ECFFE2CEE2009F407CF809155
:104AC0001B028C1120C080911A02D8121CC0809148
:104AD000200280FD0FC0982F907F61F08683903F69
:104AE00031F0982F907F905F8F70892B8683C8015B
:104AF0000E94B91D87E0F801AAE1B2E001900D9291
:104B00008A95E1F7DECEC8010E945A1681117FCF47
:104B100080912002816080932002C8010E94B91D0B
:104B2000D0CEABE1B0E0E7E9F5E20C941E324E8B5B
:104B30005F8B688F798F8A8F9B8F192F91111092BD
:104B400023021D8A86E0FE017696DE011F96019003
:104B50000D928A95E1F70A8D002341F021E04F85FF
:104B6000588969897A89C8010E947D160B8B1C8B34
:104B700087E0FE013F96DE01189601900D928A951E
:104B8000E1F7CE0108960E942A2481110CC087E02B
:104B9000FE013896DE01119601900D928A95E1F79B
:104BA0008C8581110BC017E0809104059091CB0496
:104BB000891331C06B96E4E00C943A322091CB0417
:104BC00030E0C90101968770992740910405481784
:104BD000190699F097E0929FD001939FB00D112490
:104BE000A453BB4FFE01319601900D929A95E1F7C7
:104BF0008093CB040E94020CD6CF0E94F60D109237
:104C0000CB041092040587E0EAE1F2E0DF011D9297
:104C10008A95E9F7C8CF819FC001112484539B4F27
:104C20000E942A24882331F28091040590E00196A5
:104C30008770992780930405B7CFA3E1B0E0E3E242
:104C4000F6E20C9415328E01045F1F4F88E0D80104
:104C50001D928A95E9F780E9C82E81E0D82EF12CC3
:104C6000E12CAA24A394B12C2AE9822E21E0922ED1
:104C7000F60181916F018F3F09F442C0F894E82F4B
:104C8000E295EF70F0E021A18F70A50102C0440F02
:104C9000551F8A95E2F7CA01922F982B91A392A1F2
:104CA0008095892382A3789400C0E4E9F1E0712C17
:104CB00031E021912F3F09F4A3C0A22FA295AF703C
:104CC000B0E090968C9190E02F7002C095958795FA
:104CD0002A95E2F780FD94C0832F782A330F8E1631
:104CE0009F0639F7F601319780818F3F11F00E94BE
:104CF000940950EA5A95F1F7F801EE0DFF1D708204
:104D00008FEFE81AF80A94E0E916F10409F0B0CF41
:104D100048E050E0B8018BE892E00E9439330097F8
:104D200041F028E0F801ABE8B2E001900D922A953D
:104D3000E1F70091940210E00D521D4F892B09F408
:104D400061C081E0809352020E94B71C909351028F
:104D500080935002F12CE090A504EE2009F4ACC041
:104D600019821A821B821C82809186028A3008F086
:104D70006DC04CE45AE1BE016F5F7F4FC8010E94D5
:104D8000CA14882309F487C04AED59E1BE016F5F58
:104D90007F4FC8010E94CA14882309F47CC046EFE3
:104DA00059E1BE016F5F7F4FC8010E94CA1488237A
:104DB00009F471C04CEA59E1BE016F5F7F4FC80131
:104DC0000E94CA14882309F466C01092860280915A
:104DD000930290E044E050E0BE016F5F7F4F8D5240
:104DE0009D4F0E94393321E020935902892B09F00D
:104DF00044C0E12C8E2D8F296396EDE00C94313266
:104E000080E06BCFF0905202FF2009F4A3CF809195
:104E10005002909151020E94A81C059708F49ACF65
:104E200044E050E06BE872E0C8010E943933892BFE
:104E300059F084E0EBE8F2E0D80101900D928A95F8
:104E4000E1F71092520287CFF12CFBCF80915302F1
:104E5000909154020E94A81C843F914008F089CF91
:104E600080915902882329F284E0FE013196DF0106
:104E70001D928A95E9F710925902E0919302F0E0B1
:104E8000ED52FD4F89819A81AB81BC8180839183F2
:104E9000A283B383AFCF809186028F3F31F08F5FC3
:104EA000809386028A3008F492CF0E94B71C9093B8
:104EB000540280935302D4CFC0909302D12CF601B8
:104EC000ED52FD4F6F0184E0F801A7E6B2E00190DA
:104ED0000D928A95E1F787E692E00E948906809319
:104EE000660284E0EBE6F2E0D60101900D928A952D
:104EF000E1F780906F0290907002A0907102B090E4
:104F000072028091550290915602A0915702B09181
:104F1000580288169906AA06BB06B1F0809255027F
:104F200090925602A0925702B09258020E94100826
:104F3000861A970AA80AB90A809287029092880274
:104F4000A0928902B0928A028BE0E3E7F2E0DE01F0
:104F5000119601900D928A95E1F7809173028695E2
:104F60008695D0907402C0907502B0907602009140
:104F70007C0210917D0210927D02112309F43ACF38
:104F800010FF0BC0998190FF1CC090919704916015
:104F90009093970460E00E94471D11FF06C020E037
:104FA0004B2D6C2D8D2D0E94FF1712FF04C0002386
:104FB00059F00E942B1D13FF1DCF81E08093DE026C
:104FC00019CF0E94BB14E9CF0E94DC08F4CFA6E001
:104FD000B0E0EDEEF7E20C941E320E94B71C8C019B
:104FE00080914E0290914F028017910781F01982B3
:104FF0001A820E94B71C682F49815A81792F80E05C
:1050000090E00E94912510934F0200934E02269645
:10501000E4E00C943A321F921FB61F9211248F9332
:105020009F93AF93BF938091AF04811113C0809180
:10503000B0049091B104A091B204B091B304419630
:10504000A11DB11D8093B0049093B104A093B2044C
:10505000B093B304BF91AF919F918F911F901FBEEA
:105060001F901895CDB7DEB7AB970FB6F894DEBF9B
:105070000FBECDBF85B7806885BF85B7806885BF07
:1050800084B7877F84BF0FB6F894A895809160009D
:10509000886180936000109260000FBE80E890E00D
:1050A0000FB6F89480936100909361000FBE82E97F
:1050B00099E09093DD018093DC010E94A0060E949C
:1050C00041078091E20084608093E20078948091AF
:1050D000C1048823A1F01091E9001F709091EC00A9
:1050E000892F817090FD80E8182B1092E900809143
:1050F000E80083FD0E94180E1F701093E90082E003
:1051000084BD93E095BD9AEF97BD80936E00109299
:105110008702109288021092890210928A020E94DD
:10512000C815811102C00E94B8158091D800806115
:105130008093D8002AE12A95F1F700C08091D90028
:10514000182F117080FD04C00E94A0061092C104A7
:105150001093A5041093A60410932C01112309F4B5
:105160006FC010924F018BE1809350010E949A30E2
:1051700080912C0180912C0194E0811190E090931A
:10518000940284E0891B8093930284E90E9494092D
:1051900086E60E94940987E90E94940986EC0E94A1
:1051A000940904E911E0D8018D918D018F3F11F030
:1051B0000E949409B1E00A391B07A9F788E0E3EDE2
:1051C000F2E0DF01282F1D922A95E9F7EBE8F2E0E3
:1051D000DF011D928A95E9F70E943F19811102C0F3
:1051E0000E94F51A82E090E00E944F33809396026D
:1051F00084E090E00E945D339093AE048093AD0410
:105200000E941D26BFEFE6E7F1E0B150E040F0401C
:10521000E1F700C000000E941D268091A604E4E092
:105220008111E0E0F0E0ED52FD4F808181FF0EC082
:105230006FEF7FEF90E080E00E9491330E94FF07C4
:105240008BE180934F018093500192CF83E090E0F7
:105250000E944F330E94CA0C8091A504811130C175
:1052600082E08093CE0280E8809308050E94542F4C
:105270006BE070E082E892E00E94A2168823E9F1D8
:105280008091CE0265E070E081FD1CC18DE792E067
:105290000E94A216882389F16DE070E08BE692E00F
:1052A0000E94A216882349F10E941008605A754195
:1052B0008F4F9F4F60939F047093A0048093A1042D
:1052C0009093A204EBE0F5E080E092E0DF019C0126
:1052D0001D9221503040E1F7F0931207E09311073F
:1052E0008FEF9FEF90930A058093090581E08093EB
:1052F000A4048093A3041092CF028091950281119F
:1053000079C00E943F19811104C00E94F51A0E94C1
:105310000B1988E090E00E9457334B015C0184E256
:1053200090E00E944F33282F30E040E050E060E0F2
:1053300070E080E090E000E20E9491322829392953
:105340004A295B2920939704309398044093990449
:1053500050939A0460939B0470939C0480939D04E3
:1053600090939E048091E30283608093E3022C7FFC
:1053700089F50E940B1988E090E00E9457336B0179
:105380007C0184E290E00E944F33282F30E040E01F
:1053900050E060E070E080E090E00E949132B22F37
:1053A000A32FF42FE52F5B0197018601BC29A12BC8
:1053B000FE29E32BB0939704A0939804F0939904EB
:1053C000E0939A0460939B04B0929C0480939D04A4
:1053D00090939E040E94E3080E94DC088091970449
:1053E00080FF05C060E0869586950E94471D81E09C
:1053F000809395028091A504811102C00E949D3086
:105400008DE291E09093AA048093A9045AE0852E3E
:10541000912CA12CB12C8091C10400E112E18530C6
:1054200009F48DC00E941D2607E912E043EDE42E29
:1054300042E0F42ED701F80191918D9132E0EF39DD
:10544000F30709F486C09817B9F34090A504D12C4E
:1054500033243394D701CD907D01F80151908F0111
:105460005C1429F15C24712C66246394852D8621BB
:10547000B1F04420A1F079A2DAA20E94B71C9CA34B
:105480008BA33DA291E08C2D862109F490E09EA390
:1054900049A15AA16BA17CA18DA10E949125739471
:1054A000660CF6E07F12E2CFF8013197C082D39408
:1054B00028E0D212CFCF0E94AB0931E03FA34EC00B
:1054C00080E0CFCE88E792E0E3CE8091C1048430C3
:1054D00031F10E94CC161092AF0488E190E0A0E474
:1054E0000FB6F894A895809360000FBEA09360005B
:1054F00083B7817F846083BF83B7816083BF7894E3
:10550000889583B78E7F83BF0FB6F894A895809156
:105510006000886180936000109260000FBE8091EF
:10552000C004882361F00E941D26E3EDF2E0819122
:1055300081119BC42BED32E02E173F07C1F78091FC
:10554000C104853009F4C1CF0E94F60D0E94C50840
:1055500069CF98137ACF0E94E7271FA28091E202B9
:10556000882309F465C08091E102E0919704E695F3
:10557000E695E81BE093DD02823009F089C0F0E097
:10558000E256FD4FE4910E2F10E037EAE32E34E1AE
:10559000F32E8091DE02882361F01092DE020E94D9
:1055A000201D9093DC028093DB021092E0021092A7
:1055B000DF020E94201DE091DB02F091DC029C01E1
:1055C0002E1B3F0B2F3F3F4798F52091A10222232E
:1055D000B1F01092A10220919F023091A002821B93
:1055E000930B8F3F9F4758F4205D3A483093A002B9
:1055F00020939F028091E30288608093E302C09031
:10560000DF02D090E002E00FF11FF093DC02E093A4
:10561000DB028BED92E0F70109958091DF0290911A
:10562000E002892B29F4CD2819F081E08093A102B2
:105630008091A404882309F4F8C08091D00290914D
:10564000D1020E94A81CC29708F4CFC00E94B71CC8
:105650009093D1028093D0028BE095E09093120753
:10566000809311078091A504882309F46CC18BEE07
:1056700092E00E945E0D8091A2020E94CD0C8930C2
:1056800008F023C1E82FF0E0E05AFB4C0C9475328F
:10569000863059F4F0E0E556FD4FE4910E2F10E00E
:1056A00027E9E22E24E1F22E74CF893061F4E695E9
:1056B000F0E0E856FD4FE4910E2F10E090EFE92E58
:1056C00093E1F92E66CF8F3061F4E695F0E0EB566A
:1056D000FD4FE4910E2F10E085E6E82E83E1F82ED1
:1056E00058CF853159F4F0E0EE56FD4FE4910E2F7E
:1056F00010E0B0EEEB2EB2E1FB2E4BCF883169F11A
:10570000833249F4E0E9F2E005911491A6E4EA2E2F
:10571000A4E1FA2E3ECF04EF11E071E2E72E72E130
:10572000F72E843209F435CF00ED17E06AEFE62E4C
:1057300067E0F62E853209F02CCF8E2F63E00E94B1
:105740004732E92FF0E0E357FD4FE4910E2F10E0D0
:10575000FFE0EF2EF7E1FF2E1CCF08E210E0EEE5B0
:10576000EE2EE2E1FE2E15CF83EE92E00E949E0D1A
:105770008091AD02805D0E94DE0C89EF92E00E9474
:105780005E0D8091AC02805D0E94DE0C85EF92E0A0
:105790000E945E0D4090AA025090AB0280913701AA
:1057A000909138014816590609F092C08091A902DB
:1057B000803209F08DC0E3EAF2E08F0181918032FE
:1057C000E1F3F80101900020E9F79F012150310930
:1057D00079010E151F0508F4B0C083EF92E00E9416
:1057E0005E0D809139010E94DE0C80910905909137
:1057F0000A05892B09F0ACC08091A3048823A9F085
:105800000E94100800919F041091A0042091A1040F
:105810003091A204601B710B820B930B6F3F7F4F83
:105820008F4F9F4710F40E94CC164FA141110E9448
:10583000E7160E94C5089091D202891721F0809343
:10584000D2020E9410088091C104843009F0E3CD97
:1058500083E08093E9008091E80082FFDCCD8091B5
:10586000E80090E085FF06C00E94BF06882309F487
:1058700050C191E08091E8008B778093E8009923F4
:1058800009F4C9CD8981EFEFE80FE33108F068C171
:10589000F0E0E759FB4C0C9475328AED92E066CF4C
:1058A00083ED92E063CF8CEC92E060CF83EC92E0EA
:1058B0005DCF8DEB92E05ACF87EB92E057CF80EB34
:1058C00092E054CF88EA92E051CF82EA92E04ECF44
:1058D000509238014092370180E28093A902712CE6
:1058E000612C1092A8025EE9E52E52E0F52E03EA43
:1058F00012E0C301B201A50194010E94D933605D99
:10590000603321F4F2E0033A1F0731F041145104EF
:105910006104710409F460E2D80114966C93C30128
:10592000B201A50194010E94D93329013A01015025
:105930001109E016F106E9F63ECFD8018D918D01EF
:105940000E94DE0C46CF8BEF92E00E945E0D4DCFA1
:105950008091A404882309F44FCF8091CF02811154
:105960004BCF0E94E7162091090530910A052115B9
:10597000310509F441CF80E041E050E0082F10E00C
:105980002A01082E02C0440C551C0A94E2F7B90102
:1059900064217521672B11F48F5FF0CF9091CE02B7
:1059A00090FF9EC0880F880F880F80933C01109253
:1059B0003F01895F80933D0183E08093400124E6AD
:1059C00030E047E050E06AE371E088E70E94F42F9E
:1059D000892B09F011CFA80195E0440F551F9A9526
:1059E000E1F78091CE0280FF8DC0EEEAF2E080E226
:1059F000DF011D928A95E9F7EEE9F1E0FBA7EAA73E
:105A00006AE971E087E0E82EDD24D394AAA5BBA55E
:105A10002D91BBA7AAA7FB012190BF01240E352E13
:105A2000311CC101855F9A4F1C01E22FF0E0E25565
:105A3000FD4F90E080E06E2C681AFD2C082E01C00E
:105A4000FF0C0A94EAF739A628A600E0A8A5B9A594
:105A50001D91B9A7A8A71F21262D201B2770C22E94
:105A6000022E000C330BB12F01C0BB0FCA94EAF712
:105A7000CB2E3195219531092770332701C016951A
:105A80002A95EAF7C12A1081C12AC0820F5F083027
:105A9000E9F6019631968830910569F6E2EAF1E07F
:105AA0002AA53BA5E217F30709F0B0CF04E610E002
:105AB00020E230E04EEA52E060E488E70E941530D0
:105AC000892B09F099CE40945094809109059091CA
:105AD0000A054822592250920A05409209058CCEA7
