:020000041000EA
:1000000000B5324B212058609868022188439860DF
:10001000D860186158612E4B002199600421596104
:100020000121F02299502B49196001219960352056
:1000300000F044F80222904214D00621196600F024
:1000400034F8196E01211966002018661A6600F04E
:100050002CF8196E196E196E052000F02FF8012189
:100060000842F9D1002199601B49196000215960AB
:100070001A491B48016001219960EB211966A021F2
:10008000196600F012F800219960164914480160C1
:100090000121996001BC002800D000471248134993
:1000A000086003C880F30888084703B5996A0420EC
:1000B0000142FBD001200142F8D103BD02B5186610
:1000C0001866FFF7F2FF186E186E02BD00000240BE
:1000D000000000180000070000035F00212200005C
:1000E000F4000018222000A00001001008ED00E03C
:1000F000000000000000000000000000070B8FD58A
:1001000000040420C5020010E56B0010C7020010B7
:10011000C7020010C7020010C7020010C70200107B
:10012000C7020010C7020010C7020010C70200106B
:10013000C7020010C7020010C7020010C70200105B
:10014000FD6A0010D96A0010B16A0010896A0010B7
:10015000C70200100D6C0010C7020010B9A70010F4
:10016000C7020010C7020010C7020010556B001034
:10017000216B0010C7020010C7020010C56B0010F1
:10018000896B0010C7020010C7020010C7020010E0
:10019000C7020010C7020010C7020010C7020010FB
:1001A000D56E0010C7020010C7020010C702001071
:1001B000C7020010C7020010C7020010C7020010DB
:1001C00072B62C4880F308882B4880F309880220F7
:1001D00080F31488BFF36F8F28482949086006F020
:1001E000A8FA08F004FF27482749224A914202DA78
:1001F00008600431FAE725491F4A914202DA086093
:100200000431FAE72249234A234B14469A4204DA7E
:100210000868106004310432F8E719490C601F497E
:100220001F4A204B9A4204DA0868106004310432F5
:10023000F8E700201C491D4A914202DA08600431A7
:10024000FAE708F0B9FE08F0D3FE194C194DAC429C
:1002500003DA216888470434F9E708F0EBFE164C0E
:10026000164DAC4203DA216888470434F9E7144993
:100270000847000000040420000C042000010010C6
:1002800008ED00E0555555550000042000040420F9
:100290000001001000010010C0010010C8C00010D3
:1002A00000000020C80C0020C80C00203C2E0020BC
:1002B000C0010010C0010010C0010010C0010010FA
:1002C000ED8F00107CE700F000F8FEE7F0B5444643
:1002D0004D4656465F46F0B46B46CB60C3689D46BC
:1002E000F0BCA046A946B246BB46F0BD06F09EFB58
:1002F00062B6281CA047002008F010FAFEE708F0BC
:100300006FFA024A024B1360FEE7C04604ED00E0BC
:10031000000000807047C0469E2110B5C905041C2E
:1003200000F0AAFC002803D1201C00F015FC10BD31
:100330009E21201CC90500F04BFA00F00DFC802323
:100340001B069C466044F2E7F8B557464E464546C4
:10035000DE464402E0B546008846640A360EC70F02
:10036000002E63D0FF2E24D08023E400DB041C4346
:10037000002399469B467F3E434642465D02D20F8C
:100380005B006D0A1B0E9046924665D0FF2B55D040
:1003900080220021ED00D2047F3B1543F61A43462C
:1003A0004A467B400F2A00D98DE06D489200825862
:1003B0009746002C54D108239946063BFF269B46BE
:1003C000DAE70025534602291BD0032900D1BFE0FC
:1003D000012928D030007F30002820DD6A0704D0B2
:1003E0000F222A40042A00D004352A0103D5300008
:1003F0005C4A80301540FE2803DCAC01640AC2B2BE
:1004000001E0FF2200246402D205600ADB071043EA
:1004100018433CBC90469946A246AB46F8BD012223
:10042000101A1B287CDD00220024ECE7002C1DD1D3
:1004300004239946033B00269B469DE7FF3E002D83
:1004400020D1022143464A467B400A430F2AD8D88E
:100450004548920082589746002D19D10121F1E7B5
:100460000C239946093BFF269B4685E7200000F0B8
:100470000DFC7626431F9C4000237642361A99468F
:100480009B4679E74A4603231A439146032186E7B0
:10049000280000F0FBFB431F36189D4076360021F4
:1004A0007DE780240023E403FF22ACE700258023BE
:1004B000DB031C4228D01D4226D12B435C02640A78
:1004C0004346FF229FE762016C01A24224D21B2116
:1004D0000025013E012710006D005200002801DBBD
:1004E000944201D8121B3D4301390029F3D1140075
:1004F000621E944125436DE7BA465946250053468E
:10050000022900D061E77CE78023DB031C436402FF
:10051000640A3B00FF2276E7121B1A210125D9E766
:100520009E362A00B5402C00C240651EAC411443E3
:10053000620704D00F222240042A00D00434620152
:1005400003D4A401640A00225DE7012200245AE7D3
:100550008024E4032C436402640AFF2253E7C0466C
:10056000C4AF0010FFFFFFF704B00010F0B54E4617
:1005700057464546DE46E0B543025B0A450083B078
:100580000F1C99462D0EC60F002D57D0FF2D24D0DD
:100590008020DB00C0041843002381469A469B4616
:1005A0007F3D7C027A00FB0F640A120E984623D02E
:1005B000FF2A4BD0E30080240020E4047F3A1C4350
:1005C000AD186B1C47460193534677403A000F2BFA
:1005D00048D87D499B00CB589F46002B00D085E032
:1005E00008339A46063B9B467C027A00FB0FFF25A8
:1005F000640A120E9846DBD1002C00D090E05246DF
:1006000001231A4392460120DBE74C465846170067
:10061000022824D0032800D1CFE0002200230128A3
:100620004DD15802D205400AFF071043384303B0AA
:100630003CBC90469946A246AB46F0BD002B5BD130
:1006400004239A46033B00259B46AAE7FF35002C6E
:1006500060D1524602231A4392460220B1E7FF229C
:100660000023DEE74B461B0C9C464B462604360C0B
:10067000180461463300220C6446000C43434E4389
:100680005043544380191A0C1218964203D9802102
:1006900049028C4664441B041B0C1004C0188301DF
:1006A0005E1EB341800E1843130C1B199B010343BC
:1006B0001C00230179D5012362081C401443019AD0
:1006C0007F32002A4DDD630704D00F232340042B23
:1006D00000D00434230103D53C4B019A1C408032E6
:1006E000FE2ABCDCA3015B0AD2B29AE70C239A462D
:1006F000093BFF259B4654E7180000F0C7FA4A461D
:10070000431F76259A4000236D4291462D1A9A4642
:100710009B4646E7524603231A439246032050E77E
:10072000200000F0B3FA431F2D1A9C40763D0020B4
:1007300047E780230027DB03FF2272E7424666E794
:100740004C463200584662E780234A46DB031A4291
:1007500022D01C4220D123435B025B0A4746FF2282
:100760005FE701239A1A1B2A21DC23000199D34059
:100770009E318C401A0023005C1EA34113435A078C
:1007800004D00F221A40042A00D004335A0111D495
:100790009B015B0A002244E780234A46DB031343A4
:1007A0005B025B0A3700FF223BE7019587E70022E7
:1007B000002336E70122002333E78023DB032343B2
:1007C0005B025B0AFF222CE744B00010FFFFFFF73B
:1007D000F8B54746CE464400C20F80B547024802EE
:1007E000400A8446664648007F0A240EF60025002B
:1007F0009046FB00000EC90FB146FF2800D185E0EE
:1008000001267140261A914257D0002E43DD002860
:1008100000D07FE04946002900D1AAE0013E002E29
:1008200000D0F7E05B1A5A0100D48BE09B019C09D1
:10083000200000F02BFA05388440854200DDD3E02B
:10084000451B230020200135EB40451BAC40621EB8
:1008500094412343072400251C40012241460A40BD
:10086000002C04D00F211940042900D00433590171
:1008700000D480E00135ECB2FF2D00D0A3E0FF24CE
:1008800000235B02E405580AD207204310430CBC46
:1008900090469946F8BD002E74D1601CC0B2012864
:1008A00000DCA7E04A469C1A620100D5B6E0002CA5
:1008B000BED1002200240023E3E7002E00DC85E007
:1008C000002846D0FF2C49D080224846D20410434D
:1008D000814601221B2E09DC20204C46801B8440CF
:1008E0004A462000F240441EA04102439B185A0190
:1008F00028D50135FF2D00D1A8E001220724944915
:100900001A405B080B4013431C40A6E7002E00D0A2
:1009100078E775E7FF2C54D080224946D204114372
:10092000894601221B2E09DC20214846891B88406C
:100930004A460100F240481E81410A439B1A5A016F
:1009400000D573E7012241460A40590700D089E7E4
:1009500011E04846002858D1FF2C0CD1DB08002BB1
:1009600000D18CE78020C00303435B025B0AFF24B5
:1009700087E7FF2C25D0DB08FF2DF0D05B025B0A58
:10098000ECB27EE7002C4DD0FF2818D08024E40480
:10099000724223431B2A00DDC4E01C002025D44002
:1009A000AA1A93405A1E934123434A460500D31A7C
:1009B000884638E7721CF8D0F243FF28EAD10A00D3
:1009C0004B46FF25D7E79B015B0A5AE7002E41D132
:1009D000651CE9B2012945DDFF2D00D14FE7072451
:1009E0004B445B081C4038E707225A4B2D1A234022
:1009F000144032E7002C1DD1002B7AD14B46002B3E
:100A000000D191E00A000025B5E7013E002E19D182
:100A10004B446CE7FF2C84D1FF25ACE74A4688465F
:100A2000D41A05E7002BC5D10A00FF28C8D005005D
:100A30004B46A0E7002B49D14B46002B77D00A004C
:100A4000FF2598E7FF2C00D043E787E70A00FF2443
:100A5000002316E7002C15D1002B57D1FF28E6D133
:100A60004B467BE7002C20D1002B57D0494600296C
:100A700053D04B445A0168D50724364A1C400125FF
:100A80001340EAE6FF28EBD08022D20476421343DB
:100A90001B2E53DC2025AD1B1A00AB40F2405C1E20
:100AA000A34113434B44050021E7002BD8D049460E
:100AB000002900D152E78021C9030F4200D14DE740
:100AC0006046084200D049E74B4647E74846FF25C5
:100AD000002800D14FE78022D203174204D060469D
:100AE000104201D14B46884601224146FF250A406B
:100AF00041E7484600281FD01A1A500120D54A461F
:100B00000724D31A1C4088460025A6E6741CC9D0C9
:100B1000F643FF28BCD14B4620E799464B460025BB
:100B2000DB082BE7012340E700220023A9E680230E
:100B30000022DB03FF24A4E600251CE70123B1E724
:100B4000002AF1D013000025FCE60025FAE6C04695
:100B5000FFFFFF7DFFFFFFFB41024200C30F490A79
:100B6000120E00207E2A0DD99D2A0CD88020000468
:100B70000143952A0ADC9620821AD1404842002B74
:100B800000D108007047034A9818FBE7963A914055
:100B9000F4E7C046FFFFFF7F70B5041E34D000F0BD
:100BA00075F89E22121A962A07DCD2B208282EDD8A
:100BB000083884406002400A21E0992A09DD0300D8
:100BC00021001B3399404B1E994105231B1ADC4021
:100BD0000C43052801DD431F9C4023000D490B40B9
:100BE000650709D00F252C40042C05D004335C0187
:100BF00002D59F220B40121A9B01580AD2B2400222
:100C0000D205400A104370BD00220020F7E76002C1
:100C1000400AF4E7FFFFFFFB8446081C6146FFE73C
:100C20001FB500F0C7F8002801D40021C8421FBD3D
:100C300010B500F049F84042013010BD10B500F089
:100C4000B9F8002801DB002010BD012010BDC0460E
:100C500010B500F0AFF8002801DD002010BD012024
:100C600010BDC04610B500F057F8002801DC002088
:100C700010BD012010BDC04610B500F04DF8002891
:100C800001DA002010BD012010BDC0461C21012347
:100C90001B04984201D3000C10391B0A984201D35F
:100CA000000A08391B09984201D30009043902A23D
:100CB000105C40187047C0460403020201010101A4
:100CC000000000000000000070B542004E024C0021
:100CD00045026D0A120EC30F760A240EC90FFF2AB1
:100CE0000FD0FF2C11D00120A24200D070BDB54220
:100CF000FCD18B420DD0002AF8D12800451EA84116
:100D0000F4E70120002DF1D1EBE70120002EEDD119
:100D1000E9E70020EAE7C04670B54A004E02450206
:100D200044006D0A240EC30F760A120EC90FFF2C61
:100D300015D0FF2A0ED0002C15D1002A01D1002E8B
:100D40001CD0002D14D08B4227D00220013B18402C
:100D5000013870BD002EEED002204042F9E7002D90
:100D6000FAD1FF2A0ED0002A0ED1002EEDD00BE0D2
:100D700001230139994308000130EAE70020002DE2
:100D8000E7D0E2E7002EE7D18B42DED1944205DDC9
:100D90000221581E08400138DBE70024A24204DC8F
:100DA000B542D2D80020B542D3D2581E0123984371
:100DB0000130CEE730B5420044024D02C30F480077
:100DC000640A120E6D0A000EC90FFF2A12D0FF2806
:100DD0000CD0002A12D1002819D1002D17D1002CD7
:100DE0002BD00220013B1840013826E0002DF0D026
:100DF000022022E0002CFBD1FF281FD000281FD1A9
:100E0000002D1DD10220013B1840013815E0002CB7
:100E10000ED08B42E5D10022904204DCAC42E0D8F7
:100E20000020AC4209D2581E01239843013004E04F
:100E30000123013999430800013030BD002DD7D17D
:100E40008B42CED18242E7DD0221581E0840013894
:100E5000F3E7C04602B47146490849000956490003
:100E60008E4402BC7047C04602B47146490849002E
:100E7000095C49008E4402BC7047C04603B4714609
:100E8000490840004900095E49008E4403BC704790
:100E900003B47146490840004900095A49008E448C
:100EA00003BC7047414208401C2101231B049842A7
:100EB00001D3000C10391B0A984201D3000A0839EB
:100EC0001B09984201D30009043902A2105C401AA0
:100ED0007047C0461B1C1D1D1E1E1E1E1F1F1F1FF0
:100EE0001F1F1F1F0023C25C0133002AFBD1581EA5
:100EF0007047000072B6D02109060B68054A9B00B6
:100F0000D3185B68986502235B424B650533137009
:100F1000FEE7C04654120020F0B50C4B0C4A1B787B
:100F200016780C4CB34202D100221000F0BDDD0057
:100F3000621957788F4205D12D5D854202D15279D1
:100F4000002AF2D1072201331340EBE72D190020CC
:100F50002C190020EC180020F0B505000C2485B0F9
:100F60000E00110E1202019201981A000023029144
:100F700009F0D6FF6C432B4B0700E418636803911C
:100F8000834200D260602B1FDBB20093C023009A23
:100F90009B012343012A0FD8012E0DD103221A6091
:100FA0003300A2681A42FCD0E02322681A40802352
:100FB0005B0123431A6017E0802212011A601A4B6A
:100FC000AA00D158002905D0586909F081FF0130E5
:100FD0000138FDD1E02322681A4080235B012343BE
:100FE0001A60009A012A09D80321226872400A4037
:100FF0001A600123B340A2681342FCD080238022F0
:101000009B01234312011A600198039B67603A0019
:10101000029909F085FF044BAD00E850012005B0AE
:10102000F0BDC0460080004068120020074810B59F
:101030000178052908D10300E0331B780370436869
:101040001B68002B00D0984710BDC046D40D00206F
:101050008322534B920010B5DA620022AA21514B31
:1010600009019A67504A514811602131FF31D1601E
:101070004F49086051680029FCDA01214D4A11608E
:101080005A6C012AFCD103214B4A11609A6B012A48
:10109000FCD14A4B1A68002A11DA3F211A680A402B
:1010A000012A0CD19A681205120D7D2A07D1EE2172
:1010B000DA68C9020A40C421C9028A421AD08022D1
:1010C0003F4952010A603F493F480A601400816865
:1010D0008C43211EFAD101221A607C329A603B4A6D
:1010E0002131116019680029FCDAC421C902D960D4
:1010F00008231360364B1A68002A11DA3F211A6858
:101100000A40012A0CD19A681205120D642A07D1EF
:10111000EE21DA68C9020A40AA21C9028A421AD01D
:101120008022274992010A60264927480A60140054
:1011300081688C43211EFAD101221A6063329A60C1
:10114000244A2131116019680029FCDAAA21C90258
:10115000D96008231360204B02211A000420FFF7F6
:10116000FBFE1E4B01211A000520FFF7F5FE1C4B6C
:1011700000211A000720FFF7EFFE194B00211A008B
:101180000820FFF7E9FE174B154A00210920FFF759
:10119000E3FE124B00211A000620FFF7DDFE10BD12
:1011A00000800540008000400040024000B0FA008E
:1011B000006002403CB0004030B00040008002407F
:1011C00000E0004000F0004000C0004004B00240D9
:1011D00000C0024004F00240001BB70040597307F2
:1011E000006CDC021BB7000010B5002903D10124FC
:1011F0000A4A0B4BD4500B4ACB009B188022DC6F61
:1012000012012243DA6701220231890041184B683A
:101210005B695A7500229A7510BDC04600001150D6
:10122000682000000400105010B5002903D10224EA
:101230000A4A0B4BD4500B4ACB009B188022DC6F20
:1012400012012243DA6701220231890041184B68FA
:101250009B69DA7400221A7510BDC0460000115057
:101260006820000008001050F0B5002930D11D4B57
:10127000DD6C8B1C9B00C018406801228469267DB0
:10128000A27433005F1EBB41724022752668408AFB
:101290005F03B04200D930008023DB000343124AD1
:1012A0009BB23B43134062688018864202D880227A
:1012B000D20113430D4A154080229205154300299F
:1012C0000BD1084AD5640A4AC90089184B60F0BDA1
:1012D000084ACB009B185D68CBE70648CA00121885
:1012E0005560F0E700001150FF7FFFFFFFFFFFAFE9
:1012F00080001050000010507F220138C3171340A7
:101300001B18DB110133DB0102329BB2FF3210B537
:1013100093420ED0FF2480220749D200240259189C
:101320001000214204D0181C934200D9101C80B236
:1013300010BD80208000FBE780FDFFFFF0B58B1C17
:101340009B00C3185F6885B000900C1E7E69BD6964
:1013500012D14023434AB383B261B17531757175BF
:101360002975A974E9748021AA61AB833E4A3F4B79
:101370008905D15005B0F0BD002E39D03C4BCA00D4
:10138000D31803933B4BD2180023D367B3753A6845
:10139000337573750192012A60D1388AFFF7ACFF6B
:1013A000802202239200904208D080220133D20092
:1013B000904203D0431EFF3B5A425341DB06029347
:1013C000009A4100E232944663461288511819800F
:1013D000294BB083D118B1618021019B0906980681
:1013E0008132FF3201431143039A029B02C2D36749
:1013F000002DBFD01E4BE400E618204B4020E4181F
:101400000023E3672B753C68AB74EB74012C11D19E
:10141000388AFFF771FF802202239200904208D0A1
:1014200080220133D200904203D0431EFF3B5A4238
:101430005341DB06009AE2321188471817800E4AA2
:10144000A8838A18AA61A206802481312406144345
:10145000FF310C4374600836F3678BE7029340203A
:10146000AEE7C04600011050000011504C200000B3
:10147000000010500400105080011050080010505F
:1014800010B50E4C0E4B20000021E360FFF756FF15
:1014900000230C4AE2341360012223800A49D00061
:1014A0000A4C4018D1000C198360E367C3600848F8
:1014B00001320918CB670F2AF0D110BDD40D0020DE
:1014C00044B6001000001150F8FF0F5004001050F7
:1014D00008001050034B1A6882431A609A68104241
:1014E000FCD0704700C00040BFF35F8FD023BE2206
:1014F0001B0652009B5062B6704772B6D021BE22C6
:10150000090652008B58002BFCD0BFF35F8F704749
:10151000F7B5154C154AA36AC5690193436864265B
:101520001B68934204D9124A4B3E934200D90F3EA6
:101530000127EB6EBB43EB66FFF7D6FF2B009C3316
:101540001B683B4001D11C000AE0FFF7D6FFA36AED
:10155000019A9B1AB342EFD30124FFF7C5FF6442FF
:10156000FFF7CBFF2000FEBD00400540A086010034
:10157000801A0600C0224368D20510B5D968DA6027
:101580008368054A0133DB009C58002C02D0D31835
:101590005868A04710BDC046A812002070B50500CD
:1015A000012004008C400E00698921436981B11C2F
:1015B0008900691849688C69A26000222360626012
:1015C000E260934205D1208231002800FFF74CFEF3
:1015D00070BD498A013B581809F07AFCF3E7000016
:1015E0000300020010B5D6331B78DE3213707F2261
:1015F0001340064A0400136043681B68002B01D0A7
:10160000012198470323237010BDC04600001150EC
:10161000036910B51960C268013AC260C2699B18BB
:1016200082690361934201D3436A036100238362A9
:10163000036B002B00D0984710BD436902699A42A2
:1016400005D1C268002A02D0002008607047180047
:1016500008C80B60FAE7C368C269013BC36043690D
:1016600010B59B1882694361934201D3436A436179
:1016700000238362036B002B00D0984710BD03004A
:101680001B68984204D09A6894468A689445F7D2B9
:101690005A680B604A6011605960704730BFFDE7BF
:1016A00070477047C26F70B514680300217801203D
:1016B000042919D1197A022916D1050051796289B4
:1016C0008D40154210D1DA691D6AAA4202D19D6986
:1016D000002D09D104320120002A05D09B6A200088
:1016E000043BFFF75BFF002070BD10B5406BFFF7B8
:1016F000D9FF10BD014B18787047C0462814002050
:1017000010B5D430C379074984791B020A78234382
:10171000022B04D1012A01D0062A02D14A78024BB9
:101720001A7010BD20180020281400200F2230B598
:1017300007490C78631C1340064A157800229D4225
:1017400003D0054A0B7010550122100030BDC04671
:10175000781300207913002068130020D430C37858
:1017600082781B021A43437901791B020B43110A49
:1017700003291ED006D801290FD0022916D0002334
:101780001A000CE021291DD02229F8D1022BF6D80D
:10179000104A99008A58104912E012230F4A104942
:1017A000101E4A600B6000D0080070475B230D4A92
:1017B000F5E7D3B2022BE2D80B4A99008A580B49BD
:1017C000CB5CECE7022BDAD8094A9B009A58092334
:1017D000E5E7C046DCB10010E8B1001046B20010E9
:1017E0009C120020EBB1001084B10010CAB10010AF
:1017F000D0B100101423188804331B88034910B596
:1018000098470021030008009847C0465542000051
:1018100070B5FFF772FE144B144815499C6A0D68A9
:101820000368144AE41AA54208D9134D6419134DEC
:101830005B190360136812481B18136015680C606D
:10184000FFF752FEFA22002392002000002109F047
:1018500077FB00230B4A801859410B4A002309F0FB
:101860005FFB281870BDC04600400540D41800201A
:101870009C1400206815002080C20E00803DF1FFFE
:10188000708541003F420F0040420F0030B5104BC1
:101890001B78002B11D00F4B1A7800237F2A0CD90C
:1018A000C2081D2A08D80C4B01219B1807221040A2
:1018B00081409A788A439A7030BD00240749CA183B
:1018C0009578854200D194700133062BF7D1F3E768
:1018D0007A0A0020321400200C100020740F00201F
:1018E00070B5154B1B78002B11D0144B1B787F2B38
:1018F0000CD9C3081D2B08D8114AD2180723184049
:10190000063B834091780B43937070BD0023012206
:101910000C495242CC18A4785DB2A042F5D0561CB6
:1019200002D1002C00D12A000133062BF2D1531C26
:10193000EBD08A189070E8E77A0A00203214002071
:101940000C100020740F00200A4B13B51A88824235
:101950000ED01880084B1968002909D0042301AA69
:1019600013706B465871000A98710B691000984704
:1019700013BDC04636140020101300200A4B13B5C7
:101980001A8882420ED01880084B1968002909D0A5
:10199000032301AA13706B465871000A98710B69F2
:1019A0001000984713BDC046981400201013002063
:1019B0000020064B10B51B78834205D0044B1B68F2
:1019C000834201D01B68984710BDC046851800208F
:1019D0001013002010B5FFF71BFF022283B20E4840
:1019E0008256002A03D103228256002A01D00B4AD4
:1019F000138004228256002A03D105228256002A2F
:101A000001D0074A1380074B1B68002B03D002222A
:101A1000DB680270984710BD59150020A014002003
:101A2000A214002010130020344BCD2819D1DA78ED
:101A30007F2A1CD90022DA7002229A56002A05D188
:101A400003229A56002A01D12D490A7004229A567F
:101A5000002A05D15B795BB2002B01D1294A1370B2
:101A60007047CE280FD103229A56002AE2DC0200EA
:101A70002F32D2B2072A31D80121D13881405A7889
:101A80008A435A70D8E702229A56CF2804D1002AF6
:101A9000EDDA00229A70CFE7D02802D1002AF8DCD4
:101AA000E5E704229A56D92804D1002ADFDD002276
:101AB0001A71C1E7DA2802D1002AD8DAF7E7DB2861
:101AC00005D15A797F2AD2D900225A71B4E7DC288D
:101AD000CDD105229A56002AF6DCC8E7DD2805D1CB
:101AE0000949DC380A7882430A70A5E7DE28F7D076
:101AF000DF28A1D10449DB380A78F4E75915002022
:101B000066150020671500206515002010B501241A
:101B10000F4B02211A78224214D104230A420ED11B
:101B20001A4213D10B4B187800280DD027280DD856
:101B3000C000263109F0C4F983B2002800D0DCB21D
:101B4000200010BD0B00FAE72300F8E70823F6E7B2
:101B5000651500206715002010B50D4B14201B786B
:101B6000DA0712D400189A070FD428305B070CD478
:101B7000084B48381B78002B07D048301D2B04D861
:101B800058431E2109F09CF980B2C0B210BDC04676
:101B90006515002066150020022310B5324CE3566F
:101BA000002B0BD10323E356002B07D10523E3566B
:101BB000002B03D10423E356002B05D008222B4B26
:101BC0001A702B4B073A1A70CD2804D1FFF7C4FFC7
:101BD0004042E07010BDCE2802D1FFF7BDFFF8E70C
:101BE000CF2804D1FFF7B8FF4042A070F2E7D02819
:101BF00002D1FFF7B1FFF8E7D92803D1FFF786FF3D
:101C00002071E7E7DA2803D1FFF780FF4042F7E7CA
:101C1000DB2804D1FFF77AFF40426071DAE7DC2865
:101C200002D1FFF773FFF8E703002F33DBB2072B76
:101C300006D80123D1388340627813436370C9E723
:101C4000DD2805D101230B4A11780B431370C1E73E
:101C5000DE2803D1074A02231178F6E7DF28B9D13D
:101C6000044A04231178F0E7591500206615002076
:101C70006715002065150020B5235843002806DAB3
:101C80008038C317DBB21818001240B2704780309A
:101C9000FAE770B5030041183125FF2008241A78AF
:101CA000504046B24200D0B2002E01DA6A40D0B2B3
:101CB000013C002CF5D101338B42EFD170BD10B542
:101CC000002801D0904710BD8847FCE7F0B5104CC4
:101CD0006478002C19D1132819DD143803244443E7
:101CE0000C4D2E1977788F4205D1645D944202D154
:101CF000B4789C420BD00126074C26700324604325
:101D00002C1861702A54A37001E01328E6DDF0BDA1
:101D100085180020A0170020382900200022014B40
:101D20001A70704738290020F72330B55B01FF2275
:101D3000984202D842090832D2B201218B185B10B6
:101D40001D005D43ADB2DCB2A84206D2013CE2B256
:101D50009142F3D90139C8B230BDFF2B02D0013412
:101D6000E1B2F5E71800F7E7074A1379103B1BB219
:101D7000191C002B00DA002101231171034A11788C
:101D80000B4313707047C04698170020A412002020
:101D9000064A13791033191CFF2B00D9FF210123A8
:101DA0001171034A11780B43137070479817002084
:101DB000A412002030B5084C2578AD070AD0A170D8
:101DC0006070111C322A00D93221044AE170117866
:101DD0000B43137030BDC04698170020A41200209A
:101DE00010B50748C378103B1BB21A1C002B00DA51
:101DF00000228178D2B240780123FFF7DBFF10BDCB
:101E00009817002010B50748C37810331A1CFF2B11
:101E100000D9FF228178D2B240780123FFF7CAFFB0
:101E200010BDC0469817002010B507488378C278C7
:101E3000103B1BB2191C002B00DA0021C9B24078FC
:101E40000123FFF7B7FF10BD9817002010B5074812
:101E50008378C2781033191CFF2B00D9FF21C9B237
:101E600040780123FFF7A6FF10BDC0469817002059
:101E700010B5054B5878DA780838997880B2012384
:101E8000FFF798FF10BDC0469817002010B5044B0F
:101E90005878DA78997808300123FFF78BFF10BD66
:101EA0009817002010B503240B4A137823400BD059
:101EB00000280AD10430034313700022074B1A7024
:101EC000074B1A781143197010BD2C2802D95020E5
:101ED0004042F0E78000EEE7981700208D0A0020CE
:101EE000A4120020064B10B5187880080138C0B243
:101EF000002800D12C300121FFF7D4FF10BDC046CF
:101F000098170020054B10B51878800801302C2850
:101F100000D901200121FFF7C5FF10BD981700204F
:101F2000C000C0B2030008331A1CDBB282B0282BF9
:101F300000D928220A49D3B2497800290AD0142BA3
:101F400000D91422D3B2FF22134010401B021843C1
:101F500002B07047021C142800D21422D0B2F2E75B
:101F600085180020074B10B51870074B074A1B78DF
:101F70009B079B0F137006F0F5FC0322044B1A70AD
:101F800010BDC0468B0A0020981700208C0A002044
:101F90008D0A002084B004AA12880190D21A92B24D
:101FA000131CFF2A00D9FF23DB4301AA9178DBB27F
:101FB0005B18191CFF2B00D9FF211288FF2310008A
:101FC000120A184012020B401B041043184304B0BD
:101FD00070471FB506AA12880190D21A92B2131C3C
:101FE000FF2A00D9FF23DBB2D84301AA9178C0B2FF
:101FF000091810780C1C1B181370FF2900D9FF2436
:102000001288FF231000120A1840120223401B04FA
:102010001043184304B010BD7FB5040C160008AA85
:10202000019001ADE0B21288FF24482B06D8D31AE4
:102030009BB21A1CA34200D9221C94B2083189B267
:10204000102905D9330008339BB2102B00D9FF2487
:102050000322E443F3171A400B4B92195B78E4B266
:1020600092102418D2182A70211CFF2C00D9FF21AD
:102070002A88FF231000120A184012020B401B048A
:102080001043184304B070BD981700201FB501908D
:1020900006A80088C318C81709184140D01712189D
:1020A00009B29BB242400901FF2900DDFF2112B2B3
:1020B0001201FF2A00DDFF22081C14B209B2A1425E
:1020C00000DD101C1B189BB21A1CFF2B00D9FF222D
:1020D000D34301AA9178DBB25B18191CFF2B00D9FE
:1020E000FF211288FF231000120A184012020B4031
:1020F0001B041043184304B010BD052184B04B43AA
:1021000004AA12880190D21892B2131CFF2A00D997
:10211000FF23DB4301AA9178DBB25B18191CFF2B6C
:1021200000D9FF211288FF231000120A1840120262
:102130000B401B041043184304B07047CAB28221FD
:1021400084B0891A019001AB081C002900DA002034
:102150001A78997812181A701A88FF231000120A38
:10216000184012020B401B041043184304B0704780
:10217000C943030CC9B2DBB24B4382B21800110051
:10218000FF23120A000A1940184012020A430004F1
:1021900084B0104304B070471FB51C310F4B490089
:1021A000CB5C01909A1AD2B253B201ACC0B2002BF0
:1021B00001DA524253B21822DBB25A43121280188B
:1021C00020702288FF231000A178120A1840120202
:1021D0000B401B041043184304B010BDA0BB0010FB
:1021E000F0B51C33174E5B00F5186F780325203FC0
:1021F0007D436A439D5D85B02B00703B5BB20190CF
:1022000001ACC0B2002B02DA70235B1B5BB2382535
:10221000ED1A03236B4359437F238918CA171A40C9
:102220005218D211821822702288A17810008033AF
:10223000120A184012020B401B041043184305B049
:10224000F0BDC046A0BB0010F0B585B00190051CE4
:102250001C3310485F00C3195E783B5C203E76005B
:1022600056437F22703B5B0059437118C8171040DA
:102270004018C01101AC401920702288FF231000C3
:10228000A178120A184012020B401B041043184395
:1022900005B0F0BDA0BB00107FB5114E1C335B0034
:1022A0000190051CF018407801AC20384243985D3D
:1022B000FF23703848437F211218D0170840801838
:1022C000C011401920702288A1781000120A18400D
:1022D00012020B401B041043184304B070BDC046EB
:1022E000A0BB001084B004AA0190107803225343CD
:1022F0005B1001A9C3180B700A88FF2310008978AE
:10230000120A184012020B401B041043184304B079
:1023100070470000F0B51C31114E4B00F3185F7888
:1023200085B03B00203B5BB2019001ACC0B2002BFA
:1023300002DA2025ED1B6BB24900715C8A1AD318B2
:10234000C31823702288FF231000A178120A1840B6
:1023500012020B401B041043184305B0F0BDC046E9
:10236000A0BB001084B001901C310A4849004118FC
:10237000497801AB8A1A1A701A8899781000FF23DD
:10238000120A184012020B401B041043184304B0F9
:102390007047C046A0BB001084B001901C310948B2
:1023A0004900095C01AB8A1A1A701A8899781000E2
:1023B000FF23120A184012020B401B04104318435B
:1023C00004B07047A0BB001084B001AB01901A703C
:1023D0001A8899781000FF23120A184012020B4045
:1023E0001B041043184304B070470000030C84B072
:1023F00001901C31D8B2104B4900C95CE4234B4317
:102400001B121C339A1AD317D2185A40D200821AC0
:10241000131C120400D500231BB2584301AB1B88C8
:10242000FF211A0000121B0A0A4008401B02134336
:102430000004184304B07047A0BB00101FB5040A85
:1024400001901C31E0B2114C49000C5DE421614364
:1024500009121C318A1AD11752184A40D200821A26
:1024600001AB111C120400D5002109B2484300122F
:1024700058701A8899781000FF23120A1840120227
:102480000B401B041043184304B010BDA0BB001048
:1024900010B5FFF71BFC10BDF8B505000E001700C6
:1024A000002420003B00320029000134FFF7F0FF38
:1024B000282CF6D1F8BD000010B5064B1B7910335F
:1024C000191CFF2B00D9FF2189B20909024808F025
:1024D000F7FC10BD98170020B80B00001FB51C00BA
:1024E0004BB20190002B01DA49424BB23820C01A9E
:1024F00080B292B240435243801880B2012812D871
:10250000C0B20322504301AB24181C701A8899787A
:102510001000FF23120A184012020B401B04104344
:10252000184304B010BDFFF7FFFBEAE710B5041E27
:1025300002D1C80FC00110BDC217831853401BB28F
:10254000CA1800290DDBC81A4001110008F0B8FCB8
:102550002021081A40B2C0B2002CECDA4042C0B2CE
:10256000E9E7591A500108F0ABFC6021F1E730B5FA
:1025700085B0019008A8047810001C1BFFF7D6FF57
:10258000E4B201AD241A2C702A88FF231000A97828
:10259000120A184012020B401B041043184305B0E6
:1025A00030BD30B585B0019010001D00FFF7BEFFB3
:1025B00001AC401920702288FF231000A178120A74
:1025C000184012020B401B041043184305B030BDE5
:1025D0007FB5061C040C08A8057810005D1BFFF7EA
:1025E000A5FFE4B26519EDB2281AB3B2C0B26043D8
:1025F0001A00FF241B0A000A224020401B0213433A
:102600000004184304B070BD7FB5060A019008A805
:102610000078F6B21C1A1000FFF788FF3419E4B2F4
:10262000241AE4B2744301AD24126C702A88FF238B
:102630001000A978120A184012020B401B04104324
:10264000184304B070BD7FB5040C061CE4B2100042
:10265000E51AFFF76BFF8300EDB2C01A2818B2B27B
:10266000C0B260431300FF24120A000A2340204036
:1026700012021A430004104304B070BD7FB5040A6F
:102680000190E4B21000E51AFFF750FF8300C01A72
:10269000EDB22D18EDB26C4301AE24127470328885
:1026A000FF231000B178120A184012020B401B04DD
:1026B0001043184304B070BD402110B50140020022
:1026C000002901D0C243D2B20F234C1EA1411340B6
:1026D00092065B18920F084952008A1851781278B6
:1026E0004B431B119B1840B2DBB2002801DA5B425E
:1026F000DBB2803BD8B210BD3CB500107FB50E00F8
:102700000190C4B21000FFF7D7FF1C36114B7600C2
:10271000F35C01ADC018C0B20300803B5BB2002B7C
:1027200003DA80235B421B1A5BB20C225B00DBB234
:1027300053431B12E3182B702A88FF231000A9783B
:10274000120A184012020B401B041043184304B035
:1027500070BDC046A0BB0010054B06481A88504308
:10276000054A801880B21880030A1818C0B2704752
:10277000860A00200508000019360000054B2722B4
:102780005B78002B01D00023132282425B41D8B238
:102790007047C046851800207FB50500061C2D0A2D
:1027A000000C264BC0B2EDB2F6B21C5C002D41D03D
:1027B0000620FF21704308F083FB55235B4243430F
:1027C0007600F61803235E43FF21F6B233008E1B1A
:1027D0004A1B6B4375431B122D12CB1A491B6243D4
:1027E0006343614312121B120912D2B2DBB2C9B2A7
:1027F00006281AD8FEF738FB040612101519040033
:1028000023000C00FF210B400C4018020A40120468
:102810002043104304B070BD21001C0013000A00C7
:10282000F0E70B0021001400F9E7210014001A0062
:102830000B00E7E722002300E4E7C04684B0001065
:10284000F0B5484B8FB0089018780991FFF768FBF6
:1028500003041B0E0493444B0AAA1B78C5B21080D4
:102860000593424A6B0039339B18049A0393EBB2E9
:102870009A4204D81000FFF781FF0FB0F0BD2B0083
:102880003A4A8833D35C374A52781A4224D000241B
:102890003749032201310BA808F040FA089E059A37
:1028A000F3B29A421CD8324B0BAAD8780CAB4443F3
:1028B0002412947012889C701A800C98FFF76CFF99
:1028C000010403020DAA090E1B0E107051709370C3
:1028D000C2B22800FFF7DCFD039B01350233C4E7D9
:1028E000214A039B9219013B18785378527AC01AF7
:1028F00080B203B20693039B40431B789B1A9BB2A2
:102900001AB25B43C01880B20792012826D8C0B221
:102910003300154A0C335B00D2185178937880222B
:102920001B021943124B52001B790133934200D111
:10293000FF234B430BAF1B12BC709BB20093099C4F
:102940000300079A06990B98A047030404021B0E84
:10295000240E38707B70BC700136A0E7FFF7E4F9F5
:10296000D6E7C046880A00207A130020A0BB0010DA
:1029700098170020F0B5374E87B001903078FFF7F8
:10298000CFFA02AB1880344B05041B79C4B22D0E6C
:10299000591CFF2B00D1FF21304808F091FA87B273
:1029A000E1B28D4204D82800FFF7E8FE07B0F0BD81
:1029B00023002B4A8833D35C72781A4237D0294AD5
:1029C00094461378013B5BB21A0632D53800802258
:1029D000214B520019790131914200D1FF215A1C3B
:1029E000414350785B780002034390780912000459
:1029F00089B21843019B984703AB02041870120E6A
:102A000000025A70000E98701B8804AA1380907000
:102A10000498FFF7C1FE0104030205AA090E1B0E6C
:102A2000107051709370C2B22000FFF731FD013475
:102A3000B6E76246D218527C8A4209D11A000C329B
:102A40005200624450789278120210438742BED8F6
:102A5000013BB9E7880A002098170020FFFF00001B
:102A6000A0BB00107A130020F0B5264E87B00700F7
:102A70003078FFF755FA02AB1880234B05041B7919
:102A80002D0E9B08591C214BC4B21B689BB24B43B3
:102A90001B12DBB20193E1B28D4204D82800FFF78C
:102AA0006DFE07B0F0BD2300194A8833D35C7278FD
:102AB0001A4225D0144B5A1C50785B78000203430D
:102AC0009078019A00041843B84703AB02041870C9
:102AD000120E00025A70000E98701B8804AA138010
:102AE00090700498FFF758FE0104030205AA090E2E
:102AF0001B0E107051709370C2B22000FFF7C8FC1B
:102B00000134C8E7880A002098170020DC13002051
:102B1000A0BB0010F0B52E4B89B007001878FFF766
:102B2000FFF904AB18802B4A2B4B15791B68AD08B5
:102B30009BB25D432D12EDB20604C4B228004030B2
:102B4000C0B2FFF7B9FD803843B228000293FFF707
:102B5000B3FD803843B2360E0393E3B29E4204D8ED
:102B60003000FFF70BFE09B0F0BD22001B49883290
:102B70008A5C17494978114227D0164A0095511CA2
:102B80004878527800020243887802990004104382
:102B9000039AB84705AB02041870120E00025A706F
:102BA000000E98701B8806AA138090700698FFF795
:102BB000F3FD0104030207AA090E1B0E10705170E9
:102BC0009370C2B22000FFF763FC0134C5E7C04632
:102BD000880A002098170020DC130020A0BB0010FA
:102BE000F0B5354B8BB007001878FFF799F906ABB5
:102BF0001880324BC4B21A68314B92B21B7965000F
:102C00005B0853431B12DBB203932E4B060439358A
:102C1000360EED18E3B29E4204D83000FFF7AEFD49
:102C20000BB0F0BD2300274A8833D35C224A527888
:102C30001A423DD06B1E1878703880B203B20493EC
:102C40002B784043203B9BB21AB25B43C01880B242
:102C50000592C3B2012802D9FFF766F80300184AAB
:102C60000398511C009048785278000202438878FB
:102C7000049900041043059AB84707AB0204187082
:102C8000120E00025A70000E98701B8808AA13805A
:102C900090700898FFF780FD0104030209AA090E4D
:102CA0001B0E107051709370C2B22000FFF7F0FB42
:102CB00001340235AEE7C046880A0020DC1300204C
:102CC00098170020A0BB0010F0B52D4B87B007006F
:102CD0001878FFF725F902AB18802A4BC4B21A689E
:102CE000294B92B21B7965005B0853431B12DBB280
:102CF0000193264B06043935360EED18E3B29E4299
:102D000004D83000FFF73AFD07B0F0BD23001F4A9A
:102D10008833D35C1A4A52781A422ED06B1E197827
:102D2000194B2A78581C844640785B78000203438C
:102D300060468078203A7039000409B212B2184314
:102D4000019BB84703AB02041870120E00025A70C0
:102D5000000E98701B8804AA138090700498FFF7E7
:102D60001BFD0104030205AA090E1B0E1070517011
:102D70009370C2B22000FFF78BFB01340235BDE730
:102D8000880A0020DC13002098170020A0BB001048
:102D900037B50400FFF7E0FC0500FFF7DDFC6A46ED
:102DA000094BC001DB7800127F30157093705070B2
:102DB0000098FFF7F1FC01040302C2B21B0E090EDA
:102DC0002000FFF765FB37BD98170020F0B5154BC5
:102DD00085B0DA789F7801925C780600FFF7BCFC3A
:102DE000B421050020004900B43008F061F8032345
:102DF0000A1BD1171940891889101D404D43019AAB
:102E000002AB65191D705F709A700298FFF7C4FCE1
:102E100001040302C2B21B0E090E3000FFF738FB9B
:102E200005B0F0BD9817002030B55200074C1218BD
:102E300003191219064D1C1A64191D880233ED433B
:102E40000D539342F6D1012030BDC04600E01F1063
:102E50000020E0EF10B5EFF3108372B6044C23604E
:102E600008F04EF8236883F31088012010BDC04697
:102E7000E4130020044A054B0220D15C002902D053
:102E800000210138D154704730190020041000008F
:102E9000044A054B0220D15C002901D10138D054ED
:102EA0007047C04630190020041000000020704711
:102EB00000207047064B10B51B78002B02D0FEF7A0
:102EC000A7FC10BDFEF7A4FC024B1B681818F8E71E
:102ED00085180020A0180020244A30B511784B072F
:102EE0000DD514230340043B5C425C41182303408E
:102EF000083B5D426B419C4201D00C2358400B07BC
:102F00000DD514230340143B5C425C41182303405D
:102F1000183B5D426B419C4201D00C2358405278D3
:102F2000D3070DD511230340013B5C425C411823BC
:102F30000340083B5D426B419C4201D0092358404D
:102F400093070DD511220240113A53425A411823DA
:102F50000340183B5C4263419A4201D00923584028
:102F6000CB0601D51823984330BDC046321400204B
:102F700010B582280CD014D8312866D004D829285E
:102F80005AD02A2867D010BD352850D03928FAD118
:102F9000384B1A78920767D15B781B07F3D5292045
:102FA000F1E7E32827D00BD8E02816D0E228EAD1B1
:102FB000304B1B785A07E6D5E320DB0619D4E2E74D
:102FC000E62826D0E72829D0E428DCD1294B5A78F6
:102FD0009207D8D51B78E720EFE7264C012122780D
:102FE00013000B402FD164780C42CCD0E320D206E2
:102FF000C9D50020C7E71F4A1378590732D4527841
:10300000D20731D4102213405A4253415B42184038
:10301000B9E7184B1B781A07DDD4B4E7154A1378C3
:10302000190723D452789207ECD5E420ABE7114B73
:103030001B789B06B3D4A6E70E4B1A78920617D4DA
:103040005B781B079FD539209DE70A4B1B785B06F1
:1030500099D52A2097E7074B1B785B0600D492E7A7
:10306000312090E7E2208EE7E0208CE7E6208AE737
:10307000352088E73214002070B5FFF779FF5F4BE9
:103080000400984228D88023DB01984268D2DF28C8
:1030900018D8CD2853D2A72809D8A52849D2012865
:1030A00018D0002801D0042814D2002412E0C2282D
:1030B000FBD85834E4B2524B6400E05A8824E4014F
:1030C000044307E04F4B984200D987E0FF283AD8E5
:1030D000E728EAD8201C70BD4B4B984212D84B4BC6
:1030E00098424DD24A4B984245D81F3B984267D3ED
:1030F0000323C4B2A0081C40023BA3404001184374
:10310000444C1EE0444B984207D81F3B984242D3A0
:103110001F2020400002414CD2E7414B984244D945
:10312000404B9842C1D80402F820400104403E4878
:10313000C6E75B343D4AE0B2145C1C43CAE7A020FA
:10314000C001044315E0000AC0B2FFF7C5FE050048
:10315000E0B2F8242D026401FFF70AFF2C40F0E7EB
:10316000C0B2FFF705FFF0231B012340304C1C4386
:103170000443A4B2AEE71F20204000022D4C9FE77D
:103180000323C0B2C4061840023B640F83402A48A0
:1031900064011843D5E70323C0B2C406640F184086
:1031A000023B834064012548F3E71F202040FFF7DE
:1031B00093FEF8240002640120400134FF347FE7CD
:1031C0001F202040FFF788FEE405240F2402C306D9
:1031D00000D500011A4B00B21C43B2E7C004C00E78
:1031E000FFF77AFE0500E0B2F8242D0264012C40BE
:1031F0008025FFF7BDFEAD012843A2E7FF4F000089
:1032000094B10010FF1F00005F5200004052000008
:103210001F520000008DFFFF9F520000F4A000002D
:10322000BF520000DF520000F0A0000090B100107B
:1032300000A0FFFFF1A00000008CFFFF008AFFFF4D
:103240000090FFFF024A1378834313707047C04613
:103250009117002030B5144B144A1B78107814498C
:1032600018430B78002B13D01843124B1B78002BFC
:103270000FD0114B1B787F2B0BD91E240F4B002234
:1032800002331C199C4207D1002A01D000230B7085
:1032900030BD06240A4BF2E71D78002D01D0013223
:1032A000D2B20133EEE7C046911700202E1900205C
:1032B000881700207A0A0020321400200C10002009
:1032C000740F00200721054B054A1B7812789A429B
:1032D00000D1704701330B40F9E7C0462D1900209B
:1032E0002C190020012370B51E00864030001E00FE
:1032F0008E403100074D01432C78C9B2934008003D
:10330000220020409A43814201D12343DAB22A703D
:1033100070BDC046B814002030B507240323002236
:103320000440C00858430125091810008B5CE34095
:103330002B40934001321843C0B2032AF6D130BD6E
:1033400007B5030401AA1080C1B21B0E072B08D8D1
:10335000062906D80720584340180649FFF7DCFF26
:103360000EBD1A1DD2B20020012AF9D888B2024936
:10337000F4E7C046701800201D130020032370B529
:103380000125CC086343D21807232E0019408E4034
:103390000021F6B20300CB40545C2B405B426340FB
:1033A00033406340535401310329F3D170BD000011
:1033B00013B5021C030401AC20801B0E0800D1B21F
:1033C000072B08D8062906D807225343054A59185F
:1033D000FFF7D4FF13BD1A1DD2B2012AFAD889B261
:1033E000014AF5E7701800201D13002001228240D9
:1033F00002490B7893430B707047C046B814002005
:1034000070B5094D07242B781A0082432A701440A6
:1034100009D19A4207D0054B5B785B0703D5D008EA
:10342000FFF7E4FF2C7070BD8617002032140020D7
:1034300001238340024A11780B4313707047C04642
:10344000B8140020002302099A4201D0100004336E
:10345000820802D010000233DBB2400801D00133F1
:10346000DBB218007047000070B51D4B1B78002BB5
:103470001ED01C4B1B787F2B1AD9FFF7EBFE1A4C82
:103480001A4D607020222900200007F0F9FC002866
:103490000DD020222100280007F040FC144B1B68AF
:1034A000002B04D006229B6822702000984770BD34
:1034B000FFF7D0FE0F4C104D20700822290020008D
:1034C00007F0DEFC0028F2D008222100280007F0D7
:1034D00025FC074B1B68002BE9D05B68E5E7C0467D
:1034E0007A0A0020321400200C10002072140020F0
:1034F00010130020740F00206A14002010B500285B
:1035000003D0FFF79FFEFFF7AFFF10BD10B50028F7
:1035100005D0034B1A7810431870FFF7A5FF10BDB4
:103520009117002010B5002807D0031FDBB2A02B95
:1035300004D8FEF7ABF9FFF797FF10BD0300203367
:10354000DBB2072B07D80723034001209840C0B205
:10355000FFF778FEEFE703005B33DBB2022B03D803
:103560000020FEF70BFAE8E703005833DBB21A2B12
:1035700003D80020FEF7E8F9DFE703003333DBB2BE
:10358000122BDAD8FEF750FAFEF724FAD5E700003E
:1035900010B5041E29D0031FDBB2A02B26D82A4B5E
:1035A0001B78002B14D0294B1A7800237F2A0FD9BF
:1035B000274BC2089B1807229978012302409340A9
:1035C0000B420DD02000FEF761F9FFF74DFF07E039
:1035D000204AD1188978A142F4D00133062BF8D1C2
:1035E0002000FEF77DF9FFF73FFF10BD03002033F9
:1035F000DBB2072B08D807231C40063BA340164A22
:1036000011780B431370EEE703005B33DBB2022B40
:1036100004D8124AD05CFEF7B1F9E6E7030058334C
:10362000DBB21A2B05D80E4A5B00985AFEF78CF9CC
:10363000DBE703003333DBB2122BD6D8FEF7ACFA4C
:10364000FEF7C8F9D1E7C0467A0A002032140020FC
:103650000C100020740F00209117002090B1001072
:1036600094B10010F7B5170001220231890041180A
:103670004B685C692275216822691B8A8D1A9D42FC
:1036800000D91D000023180052198A4258412261B6
:1036900082030092A17DAEB20800421E9041420317
:1036A000019201224A40A275A0699F4200D0A38BDB
:1036B000C0182A00A16807F031FB8420A36800022B
:1036C0005D19009B30431843019BA560034318001C
:1036D000002F00D01804FEBD8B1C9B00C3185B6834
:1036E000F7B506000C1E5F6924D11A4BDB6C002273
:1036F000210030000193FFF7B5FF3A683B690500F0
:103700009A4205D0012221003000FFF7ABFF0543AC
:103710006B0113D5104A019B13401A00A023DB054F
:103720001343002C11D10B4AD3640C4B1034E4002A
:103730001D51F7BD094ACB00D358D8E7084A019B71
:1037400013401A0080239B05EAE70449E2008B50EE
:10375000EBE7C04600001150FFFFFFDF00001050F4
:10376000FFFFFFAF70B501258D4004892C43048114
:103770008C1CA40004196468646923600023A2609F
:103780006360E3602361FFF7A7FF70BD70B50600BB
:10379000C43632780400152A16D8012393401A4AF9
:1037A000134220D180256D031D400ED19B020BD505
:1037B0000B233370FDF7A1FE2B002A002900200007
:1037C000FFF7D0FFFDF790FE70BDC3689B695B6893
:1037D000002BF9D10300D0331B68002B00D0984791
:1037E00000233370F0E70021FDF7FEFC00212000EC
:1037F000FDF71AFD63681B68002B02D0062120002C
:1038000098470623EDE7C046410E000070B505005D
:10381000C43504002878152835D8FDF725FB3E343B
:10382000343434343E34340B283534343434343482
:1038300034343E3E2300CC33DA7B18680E331B78D9
:1038400012021343984212D2E368198A07F050FB20
:103850000E1E0CD1FDF751FE330032003100200066
:10386000FFF780FFFDF740FE0A232B700BE01423C7
:103870002B70FDF742FE002320001A001900FDF70F
:103880008DFEFDF731FE70BD2300D0331B68002B89
:1038900001D0200098470023E7E700212000FDF732
:1038A000A3FC00212000FDF7BFFC63681B68002B10
:1038B00002D00621200098470623D6E713B5446BB3
:1038C000E36F1A681178042915D1217A022912D1DF
:1038D000197901238B4012891A420CD1200001A9C9
:1038E0004430FDF7AAFE021E05D0E46F019B21794A
:1038F0002068FFF737FF13BD030070B580249D18C3
:10390000080064010021A54204D80349591807F0B2
:1039100005FA0121080070BD3019002013B56B466F
:10392000DC1D0023012221002370FFF7E5FF207832
:1039300016BD10B52820FFF7F1FF10BD10B52520EA
:10394000FFF7ECFF242801D0002010BD2620FFF750
:10395000E5FF0528F8D12230FFF7E0FF07384342A2
:103960005841F2E770B50C4B00018C000419E418C3
:1039700050425041400020181600FFF7CFFF0002D0
:1039800085B20120002E00D102302018FFF7C6FFBB
:10399000284380B270BDC046C902000070B50E2435
:1039A0004C43702148435200A418241820002930A9
:1039B000FFF7B4FF000285B220002A30FFF7AEFF08
:1039C000284380B270BD13B50A0401AC2180130EE8
:1039D000C9B20022072B09D8062917D8052815D8FF
:1039E0000A001900FFF7DAFF02000FE0FD2B07D1F4
:1039F00003290BD8052809D80132FFF7B3FFF3E7F5
:103A0000FC2B03D1032901D80528F6D9100016BDD7
:103A1000F0B50524012785B00F4B01AE30801A7830
:103A20000E4B1B781A430092009BE5B223413B42A8
:103A300005D1013CF8D20025280005B0F0BD328840
:103A400003AB1A8003992800FFF7BDFFFFF714FBB3
:103A500080B20128EDD0EFE7B81400209B120020BF
:103A60001FB501AC20800198FFF7D2FF228803AB7D
:103A70001A800399FFF7A7FFFFF7FEFA04B010BD05
:103A800010B500240379A3420ED00088FFF7E8FFA9
:103A9000C3B20004000F0B2806D8012282400B4954
:103AA0000A4203D152060CD4200010BDF02B02D0E4
:103AB00003D8E72B03D80124F6E7F42BFBD000242E
:103AC000F2E7E72BF7D9F12BEED1F4E70C0C00006D
:103AD00013B5090AC9B2009000290DD0002A0BD0F5
:103AE000FFF796FF040001000098FFF761FC0099C2
:103AF0002000FFF768FF16BD0098FFF721FC0400C7
:103B0000F5E7000037B56B4600249D1D0222290011
:103B10002000DC80FFF7F0FE2A88034B20009A4249
:103B200001D1FFF70BFF3EBDE6FE0000F8B506260B
:103B3000214F05003C6832002100204807F0EEF8D4
:103B4000DF2D30D932000021200007F0A8F9210034
:103B500006221A4807F094F9194D641B00280DD06D
:103B600001210A00A3B25B099A4016480388134357
:103B7000A2B205325209914019430180124B06341A
:103B80001E78A4B23100200007F092F9761AF6B23E
:103B9000052E01D8A419A4B20C4B9C4200D90024D4
:103BA0002C193C60F8BD75430949320069182000A2
:103BB00007F0B4F8CBE7C046701700207A17002052
:103BC0006D1500207417002078170020FF010000F9
:103BD00060B60010F7B5154E154A336807009C1AF9
:103BE000144BA5B21B7828001900019307F060F967
:103BF000019B581AC0B2002F0CD0062107F068F9BB
:103C0000C4B2013CE4B2FF2C00D1F7BD2020FFF785
:103C10008DFFF6E7084B4519A4B29D4201DD38003F
:103C20003C00034B201818183060EEE77017002096
:103C30006D15002078170020FF01000010B50A283C
:103C400003D10938FFF7C6FF10BD0D2801D10020B0
:103C5000F8E7FFF76BFFF7E78B1C9B0070B5C31805
:103C6000050050690E0014005A60002803D020227D
:103C7000002107F014F9A069002803D020220021B8
:103C800007F00DF931002800FDF758FB70BD00006A
:103C9000F7B5FDF732FC284C2300FC331A6E11688F
:103CA0000878042836D12000E8300078022831D185
:103CB000107901228240098911422BD1DA6B996B6C
:103CC0008A4227D1596B002924D0196D002921D0AF
:103CD0000439891A1ED01160596B01395963596C26
:103CE0005218196C9A638A4222D225000026FC35AC
:103CF0002E6501A91148FDF7A0FC2B6E07001A7E66
:103D0000B2420AD1FC34206E019B01793A0000686E
:103D1000FFF728FDFDF7E8FBF7BD01981A693100B0
:103D2000121A381807F0BBF82B6E1B690193E9E7EC
:103D3000DA6C9A63D9E7C04604090020280A0020FB
:103D400010B5094B1B78002B0AD0084B1B787F2B32
:103D500006D91E2206480021023007F0A0F810BD47
:103D600004480622F7E7C0467A0A002032140020F1
:103D70000C100020740F002010B500240D4B1C7097
:103D8000FFF7DEFF2000FDF7F9FD2000FDF7DCFD69
:103D9000094B1C70FFF768FB06222100074807F05B
:103DA0007EF8074B1C70074B1C70074B1C70FDF70F
:103DB00011FE10BD911700202E190020591500206A
:103DC00066150020671500206515002070B5802459
:103DD000044D640128002200002107F060F8024B26
:103DE0002B5170BD301900200810000070B5FFF78E
:103DF0004FF8051E03D1FFF73DF8280070BDFFF70F
:103E000029F80400FFF7E2FF012D04D1FFF732F893
:103E1000431E984104402000F0E770B50400FDF710
:103E200061F82518A54200D870BD2078FFF706FF7D
:103E30000134F7E710B5FFF7F0FF0120FFF7CAFEE6
:103E400010BD00238268037503691B68996891425D
:103E5000FBD25A680360426010605860704710B52A
:103E60000C00FDF74AFB207D052807D8FCF7FCFF76
:103E70000C060603130F0022A3691A6001235B429C
:103E8000A3612000FFF7DDFFFDF72EFB10BDA26947
:103E9000936801339360226863681A6022685360F4
:103EA000ECE70000D0231B061968084A8900521865
:103EB0005268016910B5914205D01A6D920702D57A
:103EC000012252425A65FFF7BCFF10BD5412002078
:103ED00070B5022504006D422068844200D170BD97
:103EE000036823605C608561FFF7DCFFF4E770B571
:103EF00005000E000468AC4200D170BDE368334396
:103F0000E360236933420AD06068A368C26913433F
:103F1000027DC3610A2A04D182691A4207D124684A
:103F2000E9E70B2AFBD1826913409A42F7D10023BB
:103F30008361FFF7B7FFF2E72131890010B50C5814
:103F4000002C2CD0FDF7D9FA0421201DFFF7CFFF5C
:103F50002100E36F0C311A685B7902339B00D318A0
:103F60005B689B695A68E3691A60A2690132A261C1
:103F7000A26A9B18626AE361934201D3236BE361F7
:103F8000E068814206D00368E360596000238361E2
:103F9000FFF788FF2000FDF785FBFDF7A5FA10BDB0
:103FA00070B50400052973D80800FCF75DFF59714E
:103FB00003595972FDF7A1FA3F4A01212000FFF78A
:103FC0004BFE3E4A04212000FFF746FE3C4D3D4A91
:103FD0002B00C03319782000FFF73EFE2B00C133C1
:103FE0001978394A2000FFF737FE2B00C2331978C1
:103FF000002903D0354A2000FFF72EFE2B002C00AD
:104000000026FC34F8331E60636931486360236026
:10401000A661E661FFF75CFF2B00F4331E70A36C12
:104020002C486363E36C2665E363A3636665FFF76F
:104030004FFF96235B00EE5401212748FFF757FFFF
:104040002648FDF72FFBFDF74FFA254B1B78B342AF
:1040500002D00520FDF76AFB0220FDF767FB17E0A1
:10406000FDF764FBFDF749FA02211B48FFF73FFF0C
:10407000134C01252300F4331D701548FFF728FF6A
:1040800096235B00E5541348FFF722FFFDF72CFA57
:1040900070BDFDF732FA10480121FFF728FF084BE9
:1040A00000221900F4310A70962149005A54FDF794
:1040B0001BFA0520D1E7C04654BC001018BF001001
:1040C000040900206C09002088090020A4090020B0
:1040D000F0090020280A0020E8090020E409002057
:1040E000931400200B00F0B511339B00C3185C68DB
:1040F00085B005000E00002C43D0FDF7FEF9201D11
:104100000821FFF7F4FE2300B7004433EF190193B1
:10411000FB685B691B68002B17D0236D226E01338F
:104120002365A36D9B18E26DA365934201D3A36E33
:10413000A365606C019B984207D00368019A636491
:104140005A6000238361FFF7ADFE03A90198FDF7D4
:1041500074FA039B021E0ED1FB685A691268002A8A
:104160000DD01B8A013B1A4209D1E36F1B7E002B45
:1041700005D12A00D43231002800FFF7F3FAFDF709
:10418000B3F905B0F0BD00001C4BFA21D8681C4BF8
:1041900089001B6870B5DB00D8400F231840194B0D
:1041A0000130584306F094FE174B596A9C6A5A6ACC
:1041B0008A4220D10026220004008C200B0035000A
:1041C0000021400024184D4112196B410F490A602B
:1041D0004B60FDF792F90E4B9A6801329A60B24239
:1041E00006DC1868026853601A608661FFF75AFEA1
:1041F000FDF77AF970BD1100D8E7C04600002050E5
:10420000680800203075000000400540C80D0020FF
:104210006C080020F0B50468C2608B6048600C60D8
:1042200061600160142B00D21423D0252D0629686B
:10423000144C8900611849689E188F6A1249381D0C
:10424000800046500120B84048638E6B304388633D
:1042500014208E6AB71ABB420CD82B6801309B0021
:10426000E3185B6812189B6A04339B00CA50030072
:104270003200EEE7142803D90123E2681343E36018
:10428000F0BDC0465412002000400540F0B514298E
:1042900000D21421D02614220D4C0E4D3606336860
:1042A00047189B00E3185B689B6A04339B005F51CF
:1042B000AB6A181A814203D8013211001800EEE7E8
:1042C000142A03D90123E2681343E360F0BDC0461A
:1042D000541200200040054070B5D0252D062B68F3
:1042E0001B4A9B00D3185B680468196988420CD08C
:1042F00041680C6002688468516091680919916096
:1043000000220260013A9A6170BD190010311C61EF
:104310006160002404601E690E4CB1420AD1296814
:10432000A36B890052185268916A01228A40934314
:10433000A363E9E78168B268DB695118B160A06ADC
:10434000C31A9942E0D9C91AFFF7A0FFDCE7C046BB
:10435000541200200040054010B503689C68A2423A
:104360000CD85C688A600B604C6021605960996869
:104370008A1A9A6001235B42836010BD121B1B687E
:10438000ECE70000D02212061368F0B52D4E9B001A
:10439000F3185D6885B02B001033019303922C69EC
:1043A000294FEA69B86AA168831A994240D853181C
:1043B000EB612268029363681A60226853600023ED
:1043C00023602A69019B93420AD10121039B1B6848
:1043D000BA6B9B00F3185B689B6A99408A43BA6387
:1043E000FDF782F820002169E3689847FDF785F81A
:1043F00060690028D3D0029BBA6AD11A431A884256
:1044000004D20223F0680343F360002301982F696C
:10441000B84204D12100FFF7FDFE05B0F0BD5A18E7
:104420008A4200D21A0021000198FFF795FFB6E7F3
:10443000019AA242F1D0C91AE861A160FFF726FFF4
:10444000EBE7C046541200200040054070B5130051
:1044500004000E4A00680E00926A844203D12000D4
:10446000FFF7D8FE70BDE168511A5D188D4200D289
:104470001D008168A94203D919001000FFF706FF4B
:104480002A0031002000FFF767FFEBE700400540FE
:1044900070B50D4C050023680E00002B02D02000E3
:1044A000FFF71AFFD0231B061A68084B92009B18CF
:1044B0005868074B2A00E360002310302100266172
:1044C0006361FFF7C3FF70BD101400205412002079
:1044D000D544001070B50C00FDF70FF82378042BBD
:1044E00002D0FDF701F870BD144B1B78DB09F8D141
:1044F000134D2B78002BF4D0124B1B78002BF0D0EF
:1045000023899B0705D408230F4A01212000FFF7C8
:1045100029F928780D4A0023002106F011FD002317
:104520000B4A80185941FA220023920006F0F8FC49
:1045300021008000FFF7ACFFD3E7C0463214002013
:104540000C1400207A0A00202914002040420F0099
:10455000E70300000100D4310B7870B57F2204001E
:1045600018001040212800D096E01800904347D052
:10457000802800D090E04878022839D0032829D03C
:10458000012800D088E04B790A791B0225001343EB
:104590002200C835CC32D034002B0CD0022B10D0E6
:1045A00088785B4B2B601870CB7988791B020343AA
:1045B000136000233AE05749296008211160236005
:1045C00070BD8B78022BEBD1534B2B60062313600D
:1045D0000023F4E74A790879120202435CD12300F0
:1045E00001204E49C833D034196058602260E7E793
:1045F000230001204A4AC8331A605860D034E7E7E4
:104600004A780A2A40D00B2A13D0092A44D14A7981
:1046100008791202024301D0022A3DD12300414A07
:10462000C8331A6002225A603F4BD0342360012005
:10463000C6E74B790A791B0213431FD18D78374B9C
:104640001D70002D1AD1364E3378002B16D0FCF792
:1046500054FF364A00233078290006F071FC00230D
:10466000334A80185941FA220023920006F058FC80
:1046700021008000FFF70CFFFCF736FF220000232B
:10468000C8321360536041E02A4ACB78244E157833
:104690003370ED09D9D0F1E76022180090438128EA
:1046A00018D14A78062A15D14B790A7960681B021D
:1046B00013434568CA7820008978A847002801D1AB
:1046C00000207DE723004268C8331A600268D034B6
:1046D0005A606EE7184AC2321278002AF0D060227F
:1046E0001340202BECD12300D5331A780023202A45
:1046F000E6D3212A04D9222AE2D12200C832C0E717
:1047000022000E49C832116007215160D0348DE774
:10471000D8180020291400205F1500207A0A0020F4
:104720000C140020201800200117001040420F0038
:10473000E703000032140020040900207E0A002054
:10474000F0B58FB0FEF7A4FB0B90EFF3108372B6B9
:104750008022FF20324E334F1201310040033B6074
:1047600006F0E6FB3B6883F3108880200021B44606
:104770002D4A2E4B40016646775C1D0057403B0298
:10478000099300233C0008933A002B0012196B4157
:104790003F0F2E013E43019626010096009E019F89
:1047A00092197B4112196B41E70E6E013E4303964D
:1047B00066010296029E039F92197B41670EEE01ED
:1047C0003E430596E6010496049E059F92197B419F
:1047D000270E2E023E43079626020696069E079F48
:1047E00092197B41089E099F013192197B418142B8
:1047F000C1D10C920D93EFF3108372B6094C0422D1
:104800000CA90B48236006F093FB236883F3108800
:104810000B9B012B01D1FEF72DFB02200FB0F0BD49
:1048200030190020E413002025232284E49CF2CBDD
:1048300000F01F0070B58024084D6401084B2A5910
:1048400001209A4209D9FEF705FB030000208342AC
:1048500003D0FFF775FF034B2B5170BD30190020BB
:10486000FF1F00000810000073B580246A460C4D3D
:104870006401911D2B590880EFF3108272B6094E26
:104880003260FF2252039818012206F051FB336870
:1048900083F310882B5902332B51FFF7CBFF76BDE2
:1048A00030190020E41300208023F0B5160089B0F1
:1048B0008218050000915B019A4216D8604F3200C1
:1048C000C7193900009806F0DBFA0124002800D14E
:1048D000B1E032000099380006F020FAFEF7D8FA6D
:1048E0000590002803D1FEF7C5FA0024A3E0009B41
:1048F0001A78012E33D0EB0731D4524B9D422ED87B
:10490000009B5B781B021343012B28D85A4253416A
:104910001F225B429343603B6A0A1343FF220399C1
:10492000DBB291430A001A43039203996B08464A8B
:10493000DBB21B020A401A436B4603929889FFF7C9
:1049400093FF040001286AD1009B023E0235023326
:104950000093002ECBD1FFF76DFF040063E03F2DE5
:1049600018D8FF2102984023884301002B43DBB273
:104970001943354B12020B40134302936B461889BF
:10498000FFF772FF0400012849D1009B013E013569
:104990000133DDE70496052E01D90523049306AC07
:1049A00006220021A01C06F07AFA072200272B0C11
:1049B0001340049AA570D200134323702B0A63702E
:1049C0000194009A019BD25DDB19DA70049B0137D8
:1049D000BB42F6D1019B1888FFF746FF040001286F
:1049E0001DD1019B5888FFF73FFF0400012816D115
:1049F000012E0FD0019B9888FFF736FF0400012895
:104A00000DD1032E06D9019BD888FFF72DFF040096
:104A1000012804D1009BF61BED19DB1998E7002C47
:104A200001D0022C0AD1059B012B04D1FEF722FAFA
:104A3000002800D159E7200009B0F0BD0024F2E7BA
:104A400030190020FF3F0000FF00FFFF73B56B46E9
:104A50009C1D00230E000222210023800500FEF78A
:104A60004BFF23889E4205D0022221002800268089
:104A7000FFF71AFF73BD00000A4910B54B785A07BB
:104A8000D20F82420CD001220240042092008343C4
:104A900013434B700988FFF7D9FF0220FEF7B0FCE3
:104AA00010BDC0463214002013B504000822694628
:104AB0001820FEF721FF08226946200006F0E0F9E1
:104AC000002804D0082221001820FFF7EDFE13BDB6
:104AD00010B50348FFF7E8FF0022024B1A7010BD23
:104AE00098170020A4120020352310B5064C03228D
:104AF00023700649601C06F011F981235B42A380F4
:104B0000FFF7E6FF10BDC0469817002050AF001019
:104B100037B50025042201A904000195FEF7ECFE3B
:104B2000019BAB4205D0042201A920000195FFF7AB
:104B3000BBFE37BD37B50D000400FEF7EFFEA842FF
:104B400006D06B460122D91D20000D70FFF7ACFE88
:104B500037BD10B52421041E00D1DB312520FFF71D
:104B6000E9FF0521002C00D1FA312620FFF7E2FFF2
:104B70000721002C00D1F8312720FFF7DBFF10BD03
:104B800070B500011D008C00094B0419E418504257
:104B9000504140002018290A1600FFF7CBFF0120E2
:104BA000002E00D10230E9B22018FFF7C3FF70BD1C
:104BB000C902000070B50E244C43702148435200D6
:104BC000A41824182000190A29301D00FFF7B2FF8D
:104BD0002000E9B22A30FFF7ADFF70BD0023F7B522
:104BE0001C0001930025019B1E4F0026DF190E2398
:104BF0006B43DF19E3B20093E9B2F2B20123032C55
:104C000001DC7300FB5A00980136FFF7D3FF072E33
:104C1000F0D10135082DE6D10025134E2301F618F9
:104C2000EFB20123032C01DCAB00F35A012239005F
:104C30000098FFF7A5FF032C01DD012302E0AB0084
:104C4000F3185B880022390000980135FFF798FFC0
:104C5000042DE5D1019B013470330193062CC1D1A1
:104C6000F7BDC04670BC001002B6001070B58025BC
:104C7000044C6D01200000210134FFF75BFFAC42C2
:104C8000F8D170BD2903000010B50020FFF761FFC7
:104C900000212820FFF74EFFFFF7A0FFFFF7E6FFF8
:104CA0000120FFF756FF10BD07B5FFF79FF8224917
:104CB0000020FFF7CBFE00210220FFF73BFF012180
:104CC0001E4B03201970FFF735FFA0210420490176
:104CD000FFF7BCFE00210620FFF72CFFFF21072075
:104CE000FFF728FF0820FFF713FF00212420FFF71C
:104CF00021FF00211720FFF71DFF00210C20FFF7E7
:104D000019FF00210D20FFF715FF00220023684640
:104D100000920193FFF7C8FE2020FFF7F9FE002064
:104D2000FFF717FFFFF7B0FF0F20FFF7F1FE13208B
:104D3000FFF7EEFE07BDC046E6FE00009B12002016
:104D4000D0231B061A68084B92009B185B6810B5AD
:104D5000D9680875186802681A60536001220275E4
:104D6000D860FBF7B3FA10BD541200200A00D0211E
:104D700009060B6830B5040012489B00C3185B6835
:104D800087B0DD68531C18D00B6869469B00C018BB
:104D90000D4B406803930023103005930495FFF7F3
:104DA00055FB2000FFF7CCFF009B002B02D068468C
:104DB000FFF792FAA86907B030BD2000FFF7C0FFE7
:104DC000F8E7C046541200205F3E0010D0231B06B7
:104DD0001A680A4B92009B185B6810B5DB680029C3
:104DE00008D0426818605A60136043600420FFF7DF
:104DF000BDFF10BD01204042FBE7C0465412002019
:104E000070B504000D00E368002B07D02369002073
:104E10001A1DA262E2699B18E36208E0237A002B64
:104E200006D129002000FFF7D1FF0028EBDA70BD82
:104E300002204042FBE7F7B504000F000092019307
:104E40000025FCF75AFBA36A002B09D10199200029
:104E5000FFF7D6FF002803D0FCF746FB2800FEBD75
:104E6000A06AE36A009A1B1A561B9E4200D91E00D4
:104E7000402E19D93900402205F050FFA36A40376F
:104E80004033A3624035A36AE26A934204D3E369E4
:104E90002000191FFCF7BCFBFCF726FB009B9D4282
:104EA000DCD2FCF72AFBCEE73900320005F036FFF2
:104EB000A36ABF199B19A362AD19E4E710B544308A
:104EC000FFF7B9FF10BD012310B544305B42FFF777
:104ED000B2FF10BD70B504000E001500FCF70DFB0D
:104EE000A36A002B09D129002000FFF789FF051EC6
:104EF00003D0FCF7F9FA280070BDA36A1E70A36AFC
:104F0000E26A0133A362934204D3E3692000191FCC
:104F1000FCF77EFBFCF7E8FA0025ECE710B544301F
:104F2000FFF7D8FF10BD012210B544305242FFF701
:104F3000D1FF10BD70B504000D00E368002B07D051
:104F400062690020131D1268A3629B18E36208E0E7
:104F5000237A002B06D129002000FFF737FF002815
:104F6000EBDA70BD02204042FBE7F7B504000F000A
:104F7000009201930025FCF7C0FAA36A002B09D127
:104F800001992000FFF7D6FF002803D0FCF7ACFA08
:104F90002800FEBDA16AE36A009A5B1A561B9E4276
:104FA00000D91E00402E17D93800402205F0B6FE69
:104FB000A36A40374033A3624035A36AE26A934252
:104FC00002D32000FCF747FBFCF78EFA009B9D42C2
:104FD000DED2FCF792FAD0E73800320005F09EFEF0
:104FE000A36ABF199B19A362AD19E6E710B50C308F
:104FF000FFF7BBFF10BD012310B50C305B42FFF77C
:10500000B4FF10BD70B504000D00FCF776FAA36A7A
:10501000002B09D129002000FFF78CFF051E03D0CB
:10502000FCF762FA280070BDA36AE26A1D780133BA
:10503000A3629342F4D32000FCF70DFBF0E710B518
:105040000C30FFF7DFFF10BD012110B50C304942D5
:10505000FFF7D8FF10BD10B50A00642301007820C7
:1050600005F0B8FD43425841C0B210BD0B4A10B51F
:1050700012780B4C2378002A02D10120584008E016
:10508000002B09D002210748FFF7E5FF002801D1D6
:10509000207810BD002323702378EEE776170020D8
:1050A0006C150020D6B500100D4B70B51B780D4D5A
:1050B0002C78002B0ED0FCF7ABFB0B4BC0180B4B26
:1050C0001860002C05D102210948FFF7C4FF002811
:1050D00002D12C78200070BD01232B70F9E7C04667
:1050E000761700206C15002060EA00008017002071
:1050F000D8B50010F0B58F4B89B01B78002B00D1CC
:1051000003E18D4C2588FCF783FB401B80B23128DE
:1051100061D9FCF77DFB894B894A20801A60894B55
:105120001B78002B78D08848FEF777FE874B1878DD
:10513000FEF788F903286BD8FBF796FE02646668D1
:105140008348FEF777FE834B18783030C0B2FEF705
:1051500075FD8148FEF761FE804B18783030C0B293
:10516000FEF76CFD7E48FEF758FE7E4B7E4A1D889A
:105170007E4B7F4C1988A94202D1117820291DD07D
:105180001D8020231370002205260A2762710293D6
:105190003900280005F0ACFE3031C9B2302901D108
:1051A000052E02D0002D00D10299013EA155280004
:1051B000390005F08DFE0500002EE9D120000378AE
:1051C000202B27D0FEF729FE6A48FEF726FE6A4B01
:1051D0001878FEF733FD694D2B88002B00D186E04F
:1051E000674B1C78002C00D081E0FFF75DFF2A8818
:1051F000002A7CD0012311002141194210D1013431
:10520000E4B2F8E75F489CE75F489AE75F4898E7B1
:105210005F4896E70130D2E75E48FEF7FEFDDAE729
:105220005D4D5E482A781A4200D170E0E300DBB29F
:10523000837007330022C3700323427183710721F7
:10524000FFF709FF002852D0630105932B78012551
:105250002B4266D020220021514805F020FE00207C
:105260000795504B059AC35C9B18354A9B180493CD
:105270004D4B4B4AC35CD3181D0007220293029B7F
:105280000799EB1A9940CBB206932B7800269C46DF
:10529000049B995D069B194003910721931B039F73
:1052A0000B409F405B420B4003990136D940634657
:1052B00039430B43DBB29C46082EE9D1013AD2B206
:1052C0002B700135FF2ADAD101300428C9D16423BB
:1052D0004021334A00937430443B05F0B1FC002870
:1052E00005D10122A24025490B8893430B802F4B07
:1052F0001B78002B09D0FCF78BFA2D4B1B68C01ACA
:105300002C4B984201D8FFF7B1FE09B0F0BD6021E7
:1053100063010B40A20883701F334271C370827116
:105320008DE7074A63019A1864234021009378208F
:10533000443BD2E776170020841700207017002026
:105340006D1500208518002030BE0010B814002014
:1053500038BE00109214002059BE001034140020F2
:105360005BBE001062140020691400207C0A00203B
:10537000C51100205FBE0010790A002074170020BC
:105380007917002040BE001046BE00104CBE001031
:1053900053BE00108CB5001077170020FC080020C9
:1053A000AC18002034BF00103FBF00106C15002067
:1053B00080170020FEFFFF7FF0B5B24B9DB01A783A
:1053C00004900123824208D1AF4BB04A1B78127877
:1053D0009B079B0F9B1A5A1E9341AD4FBB70AA4B64
:1053E0007A785B799A4205D00022110010007B7018
:1053F000FDF752F8049B2C2B01D900F0C9FD1800D1
:10540000FBF746FD2D004B007B00CF0008014C014F
:1054100096019A019C01A001A201A601A801AA017E
:10542000AC01AE01B001B201B401B601B801BC01DA
:10543000BE01C001000240028C028E0290020E03E7
:10544000B7033504DE047F058405860593059605BC
:10545000A005A205AC05AE05B805BA05C405BB7824
:10546000002B14D100208A4A1378013313700028CE
:105470000BD10222874B1A70854A9278002A04D1F8
:10548000049A002A01D103321A701DB0F0BD002227
:1054900011001000FDF700F8E4E73878FCF740FD54
:1054A0001BAB1880784B0322591C0504C4B208A812
:1054B00005F034FC0898FDF76FF90304190E030298
:1054C00009AA1B0E2D0E107051709370C6B2029176
:1054D0000193E3B29D4201D8280049E023006E4ABF
:1054E0008833D35C7A781A4205D0019B3200029946
:1054F0002000FCF7CDFF0134EBE73878FCF710FD16
:10550000614D0304AF78EE786C781B0E01930CAB01
:105510001C705F709E701BAA1080C2B20C9805921E
:10552000FDF73AF9020403020DA9120E1B0E8B704F
:1055300008704A70C1B20693039107922A790AABA8
:10554000A4181C705F709E700A98FDF725F901265B
:10555000030407020BAA1B0E3F0E059C107053702C
:105560009770C5B20293019AE3B29A4203D8100031
:10557000FDF704F977E72300474A8833D35C444AB0
:1055800052781A4207D0334207D03B002A000299D2
:105590002000FCF77DFF0134E5E7069B039A07999D
:1055A000F6E73878FCF7BCFC1BAB1880364B0404DC
:1055B0009E78DD781B79240E9B080193C7B2FBB25D
:1055C0009C4201D82000D3E73B003349304A88335E
:1055D000CB5C52781A421BD07B003933CB5C0199EB
:1055E0001B094B4328490EAA497856705B18137063
:1055F00095700E98FDF7D0F8010403020FAA090E6A
:105600001B0E107051709370C2B23800FCF740FF4F
:105610000137D4E73878FCF783FC1BAB18801A4BB2
:1056200004049E78DD781B79240E9B080193C7B291
:10563000FBB29C42C6D93B001749154A8833CB5C64
:1056400052781A421BD07B003833CB5C019910AAE8
:105650004B430D495B11497856705B181370957078
:105660001098FDF799F80104030211AA090E1B0E08
:10567000107051709370C2B23800FCF709FF013707
:10568000D6E7C0468B0A0020981700208C0A00201D
:10569000880A00208D0A0020A0BB00103878FCF793
:1056A0003FFC03041B0E0193C54B1BAA10805F78BF
:1056B000C34A9E78DD78C34BC4B21B6810799BB295
:1056C000C00858430012C0B2FCF7F6FF0300803B4D
:1056D0005BB2002B03DA80235B421B1A5BB25B00D8
:1056E000DBB25D4312AA2D12177056709570129896
:1056F000FDF752F80704060213AB3F0E360E187082
:105700005F709E70C5B2019AE3B29A4200D82EE74C
:105710002300AD4A8833D35CAC4A52781A4205D094
:1057200033002A0039002000FCF7B2FE0134EAE71A
:10573000A748FDF799F996E6A648FAE7A648FDF7C7
:10574000C3FA90E6A548FAE7A548FDF749FA8AE6C4
:10575000A448FAE7A448ECE7A448EAE7A448E8E745
:10576000A448E6E7A448F0E7A448E8E7A448E6E749
:10577000A448EAE7A448FDF7CDF974E6A348FAE7A0
:10578000A348F8E73878FCF7CBFB1BAB1880BA7856
:105790000404240E002A25D1894B1A79894B103232
:1057A0001968101C89B2FF2A00D9FF2080B2484333
:1057B000001280B20A2105F09BFB89B2002900D0BB
:1057C00000E7FCF7C9FF0300282058437E4B001276
:1057D0001B1888337A781B78134200D1F2E6FDF764
:1057E000F5FAEFE61D78A54200DBEBE62B00764AE2
:1057F0008833D35C7A781A4202D02800FDF7E6FAA3
:105800000135F0E73878FCF78BFB1BAB1880BA78D2
:105810000404240E002A25D1694B1A79694B1032F1
:105820001968101C89B2FF2A00D9FF2080B24843B2
:10583000001280B2052105F05BFB89B2002900D07F
:10584000C0E6FCF789FF0300282058435E4B001296
:105850001B1888337A781B78134200D1B2E6FDF723
:1058600097FAAFE61D78A54200DBABE62B00564A5F
:105870008833D35C7A781A4202D02800FDF788FA80
:105880000135F0E73878FCF74BFB19AB18804C4B2F
:105890001AAE591C05040322C4B2300005F03EFACA
:1058A000474B474A5B782D0E0193464B10791B6896
:1058B000C0089BB258430012C0B2FCF7FDFE0300C3
:1058C000803B5BB2002B03DA80235B421B1A5BB286
:1058D0000C205B00DBB24343019A1B12D3183370D8
:1058E0001A98FCF759FF1BAE0304307000021B0E20
:1058F000000E7370B070E3B29D4200D8ECE5230057
:10590000314A8833D35C7A781A4205D0B37832783A
:1059100071782000FCF7BCFD0134ECE73D4808E756
:105920003D4806E73878FCF7FBFA264E3B4B3268D9
:105930001B6805042D0E9A4200D8CDE5FCF70CFF3C
:1059400028244443204B24121B1988331B787A786F
:105950001A4200D1C0E5FCF7FFFE83072BD4FCF709
:10596000FBFE0700FCF7F8FE154BC00100127F306C
:10597000DB78C0B214AA9370177050701498FCF7BB
:105980000BFF010403021B0EC2B2090E2000FCF73C
:105990007FFD0B4B1B791033191CFF2B00D9FF2106
:1059A000FA2089B20909400005F08AFA3368C01864
:1059B0001A4B186090E5002318001F00DAE7C04674
:1059C00098170020DC130020A0BB0010880A0020DC
:1059D0003D240010ED2300107D2600104726001006
:1059E00009260010D1250010C923001099230010AA
:1059F0006523001015230010E5220010DD2400109F
:105A0000A32500106F2500109922001049220010D4
:105A1000E1210010FD26001099210010E01800205F
:105A2000DB4B00201B680193DA4B019A1B689A42FA
:105A300000D918E5BB78834218D002000100FCF7BA
:105A40002BFD0126FCF788FE0223751E18423DD06F
:105A500003227243D04B9B180022D91E0A70991E54
:105A6000013B0A701A700136292EEBD13878FCF709
:105A700057FA0325C4B265430304C74E1BAA1B0E85
:105A8000108001937519019AE3B29A423AD8100036
:105A9000FCF774FE002817D104000325019B5F1E4C
:105AA000BC423FDBFCF758FE830747D503235F4327
:105AB0000023F355F6197370B370FCF7FDFCB54B7A
:105AC0001B681818B24B1860019851E5FCF744FEAA
:105AD00016AC2070FCF740FEC00100127F30AF4BC7
