:100000000C94AA050C94C7050C94C7050C94653490
:100010000C94C7050C94C7050C94C7050C94C70530
:100020000C94C7050C94C7050C94D3200C948F2016
:100030000C94322C0C94C7050C94C7050C94C7057E
:100040000C94C7050C94C7050C94C7050C94C70500
:100050000C94C7050C94AC210C94C7050C94C705EF
:100060000C94C7050C94C7050C94C7050C94C705E0
:100070000C94C7050C94C7050C94C7050C94C705D0
:100080000C94C7050C94C7050C94C7050C94C705C0
:100090000C94C7050C94C7050C94C7050C94C705B0
:1000A0000C94C7050C94C7050C94C705050109807D
:1000B000A101850319012AB700150126B700950192
:1000C00075108100C0050C0901A101850419012AE0
:1000D000A002150126A002950175108100C005013E
:1000E0000906A1018506050719E029E71500250184
:1000F0009508750181020507190029EF15002501F2
:1001000095F075018102050819012905950575010C
:100110009102950175039101C00660FF0961A1017B
:100120000962150026FF00952075088102096315F4
:100130000026FF00952075089102C005010906A15F
:1001400001050719E029E7150025019508750181CA
:10015000029501750881010507190029FF15002680
:10016000FF0095067508810005081901290515008D
:100170002501950575019102950175039101C00056
:10018000000000000000000000000000000000006F
:10019000000000000000000000000000000000005F
:1001A0000000007E0F00D4FFFFFFC70000007800B2
:1001B000000000000000002A2B28000000000000C2
:1001C0000000000000000000000029000000002CDA
:1001D0001E3420212224342627252E362D37382779
:1001E0001E1F202122232425263333362E37381F85
:1001F0000405060708090A0B0C0D0E0F1011121347
:100200001415161718191A1B1C1D2F3130232D35E4
:100210000405060708090A0B0C0D0E0F1011121326
:100220001415161718191A1B1C1D2F3130354C20A8
:100230002020206162636465666768696A6B6C6D23
:100240006E6F707172737475767778797A31323334
:1002500034353637383930524542545F2D3D5B5D79
:100260005C233B27602C2E2F20202000DA0281FF08
:10027000D9F1DB20A4A62EAF00A0C0D30000A1C8F6
:10028000D30000AED580A81F408D142000556E64A9
:1002900065660041646A7573740052616973650034
:1002A0004C6F7765720044656661756C74004C61D3
:1002B0007965723A20003A002C206B00780080812A
:1002C00082838485868788898A8B8C8D8E8F909196
:1002D000929394A0A1A2A3A4A5A6A7A8A9AAABACF7
:1002E000ADAEAFB0B1B2B3B4C0C1C2C3C4C5C6C76E
:1002F000C8C9CACBCCCDCECFD0D1D2D3D400000187
:1003000001010101010101010202020202020202D5
:1003100002030303030303030304040404040404A7
:10032000050505050506060606060707070707086B
:10033000080808090909090A0A0A0B0B0B0C0C0C1E
:100340000D0D0D0E0E0E0F0F0F10101111111212B8
:1003500013131414151516161717181819191A1A35
:100360001B1B1C1D1D1E1E1F202021222223242496
:10037000252626272829292A2B2C2D2D2E2F3031D2
:100380003232333435363738393A3B3C3D3E3F40E4
:100390004142434445464748494A4C4D4E4F5051CF
:1003A0005354555658595A5B5D5E5F616264656689
:1003B00068696B6C6D6F7072737577787A7B7D7E10
:1003C0008082838587888A8C8E8F91939596989A60
:1003D0009C9EA0A2A3A5A7A9ABADAFB1B3B5B7BA78
:1003E000BCBEC0C2C4C6C9CBCDCFD1D4D6D8DBDD4C
:1003F000DFE2E4E7E9EBEEF0F3F5F8FAFDFF00AF3A
:1004000000AE2B0014001A00080015001700E000D1
:1004100004001600070009000A00E1001D001B008F
:10042000060019000500000000000000E300777CD2
:100430002C002A00130012000C0018001C003400CD
:1004400033000F000E000D000B00290038003700AC
:10045000360010001100000000000000E600787C6B
:1004600028002B001E001F00200021002200E000B9
:1004700000000000000000000000E100000000009B
:10048000000000000000000000000000E300010088
:100490002C002A002700260025002400230000004D
:1004A00000004F005200510050000000000000000A
:1004B000000000000000000000000000E600010055
:1004C00028002B001E021F02200221022202E0004F
:1004D00000000000000000000000E100000000003B
:1004E000000000000000000000000000E300010028
:1004F0002C002A00270226022502240223023500AE
:10050000310030002F002E002D0035023102300264
:100510002F022E022D02000000000000E600010064
:100520002800007C0000000000000000000020788F
:100530002378257827780000000021782478267811
:10054000287800000000000000000000E300010027
:100550002C0000000000000000000000000000006F
:10056000000000000000000000000000000000008B
:10057000000000000000000000000000E600010094
:10058000280009025B00030100A0FA090400000131
:100590000301010009211101000122440007058126
:1005A00003080001090401000203000000092111F1
:1005B0000100012222000705820320000107050334
:1005C00003200001090402000103000000092111B9
:1005D000010001226D0007058403200001120100C3
:1005E0000200000008534601000100010200010C56
:1005F0000343006F0072006E006500000010036688
:10060000006F006F007300740061006E0000000452
:100610000309040000000000003E5B4F5B3E003E0B
:100620006B4F6B3E001C3E7C3E1C00183C7E3C1811
:10063000001C577D571C001C5E7F5E1C0000183C90
:10064000180000FFE7C3E7FF00001824180000FFB0
:10065000E7DBE7FF0030483A060E00262979292615
:1006600000407F05050700407F05253F005A3CE715
:100670003C5A007F3E1C1C0800081C1C3E7F0014D6
:10068000227F2214005F5F005F5F0006097F017F09
:1006900000006689956A0060606060600094A2FF57
:1006A000A2940008047E04080010207E2010000898
:1006B000082A1C0800081C2A0808001E1010101028
:1006C000000C1E0C1E0C0030383E383000060E3E6A
:1006D0000E060000000000000000005F00000000A7
:1006E0000700070000147F147F1400242A7F2A12B9
:1006F00000231308646200364956205000000807A2
:10070000030000001C224100000041221C00002ABE
:100710001C7F1C2A0008083E08080000807030007A
:1007200000080808080800000060600000201008A9
:100730000402003E5149453E0000427F40000072E5
:1007400049494946002141494D33001814127F1090
:10075000002745454539003C4A49493100412111AE
:10076000090700364949493600464949291E000013
:100770000014000000004034000000000814224172
:10078000001414141414000041221408000201592A
:100790000906003E415D594E007C1211127C007F1B
:1007A00049494936003E41414122007F4141413E95
:1007B000007F49494941007F09090901003E414143
:1007C0005173007F0808087F0000417F410000202E
:1007D00040413F01007F08142241007F40404040DB
:1007E000007F021C027F007F0408107F003E414111
:1007F000413E007F09090906003E4151215E007F0C
:10080000091929460026494949320003017F01039D
:10081000003F4040403F001F2040201F003F403825
:10082000403F00631408146300030478040300616C
:1008300059494D4300007F41414100020408102006
:1008400000004141417F0004020102040040404099
:100850004040000003070800002054547840007F07
:100860002844443800384444442800384444287F0D
:100870000038545454180000087E0902001824243B
:100880001C78007F080404780000447D40000020AC
:1008900040403D00007F102844000000417F4000A0
:1008A000007C04780478007C080404780038444410
:1008B0004438007C1824241800182424187C007C58
:1008C000080404080048545454240004043F4424F9
:1008D000003C4040207C001C2040201C003C40305C
:1008E000403C004428102844004C9090907C0044E8
:1008F00064544C44000008364100000000770000BA
:10090000000041360800000201020402003C2623D8
:10091000263C000000000000000000000000000075
:10092000000000C0E0F0F8F81800C0F0FCFEFFFF87
:10093000FFFFFFFFFF7E00000000000000000080BE
:10094000C0E0E0E0E0E0E0E0E0C080000000008027
:10095000C0E0E0E0E0E0E0E0E0C080000000E0E0D7
:10096000C0C0E0E0E0E00000E0E0C0C0E0E0E0E0C7
:10097000E0C0800000000080C0E0E0E0E0E0E0E0F7
:10098000E0C0800000000000000000000000000047
:1009900000E0F0F0F0E0ECEEF7F37020007C7C7CFF
:1009A0007E007E7E7E7F7F7F000080C0E07E5B4F8A
:1009B0005BFEC00000C000DCD7DEDEDED7DC00C09E
:1009C0000000000000000000000000000000000027
:1009D000000000000000000000000000F8FCFEFF26
:1009E000E000FFFFFFFFFFFF80FFFFFFFFFFFFFFB4
:1009F000FFFF1F0701000000000000000000FFFFD4
:100A0000FF8100000000000081C3C3C30000FFFF9E
:100A1000FF8100000000000081FFFFFF0000FFFFDA
:100A2000FF01000000000000FFFFFF0100000000C8
:100A300001FFFFFF0000FFFFFF9D1C1C1C1C1C1C76
:100A40009DDFDFDF0000000000000000000000006C
:100A5000000F1F3F7F7F7F7F7F3F1E0C001F1F1FE8
:100A60003F003F3F3F7F7F7F00307B7F78302020FB
:100A700030787F3B0003000F7F0F0F0F7F0F0003C5
:100A80000000000000000000000000000000000066
:100A9000000000000000000000000000030F1F3FE6
:100AA0003F3F3F1F1F3F3F7F7F7F3F3F1F3F7F7F76
:100AB0007F7F7C7878381C0F000000000000000168
:100AC00003070707070707070703010000000001E6
:100AD00003070707070707070703010000000707C9
:100AE00007000000000000000707070000000000EA
:100AF00000070707000000010307070707070707AC
:100B000007030100000000000000000000000000DA
:100B100000000000000000000000000000000000D5
:100B200000000000000000000000000000000000C5
:100B300000000000000000000000000000000000B5
:100B400000000000000000000000000000000000A5
:100B50000000000011241FBECFEFDAE0DEBFCDBFE2
:100B600012E0A0E0B1E0E8E7FEE602C005900D92D9
:100B7000A038B107D9F726E0A0E8B2E001C01D9285
:100B8000A33FB207E1F70E94592C0C94AB360C94AA
:100B90000000482F2091AF049091760457E029136C
:100BA00002C080E0089530E0529FF001539FF00DA5
:100BB0001124E958FB4F8181681306C080814813D6
:100BC00003C085818111EECF2F5F3F4F2770E7CFA4
:100BD000FC01AC014C5F5F4F8FEF91E321918227C5
:100BE00028E030E087FF09C0880F892721503109AC
:100BF000C9F7E417F50791F70895880FF7CFE8EDE7
:100C0000F0E080818E7F80831092E2001092DA0003
:100C10001092E100A0EEB0E08C9181608C93808115
:100C20008F77808319BCA7EDB0E08C918E7F8C9379
:100C300080818F7E808310925F0408952091E4006C
:100C40003091E50095E6A9012091EC00822F81709A
:100C500020FF06C08091E80080FF06C080E0089574
:100C60002091E80022FD1AC080916C04882389F04D
:100C7000853089F08091EB0085FD0FC02091E40064
:100C80003091E50042175307F9F29150E1F684E004
:100C9000089582E0089583E0089581E008958091A9
:100CA0006E0487FF13C08091E80082FF06C0809128
:100CB000E8008B778093E80004C080916C04811178
:100CC000F2CF089580916C048823D9F38091E800D5
:100CD00080FFF8CF8091E8008E77ECCF982F90932B
:100CE000E900242F762F50E0891731F07091EC0045
:100CF0002091ED005091F00021FD07C09F5F9730DB
:100D000071F78093E90081E008953091EB003E7F18
:100D10003093EB003091ED003D7F3093ED0030914A
:100D2000EB0031603093EB007093EC002093ED000A
:100D30005093F0002091EE0027FDE0CF80E0089571
:100D4000B0E0A0E0E6EAF6E00C949F35C8EDD0E014
:100D500088818F7E8883E7EDF0E0808181608083E9
:100D600084E082BF81E080935F0488818E7F8883E6
:100D700002EE10E0F80110821092DA0081EEC82E27
:100D8000D12CF601108288818F77888388818068D2
:100D9000888388818F7D888319BC10926C0410929F
:100DA0006D0410926B0410926A0490EEE92EF12CFF
:100DB000F70180818B7F808388818160888342E016
:100DC00060E080E00E946E06F60180818E7F808365
:100DD000F801808181608083808188608083F70151
:100DE00080818E7F8083888180618883CDB7DEB7E4
:100DF000E8E00C94BB35FC0180917404909175047B
:100E000086179707A0F06115710529F49091E80005
:100E10009E779093E80090E06115710551F491116F
:100E200008C08091E80082FF34C080E00895BC01D2
:100E3000F2CF80916C048823C1F18530C1F180919B
:100E4000E80083FD30C08091E80082FDEACF809108
:100E5000E80080FFE1CF8091F3002091F200382F6D
:100E60006115710519F02830310558F091E02830EE
:100E7000310509F090E02091E8002E772093E800FA
:100E8000CBCF81918093F100615071092F5F3F4F6B
:100E9000E7CF80916C04882341F0853041F0809148
:100EA000E80083FFBECF81E0089582E0089583E0EB
:100EB0000895089580916104089587E797E79093D6
:100EC00001088093000888E19AE00FB6F894A8958D
:100ED000809360000FBE90936000FFCF2FB7F8940F
:100EE00060915B0470915C0480915D0490915E045C
:100EF0002FBF0895909142019923D1F09091580409
:100F000097FF16C0E82FE695E695E695EE31E0F4FA
:100F1000F0E0E657FD4F282F277081E090E001C0F8
:100F2000880F2A95EAF78095928189238283089514
:100F3000E4E8F2E09191891303C0DF0111971C925C
:100F400092E0EA38F907B1F70895909142019923A8
:100F5000C1F09091580497FF14C0E82FE695E695EC
:100F6000E695EE31F8F4F0E0E657FD4F877021E0AA
:100F700030E001C0220F8A95EAF78281822B8283BA
:100F80000895A4E8B2E0EFEF90E02D91821751F0C0
:100F9000EF3F19F4211101C0E92F9F5F9630A9F7A7
:100FA000EF3F09F408950E2E000CFF0BEE57FD4F96
:100FB000E6CFA3E0B0E0EFEDF7E00C94A53520918B
:100FC00056043091570428173907A1F0909357041D
:100FD00080935604E0915404F0915504309751F0F9
:100FE00024E029839B838A830084F185E02DCE0150
:100FF000019609952396E2E00C94C135A3E0B0E098
:10100000E4E0F8E00C94A5352091520430915304AB
:1010100028173907A1F09093530480935204E0916C
:101020005404F0915504309751F023E029839B83B9
:101030008A830084F185E02DCE01019609952396DF
:10104000E2E00C94C13580915004882359F0E0917E
:101050005404F0915504309729F00190F081E02D6F
:101060000995089580E00895FA01811101C0FB01FE
:101070000995089530915104311123C08B319105A8
:101080001CF14B97FC01EE0FFF1FDF01A80FB91FEA
:10109000A855BC4F11963C911197361307C03C914F
:1010A000341304C012963C91321771F031E0309342
:1010B000A703E80FF91FE855FC4F618340832283A3
:1010C00003C08B319105F4F208951092A70308959F
:1010D000E4EBF4E0248130E1231B08F420E02483D6
:1010E0008091A60381608093A6030895E4EBF4E069
:1010F000248130E1230F08F42FEF24838091A6038D
:1011000081608093A60308959091B404937071F068
:101110008093B5046093B604433308F042E34093F0
:10112000B7048091A603822B8093A6030895E4EB75
:10113000F4E0438120E1421B08F440E0818121E09A
:10114000628190E00E9484080895E4EBF4E043811A
:1011500020E1420F08F44FEF818121E0628190E0AD
:101160000E9484080895E4EBF4E0628120E1621BB0
:1011700008F460E0818121E0438190E00E948408CE
:101180000895E4EBF4E0628120E1620F08F46FEF70
:10119000818121E0438190E00E9484080895E4EB7E
:1011A000F4E0818121E0438162818850990B0E94A3
:1011B00084080895E4EBF4E0818190E021E043812C
:1011C000628108960E94840808959091B4049370F7
:1011D00061F081110BC094609093B40410924101AE
:1011E0008091A603862B8093A6030895883210F081
:1011F0009C69F2CF880F880F982BEECF8091B404B2
:1012000086958695815009F487E261E00E94E508A1
:1012100008958091B404869586958F5F883208F092
:1012200081E061E00E94E50808959BE0899F802DA0
:101230001124980F973308F096E32091510422234C
:1012400021F09C3128F09BE108958B3108F48BE16B
:101250000895EF92FF920F939701201B31092F3FC2
:10126000310519F010F02FEF30E02095382F320FB4
:1012700008F43FEF832F0F91FF90EF900895EF92C6
:10128000FF920F939701201B31092F3F310519F071
:1012900010F02FEF30E0322F3095482F430F08F435
:1012A0004FEF842F620F0F91FF90EF900895EF9210
:1012B000FF920F93972F093438F4B701601B71091F
:1012C0006F3F710519F010F06FEF70E0485F5F4FEE
:1012D0004131510540F0A901485F5F4F413151054F
:1012E00010F06FEF70E06095482F460F08F44FEF55
:1012F000842F37FF02C02D5F3F4F359527953595D9
:1013000027956091B504620F792F0F91FF90EF90B0
:101310000895EF92FF920F931F930E0D1F2D111D35
:10132000F90137FF03C0F195E195F10924E0EE0FD3
:10133000FF1F2A95E1F7EF3FF10519F014F0EFEFE9
:10134000F0E09A0157FF03C031952195310994E0EF
:10135000220F331F9A95E1F72E173F070CF4F9017E
:10136000E00FF11FEF3FF10519F010F0EFEFF0E0A3
:10137000E095282F3E2F230F08F42FEF822F1F9187
:101380000F91FF90EF900895EF92FF920F939701C6
:1013900095E0099F200D311D11242F3F310519F0D3
:1013A00010F02FEF30E02095382F320F08F43FEF88
:1013B000832F0F91FF90EF90089522E8241B08F4EB
:1013C00020E0620F08954095282F429F412D11245F
:1013D000842F0895E42FF0E0EE0FFF1FE352FE4F3D
:1013E0009081921B97FD9195292F38E1239F212D04
:1013F0001124620F08950F931F9310E0F801EE0F70
:10140000FF1FE352FE4F9081905797FD9195000F7B
:10141000111FF801E355FE4F01A90052110B2003E3
:10142000F001219FF00D112408E310E0091B1109C0
:1014300097FD139540039001419F300D1124E20F59
:10144000F31F9F01220F331F2E0F3F1F37FF02C0D4
:1014500021583F4F220F232F221F330B620F1F9162
:101460000F9108950F931F93522F10E0F801EE0F84
:10147000FF1FE355FE4FA1A9A052BB0B9D015203D4
:10148000F001539FF00D1124000F111FD801A3523A
:10149000BE4F0C910057110B40039001419F300D3E
:1014A00011242E0F3F1F37FF02C0215C3F4F96E0F3
:1014B000359527959A95E1F7620F1F910F91089541
:1014C0000F931F93522F10E0F801EE0FFF1FE3550B
:1014D000FE4FA1A9A052BB0B9D015203F001539FE7
:1014E000F00D1124000F111FD801A352BE4F0C9113
:1014F0000057110B40039001419F300D11242E0F16
:101500003F1F37FF02C021583F4F220F232F221FBA
:10151000330B620F1F910F910895EF920F93972F46
:1015200023E0029FB0011124759567956E0D792F08
:101530000F91EF900895322F50E0FA01EE0FFF1F48
:10154000E355FE4F91A9905297FD9195440F551F79
:10155000FA01E352FE4F2081231B330B290F311D6B
:1015600097FD3A95620F0895E42FF0E0EE0FFF1F0C
:10157000E355FE4F61A9621B0895E42FF0E0EE0FE2
:10158000FF1FE352FE4F6081621B0895622F089592
:10159000E42FF0E0EE0FFF1FE352FE4F408134EEE8
:1015A000439F412D1124E82FF0E050E0445E5F4F4F
:1015B000DA01A21BB1099D01B7FF03C03195219546
:1015C000310993E0220F331F9A95E1F7AF01421BD7
:1015D000530B9A0157FD20E0582F259F212D1124F0
:1015E000822F0895E42FF0E0EE0FFF1FE352FE4F2D
:1015F000408134EE439F412D1124E72FF0E050E06D
:10160000445E5F4FDA01A21BB1099D01B7FF03C021
:1016100031952195310993E0220F331F9A95E1F717
:10162000AF01421B530B9A0157FD20E0279F212D4C
:101630001124722F08950E943A080895FF920F9383
:101640001F93CF93DF93182F062FF42ED0E0C0E026
:101650002F2D402F612FCE010E941B0B2196C633E8
:10166000D105B1F7CDB7DEB7E5E00C94BE35FC018E
:101670009B01009729F480E077FF2BC080E8089554
:10168000AC0197FF04C044275527481B590BB901EB
:10169000640F751F37FD10C0241B350BC901A5E071
:1016A000880F991FAA95E1F70E94D83580E2861B22
:1016B000F7FF0FC081950895CB0165E0880F991F52
:1016C0006A95E1F7BA01621B730B0E94D83580E678
:1016D000EECF0895EF920F93CF93DF93D72FC82FBC
:1016E000C9010E19BA010E94370B602F681B7D2FAC
:1016F0008C2FDF91CF910F91EF9008950F93CF939F
:10170000DF93D72FC82FC901BA010E94370B682F6A
:10171000600F7D2F8C2FDF91CF910F910895EF9265
:101720000F931F93CF93DF93D62FC72F182FC90185
:101730000E19010FBA010E94370B081B202F219FA1
:10174000212D1124822F6D2F7C2FDF91CF911F919E
:101750000F91EF900895EF920F931F93CF93DF9324
:10176000D62F172FC82FC9010E19070FBA010E94D3
:10177000370B702F781B719F712D11246D2F8C2FBB
:10178000DF91CF911F910F91EF9008950F931F93C9
:10179000CF93DF93D62FC72F182FC901212F201BDE
:1017A000022FBA010E94370B982F990F990F891BAE
:1017B000800F282F219F212D1124822F6D2F7C2F08
:1017C000DF91CF911F910F9108950F931F93CF93A6
:1017D000DF93D62F172FC82FC901272F201B022FC9
:1017E000BA010E94370B982F990F990F782F791B08
:1017F000700F719F712D11246D2F8C2FDF91CF9160
:101800001F910F910895E82F86FDE0952E2F2F70E0
:1018100086FD2F5FE695E695E695E670F0E0EA56E0
:10182000FE4F9181929F902D212D112492959F70B2
:101830002295207F922B2081920F87FD919580E841
:10184000890F08950F931F93CF93DF938B01D82FA8
:10185000C42F822F0E94030CEC2FF0E0EE0FFF1F2D
:10186000E352FE4F90819058890F87FD8195880F34
:10187000682F2CE0629F612D1124600F712F8D2F36
:10188000DF91CF911F910F91089540913D015091AB
:101890003E0125E038E0429FC001439F900D529FDA
:1018A000900D1124875E994C90933E0180933D01E9
:1018B000890F0895AC018230910508F408959FEFD7
:1018C000413E8EE1580740F49A0195E03695279500
:1018D0009A95E1F798E0920F61E0E62FE90FFF2774
:1018E000FF1F9F0135952795822F229FF001239F8F
:1018F000F00DF00D11244E175F0738F49FEF920F93
:10190000961758F78FEF860F08952F3FE9F361E0A0
:10191000620FF6CF0F93CF93DF93D72FC82F47FDDA
:10192000419588E390E0841B910947FD9395889F3A
:10193000B001899F700D700D1124229FC001239F5B
:10194000900D900D1124860F971F0E945A0C982F0E
:10195000990F890F682F600F7D2F8C2FDF91CF910A
:101960000F91089530E020E0869F212D969F200D55
:10197000311D1124C9010895982F809151048823A5
:1019800029F081E09B3128F080E003C081E09633AC
:10199000D8F70895AF92BF92CF92DF92FF920F9344
:1019A0001F93CF93DF93362F472FE82FF0E0E250BD
:1019B000FD4F71110FC0E4918E2F2E2F6E2F722FBD
:1019C000DF91CF911F910F91FF90DF90CF90BF904B
:1019D000AF900895C72FD0E02491F22E022F10E08F
:1019E00056E0659FC0011124EFEFF0E0BF010E94B7
:1019F0008135832F90E0880F991F35E5369FD00100
:101A0000379FB00D11248A1B9B0B982F990F980FAD
:101A10006F01CC1ADD0AC09ED001C19EB00DD09ED0
:101A2000B00D11248B2F499FA0011124452F55275C
:101A30006F01C41AD50AC09EA001C19E500DD09E50
:101A4000500D11245F01A91AB108AC9E6001AD9E32
:101A5000D00CBC9ED00C1124CD2CDD24EC19FD093A
:101A6000E09FE001E19FD00DF09FD00D1124ED2FFC
:101A700062307105A1F050F46115710509F49ECF33
:101A80006130710581F0EB2F852F98CF643071059F
:101A900069F080F06630710509F490CFF4CFE22F41
:101AA0002B2F8D2F8BCFE22F252F88CFEB2F822F3F
:101AB0002D2F84CF2B2F8F2DE52F80CFB0E0A0E0EE
:101AC000E4E6FDE00C94A0358C01FC01E75BFD4FE2
:101AD0008081682349F1D090B604D091B704C091B9
:101AE000B504EC2EF12C0E94450C282FC7018C5414
:101AF0009F4F68E671E00E94D8358E199F0997FDC7
:101B00000396959587959595879523706C2F289FBB
:101B1000600D11247D2D8D2F0E94CA0C462F282F79
:101B2000672FC8010E941B0BCDB7DEB7E7E00C940E
:101B3000BC352F923F925F926F927F928F929F92CD
:101B4000AF92BF92CF92DF92EF92FF920F931F93CB
:101B5000CF93DF93CDB7DEB729970FB6F894DEBFEA
:101B60000FBECDBF89837D836C83809143010E942A
:101B700015099A832091BC042B83E82FF0E0F987A4
:101B8000E887CF01880F991F9C0123553E4F6901BB
:101B90003981832F90E0FC013196FF83EE838A81A7
:101BA00098859817D0F00E94BC0C29960FB6F8942F
:101BB000DEBF0FBECDBFDF91CF911F910F91FF9080
:101BC000EF90DF90CF90BF90AF909F908F907F90DD
:101BD0006F905F903F902F900895E885F985E75BBF
:101BE000FD4F8081909144018923F1F02090B5044C
:101BF0003090B6042E813F8124543B4F39015980E7
:101C000010E0FB815F16D0F02091B704129F112DD8
:101C10001124B101812F0E94CA0C462F282F672F53
:101C2000888599850E941B0B288539852F5F3F4F3A
:101C30003987288732E0C30ED11CB1CFF3018191DF
:101C40003F01F601A0A8A81ABB0881A8F30187816B
:101C5000881A9908AA9C9001AB9C300D300D112474
:101C6000889CC001899C900D900D1124820F931FB8
:101C70000E945A0C082F6091B80421E0620F08F40A
:101C80006FEFF301EE0FFF1FEC5BF440858996893F
:101C90000E94B20C7C019401A501B101812FEC815D
:101CA000FD8109951B015394182FABCFB0E0A0E044
:101CB000ECE5FEE00C94A0358C01809143010E947C
:101CC0001509C82FD92E2091B80431E0230F08F44C
:101CD0002FEF30E050E040E06FEF7FEF80E090E0EA
:101CE0000E940E367901D0E02C2FCD1540F08D2DBD
:101CF0000E94BC0CCDB7DEB7E7E00C94BC35FE010A
:101D0000E75BFD4F808190914401892311F140915F
:101D1000BC044150042E000C550B47FF1CC0C701EA
:101D20006091B80421E0620F08F46FEF0E94B20CDA
:101D3000AC016091B5047091B6048091B704F801CC
:101D400009950E94CA0C462F282F672FCE010E94AA
:101D50001B0B2196C9CFFA01E454FB4F81898213F2
:101D60000AC0FA01EE0FFF1FE454FB4F818D928DE4
:101D70008E159F05A8F241505109CFCFEF92FF92E7
:101D80000F931F93CF93DF937C01809143010E94B7
:101D90001509C82F192F6091B8046695669521E042
:101DA000620F08F46FEF8091B0049091B1040E942B
:101DB000B20C082FD0E0C11740F0812F0E94BC0C5C
:101DC000CDB7DEB7E6E00C94BD35FE01E75BFD4F15
:101DD000808190914401892391F06091B5047091C4
:101DE000B6048091B704202F4C2FF70109950E946B
:101DF000CA0C462F282F672FCE010E941B0B21965D
:101E0000DACFB0E0A0E0E7E0FFE00C949D356C0194
:101E1000809143010E941509C82FF92E6091B804E2
:101E2000669566958091B0049091B1040E94B20CC1
:101E3000182F80E4810F0E94030C90E8B92EB80E91
:101E4000812F0E94030C20E8A22EA80ED0E0CF150F
:101E500040F08F2D0E94BC0CCDB7DEB7EAE00C94A9
:101E6000B935FE01E75BFD4F8081909144018923E4
:101E7000A1F06091B5047091B6048091B704E12E91
:101E80000C2F2A2D4B2DF60109950E94CA0C462FC6
:101E9000282F672FCE010E941B0B2196D8CFB0E0D0
:101EA000A0E0E5E5FFE00C9499353C018091430109
:101EB0000E941509C82F192F6091B804669580916A
:101EC000B0049091B1040E94B20CF82ED0E0CE0183
:101ED000880F991F9C0123553E4F6901C11740F09F
:101EE000812F0E94BC0CCDB7DEB7EEE00C94B53567
:101EF000FE01E75BFD4F808190914401892379F1D8
:101F0000F60180A9282F2057330B590181A9E82F0A
:101F1000E052FF0B4F01AA9C9001AB9C300D300D9D
:101F20001124EE9FC001EF9F900D900D1124820FA0
:101F3000931F0E945A0C082F6091B5047091B6044B
:101F40008091B704EF2C9401A501F30109950E943B
:101F5000CA0C462F282F672FCE010E941B0BF2E0E0
:101F6000CF0ED11C2196BACFB0E0A0E0EAEBFFE0A3
:101F70000C949E356C01809143010E941509C82F75
:101F8000192F6091B80466958091B0049091B104C6
:101F90000E94B20CB82ED0E0CE01880F991F9C0190
:101FA00023553E4F7901C11740F0812F0E94BC0C90
:101FB000CDB7DEB7E9E00C94BA35FE01E75BFD4F23
:101FC0008081909144018923C1F0F70121A9205219
:101FD000330B40A94057550B6091B5047091B6047E
:101FE0008091B7040B2DF60109950E94CA0C462F6B
:101FF000282F672FCE010E941B0BF2E0EF0EF11C81
:102000002196D1CF1F93CF93DF93EC01FC01E75BC7
:10201000FD4F80816823B1F00E94450C182F0E946B
:10202000450C20E8829FC00111247FE7790F612FC2
:102030008091B7040E94CA0C462F282F672FCE012B
:102040000E941B0BDF91CF911F91089580E00895AE
:10205000F894E82FE295EF70F0E031A1282F2F706F
:1020600081E090E001C0880F2A95EAF7982F9095BB
:10207000932391A392A1892B82A3789408950F931F
:102080001F9380915004882329F00E946E071F91AE
:102090000F9108950E946E070091290310912A0361
:1020A00020912B0330912C03600F711F821F931F0F
:1020B000EECFCF92DF92EF92FF926B017C01809185
:1020C00050048823A1F02FB7F89460915B047091BD
:1020D0005C0480915D0490915E042FBF6C197D09B2
:1020E0008E099F09FF90EF90DF90CF9008950E9496
:1020F0003F10F4CF9091580492FF10C041E0282F78
:102100002471243009F040E031E0282F2871283074
:1021100009F030E0431711F02CE0822793FF10C044
:1021200041E0282F2471243109F040E031E0282FCC
:102130002871283109F030E0431711F02CE0822794
:102140003091590430FF10C051E0282F2171213007
:1021500009F050E041E0282F2871283009F040E0D4
:10216000541711F029E0822731FF10C041E0282FD9
:102170002171213109F040E031E0282F2871283108
:1021800009F030E0431711F029E0822794FD877EA3
:10219000089582389105B9F1B0F48133910509F4BD
:1021A0007DC048F48932910509F46DC08A329105E9
:1021B00009F47BC008958533910509F45FC0893324
:1021C000910509F10895833E9105D9F138F4803ED7
:1021D000910529F1823E910579F10895863E910598
:1021E000D9F1873E910509F43EC0843E910541F541
:1021F0002091590421FF24C08091580484FD19C006
:1022000087EE90E0089520915804237009F05AC099
:102210002091590423FF14C089E290E00895209191
:10222000580420FD38C03091590430FF09C024FF04
:1022300043C090E080E008952091580422FDF7CF3C
:1022400008952091580422FD3AC03091590430FD80
:1022500039C024FFF5CFEDCF2091580423FFF0CFF4
:1022600024FDE7CFCDCF2091580423FD2EC030911F
:10227000590431FFEECF84EE90E008952091580488
:1022800025FFDECFC9CF2091580425FD21C0209124
:10229000590423FFD5CF89E390E0D2CF2091580491
:1022A00026FFCECF8AE290E008952091580426FFC1
:1022B000C7CF81E390E0089583EE90E0089582EE29
:1022C00090E0089580EE90E0089586EE90E0089505
:1022D00085E390E008951F93CF93DF930E94C91088
:1022E000EC01C11580E5D807F0F5C11580E4D807E9
:1022F00008F09CC0C03ED10520F5CD3CD10508F0CA
:1023000082C0C83AD10578F4C53AD10508F073C047
:10231000C130D10519F1209709F1C430D105F0F48D
:10232000D0E0C0E01BC0C33CD105D0F7C85AD0E014
:10233000CC0FDD1FC45BDE4F0990D881C02DD46463
:102340000DC0C11580E2D80708F0D1C0C11581E0E9
:10235000D80708F05AC0C83ED10510F7CE01DF916A
:10236000CF911F910895C03682E5D80718F5C03483
:1023700082E5D80708F06BC0C03282E5D80708F0C4
:102380005FC0C11582E5D80708F497C02C2F2695A9
:10239000269580E2289F900111248C2F8370C1E044
:1023A000D0E002C0CC0FDD1F8A95E2F7C22BD32B01
:1023B000DD68D4CFC03A82E5D80760F4C03882E542
:1023C000D80708F459C0CF71D0E0DC2FCC27C46FF8
:1023D000D06AC4CFC03C82E5D80708F462C0C03ED2
:1023E00082E5D80708F09CCFDC2FCC27CC27DF7103
:1023F000C06FD06AB3CFC55AD0E0C75BDE4FC8818B
:10240000D0E0D064ABCFD065A9CF8D2F0E947A10D9
:10241000182FCE0199270E94C910C12FD0E0DC2FC0
:10242000CC27CC27DF71C82BD92B98CFCE01992789
:102430000E94C910CC27DF70C82BD92BD06A8ECF51
:10244000CF71D0E0DC2FCC27C16FD06A87CF2C2F83
:1024500026952695277080E2289F900111248C2FC5
:102460008370C1E0D0E002C0CC0FDD1F8A95E2F797
:10247000C22BD32BDC6872CF2C2F26952695277084
:1024800080E2289F900111248C2F8370C1E0D0E05E
:1024900002C0CC0FDD1F8A95E2F7C22BD32BDA687E
:1024A0005DCF8C2F8F710E947A10C82FD0E0DC2F67
:1024B000CC27CC27DF71D06251CF8C2F8F710E9437
:1024C0007A1055E0D695C7955A95E1F7CF70D0E0D0
:1024D000DC2FCC27282F30E084FF05C044E0220FFA
:1024E000331F4A95E1F7C22BD32BD06937CF8D2FFD
:1024F0008F710E947A10182FCE0199270E94C9105F
:10250000C12FD0E0DC2FCC27CC27DF71C82BD92BF3
:10251000D2CF80959091F00298239093F002089585
:102520008091F0029091C702892B9091C602992365
:1025300091F0892B90914201992371F09091580468
:1025400097FF0AC09EE12CE832E040E0915040F451
:1025500041111092C602089596E024E832E0F5CFCA
:10256000F90151919F01552389F34F5FEFCF80917E
:10257000AF0490917604981301C008958F5F87701F
:10258000FACF292F983078F5863068F590E036E05C
:10259000239F800D911D1124682F677023E096956D
:1025A00087952A95E1F7FC01EE0FFF1FE80FF91F51
:1025B000E455FD4F50E040E080E0219130E0062EF0
:1025C00002C0369527950A94E2F721703327042E2E
:1025D00001C0220F0A94EAF7822B4F5F5F4F43300E
:1025E000510559F7089580E00895292F983098F5FE
:1025F000863088F590E036E0239F800D911D1124F0
:10260000282F277041E001C0440F2A95EAF723E004
:10261000969587952A95E1F7FC01EE0FFF1FE80FCD
:10262000F91FE455FD4F30E020E070E05191DF01EB
:102630001197CB01022E02C0969587950A94E2F776
:10264000817081958527842385278C932F5F3F4F49
:102650002330310559F708958093400308959091F0
:10266000400321E030E0F90101C0EE0F8A95EAF75E
:10267000D90102C0AA0FBB1F6A95E2F7EA2B01C07D
:10268000220F4A95EAF7892F8E23E81305C0292BDC
:10269000822F0E942C13089520952923F9CF21E041
:1026A00030E001C0220F8A95EAF72095809140031F
:1026B00082230E942C1308959091C502809589234E
:1026C0008093C502282F277069F4891759F09091DB
:1026D000590492FF07C08695869586950E944F13F0
:1026E0001092C502089521E030E001C0220F8A95C2
:1026F000EAF780914003822B0E942C130895809367
:10270000F1020895982F92959F7011F0892F94E00F
:10271000282F2695269511F09E5F822F869509F029
:102720009F5F892F0895CF93DF93682F81E06A30F0
:1027300019F06D3031F480E00E942114DF91CF91C7
:1027400008958091F1069091F20626E0FC01ABEE2F
:10275000B6E001900D922A95E1F7603E08F458C06A
:1027600026E0FC0111922A95E9F7C091F106D0917B
:10277000F20646E050E0BE018BEE96E00E94433642
:102780009E012B5E3440892B41F1C90145E09695AD
:1027900087954A95E1F741E050E0BA0102C0660F23
:1027A000771F8A95E2F7CB016091E9047091EA0402
:1027B000862B972BB9016B5F7F4FE5E07695679588
:1027C000EA95E1F702C0440F551F6A95E2F7842BA2
:1027D000952B9093EA048093E9042A5F3F4F409140
:1027E000E804642F70E0C9010E948135481B46301F
:1027F00010F4240F311D211572E0370710F030E07E
:1028000020E025513B4F3093F2062093F10696CFFE
:10281000F6E06F9FB00111246D5E794F46E050E005
:102820000E943A36A2CFCF93DF93EC01FE01849150
:10283000811103C0DF91CF9108950E9493132196D7
:10284000F5CFCF93382FE091F106F091F206EB5ED1
:10285000F4402091E804622F70E0CF010E9481359E
:10286000281B822F332361F066E00E94CC35C82FED
:10287000C15010F4CF91089580E20E949313F8CFD5
:102880009F01280F311D2115324018F080E0F0E043
:10289000E0E08E0F9F2F911D85519B4F9093F20684
:1028A0008093F106E7CF0E94131481E00E94211467
:1028B000089580914201882359F18091580487FF3F
:1028C00027C00E94901280938B0240E250E068EC97
:1028D00072E08AE892E00E944336892BC1F080E2E0
:1028E000EAE8F2E0A8ECB2E001900D928A95E1F7F7
:1028F000E0915404F0915504309749F086E08093BC
:102900008A020480F581E02D8AE892E00995089515
:102910000E9490128093820248E050E068EE72E0DC
:1029200082E892E00E944336892B89F388E0E2E84E
:10293000F2E0A8EEB2E001900D928A95E1F7E09105
:102940005404F0915504309711F30280F381E02D87
:1029500082E892E0DBCF1092F0028091420188235E
:10296000C1F08091580487FF14C0ECE8F2E08EE1DA
:10297000DF011D928A95E9F790E080E00E94FE0752
:1029800090E080E00E94D9071092C7020E9459147B
:102990000895E4E8F2E086E0EBCFAAE2B0E0E3EDF0
:1029A000F4E10C94A4358EE694E02091F100DC0172
:1029B0002D93CD01B4E086379B07B9F780916F0462
:1029C000833009F472C0B8F4813009F449C0823010
:1029D00009F4B3C08091E80083FF8BC280916E043C
:1029E00090916F049A3008F084C2E92FF0E0E3552B
:1029F000F94C0C942D368A3009F48EC08B3009F4D2
:102A000071C0893039F780916E04813219F7809155
:102A1000720490917304009711F00297D9F6809197
:102A2000E800877F8093E8008091E80082FF38C04B
:102A30009091F3008091F200029731F48091F100BF
:102A4000813011F0863021F48091F100809361048F
:102A50008091E8008B778093E8000E944F06BACF00
:102A600080916E04813A09F0B5CF8091E800877FAC
:102A70008093E8008091720490917304892B61F433
:102A800068E082E694E070E00E94FB068091E80036
:102A90008B778093E8009ECF60E090E080E0F3CFFA
:102AA00080916C048111C0CF95CF80916E04813AE2
:102AB00009F090CF8091720490917304892B09F0F2
:102AC00089CF8091E800877F8093E8008091E800BB
:102AD00080FFFCCF809142018093F1008091E8005B
:102AE0008E77B9CF80916E04813209F073CF8091D7
:102AF000720490917304892B09F06CCF8091E800E7
:102B0000877F8093E8000E944F0680917004809335
:102B100042010E94AB145ECF80916E04813209F0B5
:102B200059CF8091E800877F8093E8000E944F068C
:102B300080917104809360044DCF80916E04813A3E
:102B400009F048CF8091E800877F8093E80080916A
:102B5000E80080FFFCCF80916004BECF803899F000
:102B6000823809F0C6C1809172048F70873008F0F6
:102B7000C0C18093E9008091EB0085FB882780F934
:102B80001092E90006C080916A0490916B04911143
:102B900082609091E800977F9093E8008093F10025
:102BA0001092F1008091E8008E779FC1882309F48C
:102BB0008DC1823009F09DC180917004811190C156
:102BC000809172048F702FEF280F263008F091C18A
:102BD0008093E9002091EB0020FF82C1933031F413
:102BE0008091EB0080628093EB007AC19091EB00C2
:102BF00090619093EB0021E030E001C0220F8A95B4
:102C0000EAF72093EA001092EA008091EB008860D6
:102C1000EACF81116EC1109170041F778091E3009B
:102C20008078812B8093E3008091E800877F8093F8
:102C3000E8000E944F068091E80080FFFCCF809161
:102C4000E30080688093E30082E0111183E08093C9
:102C50006C044FC18058823008F04BC12091700441
:102C6000309171042C3DE3E03E07A1F583E08A83B7
:102C70008AE289834FB7F894DE01139620E03EE0A4
:102C800051E2E32FF0E050935700E49120FF03C09E
:102C9000E295EF703F5FEF708E2F90E0EA30C0F06A
:102CA000C7968D939D932F5F243159F74FBF809125
:102CB000E800877F8093E8006AE270E0CE01019629
:102CC0000E94FB068091E8008B778093E80011C199
:102CD000C096E7CF8091720490917304432F5527DB
:102CE0004330510509F44AC078F54130510509F4E3
:102CF0007AC08BE590E0E2E8F5E04230510509F05A
:102D0000F8C02091E800277F2093E8002091740408
:102D1000309175048217930708F49C0140E0211557
:102D2000310509F065C0411163C08091E80082FD62
:102D3000C9CF80916C04882329F2853019F28091E3
:102D4000E80083FFF2CFBECF4132510509F43CC009
:102D50004232510509F0CDC08330910508F0C9C059
:102D6000FC01EE0FFF1FEF55FE4F0190F081E02DAB
:102D700082569E4FDC018C9190E01AC0332721309F
:102D80003105D1F02115310561F02230310509F00E
:102D9000B0C0EFEEF5E0E4918E2F90E0EFEEF5E0BD
:102DA00007C0EFE0F6E0E4918E2F90E0EFE0F6E070
:102DB000009709F49EC0A5CFEDEFF5E0E4918E2FCA
:102DC00090E0EDEFF5E0F4CF8330910508F091C08D
:102DD000880F991FFC01E955FE4F0190F081E02D0D
:102DE00089E090E08ECF82E190E0EDEDF5E089CFD3
:102DF00080916C04882309F465CF853009F462CF93
:102E00008091E80083FD5ECF8091E80082FD8DCF48
:102E10008091E80080FF83CF9091F3008091F200D1
:102E20002115310519F08830910550F041E00897DF
:102E300009F040E08091E8008E778093E8006FCF42
:102E400044914093F1003196215031090196E8CF29
:102E5000803809F04EC08091E800877F8093E800B9
:102E600080916D048093F1009DCE811142C010913C
:102E700070041230F0F58091E800877F8093E800BD
:102E800010936D040E944F06112311F084E005C0D9
:102E90008091E30087FDFACF81E080936C0442E0EB
:102EA00061EC81E00E946E0642E261EC84E00E94E7
:102EB0006E0642E261EC82E00E946E0642E260EC45
:102EC00083E00E946E0680916C0413C080917004B0
:102ED000813079F481E0933009F080E080936B04D5
:102EE0001092E9008091E800877F8093E8000E94BB
:102EF0004F068091E80083FF0AC08091E800877F39
:102F00008093E8008091EB0080628093EB00AA96AA
:102F1000E3E00C94C035882321F00E9489120E94BE
:102F200059140895882339F09091F002982B9093CA
:102F3000F0020E9459140895882339F19CEF980FEC
:102F4000913A28F40E947A070E945914089590E259
:102F5000980F983050F4877091E001C0990F8A95CE
:102F6000EAF7892F0E948912EFCF9BE5980F9330E3
:102F700028F490E080E00E94FE070895885A8B3183
:102F800020F490E080E00E94D9070895CF93C82FE5
:102F90008823B9F18CEF8C0F813AA8F5809142011A
:102FA000882301F18091580487FF1CC0EC2FE6951F
:102FB000E695E695F0E0E657FD4F828190E04C2FD4
:102FC000477021E030E002C0220F331F4A95E2F73C
:102FD00082239323892B81F08C2F0E947A070E94F1
:102FE00059140AC0E4E8F2E08AE892E02191C2179D
:102FF00099F38E179F07D1F78C2F0E94A5070E9487
:103000005914CF91089580E28C0F883068F4C7700E
:1030100021E030E001C0220FCA95EAF78091F0026A
:10302000822B8093F002EBCFEBE5EC0FE33040F422
:10303000F0E0E75BFE4F808190E00E94FE07E1CF69
:10304000C85ACB31F0F6EC2FF0E0EE0FFF1FE45B37
:10305000FE4F808191810E94D907D3CF0F931F9398
:10306000CF93DF938B01EA0190916C04943061F56A
:103070008093E9008FEF9091E800815095FD06C0A4
:1030800095ED9A95F1F700008111F5CF8091E80058
:1030900085FF1AC00E941E06811111C08091E800B0
:1030A00085FD06C08091E8008E778093E800F2CF1E
:1030B000F80181918F018093F100219779F7809138
:1030C000E8008E778093E800DF91CF911F910F91F8
:1030D000089543E050E0BC0184E00E942E1808955A
:1030E00040E250E0BC0184E00E942E180895CF9386
:1030F000DF93EC0148E050E0BC0181E00E942E1813
:1031000088E0FE01A2E6B4E001900D928A95E1F715
:10311000DF91CF9108958091A703882341F1539ABD
:103120003BB1377F2BB128604FB7F89488EA93E022
:10313000FC015191CF0168E02BB9000000C057FF9E
:103140003BB9550F000000C000C000C03BB900C033
:103150006A9591F7F4E08A349F0751F74FBF8FE5E6
:1031600094E00197F1F700C000001092A7030895C2
:10317000B0E0A0E0EEEBF8E10C949D357C015B0142
:103180006A018091280301E010E08A3010F40AE01F
:1031900010E0C1E0D0E0B501C701F6010995811149
:1031A00004C021960C171D072CF4CDB7DEB7EAE05A
:1031B0000C94B935CC9F9001CD9F300D300D11246A
:1031C00090E080E045E34A95F1F700000196821710
:1031D0009307C1F7E0CF1F93CF93DF93182FD0E071
:1031E000C0E0893311F4C0E5D0E0812F0E94C617FA
:1031F000209739F4812F0E949C17DF91CF911F9166
:1032000008958FE99FE00197F1F700C00000219732
:10321000EFCF0E94AB142FEF84E39CE0215080405D
:103220009040E1F700C0000088E19AE00FB6F89402
:10323000A895809360000FBE90936000FFCFCF935E
:10324000C82F6FEF811164E285E290E00E9487361B
:103250006FEFC11162E086E290E00E9487366FEF67
:10326000C11161E087E290E00E948736CF91089516
:10327000CF93DF93C9EAD1E060E0CE010E948736A8
:103280002196C11584E0D807B9F7DF91CF91089551
:103290001F93CF93DF93122F8430E0F46830D0F483
:1032A0004630C0F4C42FD0E0CC0FDD1F9CE0699FF6
:1032B000C00DD11D112490E6899FC00DD11D112490
:1032C000632FCE0189960E948736612FCE018A96A0
:1032D0000E948736DF91CF911F910895AF92BF92E0
:1032E000CF92DF92EF92FF921F93CF93DF9382E012
:1032F000C82E84E0D82ED0E07601C0E014C0F501DD
:1033000025913491412F6C2F8D2F0E94481982E016
:10331000A80EB11C1F5F163091F78CE0E80EF11C6F
:10332000CF5FC83019F0570110E0E9CFDF5F80E6CA
:10333000C80ED11CD43001F7DF91CF911F91FF90BF
:10334000EF90DF90CF90BF90AF90089580E00E9403
:103350001F1960E088E290E00E9487360E946E1993
:103360000E94381981E00E941F19089585E290E0BB
:103370000E946936843289F486E290E00E946936C0
:10338000823059F487E290E00E94693691E0813002
:1033900009F090E0892F8170089580E0FCCF0F93B1
:1033A0001F93CF93DF93843030F5683020F546309B
:1033B00010F5C42FD0E0CC0FDD1F2CE0629FC00DB4
:1033C000D11D112430E6839FC00DD11D1124CE01E3
:1033D00089960E946936082F10E0102F0027CE0131
:1033E0008A960E9469369801282BC901DF91CF91F6
:1033F0001F910F91089590E080E0F8CF462F78302C
:1034000040F4663030F4843020F4672F0E94CF19E6
:10341000089590E080E00895CF92DF92FF920F939D
:103420001F93CF93DF936C01009140038091F102D1
:10343000082BC3E0D0E010E0FC2EC8010C2E02C027
:10344000959587950A94E2F780FD0CC02197A0F727
:10345000F12C8F2DDF91CF911F910F91FF90DF9075
:10346000CF900895B6018C2F0E94FE190E946B1117
:10347000019761F3EECFCF93DF93EC010E940C1A1A
:10348000BE010E94FE190E946B11DF91CF91089539
:10349000FC0124812223C1F0808191810E943B1A8A
:1034A00092959F70963091F058F4925F9F70923091
:1034B00058F4803F19F030F4883E30F481E00895EC
:1034C0009A5FF4CF843FD1F380E00895883EB0F353
:1034D000813FD1F7F3CFA6E0B0E0E1E7FAE10C9449
:1034E000A43549835A8349815A819923A1F0222323
:1034F00091F0CA010E940C1A182F682F89819A81B5
:103500000E94F51269817A81812F0E94FE19269608
:10351000E3E00C94C035CA010E94C112182FF2CF0B
:10352000B0E0A0E0E6E9FAE10C949F356C017B0184
:1035300064E670E088E70E94DF328C01E601EC0C63
:10354000FD1C17FD0BC0FE01849164E670E00E9433
:103550004B338C012196CE15DF0599F70E94C133BC
:1035600081E00115110509F080E0CDB7DEB7E8E094
:103570000C94BB3580914E0490914F04911103C07F
:1035800091E089270895882369F062E070E080E087
:1035900094E00E94901A811103C080914E04089516
:1035A00010924E0480914E04EBCFCF93C0914E0405
:1035B00080914F048823D1F00E946E07605A7541B4
:1035C0008F4F9F4F60934A0470934B0480934C0439
:1035D00090934D04C11108C062E070E08EEF93E05B
:1035E0000E94901A811105C0C0914E048C2FCF917A
:1035F000089581E080934E04F7CF48E050E068E101
:1036000070E084EB94E00E9477361092A603089550
:10361000B0E0A0E0EEE0FBE10C9497356091A203EE
:103620007091A3038091A4039091A5030E94591067
:103630006B017C010E943F104B015C018092A20350
:103640009092A303A092A403B092A503A091790342
:10365000E9E7F3E08A2F90E04FEF5FEF60E070E082
:103660004C195D096E097F09A9131BC0809379036A
:103670008091B404C82FC37019F0C82FC695C695A1
:10368000909141019130B9F19923F1F0923009F410
:10369000D6C2933009F4DCC2CDB7DEB7E0E10C94BA
:1036A000B335218D328D2901712C612C44155505BE
:1036B0006605770520F481509F5F3296D5CF2C0D9B
:1036C0003D1D328F218FF8CF109243018092B004BC
:1036D0009092B104A092B204B092B30489E2E9E7F7
:1036E000F3E0ACEBB4E001900D928A95E1F781E054
:1036F00080934101D1CF90914001C91322C08370C2
:1037000020913F0130E091E08217130609F490E028
:10371000892F8170809345018091B9049091440173
:10372000981739F08093440140E060E080E00E9407
:103730001E0BC83290F4EC2FF0E0E954F94C0C94D5
:103740002D3681E0E6CF80914501882309F47DC0C4
:1037500040E060E080E00E941E0B80E076C0809137
:1037600043010E941509082FD92F6091B50470916B
:10377000B6048091B7040E94CA0CF62EE72ED82E0C
:1037800010E00D1710F08D2F5EC0F801E75BFD4FC4
:10379000808190914401892331F02D2D4F2D6E2D84
:1037A000C8010E941B0B0F5F1F4FEBCF809143019D
:1037B0000E941509082FD92FE090B604F090B704A5
:1037C0001091B504612F7E2D8F2D0E94CA0CD62E2C
:1037D000C72EB82E6091B804610F7E2D8F2D0E94E8
:1037E000CA0CF62EE72EA82E10E00D1760F6F80191
:1037F000E75BFD4F908180914401892359F02A2D88
:103800004F2D6E2D90FD03C02B2D4D2D6C2DC8011D
:103810000E941B0B0F5F1F4FE8CF809143010E9456
:103820001509F92EE090B604D090B7042091B804A1
:10383000D0E43D2F329F312D1124D32F082F10E0DB
:103840000F15C8F08F2D0E94BC0C9091430121E010
:10385000290F209343018111EEC182E08093410141
:10386000809145018111E7C1CC2309F4EFC1892F73
:103870000E94150911CFF801E75BFD4F80819091FF
:1038800044018923B9F0F801EE0FFF1FE355FE4F05
:1038900081A982958F706091B5048D9F600D112470
:1038A0007E2D8D2D0E94CA0C462F282F672FC80110
:1038B0000E941B0B0F5F1F4FC3CF809143010E94DB
:1038C0001509F92EE090B604D090B7042091B80401
:1038D000D0E43D2F329F312D1124D32F082F10E03B
:1038E0000F1508F0AFCFF801E75BFD4F8081909195
:1038F00044018923D9F0F801EE0FFF1FE355FE4F75
:1039000060A9D69FB001112495E0759567959A95A9
:10391000E1F78091B504680F7E2D8D2D0E94CA0CB1
:10392000462F282F672FC8010E941B0B0F5F1F4FC8
:10393000D7CF809143010E941509082FD92FF0900D
:10394000B5041091B604E090B7046091B804669590
:10395000669566958091B0049091B1040E94B20C76
:103960000E94030C805887FD8195880F282F3E2DDB
:10397000239F212D1124822F6F2D712F0E94CA0C9D
:10398000F62EE72ED82E10E00D1708F0FCCEF80129
:10399000E75BFD4F808190914401892331F02D2D0B
:1039A0004F2D6E2DC8010E941B0B0F5F1F4FECCFD8
:1039B00082EF9AE00E94BE0E48CF88EC9AE0FACFE0
:1039C00085EE9BE00E94B40F40CF86EC9BE0FACFDF
:1039D0008BEA9BE00E944F0F38CF8FE89BE0FACF35
:1039E00086EC9AE0E7CF8DEB9AE0E4CF84EB9AE0A7
:1039F000E1CF8BE99AE0DECF8DE89AE0EBCF8AE861
:103A00009CE0E0CF8EE79BE0DDCF8AE69BE0E2CF53
:103A100080E69AE00E94010F18CF82E39AE0FACF85
:103A20008BEF99E0F7CF809143010E941509D92FC0
:103A300090914501911120C06091B80420E1620F7E
:103A400008F46FEF8091B0049091B1040E94B20C21
:103A50006AE070E00E948135892B09F094CE0E94C3
:103A6000450C26E3829FC001112460914401892FF7
:103A700090E00E945E0D87CE082F10E0ED2EF12C15
:103A80000E151F050CF07FCE60914401C8010E9405
:103A90005E0D0F5F1F4FF4CF809143010E94150907
:103AA000D92F90914501911120C06091B80420E177
:103AB000620F08F46FEF8091B0049091B1040E94FE
:103AC000B20C65E070E00E948135892B09F05BCE75
:103AD0000E94450C36E3839FC0011124609144018C
:103AE000892F90E00E9402104ECE082F10E0ED2E9C
:103AF000F12C0E151F050CF046CE60914401C80153
:103B00000E9402100F5F1F4FF4CF809143010E946B
:103B10001509082FD92FE090B604F090B704109142
:103B2000B5046091B8046695669566958091B00479
:103B30009091B1040E94B20C0E94030C805887FD42
:103B40008195880F682F2CE0629F612D1124610FF1
:103B50007E2D8F2D0E94CA0CF62EE72ED82E10E057
:103B60000D1708F010CEF801E75BFD4F80819091B2
:103B70004401892331F02D2D4F2D6E2DC8010E9457
:103B80001B0B0F5F1F4FECCF82E29CE013CF8AEE3E
:103B900099E010CF83EE99E00E94560E56CE8DED3F
:103BA00099E0FACF8091BC0421E0382F321B08F451
:103BB00030E0832F64EC79E00E94990D46CE64ECEE
:103BC00079E080E0F9CF8091BC0421E0382F321BEE
:103BD00008F430E0832F69E879E0EECF69E879E016
:103BE000F0CF8091BC0421E0382F321B08F430E084
:103BF000832F67E579E0E0CF67E579E0E2CF809158
:103C0000BC0421E0382F321B08F430E0832F6FE32F
:103C100079E0D2CF6FE379E0D4CF8091BC0421E08A
:103C2000382F321B08F430E0832F69E279E0C4CFEB
:103C300069E279E0C6CFCC2309F42ECD18CEC0932B
:103C40004001837080933F010E948B1883E050CD28
:103C50008091A60381110E94FD1A6091B0047091B9
:103C6000B1048091B2049091B3040E945910603164
:103C700071058105910508F40FCD109241010CCD1D
:103C8000E4EBF4E085E38083809146019091470165
:103C9000A091480181839283A3838FE784838FEF70
:103CA00085830E94FD1A08959091590492FB222762
:103CB00020F9281779F080FB92F9909359046091CC
:103CC00058047091590484E090E00E94A53682E087
:103CD0000E945C13089590E080E00E947136863E59
:103CE0009E4F19F40E94B619089580E00895A4E04B
:103CF000B0E0EDE7FEE10C94A43540912003509133
:103D0000210360912203709123032FB7F8948091CF
:103D10005B0490915C04A0915D04B0915E042FBFA0
:103D2000841B950BA60BB70B11E084369105A105FA
:103D3000B10570F10E943F106E5F7F4F8F4F9F4F14
:103D400069837A838B839C838091190190911A01F6
:103D5000865F9C4F4091180150E04530510510F0AE
:103D600044E050E0BE016F5F7F4F0E94503683E019
:103D700090E00E940B35182F882351F00E946E07A7
:103D80006093200370932103809322039093230375
:103D9000812F2496E3E00C94C035EF92FF921F939D
:103DA000CF93DF9300D000D00F92CDB7DEB77B0169
:103DB00090E080E00E940B35182F882309F487C01B
:103DC0004091030150E04115510511F041E050E0F0
:103DD0006091040170910501665F7C4FCE010596EC
:103DE0000E945036409102035091030360910403F6
:103DF000709105032FB7F89480915B0490915C0457
:103E0000A0915D04B0915E042FBF841B950BA60B9F
:103E1000B70B84369105A105B10540F48BE093E022
:103E20000E94E8059D81891709F451C081E090E066
:103E30000E940B3581111AC010E08091FE02909112
:103E4000FF02A0910003B0910103F70180839183E9
:103E5000A283B383812F0F900F900F900F900F903C
:103E6000DF91CF911F91FF90EF90089540910B014A
:103E700050E04530510510F044E050E060910C01F5
:103E800070910D01665F7C4FCE0101960E94503605
:103E90008BE093E00E94E8059D818913CDCF0E94BD
:103EA0006E0760930203709303038093040390935F
:103EB000050389819A81AB81BC818093FE02909336
:103EC000FF02A0930003B093010311E0B6CF8091ED
:103ED0000B0390910C03A0910D03B0910E03898305
:103EE0009A83AB83BC831111E4CFA7CF4F925F922B
:103EF0006F927F928F929F92AF92BF92EF92FF92BA
:103F00000F931F93CF93DF937B01FB014080518080
:103F1000628073809FB7F89480905B0490905C04FB
:103F2000A0905D04B0905E049FBF84189508A60819
:103F3000B708F4E68F169104A104B10418F4C1E0A7
:103F4000442329F1C82F880FDD0BFE0183E0EE0F1B
:103F5000FF1F8A95E1F7E050FF4F81819281865FD4
:103F60009C4F408150E00417150708F4A801B901DF
:103F70000E945036CE010E940B35C82F882339F09D
:103F80000E946E07F70160837183828393838C2F75
:103F9000DF91CF911F910F91FF90EF90BF90AF9065
:103FA0009F908F907F906F905F904F900895A9E0C1
:103FB000B0E0EDEDFFE10C94A33588E0E4EBF4E034
:103FC000DE01119601900D928A95E1F7198649E07C
:103FD00050E067E173E0CE0101960E94433641E074
:103FE000892B09F440E009E010E09E012F5F3F4F6C
:103FF00064E273E084E00E94761F2996E4E00C946A
:10400000BF350F931F93CF93DF93EC0144E050E053
:104010006FE073E00E94433641E0892B09F440E0F1
:1040200004E010E09E0166E073E082E00E94761FEB
:10403000DF91CF911F910F910895A8E0B0E0E3E2E6
:10404000F0E20C94A53566EE7EEF90E080E00E94F1
:10405000A53660E082E090E00E94873681E08093A0
:10406000F10261E083E090E00E94873660E074E155
:1040700084E090E00E94A53660E086E090E00E9437
:1040800087366FEF87E090E00E94873640E050E08F
:10409000BA0188E090E00E94993660E084E290E006
:1040A0000E94873660E087E190E00E94873660E0FA
:1040B0008CE090E00E94873660E08DE090E00E9406
:1040C000873619821A821B821C821D821E821F82E1
:1040D000188648E050E068E170E0CE0101960E9449
:1040E000773640E050E0BA0180E290E00E949936D5
:1040F00080E00E941F190E94A61940E050E0BA011A
:104100008FE090E00E94993640E050E0BA0183E1F0
:1041100090E00E9499362896E2E00C94C1351F92F7
:104120000F920FB60F9211242F933F934F935F93EB
:104130006F937F938F939F93AF93BF93CF93DF93AF
:10414000EF93FF93D091E900DF708091EC00C82FCE
:10415000C17080FDC0E81092E9008091F000877F77
:104160008093F00078940E94CD141092E900809121
:10417000F00088608093F000CD2BCF70C093E900F1
:10418000FF91EF91DF91CF91BF91AF919F918F916F
:104190007F916F915F914F913F912F910F900FBE43
:1041A0000F901F9018951F920F920FB60F92112427
:1041B0002F933F934F935F936F937F938F939F932F
:1041C000AF93BF93EF93FF938091E10082FF09C00B
:1041D0008091E20082FF05C08091E1008B7F809397
:1041E000E1008091DA0080FF24C08091D80080FF38
:1041F00020C08091DA008E7F8093DA008091D90010
:1042000080FF9DC080E189BD82E189BD09B400FEC7
:10421000FDCF81E080936C0480915F04811109C01F
:104220000E94FF050E94A0068091E20084608093B6
:10423000E2008091E10080FF17C08091E20080FFE2
:1042400013C08091E2008E7F8093E2008091E200B3
:1042500080618093E2008091D80080628093D800D2
:1042600019BC85E080936C048091E10084FF2BC031
:104270008091E20084FF27C080E189BD82E189BD91
:1042800089B5982F917080FFFBCF8091D8008F7DEA
:104290008093D8008091E1008F7E8093E10080912F
:1042A000E2008F7E8093E2008091E2008160809343
:1042B000E20080916D04882309F447C084E0809374
:1042C0006C0480916C048091E10083FF27C0809191
:1042D000E20083FF23C08091E100877F8093E100AB
:1042E00082E080936C0410926D048091E1008E7FD7
:1042F0008093E1008091E2008E7F8093E2008091C4
:10430000E20080618093E20042E060E080E00E9491
:104310006E068091F00088608093F000FF91EF912D
:10432000BF91AF919F918F917F916F915F914F91CD
:104330003F912F910F900FBE0F901F90189519BCB1
:1043400010926C0410925F0474CF8091E30087FD9B
:1043500093E090936C04B5CF78941F921FB61F9290
:1043600011248F939F93AF93BF9380915B0490919F
:104370005C04A0915D04B0915E040196A11DB11D85
:1043800080935B0490935C04A0935D04B0935E04FF
:10439000BF91AF919F918F911F901FBE1F90189555
:1043A0009C014FB7F89480915B0490915C04A091BC
:1043B0005D04B0915E044FBF821B930B08952FB72D
:1043C000F89480915B0490915C04A0915D04B0919D
:1043D0005E042FBF08950F931F93CF93DF93C62FD3
:1043E000D42F022FFC0185818823A9F06093E70474
:1043F0000E94DF219093E6048093E504C77081E07A
:1044000001C0880FCA95EAF70E949217DF91CF91F9
:104410001F910F9108958091E704681332C0809135
:10442000E5049091E6040E94D021883C910548F56E
:1044300010E21D0FCD17B9F080E28C0F883040F4E8
:10444000C77081E001C0880FCA95EAF70E948B17F8
:10445000183048F481E09D2F977001C0880F9A951D
:10446000EAF70E949217802F0E94EB18183070F61E
:10447000D77081E001C0880FDA95EAF70E948B17A8
:10448000C5CFC77081E001C0880FCA95EAF7F6CFA3
:10449000A8E0B0E0EEE4F2E20C9497358C01DC0188
:1044A00014968C911497882309F4B8C021E04C919C
:1044B00011965C91119712966C91129713967C91BC
:1044C000139715969C910E946B1A7C01F8019581B7
:1044D000992309F493C5970137572038310508F01F
:1044E00036C1FFE0FE1508F489C08FEF93E00E940B
:1044F0006936811183C069EAA62EBB24B394E1100A
:1045000047C0FE01339686E0DF011D928A95E9F7E8
:104510005AE0452E7501BFEFEB1AFB0AC5010E9458
:10452000693689831A82882309F468C0813009F0CA
:1045300079C06501E2E0CE0ED11CC7010E94693648
:104540008A83882309F45AC09FEF980F933070F53F
:10455000F3E0AF0EB11CC6010E9469368B8388233D
:1045600009F44CC01C82DE0111967D01F701208107
:10457000222381F2213009F095C09181828191300E
:1045800009F052C0F2E0EF0EF11C0E94EB1853C08C
:10459000A11424E0B20691F1C5010E94693681118F
:1045A00001C0EA943FEFA31AB30AA9CF56018430A1
:1045B000D1F642E0E42EF12C56012FEFA21AB20AF6
:1045C000C6010E946936E1E0F0E0EC0FFD1FEE0D40
:1045D000FF1D8083882391F08C3741F4E2E0F0E006
:1045E000EC0FFD1FEE0DFF1D1082BDCF3FEFE31A54
:1045F000F30A650187E0E816F104F1F68091C5023F
:10460000877061F0D80115968C91882339F08091DC
:10461000590482FF03C082E00E945C132896E0E107
:104620000C94B33557019FCF923049F422E0E20E4B
:10463000F11C0E94C617EFEFEE1AFE0A97CF9330D7
:1046400031F432E0E30EF11C0E949C17F4CF943059
:1046500021F08FEFE81AF80AEECF92E0E90EF11C94
:1046600030E020E0B7016F5F7F4FD70111964C918A
:104670008053990B8A30910550F021503109D8F2BE
:10468000EFE9FFE03197F1F700C00000F6CF429E5E
:10469000F001439EF00D11249C012E0F3F1F842F2B
:1046A0007B01E0CFE22FF0E0E155FE4F5490822FE6
:1046B00086958695869590E0FC01E156FE4F6490C4
:1046C0002770712C022E02C0759467940A94E2F749
:1046D00031E063227724FC01E157FE4F8490912C56
:1046E000022E02C0959487940A94E2F7A1E08A22F0
:1046F0009924FC01E158FE4FC490D12C02C0D594FE
:10470000C7942A95E2F7B1E0CB22DD24611471044D
:1047100019F081EE0E94C6178114910419F086EEFB
:104720000E94C617852D0E94EB188114910419F080
:1047300086EE0E949C176114710419F081EE0E94AC
:104740009C17C114D10409F476CF8CE21ECF81816D
:1047500080934B03808180934A0380E280933501EC
:10476000F0924903E09248039701305221153042FC
:1047700028F48681807FB1F0F7010BC09701305497
:1047800021153041C8F4D80116968C91807FF7012D
:1047900009F0FF27ED33F10528F4E15DFD4FE491C9
:1047A000E0933501F701E851FC47E730F10578F572
:1047B000E152F94C0C942D3697013A9521153F4161
:1047C000D8F29701205A32452032310558F3F701CB
:1047D000E1CF26E241EE61EEC8010E94EB210ECF4F
:1047E00027E245EE65EEF8CF26E241EE60EEF4CF2B
:1047F00027E245EE64EEF0CF26E241EE62EEECCF2A
:1048000027E245EE66EEE8CF28E241E0EBCF1092DA
:10481000E704970130572332310508F00AC484E0D9
:1048200090E00E9471369093590480935804F701E8
:10483000E150F047E232F10520F4EA51F94C0C94D2
:104840002D368091580481608093580495C08091E2
:1048500059048860809359048FC080915804826005
:10486000F3CF809158048460EFCF80915804886022
:10487000EBCF809159048160EDCF80915904826023
:10488000E9CF809158048061DFCF80915804806225
:10489000DBCF809158048064D7CF0E94AB14809105
:1048A00058048068D1CF809158048C60CDCF80911E
:1048B00059048360CFCF809158048E7FC5CF8091FB
:1048C0005904877FC7CF809158048D7FBDCF8091D9
:1048D00058048B7FB9CF80915804877FB5CF8091E2
:1048E00059048E7FB7CF809159048D7FB3CF8091CB
:1048F00058048F7EA9CF809158048F7DA5CF8091D9
:1049000058048F7BA1CF0E94AB14809158048F77FD
:104910009BCF80915804837F97CF809159048C7FDF
:1049200099CF8091580482FB992790F921E0922732
:1049300090FB82F990FB83F987CF80915904982FDF
:10494000909591708E7F892B90FB81F983CF909108
:104950005804892F8F7B96FF806476CF0E94AB141A
:1049600090915804892F97FB87F980586DCF61E0AB
:104970008EE090E00E94873660915804709159044F
:1049800084E090E00E94A5360E94AB1437CE60E030
:10499000EFCF90915804892F8F7E94FF806154CF80
:1049A00090915804892F8E7F90FF81604DCF909118
:1049B0005904892F877F93FF88604CCF85E34AC3D2
:1049C0008091AA02811104C089E20E947A0744C33F
:1049D00085E3FBCF992309F41EC3B7E7EB16BCE7C9
:1049E000FB0609F4CCC082E0E8E7EE16ECE7FE0631
:1049F00009F4C6C033E0E3163CE7F30609F4EDC062
:104A000008F0CCC0E1149CE7F90609F4D9C0A1E094
:104A1000EA16ACE7FA0609F05EC00E940919809117
:104A2000B40491E089278093B404109241018091ED
:104A3000A60381608093A603E1CD4EEF58E069E0C4
:104A400079E00E943408DACD49E059E06EEF78E071
:104A5000F8CF4FEC58E06AED78E0F3CF4AED58E03C
:104A60006FEC78E0EECF43EB58E061EC78E0E9CF13
:104A700041EC58E063EB78E0E4CF47E958E065EAC1
:104A800078E0DFCF45EA58E067E978E0DACF48E63A
:104A900058E066E778E0D5CF46E758E068E678E08A
:104AA000D0CF61E081E00E94E508A8CD61E085E01B
:104AB000FACF61E08DE0F7CF61E082E1F4CFF7E774
:104AC000EF16FCE7FF0609F463C028E7E2162CE7BF
:104AD000F20609F461C0F8018581E080F180882345
:104AE00009F48EC0C7010E940C1AD82E682FC70186
:104AF0000E94F512B7018D2D0E94FE190E946B11C4
:104B00007C01882ED8011596AC90159716969C902E
:104B100092943FE093228091C502877009F1CA2CDC
:104B2000AA20F9F08F2D807F803469F080E28E0D0D
:104B30008830B0F08F2D807E803229F4B1E0BE1530
:104B400078F4992069F08091590482FF09C082E0CD
:104B50000E945C138091C5028770CC24C39481119C
:104B6000C12CBF2CB2942FE0B222EBE0EB1508F47D
:104B7000AFC0EB2DF0E0E85FF84C0C942D3681E0EF
:104B80000E94731343E062E081E00E942F1336CD50
:104B900081E00E944F13F6CF82E0FBCFBBE5EB161E
:104BA000BCE7FB0659F1ECE5EE16ECE7FE06E1F09A
:104BB000FAE5EF16FCE7FF0609F08DCF81E01BC098
:104BC0000E94AB142FEF34E38CE021503040804042
:104BD000E1F700C000000E945D076FEF7FEF90E0FB
:104BE00080E00E94A53619CF8091590482FB882766
:104BF00080F991E089270E94541E6DCF80E0FBCFA1
:104C0000C7010E94C112D82E75CFFF2DFF70DF2E75
:104C10008F2D807F19F0D29490EFD922AA20B9F07D
:104C2000DD2069F080E28E0D883010F0811009C01F
:104C30008091F002D82AD092F0020E9459148E2D51
:104C400045C08091C702D82AD092C702F6CF8E2DD8
:104C50000E949C17DD20E1F180E28E0D883010F07B
:104C6000811004C08D2D0E94891206C0D0948091BD
:104C7000C702D822D092C7020E94591429C02F2DF2
:104C80002F70D22E8F2D807F803219F0D29480EF3A
:104C9000D822882059F031E0831609F481C0AA2077
:104CA00009F48DC0992009F44FC0C9CF80915904EF
:104CB00082FD46C0AA20F1F1DD2039F08091F0029A
:104CC000D82AD092F0020E94591480E00E94C617A0
:104CD000AB2DA850BB0B149710F40E942308CC20D6
:104CE000A9F08091C50280FD11C0F801158286955A
:104CF000869586950E947313C8010E944822809170
:104D0000C5028695869586950E944F1320E0D801AE
:104D10004C9111965C91119712966C911297139683
:104D20007C91139714968C91149715969C910E94E0
:104D30006B1A74CC80E00E949C17DD2049F292CF60
:104D4000AA20A1F0911004C08D2D0E949217C0CF0F
:104D500081E09812BDCF8091C6029D2D9823D9166F
:104D600009F4B6CFD82AD092C602B2CF9110B0CFF4
:104D70008D2D0E948B179091C6028D2D892329F0CD
:104D80008D2D809589238093C6028091AB029D2D45
:104D9000982309F49DCFD094D822D092AB0298CF1B
:104DA000AA2029F095E0991508F492CFCDCFA4E080
:104DB000A91508F48DCF8D2D0E948B1789CF9920CE
:104DC000D1F3B9E38B1213C1EFEFF7EE23E0E1501B
:104DD000F0402040E1F700C0000009C18F2D86950A
:104DE0008695837061F0813009F072CFC7019370AE
:104DF000A11002C080E090E00E94D90769CFC701EE
:104E00009370A11002C080E090E00E94FE0760CF86
:104E10008F2D837091F5A1105BCF4E2D4295469555
:104E20004770440F440F8E2D8F70042E01C0880FE1
:104E30000A94EAF72E2D2071E4FE07C02FE030E03F
:104E400001C0220F4A95EAF720953F2D36953695F9
:104E50003370323069F050F44091F102313029F072
:104E6000822B84230E947F1333CF842B822BFACF93
:104E7000282B8091F1028227F5CF8695AA2011F088
:104E80008F2D8170882309F423CF4E2D42954695AE
:104E90004770440F440F8E2D8F70042E01C0880F71
:104EA0000A94EAF72E2D2071E4FE07C02FE030E0CF
:104EB00001C0220F4A95EAF720953F2D3695369589
:104EC0003370323069F050F440914003313029F0B2
:104ED000822B84230E942C13FBCE842B822BFACFAF
:104EE000282B809140038227F5CF3F2D3F70F32E72
:104EF000AA2029F0832F0E9473138E2D26CF8E2D8A
:104F00000E948B178F2D0E944F13E2CE8E2D92EFB1
:104F10008916B1F1981570F0A0EF8A16D1F0B1EFB3
:104F20008B1691F0AA2009F45DC0911088CE8F2DC8
:104F30008F712AC0E3EF8E1651F1F4EF8F12F2CF8A
:104F40008091590482FD2FC08F2D8F71AA20D9F234
:104F50001BC0AA2081F024E0291508F4B9CE2F2D1A
:104F60002F7181E090E001C0880F2A95EAF79091B7
:104F700040038927AFCF35E0391508F4A9CEEFCF2C
:104F80008F2D8F71A110BFCF0E947313A1CE80E02F
:104F9000AA2009F49FCF9F2D9F7181E001C0880F47
:104FA0009A95EAF797CFAA2091F08F2D8F71F82E5E
:104FB0000E9473138091590482FF07C0A8E0FA9EF3
:104FC000C001112483608093C5028F2DDDCF81E065
:104FD0000E945C13B1E0B91508F07ACE82E00E941D
:104FE0005C1376CE992039F0893309F4EDCE8E2DFD
:104FF0000E949C176DCE8F2D8F7185CFF701E851E0
:10500000FC47E730F10508F4D3CBE6E1EE16ECE718
:10501000FE0609F4D5CC8091F0028272F701E052CD
:10502000F847E531F10508F04ACDEC5EF84C0C94F8
:105030002D36F6E1EF16FCE7FF0609F0CBCC8091A8
:10504000F0028A7A91E009F490E09093AA0281112B
:10505000B5CC89E20E94A5070E945914CFCACF930C
:10506000DF938091C402807F09F04DC08091C3021C
:10507000882309F448C0E091AF0450917604C091B0
:10508000BF02D091BE026091C0027091C10247E0A0
:105090005E17C9F18E2F90E0E49FF0011124E958CA
:1050A000FB4F2481222391F1489FF001499FF00D8D
:1050B0001124DF01A958BB4F11962C9111972C1385
:1050C00025C02C912D1322C015962C9115972111D6
:1050D0001DC012962D913C91261B370B283C3105A3
:1050E000A8F48091C4028F7080618093C402E35859
:1050F000FB4F80818F70806180838EEB92E00E94F5
:1051000048220E94B712DF91CF910895FC01319699
:10511000E770BECFA4E1B0E0E0E9F8E20C949B3583
:105120008C0186E0F801DE011F9601900D928A95B0
:10513000E1F7F8018481E5809EEBA92E92E0B92E7B
:105140009091C202911128C0882319F1EE20F1F04C
:10515000C8010E94481AF82E8823C1F087E0F801A0
:10516000D50101900D928A95E1F78091C2028130BC
:1051700031F48091BE029091BF020E943B1A0E94BE
:105180002F288F2D6496ECE00C94B735C8010E944F
:105190004822FF24F394F5CFD080C1808280938091
:1051A000F090C3022091C0023091C102A401421BC1
:1051B000530BFF2009F4D9C0483C510508F092C0B8
:1051C0008823F9F29091BF028091C402282F207F9A
:1051D00009F056C0C91214C09091BE02D91210C075
:1051E000E11048C08F7080618093C4028EEB92E022
:1051F0000E9448228091C402F8018683F12CC1CF1D
:10520000E11038C06C2D8D2D0E94C9056C2D8D2D9F
:105210000E94C905E82E8111F1CFDF86C88A8F85EB
:1052200098890E943B1A292F22952F70243058F418
:105230009F70223088F0992399F0F8019681907F31
:1052400079F4FE2C9ECF2A5F2F70223068F0C801BF
:105250000E944822EF2CF5CF992311F0882389F37F
:10526000805E883070F3F3CF803F58F3815F8330E6
:1052700070F7E7CF8091C40281608093C402BECFF3
:10528000C91207C09091BE02D91203C0EE2009F4E2
:105290008DC0C8010E94481A882309F477CFEE20F8
:1052A00009F474CF8091C402803288F02091BE024C
:1052B0003091BF02398728879B868A869091C202E7
:1052C0009C871D868E87CE0108960E94482287E023
:1052D000F801AEEBB2E001900D928A95E1F70E94E1
:1052E0002F2857CF9091C402292F207F51F48EEBA5
:1052F00092E00E94482287E0F50111928A95E9F731
:105300007DCF882309F43DCF8091BF028C1110C05E
:105310008091BE02D8120CC0E1100AC09683C80169
:105320000E94482287E0F50111928A95E9F729CF7A
:10533000C8010E94481A882309F428CFEE2009F4F6
:1053400025CF8091C402803210F22091BE023091AC
:10535000BF023A8329839C828B829091C2029D83F3
:105360001E828F83CE010196B0CF483C5105D0F606
:10537000882309F40ECFFE2CEE2009F407CF80918C
:10538000BF028C1120C08091BE02D8121CC0809137
:10539000C40280FD0FC0982F907F61F08683903FFC
:1053A00031F0982F907F905F8F70892B8683C80192
:1053B0000E94482287E0F801AEEBB2E001900D9226
:1053C0008A95E1F7DECEC8010E94481A81117FCF8D
:1053D0008091C40281608093C402C8010E94482267
:1053E000D0CEABE1B0E0E7EFF9E20C94A3354E8B01
:1053F0005F8B688F798F8A8F9B8F192F91111092F5
:10540000C7021D8A86E0FE017696DE011F96019096
:105410000D928A95E1F70A8D002341F021E04F8536
:10542000588969897A89C8010E946B1A0B8B1C8B79
:1054300087E0FE013F96DE01189601900D928A9555
:10544000E1F7CE0108960E948A2881110CC087E0FE
:10545000FE013896DE01119601900D928A95E1F7D2
:105460008C8581110BC017E08091AF049091760478
:10547000891331C06B96E4E00C94BF35209176041B
:1054800030E0C9010196877099274091AF04481711
:10549000190699F097E0929FD001939FB00D1124C7
:1054A000A958BB4FFE01319601900D929A95E1F7F4
:1054B000809376040E94B712D6CF0E94AB1410924C
:1054C00076041092AF0487E0EEEBF2E0DF011D926C
:1054D0008A95E9F7C8CF819FC001112489589B4F55
:1054E0000E948A28882331F28091AF0490E00196CF
:1054F000877099278093AF04B7CFACE0B0E0E3E8C2
:10550000FAE20C949A358E010F5F1F4F88E0D801A4
:105510001D928A95E9F784E8C82E81E0D82EF12CF7
:10552000E12CAA24A394B12C2EE8822E21E0922E05
:10553000F60181916F018F3F09F442C0F894E82F82
:10554000E295EF70F0E021A18F70A50102C0440F39
:10555000551F8A95E2F7CA01922F982B91A392A129
:105560008095892382A3789400C0E8E8F1E0712C4B
:1055700031E021912F3F09F4A3C0A22FA295AF7073
:10558000B0E090968C9190E02F7002C09595879531
:105590002A95E2F780FD94C0832F782A330F8E1668
:1055A0009F0639F7F601319780818F3F11F00E94F5
:1055B000281050EA5A95F1F7F801EE0DFF1D7082A0
:1055C0008FEFE81AF80A94E0E916F10409F0B0CF79
:1055D00048E050E0B8018DE293E00E944336009726
:1055E00041F028E0F801ADE2B3E001900D922A9578
:1055F000E1F70091360310E00F581C4F892B09F496
:1056000061C081E08093F6020E94DF219093F50251
:105610008093F402F12CE0905004EE2009F4ACC029
:1056200019861A861B861C86809128038A3008F00A
:105630006DC04DEC5EE1BE01675F7F4FC8010E9407
:10564000B818882309F487C041E050E2BE01675FC3
:105650007F4FC8010E94B818882309F47CC047E72F
:105660005EE1BE01675F7F4FC8010E94B8188823C2
:1056700009F471C047ED5FE1BE01675F7F4FC8016C
:105680000E94B818882309F466C0109228038091FC
:10569000350390E044E050E0BE01675F7F4F8F58D4
:1056A0009C4F0E94433621E02093FD02892B09F094
:1056B00044C0E12C8E2D8F292C96EDE00C94B6354C
:1056C00080E06BCFF090F602FF2009F4A3CF809129
:1056D000F4029091F5020E94D021059708F49ACF28
:1056E00044E050E06DE273E0C8010E944336892B2C
:1056F00059F084E0EDE2F3E0D80101900D928A9533
:10570000E1F71092F60287CFF12CFBCF8091F702E0
:105710009091F8020E94D021843F914008F089CFF7
:105720008091FD02882329F2FE01399684E0DF0191
:105730001D928A95E9F71092FD02E0913503F0E0A1
:10574000EF58FC4F89859A85AB85BC858083918312
:10575000A283B383AFCF809128038F3F31F08F5F57
:10576000809328038A3008F492CF0E94DF2190931F
:10577000F8028093F702D4CFC0903503D12CF60104
:10578000EF58FC4F6F0184E0F801ABE0B3E001900B
:105790000D928A95E1F78BE093E00E94E8058093F3
:1057A0000A0384E0EFE0F3E0D60101900D928A95C0
:1057B000E1F78090130390901403A0901503B0902C
:1057C00016038091F9029091FA02A091FB02B09128
:1057D000FC0288169906AA06BB06B1F08092F9026F
:1057E0009092FA02A092FB02B092FC020E946E0715
:1057F000861A970AA80AB90A8092290390922A0366
:10580000A0922B03B0922C0388E0E7E1F3E0A4EB35
:10581000B4E001900D928A95E1F74CCFA6E0B0E09C
:10582000E4E1FCE20C94A3350E94DF218C0180911D
:10583000F2029091F3028017910781F019821A8287
:105840000E94DF21682F49815A81792F80E090E002
:105850000E94F1291093F3020093F2022696E4E0ED
:105860000C94BF351F921FB61F9211248F939F93E4
:10587000AF93BF9380915A04811113C080915B0450
:1058800090915C04A0915D04B0915E044196A11DCD
:10589000B11D80935B0490935C04A0935D04B0936E
:1058A0005E04BF91AF919F918F911F901FBE1F907B
:1058B0001895CDB7DEB7AA970FB6F894DEBF0FBE26
:1058C000CDBF85B7806885BF85B7806885BF84B741
:1058D000877F84BF0FB6F894A89580916000886197
:1058E00080936000109260000FBE80E890E00FB6D9
:1058F000F89480936100909361000FBE86E290E17E
:1059000090938102809380020E94FF050E94A0066E
:105910008091E20084608093E200789480916C042E
:105920008823A1F01091E9001F709091EC00892F5D
:10593000817090FD80E8182B1092E9008091E800BA
:1059400083FD0E94CD141F701093E90082E084BD96
:1059500093E095BD9AEF97BD80936E001092290356
:1059600010922A0310922B0310922C030E94B61956
:10597000811102C00E94A6198091D8008061809395
:10598000D8002AE12A95F1F700C08091D900182F9C
:10599000117080FD04C00E94FF0510926C041093EA
:1059A0005004109351041093280111110E941F34C8
:1059B000809128018091280194E0811190E09093DA
:1059C000360384E0891B8093350384E90E94281004
:1059D00086E60E94281087E90E94281086EC0E9423
:1059E000281008E811E0D8018D918D018F3F11F04A
:1059F0000E942810B1E00E381B07A9F788E0E1E704
:105A0000F3E0DF01782E1D927A94E9F7EDE2F3E0FE
:105A1000DF011D928A95E9F70E946B1E811102C079
:105A20000E941D2082E090E00E9469368093370337
:105A300084E090E00E94713690935904809358045A
:105A40000E947D2ABFEFE6E7F1E0B150E040F04070
:105A5000E1F700C000000E947D2A80915104E4E03B
:105A60008111E0E0F0E0EF58FC4F808181FF08C039
:105A70006FEF7FEF90E080E00E94A5360E945D0707
:105A800083E090E00E9469360E947F130E946508BF
:105A90001092BC048FEF9FEF9093D6048093D504AF
:105AA0009093D8048093D7049093DA048093D90418
:105AB0009093DC048093DB049093DE048093DD04F8
:105AC0009093E0048093DF049093E2048093E104D8
:105AD0009093E4048093E3041092790390939303EA
